{
  "abi": [
    {
      "inputs": [
        {
          "components": [
            {
              "internalType": "uint256",
              "name": "pubKeyX",
              "type": "uint256"
            },
            {
              "internalType": "uint8",
              "name": "pubKeyYParity",
              "type": "uint8"
            },
            {
              "internalType": "address",
              "name": "nonceTimesGAddr",
              "type": "address"
            }
          ],
          "internalType": "struct IShared.Key",
          "name": "aggKey",
          "type": "tuple"
        },
        {
          "components": [
            {
              "internalType": "uint256",
              "name": "pubKeyX",
              "type": "uint256"
            },
            {
              "internalType": "uint8",
              "name": "pubKeyYParity",
              "type": "uint8"
            },
            {
              "internalType": "address",
              "name": "nonceTimesGAddr",
              "type": "address"
            }
          ],
          "internalType": "struct IShared.Key",
          "name": "govKey",
          "type": "tuple"
        }
      ],
      "stateMutability": "nonpayable",
      "type": "constructor"
    },
    {
      "anonymous": false,
      "inputs": [
        {
          "indexed": false,
          "internalType": "bool",
          "name": "signedByAggKey",
          "type": "bool"
        },
        {
          "components": [
            {
              "internalType": "uint256",
              "name": "pubKeyX",
              "type": "uint256"
            },
            {
              "internalType": "uint8",
              "name": "pubKeyYParity",
              "type": "uint8"
            },
            {
              "internalType": "address",
              "name": "nonceTimesGAddr",
              "type": "address"
            }
          ],
          "indexed": false,
          "internalType": "struct IShared.Key",
          "name": "oldKey",
          "type": "tuple"
        },
        {
          "components": [
            {
              "internalType": "uint256",
              "name": "pubKeyX",
              "type": "uint256"
            },
            {
              "internalType": "uint8",
              "name": "pubKeyYParity",
              "type": "uint8"
            },
            {
              "internalType": "address",
              "name": "nonceTimesGAddr",
              "type": "address"
            }
          ],
          "indexed": false,
          "internalType": "struct IShared.Key",
          "name": "newKey",
          "type": "tuple"
        }
      ],
      "name": "KeyChange",
      "type": "event"
    },
    {
      "inputs": [],
      "name": "getAggregateKey",
      "outputs": [
        {
          "components": [
            {
              "internalType": "uint256",
              "name": "pubKeyX",
              "type": "uint256"
            },
            {
              "internalType": "uint8",
              "name": "pubKeyYParity",
              "type": "uint8"
            },
            {
              "internalType": "address",
              "name": "nonceTimesGAddr",
              "type": "address"
            }
          ],
          "internalType": "struct IShared.Key",
          "name": "",
          "type": "tuple"
        }
      ],
      "stateMutability": "view",
      "type": "function"
    },
    {
      "inputs": [],
      "name": "getGovernanceKey",
      "outputs": [
        {
          "components": [
            {
              "internalType": "uint256",
              "name": "pubKeyX",
              "type": "uint256"
            },
            {
              "internalType": "uint8",
              "name": "pubKeyYParity",
              "type": "uint8"
            },
            {
              "internalType": "address",
              "name": "nonceTimesGAddr",
              "type": "address"
            }
          ],
          "internalType": "struct IShared.Key",
          "name": "",
          "type": "tuple"
        }
      ],
      "stateMutability": "view",
      "type": "function"
    },
    {
      "inputs": [],
      "name": "getLastValidateTime",
      "outputs": [
        {
          "internalType": "uint256",
          "name": "",
          "type": "uint256"
        }
      ],
      "stateMutability": "view",
      "type": "function"
    },
    {
      "inputs": [
        {
          "internalType": "enum IShared.KeyID",
          "name": "keyID",
          "type": "uint8"
        },
        {
          "internalType": "uint256",
          "name": "nonce",
          "type": "uint256"
        }
      ],
      "name": "isNonceUsedByKey",
      "outputs": [
        {
          "internalType": "bool",
          "name": "",
          "type": "bool"
        }
      ],
      "stateMutability": "view",
      "type": "function"
    },
    {
      "inputs": [
        {
          "components": [
            {
              "internalType": "uint256",
              "name": "msgHash",
              "type": "uint256"
            },
            {
              "internalType": "uint256",
              "name": "sig",
              "type": "uint256"
            },
            {
              "internalType": "uint256",
              "name": "nonce",
              "type": "uint256"
            }
          ],
          "internalType": "struct IShared.SigData",
          "name": "sigData",
          "type": "tuple"
        },
        {
          "internalType": "bytes32",
          "name": "contractMsgHash",
          "type": "bytes32"
        },
        {
          "internalType": "enum IShared.KeyID",
          "name": "keyID",
          "type": "uint8"
        }
      ],
      "name": "isValidSig",
      "outputs": [
        {
          "internalType": "bool",
          "name": "",
          "type": "bool"
        }
      ],
      "stateMutability": "nonpayable",
      "type": "function"
    },
    {
      "inputs": [
        {
          "components": [
            {
              "internalType": "uint256",
              "name": "msgHash",
              "type": "uint256"
            },
            {
              "internalType": "uint256",
              "name": "sig",
              "type": "uint256"
            },
            {
              "internalType": "uint256",
              "name": "nonce",
              "type": "uint256"
            }
          ],
          "internalType": "struct IShared.SigData",
          "name": "sigData",
          "type": "tuple"
        },
        {
          "components": [
            {
              "internalType": "uint256",
              "name": "pubKeyX",
              "type": "uint256"
            },
            {
              "internalType": "uint8",
              "name": "pubKeyYParity",
              "type": "uint8"
            },
            {
              "internalType": "address",
              "name": "nonceTimesGAddr",
              "type": "address"
            }
          ],
          "internalType": "struct IShared.Key",
          "name": "newKey",
          "type": "tuple"
        }
      ],
      "name": "setAggKeyWithAggKey",
      "outputs": [],
      "stateMutability": "nonpayable",
      "type": "function"
    },
    {
      "inputs": [
        {
          "components": [
            {
              "internalType": "uint256",
              "name": "msgHash",
              "type": "uint256"
            },
            {
              "internalType": "uint256",
              "name": "sig",
              "type": "uint256"
            },
            {
              "internalType": "uint256",
              "name": "nonce",
              "type": "uint256"
            }
          ],
          "internalType": "struct IShared.SigData",
          "name": "sigData",
          "type": "tuple"
        },
        {
          "components": [
            {
              "internalType": "uint256",
              "name": "pubKeyX",
              "type": "uint256"
            },
            {
              "internalType": "uint8",
              "name": "pubKeyYParity",
              "type": "uint8"
            },
            {
              "internalType": "address",
              "name": "nonceTimesGAddr",
              "type": "address"
            }
          ],
          "internalType": "struct IShared.Key",
          "name": "newKey",
          "type": "tuple"
        }
      ],
      "name": "setAggKeyWithGovKey",
      "outputs": [],
      "stateMutability": "nonpayable",
      "type": "function"
    },
    {
      "inputs": [
        {
          "components": [
            {
              "internalType": "uint256",
              "name": "msgHash",
              "type": "uint256"
            },
            {
              "internalType": "uint256",
              "name": "sig",
              "type": "uint256"
            },
            {
              "internalType": "uint256",
              "name": "nonce",
              "type": "uint256"
            }
          ],
          "internalType": "struct IShared.SigData",
          "name": "sigData",
          "type": "tuple"
        },
        {
          "components": [
            {
              "internalType": "uint256",
              "name": "pubKeyX",
              "type": "uint256"
            },
            {
              "internalType": "uint8",
              "name": "pubKeyYParity",
              "type": "uint8"
            },
            {
              "internalType": "address",
              "name": "nonceTimesGAddr",
              "type": "address"
            }
          ],
          "internalType": "struct IShared.Key",
          "name": "newKey",
          "type": "tuple"
        }
      ],
      "name": "setGovKeyWithGovKey",
      "outputs": [],
      "stateMutability": "nonpayable",
      "type": "function"
    }
  ],
  "bytecode": "608060405234801561001057600080fd5b506040516110eb3803806110eb83398101604081905261002f916101b9565b6000808052602081815283517fad3228b676f7d3cd4284a5443f17f1962b36e491b30a40b2405849e597ba5fb555808401517fad3228b676f7d3cd4284a5443f17f1962b36e491b30a40b2405849e597ba5fb6805460409687015160ff1991821660ff94851617610100600160a81b03199081166101006001600160a01b0393841681029190911790945560019687905287517fada5013122d395ba3c54772283fb069b10426056ef8ca54750cb9bb552a59e7d55948701517fada5013122d395ba3c54772283fb069b10426056ef8ca54750cb9bb552a59e7e80549890990151979092169190931617909216931602919091179091554290556101ed565b60006060828403121561013f578081fd5b604051606081016001600160401b038111828210171561016d57634e487b7160e01b83526041600452602483fd5b806040525080915082518152602083015160ff8116811461018d57600080fd5b602082015260408301516001600160a01b03811681146101ac57600080fd5b6040919091015292915050565b60008060c083850312156101cb578182fd5b6101d5848461012e565b91506101e4846060850161012e565b90509250929050565b610eef806101fc6000396000f3fe608060405234801561001057600080fd5b50600436106100885760003560e01c80638aa623591161005b5780638aa62359146100ee578063cd1b4d2014610101578063d5b9c03614610137578063dd30304c1461013f57610088565b806353f0bb611461008d5780636768485e146100a35780637f5586cc146100c657806381dc37d6146100db575b600080fd5b6001546040519081526020015b60405180910390f35b6100b66100b1366004610bd0565b610152565b604051901515815260200161009a565b6100d96100d4366004610ca9565b6101c0565b005b6100d96100e9366004610ca9565b6103b7565b6100b66100fc366004610c6d565b6104bc565b61010961073b565b604080518251815260208084015160ff1690820152918101516001600160a01b03169082015260600161009a565b6101096107c3565b6100d961014d366004610ca9565b6107e7565b60006002600084600181111561017857634e487b7160e01b600052602160045260246000fd5b600181111561019757634e487b7160e01b600052602160045260246000fd5b81526020808201929092526040908101600090812085825290925290205460ff16905092915050565b6101cf36829003820182610bf9565b80516101f65760405162461bcd60e51b81526004016101ed90610d94565b60405180910390fd5b60408101516001600160a01b03166102205760405162461bcd60e51b81526004016101ed90610d5f565b6202a300600154426102329190610e0c565b10156102805760405162461bcd60e51b815260206004820152601c60248201527f4b65794d616e616765723a206e6f7420656e6f7567682064656c61790000000060448201526064016101ed565b6040805160608101825260008082526020820152818501358183015290518491631fd561b360e21b916102b891908690602401610dcb565b60408051601f198184030181529190526020810180516001600160e01b03166001600160e01b031990931692909217825251902060016102f98383836104bc565b61030257600080fd5b7fbb1864971e5c451203cc671f7d755eaf2ea5013cbdc3622b1a3db8a0ce708f6b60008080805b600181111561034857634e487b7160e01b600052602160045260246000fd5b81526020019081526020016000208760405161036693929190610d1b565b60405180910390a184600080805b600181111561039357634e487b7160e01b600052602160045260246000fd5b815260200190815260200160002081816103ad9190610e39565b5050505050505050565b6103c636829003820182610bf9565b80516103e45760405162461bcd60e51b81526004016101ed90610d94565b60408101516001600160a01b031661040e5760405162461bcd60e51b81526004016101ed90610d5f565b60408051606081018252600080825260208201528185013581830152905184916340ee1beb60e11b9161044691908690602401610dcb565b60408051601f198184030181529190526020810180516001600160e01b03166001600160e01b031990931692909217825251902060006104878383836104bc565b61049057600080fd5b7fbb1864971e5c451203cc671f7d755eaf2ea5013cbdc3622b1a3db8a0ce708f6b600160008080610329565b6000806000808460018111156104e257634e487b7160e01b600052602160045260246000fd5b600181111561050157634e487b7160e01b600052602160045260246000fd5b8152602080820192909252604090810160002081516060810183528154815260019091015460ff8116938201939093526101009092046001600160a01b0316908201529050843584146105965760405162461bcd60e51b815260206004820152601b60248201527f4b65794d616e616765723a20696e76616c6964206d736748617368000000000060448201526064016101ed565b6105b785600001358660200135836000015184602001518560400151610931565b6106035760405162461bcd60e51b815260206004820152601760248201527f4b65794d616e616765723a2053696720696e76616c696400000000000000000060448201526064016101ed565b6002600084600181111561062757634e487b7160e01b600052602160045260246000fd5b600181111561064657634e487b7160e01b600052602160045260246000fd5b81526020808201929092526040908101600090812088830135825290925290205460ff16156106b75760405162461bcd60e51b815260206004820152601e60248201527f4b65794d616e616765723a206e6f6e636520616c72656164792075736564000060448201526064016101ed565b4260019081556002600085838111156106e057634e487b7160e01b600052602160045260246000fd5b60018111156106ff57634e487b7160e01b600052602160045260246000fd5b8152602080820192909252604090810160009081208983013582529092529020805460ff191691151591909117905550600190505b9392505050565b60408051606081018252600080825260208201819052918101829052908060015b600181111561077b57634e487b7160e01b600052602160045260246000fd5b8152602080820192909252604090810160002081516060810183528154815260019091015460ff8116938201939093526101009092046001600160a01b031690820152919050565b6040805160608101825260008082526020820181905291810182905290808061075c565b6107f636829003820182610bf9565b80516108145760405162461bcd60e51b81526004016101ed90610d94565b60408101516001600160a01b031661083e5760405162461bcd60e51b81526004016101ed90610d5f565b604080516060810182526000808252602082015281850135818301529051849163374c0c1360e21b9161087691908690602401610dcb565b60408051601f198184030181529190526020810180516001600160e01b03166001600160e01b031990931692909217825251902060016108b78383836104bc565b6108c057600080fd5b6001600090815260208190526040517fbb1864971e5c451203cc671f7d755eaf2ea5013cbdc3622b1a3db8a0ce708f6b9161091e917fada5013122d395ba3c54772283fb069b10426056ef8ca54750cb9bb552a59e7d908990610d1b565b60405180910390a1846000806001610374565b600061095e7f7fffffffffffffffffffffffffffffff5d576e7357a4501ddfe92f46681b20a06001610df4565b84106109a55760405162461bcd60e51b81526020600482015260166024820152755075626c69632d6b65792078203e3d2048414c465f5160501b60448201526064016101ed565b70014551231950b75fc4402da1732fc9bebe198510610a065760405162461bcd60e51b815260206004820152601c60248201527f536967206d7573742062652072656475636564206d6f64756c6f20510000000060448201526064016101ed565b6001600160a01b03821615801590610a1e5750600084115b8015610a2a5750600085115b8015610a365750600086115b610a7b5760405162461bcd60e51b8152602060048201526016602482015275139bc81e995c9bc81a5b9c1d5d1cc8185b1b1bddd95960521b60448201526064016101ed565b60408051602080820187905260f886901b6001600160f81b0319168284015260418201899052606085901b6bffffffffffffffffffffffff1916606183015282516055818403018152607590920190925280519101206000600170014551231950b75fc4402da1732fc9bebe19888809610b079070014551231950b75fc4402da1732fc9bebe19610e0c565b60ff871615610b1757601c610b1a565b601b5b8870014551231950b75fc4402da1732fc9bebe198a87096040805160008152602081018083529590955260ff909316928401929092526060830152608082015260a0016020604051602081039080840390855afa158015610b7f573d6000803e3d6000fd5b5050604051601f1901516001600160a01b03868116911614935050505095945050505050565b803560028110610bb457600080fd5b919050565b600060608284031215610bca578081fd5b50919050565b60008060408385031215610be2578182fd5b610beb83610ba5565b946020939093013593505050565b600060608284031215610c0a578081fd5b6040516060810181811067ffffffffffffffff82111715610c3957634e487b7160e01b83526041600452602483fd5b604052823581526020830135610c4e81610eaa565b60208201526040830135610c6181610e92565b60408201529392505050565b600080600060a08486031215610c81578081fd5b610c8b8585610bb9565b925060608401359150610ca060808501610ba5565b90509250925092565b60008060c08385031215610cbb578182fd5b610cc58484610bb9565b9150610cd48460608501610bb9565b90509250929050565b803582526020810135610cef81610eaa565b60ff1660208301526040810135610d0581610e92565b6001600160a01b03166040929092019190915250565b831515815282546020820152600183015460ff8116604083015260081c6001600160a01b0316606082015260e08101610d576080830184610cdd565b949350505050565b6020808252818101527f5368617265643a206e6f6e636554696d6573474164647220697320656d707479604082015260600190565b60208082526018908201527f5368617265643a207075624b65795820697320656d7074790000000000000000604082015260600190565b82518152602080840151908201526040808401519082015260c081016107346060830184610cdd565b60008219821115610e0757610e07610e23565b500190565b600082821015610e1e57610e1e610e23565b500390565b634e487b7160e01b600052601160045260246000fd5b81358155600181016020830135610e4f81610eaa565b815460ff191660ff91909116178082556040840135610e6d81610e92565b610100600160a81b03199190911660089190911b610100600160a81b03161790555050565b6001600160a01b0381168114610ea757600080fd5b50565b60ff81168114610ea757600080fdfea26469706673582212204b8fe7501403a1813d94bd8da109f0ae3e08df4c7f8a8bfc5077cf27bcae51ae64736f6c63430008020033",
  "bytecodeSha1": "8ecf278dc9c240996c00d2415f3fa677a49ba203",
  "compiler": {
    "evm_version": "istanbul",
    "optimizer": {
      "enabled": true,
      "runs": 200
    },
    "version": "0.8.2+commit.661d1103"
  },
  "contractName": "KeyManager",
  "language": "Solidity",
  "natspec": {
    "author": "Quantaf1re (James Key)",
    "kind": "dev",
    "methods": {
      "getAggregateKey()": {
        "notice": "Get the current aggregate key",
        "returns": {
          "_0": "The Key struct for the aggregate key"
        }
      },
      "getGovernanceKey()": {
        "notice": "Get the current governance key",
        "returns": {
          "_0": "The Key struct for the governance key"
        }
      },
      "getLastValidateTime()": {
        "notice": "Get the last time that a function was called which          required a signature from _aggregateKeyData or _governanceKeyData",
        "returns": {
          "_0": "The last time isValidSig was called, in unix time (uint)"
        }
      },
      "isNonceUsedByKey(uint8,uint256)": {
        "notice": "Get whether or not the specific keyID has used this nonce before          since it cannot be used again",
        "returns": {
          "_0": "Whether the nonce has already been used (bool)"
        }
      },
      "isValidSig((uint256,uint256,uint256),bytes32,uint8)": {
        "details": "It would be nice to split this up, but these checks          need to be made atomicly always. This needs to be available          in this contract and in the Vault etc",
        "notice": "Checks the validity of a signature and msgHash, then updates _lastValidateTime",
        "params": {
          "contractMsgHash": "The hash of the thing being signed but generated by the contract                  to check it against the hash in sigData (bytes32) (here that's normally                  a hash over the calldata to the function with an empty sigData)",
          "keyID": "The KeyID that indicates which key to verify the sig with. Ensures that                  only 'registered' keys can be used to successfully call this fcn and change                  _lastValidateTime",
          "sigData": "The keccak256 hash over the msg (uint) (here that's normally                  a hash over the calldata to the function with an empty sigData) and                  sig over that hash (uint) from the key input"
        },
        "returns": {
          "_0": "Bool used by caller to be absolutely sure that the function hasn't reverted"
        }
      },
      "setAggKeyWithAggKey((uint256,uint256,uint256),(uint256,uint8,address))": {
        "notice": "Set a new aggregate key. Requires a signature from the current aggregate key",
        "params": {
          "newKey": "The new aggregate key to be set. The x component of the pubkey (uint),                  the parity of the y component (uint8), and the nonce times G (address)",
          "sigData": "The keccak256 hash over the msg (uint) (which is the calldata                  for this function with empty msgHash and sig) and sig over that hash                  from the current aggregate key (uint)"
        }
      },
      "setAggKeyWithGovKey((uint256,uint256,uint256),(uint256,uint8,address))": {
        "notice": "Set a new aggregate key. Requires a signature from the current governance key",
        "params": {
          "newKey": "The new aggregate key to be set. The x component of the pubkey (uint),                  the parity of the y component (uint8), and the nonce times G (address)",
          "sigData": "The keccak256 hash over the msg (uint) (which is the calldata                  for this function with empty msgHash and sig) and sig over that hash                  from the current governance key (uint)"
        }
      },
      "setGovKeyWithGovKey((uint256,uint256,uint256),(uint256,uint8,address))": {
        "notice": "Set a new governance key. Requires a signature from the current governance key",
        "params": {
          "newKey": "The new governance key to be set. The x component of the pubkey (uint),                  the parity of the y component (uint8), and the nonce times G (address)",
          "sigData": "The keccak256 hash over the msg (uint) (which is the calldata                  for this function with empty msgHash and sig) and sig over that hash                  from the current governance key (uint)"
        }
      }
    },
    "notice": "Holds the aggregate and governance keys, functions to update them,            and isValidSig so other contracts can verify signatures and updates _lastValidateTime",
    "stateVariables": {
      "_keyIDToKey": {
        "details": "Used to get the key with the keyID. This prevents isValidSig being called         by keys that aren't the aggKey or govKey, which prevents outsiders being         able to change _lastValidateTime"
      },
      "_lastValidateTime": {
        "details": "The last time that a sig was verified (used for a dead man's switch)"
      }
    },
    "title": "KeyManager contract",
    "version": 1
  },
  "opcodes": "PUSH1 0x80 PUSH1 0x40 MSTORE CALLVALUE DUP1 ISZERO PUSH2 0x10 JUMPI PUSH1 0x0 DUP1 REVERT JUMPDEST POP PUSH1 0x4 CALLDATASIZE LT PUSH2 0x88 JUMPI PUSH1 0x0 CALLDATALOAD PUSH1 0xE0 SHR DUP1 PUSH4 0x8AA62359 GT PUSH2 0x5B JUMPI DUP1 PUSH4 0x8AA62359 EQ PUSH2 0xEE JUMPI DUP1 PUSH4 0xCD1B4D20 EQ PUSH2 0x101 JUMPI DUP1 PUSH4 0xD5B9C036 EQ PUSH2 0x137 JUMPI DUP1 PUSH4 0xDD30304C EQ PUSH2 0x13F JUMPI PUSH2 0x88 JUMP JUMPDEST DUP1 PUSH4 0x53F0BB61 EQ PUSH2 0x8D JUMPI DUP1 PUSH4 0x6768485E EQ PUSH2 0xA3 JUMPI DUP1 PUSH4 0x7F5586CC EQ PUSH2 0xC6 JUMPI DUP1 PUSH4 0x81DC37D6 EQ PUSH2 0xDB JUMPI JUMPDEST PUSH1 0x0 DUP1 REVERT JUMPDEST PUSH1 0x1 SLOAD PUSH1 0x40 MLOAD SWAP1 DUP2 MSTORE PUSH1 0x20 ADD JUMPDEST PUSH1 0x40 MLOAD DUP1 SWAP2 SUB SWAP1 RETURN JUMPDEST PUSH2 0xB6 PUSH2 0xB1 CALLDATASIZE PUSH1 0x4 PUSH2 0xBD0 JUMP JUMPDEST PUSH2 0x152 JUMP JUMPDEST PUSH1 0x40 MLOAD SWAP1 ISZERO ISZERO DUP2 MSTORE PUSH1 0x20 ADD PUSH2 0x9A JUMP JUMPDEST PUSH2 0xD9 PUSH2 0xD4 CALLDATASIZE PUSH1 0x4 PUSH2 0xCA9 JUMP JUMPDEST PUSH2 0x1C0 JUMP JUMPDEST STOP JUMPDEST PUSH2 0xD9 PUSH2 0xE9 CALLDATASIZE PUSH1 0x4 PUSH2 0xCA9 JUMP JUMPDEST PUSH2 0x3B7 JUMP JUMPDEST PUSH2 0xB6 PUSH2 0xFC CALLDATASIZE PUSH1 0x4 PUSH2 0xC6D JUMP JUMPDEST PUSH2 0x4BC JUMP JUMPDEST PUSH2 0x109 PUSH2 0x73B JUMP JUMPDEST PUSH1 0x40 DUP1 MLOAD DUP3 MLOAD DUP2 MSTORE PUSH1 0x20 DUP1 DUP5 ADD MLOAD PUSH1 0xFF AND SWAP1 DUP3 ADD MSTORE SWAP2 DUP2 ADD MLOAD PUSH1 0x1 PUSH1 0x1 PUSH1 0xA0 SHL SUB AND SWAP1 DUP3 ADD MSTORE PUSH1 0x60 ADD PUSH2 0x9A JUMP JUMPDEST PUSH2 0x109 PUSH2 0x7C3 JUMP JUMPDEST PUSH2 0xD9 PUSH2 0x14D CALLDATASIZE PUSH1 0x4 PUSH2 0xCA9 JUMP JUMPDEST PUSH2 0x7E7 JUMP JUMPDEST PUSH1 0x0 PUSH1 0x2 PUSH1 0x0 DUP5 PUSH1 0x1 DUP2 GT ISZERO PUSH2 0x178 JUMPI PUSH4 0x4E487B71 PUSH1 0xE0 SHL PUSH1 0x0 MSTORE PUSH1 0x21 PUSH1 0x4 MSTORE PUSH1 0x24 PUSH1 0x0 REVERT JUMPDEST PUSH1 0x1 DUP2 GT ISZERO PUSH2 0x197 JUMPI PUSH4 0x4E487B71 PUSH1 0xE0 SHL PUSH1 0x0 MSTORE PUSH1 0x21 PUSH1 0x4 MSTORE PUSH1 0x24 PUSH1 0x0 REVERT JUMPDEST DUP2 MSTORE PUSH1 0x20 DUP1 DUP3 ADD SWAP3 SWAP1 SWAP3 MSTORE PUSH1 0x40 SWAP1 DUP2 ADD PUSH1 0x0 SWAP1 DUP2 KECCAK256 DUP6 DUP3 MSTORE SWAP1 SWAP3 MSTORE SWAP1 KECCAK256 SLOAD PUSH1 0xFF AND SWAP1 POP SWAP3 SWAP2 POP POP JUMP JUMPDEST PUSH2 0x1CF CALLDATASIZE DUP3 SWAP1 SUB DUP3 ADD DUP3 PUSH2 0xBF9 JUMP JUMPDEST DUP1 MLOAD PUSH2 0x1F6 JUMPI PUSH1 0x40 MLOAD PUSH3 0x461BCD PUSH1 0xE5 SHL DUP2 MSTORE PUSH1 0x4 ADD PUSH2 0x1ED SWAP1 PUSH2 0xD94 JUMP JUMPDEST PUSH1 0x40 MLOAD DUP1 SWAP2 SUB SWAP1 REVERT JUMPDEST PUSH1 0x40 DUP2 ADD MLOAD PUSH1 0x1 PUSH1 0x1 PUSH1 0xA0 SHL SUB AND PUSH2 0x220 JUMPI PUSH1 0x40 MLOAD PUSH3 0x461BCD PUSH1 0xE5 SHL DUP2 MSTORE PUSH1 0x4 ADD PUSH2 0x1ED SWAP1 PUSH2 0xD5F JUMP JUMPDEST PUSH3 0x2A300 PUSH1 0x1 SLOAD TIMESTAMP PUSH2 0x232 SWAP2 SWAP1 PUSH2 0xE0C JUMP JUMPDEST LT ISZERO PUSH2 0x280 JUMPI PUSH1 0x40 MLOAD PUSH3 0x461BCD PUSH1 0xE5 SHL DUP2 MSTORE PUSH1 0x20 PUSH1 0x4 DUP3 ADD MSTORE PUSH1 0x1C PUSH1 0x24 DUP3 ADD MSTORE PUSH32 0x4B65794D616E616765723A206E6F7420656E6F7567682064656C617900000000 PUSH1 0x44 DUP3 ADD MSTORE PUSH1 0x64 ADD PUSH2 0x1ED JUMP JUMPDEST PUSH1 0x40 DUP1 MLOAD PUSH1 0x60 DUP2 ADD DUP3 MSTORE PUSH1 0x0 DUP1 DUP3 MSTORE PUSH1 0x20 DUP3 ADD MSTORE DUP2 DUP6 ADD CALLDATALOAD DUP2 DUP4 ADD MSTORE SWAP1 MLOAD DUP5 SWAP2 PUSH4 0x1FD561B3 PUSH1 0xE2 SHL SWAP2 PUSH2 0x2B8 SWAP2 SWAP1 DUP7 SWAP1 PUSH1 0x24 ADD PUSH2 0xDCB JUMP JUMPDEST PUSH1 0x40 DUP1 MLOAD PUSH1 0x1F NOT DUP2 DUP5 SUB ADD DUP2 MSTORE SWAP2 SWAP1 MSTORE PUSH1 0x20 DUP2 ADD DUP1 MLOAD PUSH1 0x1 PUSH1 0x1 PUSH1 0xE0 SHL SUB AND PUSH1 0x1 PUSH1 0x1 PUSH1 0xE0 SHL SUB NOT SWAP1 SWAP4 AND SWAP3 SWAP1 SWAP3 OR DUP3 MSTORE MLOAD SWAP1 KECCAK256 PUSH1 0x1 PUSH2 0x2F9 DUP4 DUP4 DUP4 PUSH2 0x4BC JUMP JUMPDEST PUSH2 0x302 JUMPI PUSH1 0x0 DUP1 REVERT JUMPDEST PUSH32 0xBB1864971E5C451203CC671F7D755EAF2EA5013CBDC3622B1A3DB8A0CE708F6B PUSH1 0x0 DUP1 DUP1 DUP1 JUMPDEST PUSH1 0x1 DUP2 GT ISZERO PUSH2 0x348 JUMPI PUSH4 0x4E487B71 PUSH1 0xE0 SHL PUSH1 0x0 MSTORE PUSH1 0x21 PUSH1 0x4 MSTORE PUSH1 0x24 PUSH1 0x0 REVERT JUMPDEST DUP2 MSTORE PUSH1 0x20 ADD SWAP1 DUP2 MSTORE PUSH1 0x20 ADD PUSH1 0x0 KECCAK256 DUP8 PUSH1 0x40 MLOAD PUSH2 0x366 SWAP4 SWAP3 SWAP2 SWAP1 PUSH2 0xD1B JUMP JUMPDEST PUSH1 0x40 MLOAD DUP1 SWAP2 SUB SWAP1 LOG1 DUP5 PUSH1 0x0 DUP1 DUP1 JUMPDEST PUSH1 0x1 DUP2 GT ISZERO PUSH2 0x393 JUMPI PUSH4 0x4E487B71 PUSH1 0xE0 SHL PUSH1 0x0 MSTORE PUSH1 0x21 PUSH1 0x4 MSTORE PUSH1 0x24 PUSH1 0x0 REVERT JUMPDEST DUP2 MSTORE PUSH1 0x20 ADD SWAP1 DUP2 MSTORE PUSH1 0x20 ADD PUSH1 0x0 KECCAK256 DUP2 DUP2 PUSH2 0x3AD SWAP2 SWAP1 PUSH2 0xE39 JUMP JUMPDEST POP POP POP POP POP POP POP POP JUMP JUMPDEST PUSH2 0x3C6 CALLDATASIZE DUP3 SWAP1 SUB DUP3 ADD DUP3 PUSH2 0xBF9 JUMP JUMPDEST DUP1 MLOAD PUSH2 0x3E4 JUMPI PUSH1 0x40 MLOAD PUSH3 0x461BCD PUSH1 0xE5 SHL DUP2 MSTORE PUSH1 0x4 ADD PUSH2 0x1ED SWAP1 PUSH2 0xD94 JUMP JUMPDEST PUSH1 0x40 DUP2 ADD MLOAD PUSH1 0x1 PUSH1 0x1 PUSH1 0xA0 SHL SUB AND PUSH2 0x40E JUMPI PUSH1 0x40 MLOAD PUSH3 0x461BCD PUSH1 0xE5 SHL DUP2 MSTORE PUSH1 0x4 ADD PUSH2 0x1ED SWAP1 PUSH2 0xD5F JUMP JUMPDEST PUSH1 0x40 DUP1 MLOAD PUSH1 0x60 DUP2 ADD DUP3 MSTORE PUSH1 0x0 DUP1 DUP3 MSTORE PUSH1 0x20 DUP3 ADD MSTORE DUP2 DUP6 ADD CALLDATALOAD DUP2 DUP4 ADD MSTORE SWAP1 MLOAD DUP5 SWAP2 PUSH4 0x40EE1BEB PUSH1 0xE1 SHL SWAP2 PUSH2 0x446 SWAP2 SWAP1 DUP7 SWAP1 PUSH1 0x24 ADD PUSH2 0xDCB JUMP JUMPDEST PUSH1 0x40 DUP1 MLOAD PUSH1 0x1F NOT DUP2 DUP5 SUB ADD DUP2 MSTORE SWAP2 SWAP1 MSTORE PUSH1 0x20 DUP2 ADD DUP1 MLOAD PUSH1 0x1 PUSH1 0x1 PUSH1 0xE0 SHL SUB AND PUSH1 0x1 PUSH1 0x1 PUSH1 0xE0 SHL SUB NOT SWAP1 SWAP4 AND SWAP3 SWAP1 SWAP3 OR DUP3 MSTORE MLOAD SWAP1 KECCAK256 PUSH1 0x0 PUSH2 0x487 DUP4 DUP4 DUP4 PUSH2 0x4BC JUMP JUMPDEST PUSH2 0x490 JUMPI PUSH1 0x0 DUP1 REVERT JUMPDEST PUSH32 0xBB1864971E5C451203CC671F7D755EAF2EA5013CBDC3622B1A3DB8A0CE708F6B PUSH1 0x1 PUSH1 0x0 DUP1 DUP1 PUSH2 0x329 JUMP JUMPDEST PUSH1 0x0 DUP1 PUSH1 0x0 DUP1 DUP5 PUSH1 0x1 DUP2 GT ISZERO PUSH2 0x4E2 JUMPI PUSH4 0x4E487B71 PUSH1 0xE0 SHL PUSH1 0x0 MSTORE PUSH1 0x21 PUSH1 0x4 MSTORE PUSH1 0x24 PUSH1 0x0 REVERT JUMPDEST PUSH1 0x1 DUP2 GT ISZERO PUSH2 0x501 JUMPI PUSH4 0x4E487B71 PUSH1 0xE0 SHL PUSH1 0x0 MSTORE PUSH1 0x21 PUSH1 0x4 MSTORE PUSH1 0x24 PUSH1 0x0 REVERT JUMPDEST DUP2 MSTORE PUSH1 0x20 DUP1 DUP3 ADD SWAP3 SWAP1 SWAP3 MSTORE PUSH1 0x40 SWAP1 DUP2 ADD PUSH1 0x0 KECCAK256 DUP2 MLOAD PUSH1 0x60 DUP2 ADD DUP4 MSTORE DUP2 SLOAD DUP2 MSTORE PUSH1 0x1 SWAP1 SWAP2 ADD SLOAD PUSH1 0xFF DUP2 AND SWAP4 DUP3 ADD SWAP4 SWAP1 SWAP4 MSTORE PUSH2 0x100 SWAP1 SWAP3 DIV PUSH1 0x1 PUSH1 0x1 PUSH1 0xA0 SHL SUB AND SWAP1 DUP3 ADD MSTORE SWAP1 POP DUP5 CALLDATALOAD DUP5 EQ PUSH2 0x596 JUMPI PUSH1 0x40 MLOAD PUSH3 0x461BCD PUSH1 0xE5 SHL DUP2 MSTORE PUSH1 0x20 PUSH1 0x4 DUP3 ADD MSTORE PUSH1 0x1B PUSH1 0x24 DUP3 ADD MSTORE PUSH32 0x4B65794D616E616765723A20696E76616C6964206D7367486173680000000000 PUSH1 0x44 DUP3 ADD MSTORE PUSH1 0x64 ADD PUSH2 0x1ED JUMP JUMPDEST PUSH2 0x5B7 DUP6 PUSH1 0x0 ADD CALLDATALOAD DUP7 PUSH1 0x20 ADD CALLDATALOAD DUP4 PUSH1 0x0 ADD MLOAD DUP5 PUSH1 0x20 ADD MLOAD DUP6 PUSH1 0x40 ADD MLOAD PUSH2 0x931 JUMP JUMPDEST PUSH2 0x603 JUMPI PUSH1 0x40 MLOAD PUSH3 0x461BCD PUSH1 0xE5 SHL DUP2 MSTORE PUSH1 0x20 PUSH1 0x4 DUP3 ADD MSTORE PUSH1 0x17 PUSH1 0x24 DUP3 ADD MSTORE PUSH32 0x4B65794D616E616765723A2053696720696E76616C6964000000000000000000 PUSH1 0x44 DUP3 ADD MSTORE PUSH1 0x64 ADD PUSH2 0x1ED JUMP JUMPDEST PUSH1 0x2 PUSH1 0x0 DUP5 PUSH1 0x1 DUP2 GT ISZERO PUSH2 0x627 JUMPI PUSH4 0x4E487B71 PUSH1 0xE0 SHL PUSH1 0x0 MSTORE PUSH1 0x21 PUSH1 0x4 MSTORE PUSH1 0x24 PUSH1 0x0 REVERT JUMPDEST PUSH1 0x1 DUP2 GT ISZERO PUSH2 0x646 JUMPI PUSH4 0x4E487B71 PUSH1 0xE0 SHL PUSH1 0x0 MSTORE PUSH1 0x21 PUSH1 0x4 MSTORE PUSH1 0x24 PUSH1 0x0 REVERT JUMPDEST DUP2 MSTORE PUSH1 0x20 DUP1 DUP3 ADD SWAP3 SWAP1 SWAP3 MSTORE PUSH1 0x40 SWAP1 DUP2 ADD PUSH1 0x0 SWAP1 DUP2 KECCAK256 DUP9 DUP4 ADD CALLDATALOAD DUP3 MSTORE SWAP1 SWAP3 MSTORE SWAP1 KECCAK256 SLOAD PUSH1 0xFF AND ISZERO PUSH2 0x6B7 JUMPI PUSH1 0x40 MLOAD PUSH3 0x461BCD PUSH1 0xE5 SHL DUP2 MSTORE PUSH1 0x20 PUSH1 0x4 DUP3 ADD MSTORE PUSH1 0x1E PUSH1 0x24 DUP3 ADD MSTORE PUSH32 0x4B65794D616E616765723A206E6F6E636520616C726561647920757365640000 PUSH1 0x44 DUP3 ADD MSTORE PUSH1 0x64 ADD PUSH2 0x1ED JUMP JUMPDEST TIMESTAMP PUSH1 0x1 SWAP1 DUP2 SSTORE PUSH1 0x2 PUSH1 0x0 DUP6 DUP4 DUP2 GT ISZERO PUSH2 0x6E0 JUMPI PUSH4 0x4E487B71 PUSH1 0xE0 SHL PUSH1 0x0 MSTORE PUSH1 0x21 PUSH1 0x4 MSTORE PUSH1 0x24 PUSH1 0x0 REVERT JUMPDEST PUSH1 0x1 DUP2 GT ISZERO PUSH2 0x6FF JUMPI PUSH4 0x4E487B71 PUSH1 0xE0 SHL PUSH1 0x0 MSTORE PUSH1 0x21 PUSH1 0x4 MSTORE PUSH1 0x24 PUSH1 0x0 REVERT JUMPDEST DUP2 MSTORE PUSH1 0x20 DUP1 DUP3 ADD SWAP3 SWAP1 SWAP3 MSTORE PUSH1 0x40 SWAP1 DUP2 ADD PUSH1 0x0 SWAP1 DUP2 KECCAK256 DUP10 DUP4 ADD CALLDATALOAD DUP3 MSTORE SWAP1 SWAP3 MSTORE SWAP1 KECCAK256 DUP1 SLOAD PUSH1 0xFF NOT AND SWAP2 ISZERO ISZERO SWAP2 SWAP1 SWAP2 OR SWAP1 SSTORE POP PUSH1 0x1 SWAP1 POP JUMPDEST SWAP4 SWAP3 POP POP POP JUMP JUMPDEST PUSH1 0x40 DUP1 MLOAD PUSH1 0x60 DUP2 ADD DUP3 MSTORE PUSH1 0x0 DUP1 DUP3 MSTORE PUSH1 0x20 DUP3 ADD DUP2 SWAP1 MSTORE SWAP2 DUP2 ADD DUP3 SWAP1 MSTORE SWAP1 DUP1 PUSH1 0x1 JUMPDEST PUSH1 0x1 DUP2 GT ISZERO PUSH2 0x77B JUMPI PUSH4 0x4E487B71 PUSH1 0xE0 SHL PUSH1 0x0 MSTORE PUSH1 0x21 PUSH1 0x4 MSTORE PUSH1 0x24 PUSH1 0x0 REVERT JUMPDEST DUP2 MSTORE PUSH1 0x20 DUP1 DUP3 ADD SWAP3 SWAP1 SWAP3 MSTORE PUSH1 0x40 SWAP1 DUP2 ADD PUSH1 0x0 KECCAK256 DUP2 MLOAD PUSH1 0x60 DUP2 ADD DUP4 MSTORE DUP2 SLOAD DUP2 MSTORE PUSH1 0x1 SWAP1 SWAP2 ADD SLOAD PUSH1 0xFF DUP2 AND SWAP4 DUP3 ADD SWAP4 SWAP1 SWAP4 MSTORE PUSH2 0x100 SWAP1 SWAP3 DIV PUSH1 0x1 PUSH1 0x1 PUSH1 0xA0 SHL SUB AND SWAP1 DUP3 ADD MSTORE SWAP2 SWAP1 POP JUMP JUMPDEST PUSH1 0x40 DUP1 MLOAD PUSH1 0x60 DUP2 ADD DUP3 MSTORE PUSH1 0x0 DUP1 DUP3 MSTORE PUSH1 0x20 DUP3 ADD DUP2 SWAP1 MSTORE SWAP2 DUP2 ADD DUP3 SWAP1 MSTORE SWAP1 DUP1 DUP1 PUSH2 0x75C JUMP JUMPDEST PUSH2 0x7F6 CALLDATASIZE DUP3 SWAP1 SUB DUP3 ADD DUP3 PUSH2 0xBF9 JUMP JUMPDEST DUP1 MLOAD PUSH2 0x814 JUMPI PUSH1 0x40 MLOAD PUSH3 0x461BCD PUSH1 0xE5 SHL DUP2 MSTORE PUSH1 0x4 ADD PUSH2 0x1ED SWAP1 PUSH2 0xD94 JUMP JUMPDEST PUSH1 0x40 DUP2 ADD MLOAD PUSH1 0x1 PUSH1 0x1 PUSH1 0xA0 SHL SUB AND PUSH2 0x83E JUMPI PUSH1 0x40 MLOAD PUSH3 0x461BCD PUSH1 0xE5 SHL DUP2 MSTORE PUSH1 0x4 ADD PUSH2 0x1ED SWAP1 PUSH2 0xD5F JUMP JUMPDEST PUSH1 0x40 DUP1 MLOAD PUSH1 0x60 DUP2 ADD DUP3 MSTORE PUSH1 0x0 DUP1 DUP3 MSTORE PUSH1 0x20 DUP3 ADD MSTORE DUP2 DUP6 ADD CALLDATALOAD DUP2 DUP4 ADD MSTORE SWAP1 MLOAD DUP5 SWAP2 PUSH4 0x374C0C13 PUSH1 0xE2 SHL SWAP2 PUSH2 0x876 SWAP2 SWAP1 DUP7 SWAP1 PUSH1 0x24 ADD PUSH2 0xDCB JUMP JUMPDEST PUSH1 0x40 DUP1 MLOAD PUSH1 0x1F NOT DUP2 DUP5 SUB ADD DUP2 MSTORE SWAP2 SWAP1 MSTORE PUSH1 0x20 DUP2 ADD DUP1 MLOAD PUSH1 0x1 PUSH1 0x1 PUSH1 0xE0 SHL SUB AND PUSH1 0x1 PUSH1 0x1 PUSH1 0xE0 SHL SUB NOT SWAP1 SWAP4 AND SWAP3 SWAP1 SWAP3 OR DUP3 MSTORE MLOAD SWAP1 KECCAK256 PUSH1 0x1 PUSH2 0x8B7 DUP4 DUP4 DUP4 PUSH2 0x4BC JUMP JUMPDEST PUSH2 0x8C0 JUMPI PUSH1 0x0 DUP1 REVERT JUMPDEST PUSH1 0x1 PUSH1 0x0 SWAP1 DUP2 MSTORE PUSH1 0x20 DUP2 SWAP1 MSTORE PUSH1 0x40 MLOAD PUSH32 0xBB1864971E5C451203CC671F7D755EAF2EA5013CBDC3622B1A3DB8A0CE708F6B SWAP2 PUSH2 0x91E SWAP2 PUSH32 0xADA5013122D395BA3C54772283FB069B10426056EF8CA54750CB9BB552A59E7D SWAP1 DUP10 SWAP1 PUSH2 0xD1B JUMP JUMPDEST PUSH1 0x40 MLOAD DUP1 SWAP2 SUB SWAP1 LOG1 DUP5 PUSH1 0x0 DUP1 PUSH1 0x1 PUSH2 0x374 JUMP JUMPDEST PUSH1 0x0 PUSH2 0x95E PUSH32 0x7FFFFFFFFFFFFFFFFFFFFFFFFFFFFFFF5D576E7357A4501DDFE92F46681B20A0 PUSH1 0x1 PUSH2 0xDF4 JUMP JUMPDEST DUP5 LT PUSH2 0x9A5 JUMPI PUSH1 0x40 MLOAD PUSH3 0x461BCD PUSH1 0xE5 SHL DUP2 MSTORE PUSH1 0x20 PUSH1 0x4 DUP3 ADD MSTORE PUSH1 0x16 PUSH1 0x24 DUP3 ADD MSTORE PUSH22 0x5075626C69632D6B65792078203E3D2048414C465F51 PUSH1 0x50 SHL PUSH1 0x44 DUP3 ADD MSTORE PUSH1 0x64 ADD PUSH2 0x1ED JUMP JUMPDEST PUSH17 0x14551231950B75FC4402DA1732FC9BEBE NOT DUP6 LT PUSH2 0xA06 JUMPI PUSH1 0x40 MLOAD PUSH3 0x461BCD PUSH1 0xE5 SHL DUP2 MSTORE PUSH1 0x20 PUSH1 0x4 DUP3 ADD MSTORE PUSH1 0x1C PUSH1 0x24 DUP3 ADD MSTORE PUSH32 0x536967206D7573742062652072656475636564206D6F64756C6F205100000000 PUSH1 0x44 DUP3 ADD MSTORE PUSH1 0x64 ADD PUSH2 0x1ED JUMP JUMPDEST PUSH1 0x1 PUSH1 0x1 PUSH1 0xA0 SHL SUB DUP3 AND ISZERO DUP1 ISZERO SWAP1 PUSH2 0xA1E JUMPI POP PUSH1 0x0 DUP5 GT JUMPDEST DUP1 ISZERO PUSH2 0xA2A JUMPI POP PUSH1 0x0 DUP6 GT JUMPDEST DUP1 ISZERO PUSH2 0xA36 JUMPI POP PUSH1 0x0 DUP7 GT JUMPDEST PUSH2 0xA7B JUMPI PUSH1 0x40 MLOAD PUSH3 0x461BCD PUSH1 0xE5 SHL DUP2 MSTORE PUSH1 0x20 PUSH1 0x4 DUP3 ADD MSTORE PUSH1 0x16 PUSH1 0x24 DUP3 ADD MSTORE PUSH22 0x139BC81E995C9BC81A5B9C1D5D1CC8185B1B1BDDD959 PUSH1 0x52 SHL PUSH1 0x44 DUP3 ADD MSTORE PUSH1 0x64 ADD PUSH2 0x1ED JUMP JUMPDEST PUSH1 0x40 DUP1 MLOAD PUSH1 0x20 DUP1 DUP3 ADD DUP8 SWAP1 MSTORE PUSH1 0xF8 DUP7 SWAP1 SHL PUSH1 0x1 PUSH1 0x1 PUSH1 0xF8 SHL SUB NOT AND DUP3 DUP5 ADD MSTORE PUSH1 0x41 DUP3 ADD DUP10 SWAP1 MSTORE PUSH1 0x60 DUP6 SWAP1 SHL PUSH12 0xFFFFFFFFFFFFFFFFFFFFFFFF NOT AND PUSH1 0x61 DUP4 ADD MSTORE DUP3 MLOAD PUSH1 0x55 DUP2 DUP5 SUB ADD DUP2 MSTORE PUSH1 0x75 SWAP1 SWAP3 ADD SWAP1 SWAP3 MSTORE DUP1 MLOAD SWAP2 ADD KECCAK256 PUSH1 0x0 PUSH1 0x1 PUSH17 0x14551231950B75FC4402DA1732FC9BEBE NOT DUP9 DUP9 MULMOD PUSH2 0xB07 SWAP1 PUSH17 0x14551231950B75FC4402DA1732FC9BEBE NOT PUSH2 0xE0C JUMP JUMPDEST PUSH1 0xFF DUP8 AND ISZERO PUSH2 0xB17 JUMPI PUSH1 0x1C PUSH2 0xB1A JUMP JUMPDEST PUSH1 0x1B JUMPDEST DUP9 PUSH17 0x14551231950B75FC4402DA1732FC9BEBE NOT DUP11 DUP8 MULMOD PUSH1 0x40 DUP1 MLOAD PUSH1 0x0 DUP2 MSTORE PUSH1 0x20 DUP2 ADD DUP1 DUP4 MSTORE SWAP6 SWAP1 SWAP6 MSTORE PUSH1 0xFF SWAP1 SWAP4 AND SWAP3 DUP5 ADD SWAP3 SWAP1 SWAP3 MSTORE PUSH1 0x60 DUP4 ADD MSTORE PUSH1 0x80 DUP3 ADD MSTORE PUSH1 0xA0 ADD PUSH1 0x20 PUSH1 0x40 MLOAD PUSH1 0x20 DUP2 SUB SWAP1 DUP1 DUP5 SUB SWAP1 DUP6 GAS STATICCALL ISZERO DUP1 ISZERO PUSH2 0xB7F JUMPI RETURNDATASIZE PUSH1 0x0 DUP1 RETURNDATACOPY RETURNDATASIZE PUSH1 0x0 REVERT JUMPDEST POP POP PUSH1 0x40 MLOAD PUSH1 0x1F NOT ADD MLOAD PUSH1 0x1 PUSH1 0x1 PUSH1 0xA0 SHL SUB DUP7 DUP2 AND SWAP2 AND EQ SWAP4 POP POP POP POP SWAP6 SWAP5 POP POP POP POP POP JUMP JUMPDEST DUP1 CALLDATALOAD PUSH1 0x2 DUP2 LT PUSH2 0xBB4 JUMPI PUSH1 0x0 DUP1 REVERT JUMPDEST SWAP2 SWAP1 POP JUMP JUMPDEST PUSH1 0x0 PUSH1 0x60 DUP3 DUP5 SUB SLT ISZERO PUSH2 0xBCA JUMPI DUP1 DUP2 REVERT JUMPDEST POP SWAP2 SWAP1 POP JUMP JUMPDEST PUSH1 0x0 DUP1 PUSH1 0x40 DUP4 DUP6 SUB SLT ISZERO PUSH2 0xBE2 JUMPI DUP2 DUP3 REVERT JUMPDEST PUSH2 0xBEB DUP4 PUSH2 0xBA5 JUMP JUMPDEST SWAP5 PUSH1 0x20 SWAP4 SWAP1 SWAP4 ADD CALLDATALOAD SWAP4 POP POP POP JUMP JUMPDEST PUSH1 0x0 PUSH1 0x60 DUP3 DUP5 SUB SLT ISZERO PUSH2 0xC0A JUMPI DUP1 DUP2 REVERT JUMPDEST PUSH1 0x40 MLOAD PUSH1 0x60 DUP2 ADD DUP2 DUP2 LT PUSH8 0xFFFFFFFFFFFFFFFF DUP3 GT OR ISZERO PUSH2 0xC39 JUMPI PUSH4 0x4E487B71 PUSH1 0xE0 SHL DUP4 MSTORE PUSH1 0x41 PUSH1 0x4 MSTORE PUSH1 0x24 DUP4 REVERT JUMPDEST PUSH1 0x40 MSTORE DUP3 CALLDATALOAD DUP2 MSTORE PUSH1 0x20 DUP4 ADD CALLDATALOAD PUSH2 0xC4E DUP2 PUSH2 0xEAA JUMP JUMPDEST PUSH1 0x20 DUP3 ADD MSTORE PUSH1 0x40 DUP4 ADD CALLDATALOAD PUSH2 0xC61 DUP2 PUSH2 0xE92 JUMP JUMPDEST PUSH1 0x40 DUP3 ADD MSTORE SWAP4 SWAP3 POP POP POP JUMP JUMPDEST PUSH1 0x0 DUP1 PUSH1 0x0 PUSH1 0xA0 DUP5 DUP7 SUB SLT ISZERO PUSH2 0xC81 JUMPI DUP1 DUP2 REVERT JUMPDEST PUSH2 0xC8B DUP6 DUP6 PUSH2 0xBB9 JUMP JUMPDEST SWAP3 POP PUSH1 0x60 DUP5 ADD CALLDATALOAD SWAP2 POP PUSH2 0xCA0 PUSH1 0x80 DUP6 ADD PUSH2 0xBA5 JUMP JUMPDEST SWAP1 POP SWAP3 POP SWAP3 POP SWAP3 JUMP JUMPDEST PUSH1 0x0 DUP1 PUSH1 0xC0 DUP4 DUP6 SUB SLT ISZERO PUSH2 0xCBB JUMPI DUP2 DUP3 REVERT JUMPDEST PUSH2 0xCC5 DUP5 DUP5 PUSH2 0xBB9 JUMP JUMPDEST SWAP2 POP PUSH2 0xCD4 DUP5 PUSH1 0x60 DUP6 ADD PUSH2 0xBB9 JUMP JUMPDEST SWAP1 POP SWAP3 POP SWAP3 SWAP1 POP JUMP JUMPDEST DUP1 CALLDATALOAD DUP3 MSTORE PUSH1 0x20 DUP2 ADD CALLDATALOAD PUSH2 0xCEF DUP2 PUSH2 0xEAA JUMP JUMPDEST PUSH1 0xFF AND PUSH1 0x20 DUP4 ADD MSTORE PUSH1 0x40 DUP2 ADD CALLDATALOAD PUSH2 0xD05 DUP2 PUSH2 0xE92 JUMP JUMPDEST PUSH1 0x1 PUSH1 0x1 PUSH1 0xA0 SHL SUB AND PUSH1 0x40 SWAP3 SWAP1 SWAP3 ADD SWAP2 SWAP1 SWAP2 MSTORE POP JUMP JUMPDEST DUP4 ISZERO ISZERO DUP2 MSTORE DUP3 SLOAD PUSH1 0x20 DUP3 ADD MSTORE PUSH1 0x1 DUP4 ADD SLOAD PUSH1 0xFF DUP2 AND PUSH1 0x40 DUP4 ADD MSTORE PUSH1 0x8 SHR PUSH1 0x1 PUSH1 0x1 PUSH1 0xA0 SHL SUB AND PUSH1 0x60 DUP3 ADD MSTORE PUSH1 0xE0 DUP2 ADD PUSH2 0xD57 PUSH1 0x80 DUP4 ADD DUP5 PUSH2 0xCDD JUMP JUMPDEST SWAP5 SWAP4 POP POP POP POP JUMP JUMPDEST PUSH1 0x20 DUP1 DUP3 MSTORE DUP2 DUP2 ADD MSTORE PUSH32 0x5368617265643A206E6F6E636554696D6573474164647220697320656D707479 PUSH1 0x40 DUP3 ADD MSTORE PUSH1 0x60 ADD SWAP1 JUMP JUMPDEST PUSH1 0x20 DUP1 DUP3 MSTORE PUSH1 0x18 SWAP1 DUP3 ADD MSTORE PUSH32 0x5368617265643A207075624B65795820697320656D7074790000000000000000 PUSH1 0x40 DUP3 ADD MSTORE PUSH1 0x60 ADD SWAP1 JUMP JUMPDEST DUP3 MLOAD DUP2 MSTORE PUSH1 0x20 DUP1 DUP5 ADD MLOAD SWAP1 DUP3 ADD MSTORE PUSH1 0x40 DUP1 DUP5 ADD MLOAD SWAP1 DUP3 ADD MSTORE PUSH1 0xC0 DUP2 ADD PUSH2 0x734 PUSH1 0x60 DUP4 ADD DUP5 PUSH2 0xCDD JUMP JUMPDEST PUSH1 0x0 DUP3 NOT DUP3 GT ISZERO PUSH2 0xE07 JUMPI PUSH2 0xE07 PUSH2 0xE23 JUMP JUMPDEST POP ADD SWAP1 JUMP JUMPDEST PUSH1 0x0 DUP3 DUP3 LT ISZERO PUSH2 0xE1E JUMPI PUSH2 0xE1E PUSH2 0xE23 JUMP JUMPDEST POP SUB SWAP1 JUMP JUMPDEST PUSH4 0x4E487B71 PUSH1 0xE0 SHL PUSH1 0x0 MSTORE PUSH1 0x11 PUSH1 0x4 MSTORE PUSH1 0x24 PUSH1 0x0 REVERT JUMPDEST DUP2 CALLDATALOAD DUP2 SSTORE PUSH1 0x1 DUP2 ADD PUSH1 0x20 DUP4 ADD CALLDATALOAD PUSH2 0xE4F DUP2 PUSH2 0xEAA JUMP JUMPDEST DUP2 SLOAD PUSH1 0xFF NOT AND PUSH1 0xFF SWAP2 SWAP1 SWAP2 AND OR DUP1 DUP3 SSTORE PUSH1 0x40 DUP5 ADD CALLDATALOAD PUSH2 0xE6D DUP2 PUSH2 0xE92 JUMP JUMPDEST PUSH2 0x100 PUSH1 0x1 PUSH1 0xA8 SHL SUB NOT SWAP2 SWAP1 SWAP2 AND PUSH1 0x8 SWAP2 SWAP1 SWAP2 SHL PUSH2 0x100 PUSH1 0x1 PUSH1 0xA8 SHL SUB AND OR SWAP1 SSTORE POP POP JUMP JUMPDEST PUSH1 0x1 PUSH1 0x1 PUSH1 0xA0 SHL SUB DUP2 AND DUP2 EQ PUSH2 0xEA7 JUMPI PUSH1 0x0 DUP1 REVERT JUMPDEST POP JUMP JUMPDEST PUSH1 0xFF DUP2 AND DUP2 EQ PUSH2 0xEA7 JUMPI PUSH1 0x0 DUP1 REVERT INVALID LOG2 PUSH5 0x6970667358 0x22 SLT KECCAK256 0x4B DUP16 0xE7 POP EQ SUB LOG1 DUP2 RETURNDATASIZE SWAP5 0xBD DUP14 LOG1 MULMOD CREATE 0xAE RETURNDATACOPY ADDMOD 0xDF 0x4C PUSH32 0x8A8BFC5077CF27BCAE51AE64736F6C6343000802003300000000000000000000 ",
  "sha1": "0bfde5b6845a1fbbeaa141fc2f0885119004a9e2",
  "source": "pragma solidity ^0.8.0;\n\n\nimport \"./interfaces/IKeyManager.sol\";\nimport \"./abstract/SchnorrSECP256K1.sol\";\nimport \"./abstract/Shared.sol\";\n\n\n/**\n* @title    KeyManager contract\n* @notice   Holds the aggregate and governance keys, functions to update them, \n*           and isValidSig so other contracts can verify signatures and updates _lastValidateTime\n* @author   Quantaf1re (James Key)\n*/\ncontract KeyManager is SchnorrSECP256K1, Shared, IKeyManager {\n\n    uint constant private _AGG_KEY_TIMEOUT = 2 days;\n\n    /// @dev    Used to get the key with the keyID. This prevents isValidSig being called\n    ///         by keys that aren't the aggKey or govKey, which prevents outsiders being\n    ///         able to change _lastValidateTime\n    mapping(KeyID => Key) private _keyIDToKey;\n    /// @dev    The last time that a sig was verified (used for a dead man's switch)\n    uint private _lastValidateTime;\n    mapping(KeyID => mapping(uint => bool)) private _keyToNoncesUsed;\n\n\n    event KeyChange(\n        bool signedByAggKey,\n        Key oldKey,\n        Key newKey\n    );\n\n\n    constructor(Key memory aggKey, Key memory govKey) {\n        _keyIDToKey[KeyID.Agg] = aggKey;\n        _keyIDToKey[KeyID.Gov] = govKey;\n        _lastValidateTime = block.timestamp;\n    }\n\n\n    //////////////////////////////////////////////////////////////\n    //                                                          //\n    //                  State-changing functions                //\n    //                                                          //\n    //////////////////////////////////////////////////////////////\n\n    /**\n     * @notice  Checks the validity of a signature and msgHash, then updates _lastValidateTime\n     * @dev     It would be nice to split this up, but these checks\n     *          need to be made atomicly always. This needs to be available\n     *          in this contract and in the Vault etc\n     * @param sigData   The keccak256 hash over the msg (uint) (here that's normally\n     *                  a hash over the calldata to the function with an empty sigData) and\n     *                  sig over that hash (uint) from the key input\n     * @param contractMsgHash   The hash of the thing being signed but generated by the contract\n     *                  to check it against the hash in sigData (bytes32) (here that's normally\n     *                  a hash over the calldata to the function with an empty sigData)\n     * @param keyID     The KeyID that indicates which key to verify the sig with. Ensures that\n     *                  only 'registered' keys can be used to successfully call this fcn and change\n     *                  _lastValidateTime\n     * @return          Bool used by caller to be absolutely sure that the function hasn't reverted\n     */\n    function isValidSig(\n        SigData calldata sigData,\n        bytes32 contractMsgHash,\n        KeyID keyID\n    ) public override returns (bool) {\n        Key memory key = _keyIDToKey[keyID];\n        require(sigData.msgHash == uint(contractMsgHash), \"KeyManager: invalid msgHash\");\n        require(\n            verifySignature(\n                sigData.msgHash,\n                sigData.sig,\n                key.pubKeyX,\n                key.pubKeyYParity,\n                key.nonceTimesGAddr\n            ),\n            \"KeyManager: Sig invalid\"\n        );\n        require(!_keyToNoncesUsed[keyID][sigData.nonce], \"KeyManager: nonce already used\");\n        \n        _lastValidateTime = block.timestamp;\n        _keyToNoncesUsed[keyID][sigData.nonce] = true;\n        \n        return true;\n    }\n\n    /**\n     * @notice  Set a new aggregate key. Requires a signature from the current aggregate key\n     * @param sigData   The keccak256 hash over the msg (uint) (which is the calldata\n     *                  for this function with empty msgHash and sig) and sig over that hash\n     *                  from the current aggregate key (uint)\n     * @param newKey    The new aggregate key to be set. The x component of the pubkey (uint),\n     *                  the parity of the y component (uint8), and the nonce times G (address)\n     */\n    function setAggKeyWithAggKey(\n        SigData calldata sigData,\n        Key calldata newKey\n    ) external override nzKey(newKey) validSig(\n        sigData,\n        keccak256(abi.encodeWithSelector(\n            this.setAggKeyWithAggKey.selector,\n            SigData(0, 0, sigData.nonce),\n            newKey\n        )),\n        KeyID.Agg\n    ) {\n        emit KeyChange(true, _keyIDToKey[KeyID.Agg], newKey);\n        _keyIDToKey[KeyID.Agg] = newKey;\n    }\n\n    /**\n     * @notice  Set a new aggregate key. Requires a signature from the current governance key\n     * @param sigData   The keccak256 hash over the msg (uint) (which is the calldata\n     *                  for this function with empty msgHash and sig) and sig over that hash\n     *                  from the current governance key (uint)\n     * @param newKey    The new aggregate key to be set. The x component of the pubkey (uint),\n     *                  the parity of the y component (uint8), and the nonce times G (address)\n     */\n    function setAggKeyWithGovKey(\n        SigData calldata sigData,\n        Key calldata newKey\n    ) external override nzKey(newKey) validTime validSig(\n        sigData,\n        keccak256(abi.encodeWithSelector(\n            this.setAggKeyWithGovKey.selector,\n            SigData(0, 0, sigData.nonce),\n            newKey\n        )),\n        KeyID.Gov\n    ) {\n        emit KeyChange(false, _keyIDToKey[KeyID.Agg], newKey);\n        _keyIDToKey[KeyID.Agg] = newKey;\n    }\n\n    /**\n     * @notice  Set a new governance key. Requires a signature from the current governance key\n     * @param sigData   The keccak256 hash over the msg (uint) (which is the calldata\n     *                  for this function with empty msgHash and sig) and sig over that hash\n     *                  from the current governance key (uint)\n     * @param newKey    The new governance key to be set. The x component of the pubkey (uint),\n     *                  the parity of the y component (uint8), and the nonce times G (address)\n     */\n    function setGovKeyWithGovKey(\n        SigData calldata sigData,\n        Key calldata newKey\n    ) external override nzKey(newKey) validSig(\n        sigData,\n        keccak256(abi.encodeWithSelector(\n            this.setGovKeyWithGovKey.selector,\n            SigData(0, 0, sigData.nonce),\n            newKey\n        )),\n        KeyID.Gov\n    ) {\n        emit KeyChange(false, _keyIDToKey[KeyID.Gov], newKey);\n        _keyIDToKey[KeyID.Gov] = newKey;\n    }\n\n\n    //////////////////////////////////////////////////////////////\n    //                                                          //\n    //                  Non-state-changing functions            //\n    //                                                          //\n    //////////////////////////////////////////////////////////////\n\n\n    /**\n     * @notice  Get the current aggregate key\n     * @return  The Key struct for the aggregate key\n     */\n    function getAggregateKey() external override view returns (Key memory) {\n        return (_keyIDToKey[KeyID.Agg]);\n    }\n\n    /**\n     * @notice  Get the current governance key\n     * @return  The Key struct for the governance key\n     */\n    function getGovernanceKey() external override view returns (Key memory) {\n        return (_keyIDToKey[KeyID.Gov]);\n    }\n\n    /**\n     * @notice  Get the last time that a function was called which\n     *          required a signature from _aggregateKeyData or _governanceKeyData\n     * @return  The last time isValidSig was called, in unix time (uint)\n     */\n    function getLastValidateTime() external override view returns (uint) {\n        return _lastValidateTime;\n    }\n\n    /**\n     * @notice  Get whether or not the specific keyID has used this nonce before\n     *          since it cannot be used again\n     * @return  Whether the nonce has already been used (bool)\n     */\n    function isNonceUsedByKey(KeyID keyID, uint nonce) external override view returns (bool) {\n        return _keyToNoncesUsed[keyID][nonce];\n    }\n\n\n\n    //////////////////////////////////////////////////////////////\n    //                                                          //\n    //                          Modifiers                       //\n    //                                                          //\n    //////////////////////////////////////////////////////////////\n\n    /// @dev    Check that enough time has passed for setAggKeyWithGovKey. Needs\n    ///         to be done as a modifier so that it can happen before validSig\n    modifier validTime() {\n        require(block.timestamp - _lastValidateTime >= _AGG_KEY_TIMEOUT, \"KeyManager: not enough delay\");\n        _;\n    }\n\n    /// @dev    Call isValidSig\n    modifier validSig(\n        SigData calldata sigData,\n        bytes32 contractMsgHash,\n        KeyID keyID\n    ) {\n        require(isValidSig(sigData, contractMsgHash, keyID));\n        _;\n    }\n}\n",
  "sourcePath": "contracts/KeyManager.sol",
  "type": "contract"
}