{
  "abi": [
    {
      "inputs": [
        {
          "internalType": "contract IKeyManager",
          "name": "keyManager",
          "type": "address"
        }
      ],
      "stateMutability": "nonpayable",
      "type": "constructor"
    },
    {
      "anonymous": false,
      "inputs": [
        {
          "indexed": false,
          "internalType": "bool",
          "name": "communityGuardDisabled",
          "type": "bool"
        }
      ],
      "name": "CommunityGuardDisabled",
      "type": "event"
    },
    {
      "anonymous": false,
      "inputs": [
        {
          "indexed": false,
          "internalType": "bool",
          "name": "suspended",
          "type": "bool"
        }
      ],
      "name": "Suspended",
      "type": "event"
    },
    {
      "anonymous": false,
      "inputs": [
        {
          "indexed": false,
          "internalType": "uint256",
          "name": "amount",
          "type": "uint256"
        },
        {
          "indexed": false,
          "internalType": "string",
          "name": "egressParams",
          "type": "string"
        },
        {
          "indexed": false,
          "internalType": "bytes32",
          "name": "egressReceiver",
          "type": "bytes32"
        }
      ],
      "name": "SwapNative",
      "type": "event"
    },
    {
      "anonymous": false,
      "inputs": [
        {
          "indexed": false,
          "internalType": "uint32",
          "name": "dstChain",
          "type": "uint32"
        },
        {
          "indexed": false,
          "internalType": "string",
          "name": "dstAddress",
          "type": "string"
        },
        {
          "indexed": false,
          "internalType": "string",
          "name": "swapIntent",
          "type": "string"
        },
        {
          "indexed": false,
          "internalType": "uint256",
          "name": "amount",
          "type": "uint256"
        },
        {
          "indexed": true,
          "internalType": "address",
          "name": "sender",
          "type": "address"
        }
      ],
      "name": "SwapNative",
      "type": "event"
    },
    {
      "anonymous": false,
      "inputs": [
        {
          "indexed": false,
          "internalType": "address",
          "name": "ingressToken",
          "type": "address"
        },
        {
          "indexed": false,
          "internalType": "uint256",
          "name": "amount",
          "type": "uint256"
        },
        {
          "indexed": false,
          "internalType": "string",
          "name": "egressParams",
          "type": "string"
        },
        {
          "indexed": false,
          "internalType": "bytes32",
          "name": "egressReceiver",
          "type": "bytes32"
        }
      ],
      "name": "SwapToken",
      "type": "event"
    },
    {
      "anonymous": false,
      "inputs": [
        {
          "indexed": false,
          "internalType": "uint32",
          "name": "dstChain",
          "type": "uint32"
        },
        {
          "indexed": false,
          "internalType": "string",
          "name": "dstAddress",
          "type": "string"
        },
        {
          "indexed": false,
          "internalType": "string",
          "name": "swapIntent",
          "type": "string"
        },
        {
          "indexed": false,
          "internalType": "address",
          "name": "srcToken",
          "type": "address"
        },
        {
          "indexed": false,
          "internalType": "uint256",
          "name": "amount",
          "type": "uint256"
        },
        {
          "indexed": true,
          "internalType": "address",
          "name": "sender",
          "type": "address"
        }
      ],
      "name": "SwapToken",
      "type": "event"
    },
    {
      "anonymous": false,
      "inputs": [
        {
          "indexed": false,
          "internalType": "bool",
          "name": "enabled",
          "type": "bool"
        }
      ],
      "name": "SwapsEnabled",
      "type": "event"
    },
    {
      "anonymous": false,
      "inputs": [
        {
          "indexed": true,
          "internalType": "address payable",
          "name": "recipient",
          "type": "address"
        },
        {
          "indexed": false,
          "internalType": "uint256",
          "name": "amount",
          "type": "uint256"
        }
      ],
      "name": "TransferFailed",
      "type": "event"
    },
    {
      "anonymous": false,
      "inputs": [
        {
          "indexed": false,
          "internalType": "address",
          "name": "keyManager",
          "type": "address"
        }
      ],
      "name": "UpdatedKeyManager",
      "type": "event"
    },
    {
      "anonymous": false,
      "inputs": [
        {
          "indexed": false,
          "internalType": "uint32",
          "name": "dstChain",
          "type": "uint32"
        },
        {
          "indexed": false,
          "internalType": "string",
          "name": "dstAddress",
          "type": "string"
        },
        {
          "indexed": false,
          "internalType": "string",
          "name": "swapIntent",
          "type": "string"
        },
        {
          "indexed": false,
          "internalType": "uint256",
          "name": "amount",
          "type": "uint256"
        },
        {
          "indexed": true,
          "internalType": "address",
          "name": "sender",
          "type": "address"
        },
        {
          "indexed": false,
          "internalType": "bytes",
          "name": "message",
          "type": "bytes"
        },
        {
          "indexed": false,
          "internalType": "uint256",
          "name": "dstNativeGas",
          "type": "uint256"
        },
        {
          "indexed": false,
          "internalType": "address",
          "name": "refundAddress",
          "type": "address"
        }
      ],
      "name": "XCallNative",
      "type": "event"
    },
    {
      "anonymous": false,
      "inputs": [
        {
          "indexed": false,
          "internalType": "uint32",
          "name": "dstChain",
          "type": "uint32"
        },
        {
          "indexed": false,
          "internalType": "string",
          "name": "dstAddress",
          "type": "string"
        },
        {
          "indexed": false,
          "internalType": "string",
          "name": "swapIntent",
          "type": "string"
        },
        {
          "indexed": false,
          "internalType": "address",
          "name": "srcToken",
          "type": "address"
        },
        {
          "indexed": false,
          "internalType": "uint256",
          "name": "amount",
          "type": "uint256"
        },
        {
          "indexed": true,
          "internalType": "address",
          "name": "sender",
          "type": "address"
        },
        {
          "indexed": false,
          "internalType": "bytes",
          "name": "message",
          "type": "bytes"
        },
        {
          "indexed": false,
          "internalType": "uint256",
          "name": "dstNativeGas",
          "type": "uint256"
        },
        {
          "indexed": false,
          "internalType": "address",
          "name": "refundAddress",
          "type": "address"
        }
      ],
      "name": "XCallToken",
      "type": "event"
    },
    {
      "anonymous": false,
      "inputs": [
        {
          "indexed": false,
          "internalType": "bool",
          "name": "enabled",
          "type": "bool"
        }
      ],
      "name": "XCallsEnabled",
      "type": "event"
    },
    {
      "inputs": [
        {
          "components": [
            {
              "internalType": "address",
              "name": "keyManAddr",
              "type": "address"
            },
            {
              "internalType": "uint256",
              "name": "chainID",
              "type": "uint256"
            },
            {
              "internalType": "uint256",
              "name": "msgHash",
              "type": "uint256"
            },
            {
              "internalType": "uint256",
              "name": "sig",
              "type": "uint256"
            },
            {
              "internalType": "uint256",
              "name": "nonce",
              "type": "uint256"
            },
            {
              "internalType": "address",
              "name": "kTimesGAddress",
              "type": "address"
            }
          ],
          "internalType": "struct IShared.SigData",
          "name": "sigData",
          "type": "tuple"
        },
        {
          "components": [
            {
              "internalType": "bytes32",
              "name": "swapID",
              "type": "bytes32"
            },
            {
              "internalType": "address",
              "name": "token",
              "type": "address"
            }
          ],
          "internalType": "struct IShared.DeployFetchParams[]",
          "name": "deployFetchParamsArray",
          "type": "tuple[]"
        },
        {
          "components": [
            {
              "internalType": "address payable",
              "name": "fetchContract",
              "type": "address"
            },
            {
              "internalType": "address",
              "name": "token",
              "type": "address"
            }
          ],
          "internalType": "struct IShared.FetchParams[]",
          "name": "fetchParamsArray",
          "type": "tuple[]"
        },
        {
          "components": [
            {
              "internalType": "address",
              "name": "token",
              "type": "address"
            },
            {
              "internalType": "address payable",
              "name": "recipient",
              "type": "address"
            },
            {
              "internalType": "uint256",
              "name": "amount",
              "type": "uint256"
            }
          ],
          "internalType": "struct IShared.TransferParams[]",
          "name": "transferParamsArray",
          "type": "tuple[]"
        }
      ],
      "name": "allBatch",
      "outputs": [],
      "stateMutability": "nonpayable",
      "type": "function"
    },
    {
      "inputs": [
        {
          "components": [
            {
              "internalType": "address",
              "name": "keyManAddr",
              "type": "address"
            },
            {
              "internalType": "uint256",
              "name": "chainID",
              "type": "uint256"
            },
            {
              "internalType": "uint256",
              "name": "msgHash",
              "type": "uint256"
            },
            {
              "internalType": "uint256",
              "name": "sig",
              "type": "uint256"
            },
            {
              "internalType": "uint256",
              "name": "nonce",
              "type": "uint256"
            },
            {
              "internalType": "address",
              "name": "kTimesGAddress",
              "type": "address"
            }
          ],
          "internalType": "struct IShared.SigData",
          "name": "sigData",
          "type": "tuple"
        },
        {
          "components": [
            {
              "internalType": "bytes32",
              "name": "swapID",
              "type": "bytes32"
            },
            {
              "internalType": "address",
              "name": "token",
              "type": "address"
            }
          ],
          "internalType": "struct IShared.DeployFetchParams[]",
          "name": "deployFetchParamsArray",
          "type": "tuple[]"
        }
      ],
      "name": "deployAndFetchBatch",
      "outputs": [],
      "stateMutability": "nonpayable",
      "type": "function"
    },
    {
      "inputs": [],
      "name": "disableCommunityGuard",
      "outputs": [],
      "stateMutability": "nonpayable",
      "type": "function"
    },
    {
      "inputs": [],
      "name": "disablexCalls",
      "outputs": [],
      "stateMutability": "nonpayable",
      "type": "function"
    },
    {
      "inputs": [],
      "name": "enableCommunityGuard",
      "outputs": [],
      "stateMutability": "nonpayable",
      "type": "function"
    },
    {
      "inputs": [],
      "name": "enablexCalls",
      "outputs": [],
      "stateMutability": "nonpayable",
      "type": "function"
    },
    {
      "inputs": [
        {
          "components": [
            {
              "internalType": "address",
              "name": "keyManAddr",
              "type": "address"
            },
            {
              "internalType": "uint256",
              "name": "chainID",
              "type": "uint256"
            },
            {
              "internalType": "uint256",
              "name": "msgHash",
              "type": "uint256"
            },
            {
              "internalType": "uint256",
              "name": "sig",
              "type": "uint256"
            },
            {
              "internalType": "uint256",
              "name": "nonce",
              "type": "uint256"
            },
            {
              "internalType": "address",
              "name": "kTimesGAddress",
              "type": "address"
            }
          ],
          "internalType": "struct IShared.SigData",
          "name": "sigData",
          "type": "tuple"
        },
        {
          "internalType": "address",
          "name": "recipient",
          "type": "address"
        },
        {
          "internalType": "uint32",
          "name": "srcChain",
          "type": "uint32"
        },
        {
          "internalType": "string",
          "name": "srcAddress",
          "type": "string"
        },
        {
          "internalType": "bytes",
          "name": "message",
          "type": "bytes"
        }
      ],
      "name": "executexCall",
      "outputs": [],
      "stateMutability": "nonpayable",
      "type": "function"
    },
    {
      "inputs": [
        {
          "components": [
            {
              "internalType": "address",
              "name": "keyManAddr",
              "type": "address"
            },
            {
              "internalType": "uint256",
              "name": "chainID",
              "type": "uint256"
            },
            {
              "internalType": "uint256",
              "name": "msgHash",
              "type": "uint256"
            },
            {
              "internalType": "uint256",
              "name": "sig",
              "type": "uint256"
            },
            {
              "internalType": "uint256",
              "name": "nonce",
              "type": "uint256"
            },
            {
              "internalType": "address",
              "name": "kTimesGAddress",
              "type": "address"
            }
          ],
          "internalType": "struct IShared.SigData",
          "name": "sigData",
          "type": "tuple"
        },
        {
          "components": [
            {
              "internalType": "address",
              "name": "token",
              "type": "address"
            },
            {
              "internalType": "address payable",
              "name": "recipient",
              "type": "address"
            },
            {
              "internalType": "uint256",
              "name": "amount",
              "type": "uint256"
            }
          ],
          "internalType": "struct IShared.TransferParams",
          "name": "transferParams",
          "type": "tuple"
        },
        {
          "internalType": "uint32",
          "name": "srcChain",
          "type": "uint32"
        },
        {
          "internalType": "string",
          "name": "srcAddress",
          "type": "string"
        },
        {
          "internalType": "bytes",
          "name": "message",
          "type": "bytes"
        }
      ],
      "name": "executexSwapAndCall",
      "outputs": [],
      "stateMutability": "nonpayable",
      "type": "function"
    },
    {
      "inputs": [
        {
          "components": [
            {
              "internalType": "address",
              "name": "keyManAddr",
              "type": "address"
            },
            {
              "internalType": "uint256",
              "name": "chainID",
              "type": "uint256"
            },
            {
              "internalType": "uint256",
              "name": "msgHash",
              "type": "uint256"
            },
            {
              "internalType": "uint256",
              "name": "sig",
              "type": "uint256"
            },
            {
              "internalType": "uint256",
              "name": "nonce",
              "type": "uint256"
            },
            {
              "internalType": "address",
              "name": "kTimesGAddress",
              "type": "address"
            }
          ],
          "internalType": "struct IShared.SigData",
          "name": "sigData",
          "type": "tuple"
        },
        {
          "components": [
            {
              "internalType": "address payable",
              "name": "fetchContract",
              "type": "address"
            },
            {
              "internalType": "address",
              "name": "token",
              "type": "address"
            }
          ],
          "internalType": "struct IShared.FetchParams[]",
          "name": "fetchParamsArray",
          "type": "tuple[]"
        }
      ],
      "name": "fetchBatch",
      "outputs": [],
      "stateMutability": "nonpayable",
      "type": "function"
    },
    {
      "inputs": [],
      "name": "getCommunityGuardDisabled",
      "outputs": [
        {
          "internalType": "bool",
          "name": "",
          "type": "bool"
        }
      ],
      "stateMutability": "view",
      "type": "function"
    },
    {
      "inputs": [],
      "name": "getCommunityKey",
      "outputs": [
        {
          "internalType": "address",
          "name": "",
          "type": "address"
        }
      ],
      "stateMutability": "view",
      "type": "function"
    },
    {
      "inputs": [],
      "name": "getGovernor",
      "outputs": [
        {
          "internalType": "address",
          "name": "",
          "type": "address"
        }
      ],
      "stateMutability": "view",
      "type": "function"
    },
    {
      "inputs": [],
      "name": "getKeyManager",
      "outputs": [
        {
          "internalType": "contract IKeyManager",
          "name": "",
          "type": "address"
        }
      ],
      "stateMutability": "view",
      "type": "function"
    },
    {
      "inputs": [],
      "name": "getSuspendedState",
      "outputs": [
        {
          "internalType": "bool",
          "name": "",
          "type": "bool"
        }
      ],
      "stateMutability": "view",
      "type": "function"
    },
    {
      "inputs": [],
      "name": "getxCallsEnabled",
      "outputs": [
        {
          "internalType": "bool",
          "name": "",
          "type": "bool"
        }
      ],
      "stateMutability": "view",
      "type": "function"
    },
    {
      "inputs": [
        {
          "internalType": "address[]",
          "name": "tokens",
          "type": "address[]"
        }
      ],
      "name": "govWithdraw",
      "outputs": [],
      "stateMutability": "nonpayable",
      "type": "function"
    },
    {
      "inputs": [],
      "name": "resume",
      "outputs": [],
      "stateMutability": "nonpayable",
      "type": "function"
    },
    {
      "inputs": [],
      "name": "suspend",
      "outputs": [],
      "stateMutability": "nonpayable",
      "type": "function"
    },
    {
      "inputs": [
        {
          "components": [
            {
              "internalType": "address",
              "name": "keyManAddr",
              "type": "address"
            },
            {
              "internalType": "uint256",
              "name": "chainID",
              "type": "uint256"
            },
            {
              "internalType": "uint256",
              "name": "msgHash",
              "type": "uint256"
            },
            {
              "internalType": "uint256",
              "name": "sig",
              "type": "uint256"
            },
            {
              "internalType": "uint256",
              "name": "nonce",
              "type": "uint256"
            },
            {
              "internalType": "address",
              "name": "kTimesGAddress",
              "type": "address"
            }
          ],
          "internalType": "struct IShared.SigData",
          "name": "sigData",
          "type": "tuple"
        },
        {
          "components": [
            {
              "internalType": "address",
              "name": "token",
              "type": "address"
            },
            {
              "internalType": "address payable",
              "name": "recipient",
              "type": "address"
            },
            {
              "internalType": "uint256",
              "name": "amount",
              "type": "uint256"
            }
          ],
          "internalType": "struct IShared.TransferParams",
          "name": "transferParams",
          "type": "tuple"
        }
      ],
      "name": "transfer",
      "outputs": [],
      "stateMutability": "nonpayable",
      "type": "function"
    },
    {
      "inputs": [
        {
          "components": [
            {
              "internalType": "address",
              "name": "keyManAddr",
              "type": "address"
            },
            {
              "internalType": "uint256",
              "name": "chainID",
              "type": "uint256"
            },
            {
              "internalType": "uint256",
              "name": "msgHash",
              "type": "uint256"
            },
            {
              "internalType": "uint256",
              "name": "sig",
              "type": "uint256"
            },
            {
              "internalType": "uint256",
              "name": "nonce",
              "type": "uint256"
            },
            {
              "internalType": "address",
              "name": "kTimesGAddress",
              "type": "address"
            }
          ],
          "internalType": "struct IShared.SigData",
          "name": "sigData",
          "type": "tuple"
        },
        {
          "components": [
            {
              "internalType": "address",
              "name": "token",
              "type": "address"
            },
            {
              "internalType": "address payable",
              "name": "recipient",
              "type": "address"
            },
            {
              "internalType": "uint256",
              "name": "amount",
              "type": "uint256"
            }
          ],
          "internalType": "struct IShared.TransferParams[]",
          "name": "transferParamsArray",
          "type": "tuple[]"
        }
      ],
      "name": "transferBatch",
      "outputs": [],
      "stateMutability": "nonpayable",
      "type": "function"
    },
    {
      "inputs": [
        {
          "components": [
            {
              "internalType": "address",
              "name": "keyManAddr",
              "type": "address"
            },
            {
              "internalType": "uint256",
              "name": "chainID",
              "type": "uint256"
            },
            {
              "internalType": "uint256",
              "name": "msgHash",
              "type": "uint256"
            },
            {
              "internalType": "uint256",
              "name": "sig",
              "type": "uint256"
            },
            {
              "internalType": "uint256",
              "name": "nonce",
              "type": "uint256"
            },
            {
              "internalType": "address",
              "name": "kTimesGAddress",
              "type": "address"
            }
          ],
          "internalType": "struct IShared.SigData",
          "name": "sigData",
          "type": "tuple"
        },
        {
          "internalType": "contract IKeyManager",
          "name": "keyManager",
          "type": "address"
        }
      ],
      "name": "updateKeyManager",
      "outputs": [],
      "stateMutability": "nonpayable",
      "type": "function"
    },
    {
      "inputs": [
        {
          "internalType": "uint32",
          "name": "dstChain",
          "type": "uint32"
        },
        {
          "internalType": "string",
          "name": "dstAddress",
          "type": "string"
        },
        {
          "internalType": "string",
          "name": "swapIntent",
          "type": "string"
        },
        {
          "internalType": "bytes",
          "name": "message",
          "type": "bytes"
        },
        {
          "internalType": "uint256",
          "name": "dstNativeGas",
          "type": "uint256"
        },
        {
          "internalType": "address",
          "name": "refundAddress",
          "type": "address"
        }
      ],
      "name": "xCallNative",
      "outputs": [],
      "stateMutability": "payable",
      "type": "function"
    },
    {
      "inputs": [
        {
          "internalType": "uint32",
          "name": "dstChain",
          "type": "uint32"
        },
        {
          "internalType": "string",
          "name": "dstAddress",
          "type": "string"
        },
        {
          "internalType": "string",
          "name": "swapIntent",
          "type": "string"
        },
        {
          "internalType": "bytes",
          "name": "message",
          "type": "bytes"
        },
        {
          "internalType": "uint256",
          "name": "dstNativeGas",
          "type": "uint256"
        },
        {
          "internalType": "contract IERC20",
          "name": "srcToken",
          "type": "address"
        },
        {
          "internalType": "uint256",
          "name": "amount",
          "type": "uint256"
        },
        {
          "internalType": "address",
          "name": "refundAddress",
          "type": "address"
        }
      ],
      "name": "xCallToken",
      "outputs": [],
      "stateMutability": "nonpayable",
      "type": "function"
    },
    {
      "inputs": [
        {
          "internalType": "uint32",
          "name": "dstChain",
          "type": "uint32"
        },
        {
          "internalType": "string",
          "name": "dstAddress",
          "type": "string"
        },
        {
          "internalType": "string",
          "name": "swapIntent",
          "type": "string"
        }
      ],
      "name": "xSwapNative",
      "outputs": [],
      "stateMutability": "payable",
      "type": "function"
    },
    {
      "inputs": [
        {
          "internalType": "uint32",
          "name": "dstChain",
          "type": "uint32"
        },
        {
          "internalType": "string",
          "name": "dstAddress",
          "type": "string"
        },
        {
          "internalType": "string",
          "name": "swapIntent",
          "type": "string"
        },
        {
          "internalType": "contract IERC20",
          "name": "srcToken",
          "type": "address"
        },
        {
          "internalType": "uint256",
          "name": "amount",
          "type": "uint256"
        }
      ],
      "name": "xSwapToken",
      "outputs": [],
      "stateMutability": "nonpayable",
      "type": "function"
    },
    {
      "stateMutability": "payable",
      "type": "receive"
    }
  ],
  "bytecode": "60806040526000805460ff60a81b191690553480156200001e57600080fd5b5060405162004709380380620047098339810160408190526200004191620000c6565b80806001600160a01b0381166200009e5760405162461bcd60e51b815260206004820152601e60248201527f5368617265643a206164647265737320696e70757420697320656d7074790000604482015260640160405180910390fd5b50600080546001600160a01b0319166001600160a01b039290921691909117905550620000f8565b600060208284031215620000d957600080fd5b81516001600160a01b0381168114620000f157600080fd5b9392505050565b61460180620001086000396000f3fe608060405260043610620001bb5760003560e01c806363e7334b11620000f35780638d95e5591162000095578063b03b6a57116200006c578063b03b6a571462000481578063e4d2f59b14620004a6578063e6400bbe14620004cb578063f545fab914620004e357600080fd5b80638d95e559146200043a57806391495fbc1462000452578063aae9ba43146200046957600080fd5b8063765849b911620000ca578063765849b914620003cf578063774d680114620003f057806379c83ad7146200041557600080fd5b806363e7334b1462000360578063674bdfe214620003855780637484606f14620003aa57600080fd5b8063420e6759116200015d578063561dc4c81162000134578063561dc4c814620002f55780635942b3bc146200031657806359dc4a09146200033b57600080fd5b8063420e675914620002985780634b0cfc0014620002bd5780634fc07d7514620002dd57600080fd5b806329b74201116200019257806329b742011462000211578063386e8fe514620002425780633f87b30f146200026757600080fd5b8063046f7da214620001c85780630ebf1fe914620001e257806327610a6014620001fa57600080fd5b36620001c357005b600080fd5b348015620001d557600080fd5b50620001e0620004fb565b005b348015620001ef57600080fd5b50620001e062000624565b620001e06200020b366004620034b9565b6200074c565b3480156200021e57600080fd5b50600054600160a81b900460ff165b60405190151581526020015b60405180910390f35b3480156200024f57600080fd5b50620001e06200026136600462003601565b6200083f565b3480156200027457600080fd5b506200027f620009b4565b6040516001600160a01b03909116815260200162000239565b348015620002a557600080fd5b50620001e0620002b736600462003394565b620009c5565b348015620002ca57600080fd5b506000546001600160a01b03166200027f565b348015620002ea57600080fd5b506200027f62000bca565b3480156200030257600080fd5b50600054600160b01b900460ff166200022d565b3480156200032357600080fd5b50620001e062000335366004620036e4565b62000bd6565b3480156200034857600080fd5b50620001e06200035a36600462003246565b62000ce4565b3480156200036d57600080fd5b50620001e06200037f366004620032a0565b62000e88565b3480156200039257600080fd5b50620001e0620003a436600462003191565b62001050565b348015620003b757600080fd5b50620001e0620003c9366004620030f3565b620012d1565b348015620003dc57600080fd5b50600054600160a01b900460ff166200022d565b348015620003fd57600080fd5b50620001e06200040f3660046200340c565b62001701565b3480156200042257600080fd5b50620001e06200043436600462003246565b620019dd565b3480156200044757600080fd5b50620001e062001b7a565b620001e06200046336600462003536565b62001ca6565b3480156200047657600080fd5b50620001e062001e00565b3480156200048e57600080fd5b50620001e0620004a0366004620033d1565b62001f4d565b348015620004b357600080fd5b50620001e0620004c536600462003347565b6200223c565b348015620004d857600080fd5b50620001e0620023d9565b348015620004f057600080fd5b50620001e0620024f9565b6200050562002619565b6001600160a01b0316336001600160a01b0316146200056b5760405162461bcd60e51b815260206004820152601860248201527f476f7665726e616e63653a206e6f7420676f7665726e6f72000000000000000060448201526064015b60405180910390fd5b600054600160a81b900460ff16620005c65760405162461bcd60e51b815260206004820152601960248201527f476f7665726e616e63653a206e6f742073757370656e64656400000000000000604482015260640162000562565b600080547fffffffffffffffffffff00ffffffffffffffffffffffffffffffffffffffffff1681556040519081527f58e6c20b68c19f4d8dbc6206267af40b288342464b433205bb41e5b65c4016da906020015b60405180910390a1565b6200062e62002619565b6001600160a01b0316336001600160a01b031614620006905760405162461bcd60e51b815260206004820152601860248201527f476f7665726e616e63653a206e6f7420676f7665726e6f720000000000000000604482015260640162000562565b600054600160b01b900460ff1615620006ec5760405162461bcd60e51b815260206004820152601560248201527f5661756c743a207843616c6c7320656e61626c65640000000000000000000000604482015260640162000562565b600080547fffffffffffffffffff00ffffffffffffffffffffffffffffffffffffffffffff16600160b01b179055604051600181527f55f83e6fce30d9fd43a6ca0101bc68cf99b4944a9d9eb39a961533c04bfa3966906020016200061a565b600054600160a81b900460ff1615620007a05760405162461bcd60e51b815260206004820152601560248201527411dbdd995c9b985b98d94e881cdd5cdc195b991959605a1b604482015260640162000562565b3480620007f05760405162461bcd60e51b815260206004820152601b60248201527f5368617265643a2075696e7420696e70757420697320656d7074790000000000604482015260640162000562565b336001600160a01b03167f4de49a59404baf7c2b0d3db254297af01dc258cbc5d78ca37b8cf5a98cfdc2008585853460405162000831949392919062003ef6565b60405180910390a250505050565b600054600160a81b900460ff1615620008935760405162461bcd60e51b815260206004820152601560248201527411dbdd995c9b985b98d94e881cdd5cdc195b991959605a1b604482015260640162000562565b600054600160b01b900460ff16620008ee5760405162461bcd60e51b815260206004820152601960248201527f5661756c743a207843616c6c73206e6f7420656e61626c656400000000000000604482015260640162000562565b81806200093e5760405162461bcd60e51b815260206004820152601b60248201527f5368617265643a2075696e7420696e70757420697320656d7074790000000000604482015260640162000562565b620009556001600160a01b0385163330866200269a565b336001600160a01b03167f98d5c453eb58c7ce3c927a1b55ffbfda38df699446da57678d54839d8b21e6678b8b8b88888d8d8d8b604051620009a09998979695949392919062003e71565b60405180910390a250505050505050505050565b6000620009c062002720565b905090565b806001600160a01b03811662000a1e5760405162461bcd60e51b815260206004820152601e60248201527f5368617265643a206164647265737320696e70757420697320656d7074790000604482015260640162000562565b6040805160c0810190915283907f420e675900000000000000000000000000000000000000000000000000000000908062000a5d6020850185620030b3565b6001600160a01b031681526020018660200135815260200160008152602001600081526020018660800135815260200160006001600160a01b03168152508460405160240162000aaf92919062003c20565b60408051601f198184030181529190526020810180516001600160e01b03166001600160e01b031990931692909217825251902062000af66000546001600160a01b031690565b6001600160a01b031663a58a3f1d83836040518363ffffffff1660e01b815260040162000b259291906200393a565b600060405180830381600087803b15801562000b4057600080fd5b505af115801562000b55573d6000803e3d6000fd5b5050600080547fffffffffffffffffffffffff0000000000000000000000000000000000000000166001600160a01b0388169081179091556040519081527fd18040e514983d65f088430e69091aea9bf07feaed3696a3faac1ccc34b5e3bc9250602001905060405180910390a15050505050565b6000620009c062002619565b600054600160a81b900460ff161562000c2a5760405162461bcd60e51b815260206004820152601560248201527411dbdd995c9b985b98d94e881cdd5cdc195b991959605a1b604482015260640162000562565b808062000c7a5760405162461bcd60e51b815260206004820152601b60248201527f5368617265643a2075696e7420696e70757420697320656d7074790000000000604482015260640162000562565b62000c916001600160a01b0384163330856200269a565b336001600160a01b03167f1e7b21f751c6d9fa3f98a51b607c124a07df7c3c54ee98d0a37854aaa4f864d0878787878760405162000cd495949392919062003e1e565b60405180910390a2505050505050565b600054600160a81b900460ff161562000d385760405162461bcd60e51b815260206004820152601560248201527411dbdd995c9b985b98d94e881cdd5cdc195b991959605a1b604482015260640162000562565b6040805160c0810190915283907f59dc4a0900000000000000000000000000000000000000000000000000000000908062000d776020850185620030b3565b6001600160a01b031681526020018660200135815260200160008152602001600081526020018660800135815260200160006001600160a01b0316815250848460405160240162000dcb9392919062003a4f565b60408051601f198184030181529190526020810180516001600160e01b03166001600160e01b031990931692909217825251902062000e126000546001600160a01b031690565b6001600160a01b031663a58a3f1d83836040518363ffffffff1660e01b815260040162000e419291906200393a565b600060405180830381600087803b15801562000e5c57600080fd5b505af115801562000e71573d6000803e3d6000fd5b5050505062000e81848462002766565b5050505050565b600054600160a81b900460ff161562000edc5760405162461bcd60e51b815260206004820152601560248201527411dbdd995c9b985b98d94e881cdd5cdc195b991959605a1b604482015260640162000562565b6040805160c0810190915287907f63e7334b00000000000000000000000000000000000000000000000000000000908062000f1b6020850185620030b3565b6001600160a01b031681526020018a60200135815260200160008152602001600081526020018a60800135815260200160006001600160a01b031681525088888888888860405160240162000f77979695949392919062003abe565b60408051601f198184030181529190526020810180516001600160e01b03166001600160e01b031990931692909217825251902062000fbe6000546001600160a01b031690565b6001600160a01b031663a58a3f1d83836040518363ffffffff1660e01b815260040162000fed9291906200393a565b600060405180830381600087803b1580156200100857600080fd5b505af11580156200101d573d6000803e3d6000fd5b505050506200102d888862002766565b6200103986866200280b565b620010458484620028e9565b505050505050505050565b600054600160a81b900460ff1615620010a45760405162461bcd60e51b815260206004820152601560248201527411dbdd995c9b985b98d94e881cdd5cdc195b991959605a1b604482015260640162000562565b856001600160a01b038116620010fd5760405162461bcd60e51b815260206004820152601e60248201527f5368617265643a206164647265737320696e70757420697320656d7074790000604482015260640162000562565b6040805160c0810190915288907f674bdfe20000000000000000000000000000000000000000000000000000000090806200113c6020850185620030b3565b6001600160a01b031681526020018b60200135815260200160008152602001600081526020018b60800135815260200160006001600160a01b0316815250898989898989604051602401620011989796959493929190620039a6565b60408051601f198184030181529190526020810180516001600160e01b03166001600160e01b0319909316929092178252519020620011df6000546001600160a01b031690565b6001600160a01b031663a58a3f1d83836040518363ffffffff1660e01b81526004016200120e9291906200393a565b600060405180830381600087803b1580156200122957600080fd5b505af11580156200123e573d6000803e3d6000fd5b50506040517f74d6d3330000000000000000000000000000000000000000000000000000000081526001600160a01b038c1692506374d6d333915062001291908b908b908b908b908b9060040162003d84565b600060405180830381600087803b158015620012ac57600080fd5b505af1158015620012c1573d6000803e3d6000fd5b5050505050505050505050505050565b620012db62002619565b6001600160a01b0316336001600160a01b0316146200133d5760405162461bcd60e51b815260206004820152601860248201527f476f7665726e616e63653a206e6f7420676f7665726e6f720000000000000000604482015260640162000562565b600054600160a01b900460ff16620013a45760405162461bcd60e51b815260206004820152602360248201527f476f7665726e616e63653a20636f6d6d756e69747920677561726420656e61626044820152621b195960ea1b606482015260840162000562565b600054600160a81b900460ff16620013ff5760405162461bcd60e51b815260206004820152601960248201527f476f7665726e616e63653a206e6f742073757370656e64656400000000000000604482015260640162000562565b62127500620014166000546001600160a01b031690565b6001600160a01b03166353f0bb616040518163ffffffff1660e01b815260040160206040518083038186803b1580156200144f57600080fd5b505afa15801562001464573d6000803e3d6000fd5b505050506040513d601f19601f820116820180604052508101906200148a91906200349f565b62001496904262003fb4565b1015620014e65760405162461bcd60e51b815260206004820152601660248201527f5661756c743a206e6f7420656e6f7567682074696d6500000000000000000000604482015260640162000562565b600080546001600160a01b03166001600160a01b031663cd1b4d206040518163ffffffff1660e01b815260040160206040518083038186803b1580156200152c57600080fd5b505afa15801562001541573d6000803e3d6000fd5b505050506040513d601f19601f82011682018060405250810190620015679190620030d3565b905060005b82811015620016fb5773eeeeeeeeeeeeeeeeeeeeeeeeeeeeeeeeeeeeeeee8484838181106200159f576200159f62004031565b9050602002016020810190620015b69190620030b3565b6001600160a01b03161415620015ed57620015e773eeeeeeeeeeeeeeeeeeeeeeeeeeeeeeeeeeeeeeee834762002984565b620016e6565b620016e684848381811062001606576200160662004031565b90506020020160208101906200161d9190620030b3565b8386868581811062001633576200163362004031565b90506020020160208101906200164a9190620030b3565b6040517f70a082310000000000000000000000000000000000000000000000000000000081523060048201526001600160a01b0391909116906370a082319060240160206040518083038186803b158015620016a557600080fd5b505afa158015620016ba573d6000803e3d6000fd5b505050506040513d601f19601f82011682018060405250810190620016e091906200349f565b62002984565b80620016f28162003ffd565b9150506200156c565b50505050565b600054600160a81b900460ff1615620017555760405162461bcd60e51b815260206004820152601560248201527411dbdd995c9b985b98d94e881cdd5cdc195b991959605a1b604482015260640162000562565b620017646020870187620030b3565b6001600160a01b038116620017bc5760405162461bcd60e51b815260206004820152601e60248201527f5368617265643a206164647265737320696e70757420697320656d7074790000604482015260640162000562565b620017ce6040880160208901620030b3565b6001600160a01b038116620018265760405162461bcd60e51b815260206004820152601e60248201527f5368617265643a206164647265737320696e70757420697320656d7074790000604482015260640162000562565b6040880135806200187a5760405162461bcd60e51b815260206004820152601b60248201527f5368617265643a2075696e7420696e70757420697320656d7074790000000000604482015260640162000562565b6040805160c081019091528a907f774d6801000000000000000000000000000000000000000000000000000000009080620018b96020850185620030b3565b6001600160a01b031681526020018d60200135815260200160008152602001600081526020018d60800135815260200160006001600160a01b03168152508b8b8b8b8b8b60405160240162001915979695949392919062003ce8565b60408051601f198184030181529190526020810180516001600160e01b03166001600160e01b03199093169290921782525190206200195c6000546001600160a01b031690565b6001600160a01b031663a58a3f1d83836040518363ffffffff1660e01b81526004016200198b9291906200393a565b600060405180830381600087803b158015620019a657600080fd5b505af1158015620019bb573d6000803e3d6000fd5b50505050620019cf8b8b8b8b8b8b62002a63565b505050505050505050505050565b600054600160a81b900460ff161562001a315760405162461bcd60e51b815260206004820152601560248201527411dbdd995c9b985b98d94e881cdd5cdc195b991959605a1b604482015260640162000562565b6040805160c0810190915283907f79c83ad700000000000000000000000000000000000000000000000000000000908062001a706020850185620030b3565b6001600160a01b031681526020018660200135815260200160008152602001600081526020018660800135815260200160006001600160a01b0316815250848460405160240162001ac49392919062003b54565b60408051601f198184030181529190526020810180516001600160e01b03166001600160e01b031990931692909217825251902062001b0b6000546001600160a01b031690565b6001600160a01b031663a58a3f1d83836040518363ffffffff1660e01b815260040162001b3a9291906200393a565b600060405180830381600087803b15801562001b5557600080fd5b505af115801562001b6a573d6000803e3d6000fd5b5050505062000e8184846200280b565b62001b8462002720565b6001600160a01b0316336001600160a01b03161462001be65760405162461bcd60e51b815260206004820152601d60248201527f476f7665726e616e63653a206e6f7420436f6d6d756e697479204b6579000000604482015260640162000562565b600054600160a01b900460ff1662001c4d5760405162461bcd60e51b815260206004820152602360248201527f476f7665726e616e63653a20636f6d6d756e69747920677561726420656e61626044820152621b195960ea1b606482015260840162000562565b600080547fffffffffffffffffffffff00ffffffffffffffffffffffffffffffffffffffff1681556040519081527f057c4cb09f128960151f04372028154acda40272f16360154961672989b59bad906020016200061a565b600054600160a81b900460ff161562001cfa5760405162461bcd60e51b815260206004820152601560248201527411dbdd995c9b985b98d94e881cdd5cdc195b991959605a1b604482015260640162000562565b600054600160b01b900460ff1662001d555760405162461bcd60e51b815260206004820152601960248201527f5661756c743a207843616c6c73206e6f7420656e61626c656400000000000000604482015260640162000562565b348062001da55760405162461bcd60e51b815260206004820152601b60248201527f5368617265643a2075696e7420696e70757420697320656d7074790000000000604482015260640162000562565b336001600160a01b03167f7e8c5bda8a909414b3b3d5430e67e10a1965826d1dbefa6bd2ec6915bcdc8d7d898989348a8a8a8a60405162001dee98979695949392919062003f3d565b60405180910390a25050505050505050565b62001e0a62002720565b6001600160a01b0316336001600160a01b03161462001e6c5760405162461bcd60e51b815260206004820152601d60248201527f476f7665726e616e63653a206e6f7420436f6d6d756e697479204b6579000000604482015260640162000562565b600054600160a01b900460ff161562001eed5760405162461bcd60e51b8152602060048201526024808201527f476f7665726e616e63653a20636f6d6d756e697479206775617264206469736160448201527f626c656400000000000000000000000000000000000000000000000000000000606482015260840162000562565b600080547fffffffffffffffffffffff00ffffffffffffffffffffffffffffffffffffffff16600160a01b179055604051600181527f057c4cb09f128960151f04372028154acda40272f16360154961672989b59bad906020016200061a565b600054600160a81b900460ff161562001fa15760405162461bcd60e51b815260206004820152601560248201527411dbdd995c9b985b98d94e881cdd5cdc195b991959605a1b604482015260640162000562565b62001fb06020820182620030b3565b6001600160a01b038116620020085760405162461bcd60e51b815260206004820152601e60248201527f5368617265643a206164647265737320696e70757420697320656d7074790000604482015260640162000562565b6200201a6040830160208401620030b3565b6001600160a01b038116620020725760405162461bcd60e51b815260206004820152601e60248201527f5368617265643a206164647265737320696e70757420697320656d7074790000604482015260640162000562565b604083013580620020c65760405162461bcd60e51b815260206004820152601b60248201527f5368617265643a2075696e7420696e70757420697320656d7074790000000000604482015260640162000562565b6040805160c0810190915285907fb03b6a57000000000000000000000000000000000000000000000000000000009080620021056020850185620030b3565b6001600160a01b031681526020018860200135815260200160008152602001600081526020018860800135815260200160006001600160a01b0316815250866040516024016200215792919062003c87565b60408051601f198184030181529190526020810180516001600160e01b03166001600160e01b03199093169290921782525190206200219e6000546001600160a01b031690565b6001600160a01b031663a58a3f1d83836040518363ffffffff1660e01b8152600401620021cd9291906200393a565b600060405180830381600087803b158015620021e857600080fd5b505af1158015620021fd573d6000803e3d6000fd5b50620022339250620022169150506020880188620030b3565b620022286040890160208a01620030b3565b886040013562002984565b50505050505050565b600054600160a81b900460ff1615620022905760405162461bcd60e51b815260206004820152601560248201527411dbdd995c9b985b98d94e881cdd5cdc195b991959605a1b604482015260640162000562565b6040805160c0810190915283907fe4d2f59b000000000000000000000000000000000000000000000000000000009080620022cf6020850185620030b3565b6001600160a01b031681526020018660200135815260200160008152602001600081526020018660800135815260200160006001600160a01b03168152508484604051602401620023239392919062003bba565b60408051601f198184030181529190526020810180516001600160e01b03166001600160e01b03199093169290921782525190206200236a6000546001600160a01b031690565b6001600160a01b031663a58a3f1d83836040518363ffffffff1660e01b8152600401620023999291906200393a565b600060405180830381600087803b158015620023b457600080fd5b505af1158015620023c9573d6000803e3d6000fd5b5050505062000e818484620028e9565b620023e362002619565b6001600160a01b0316336001600160a01b031614620024455760405162461bcd60e51b815260206004820152601860248201527f476f7665726e616e63653a206e6f7420676f7665726e6f720000000000000000604482015260640162000562565b600054600160a81b900460ff1615620024995760405162461bcd60e51b815260206004820152601560248201527411dbdd995c9b985b98d94e881cdd5cdc195b991959605a1b604482015260640162000562565b600080547fffffffffffffffffffff00ffffffffffffffffffffffffffffffffffffffffff16600160a81b179055604051600181527f58e6c20b68c19f4d8dbc6206267af40b288342464b433205bb41e5b65c4016da906020016200061a565b6200250362002619565b6001600160a01b0316336001600160a01b031614620025655760405162461bcd60e51b815260206004820152601860248201527f476f7665726e616e63653a206e6f7420676f7665726e6f720000000000000000604482015260640162000562565b600054600160b01b900460ff16620025c05760405162461bcd60e51b815260206004820152601960248201527f5661756c743a207843616c6c73206e6f7420656e61626c656400000000000000604482015260640162000562565b600080547fffffffffffffffffff00ffffffffffffffffffffffffffffffffffffffffffff1681556040519081527f55f83e6fce30d9fd43a6ca0101bc68cf99b4944a9d9eb39a961533c04bfa3966906020016200061a565b600080546001600160a01b03166001600160a01b031663cd1b4d206040518163ffffffff1660e01b815260040160206040518083038186803b1580156200265f57600080fd5b505afa15801562002674573d6000803e3d6000fd5b505050506040513d601f19601f82011682018060405250810190620009c09190620030d3565b6040516001600160a01b0380851660248301528316604482015260648101829052620016fb9085907f23b872dd00000000000000000000000000000000000000000000000000000000906084015b60408051601f198184030181529190526020810180516001600160e01b03166001600160e01b03199093169290921790915262002c08565b600080546001600160a01b03166001600160a01b0316633f87b30f6040518163ffffffff1660e01b815260040160206040518083038186803b1580156200265f57600080fd5b8060005b81811015620016fb5783838281811062002788576200278862004031565b90506040020160000135848483818110620027a757620027a762004031565b9050604002016020016020810190620027c19190620030b3565b604051620027cf9062002ee1565b6001600160a01b0390911681526020018190604051809103906000f590508015801562002800573d6000803e3d6000fd5b50506001016200276a565b8060005b81811015620016fb578383828181106200282d576200282d62004031565b620028459260206040909202019081019150620030b3565b6001600160a01b031663f109a0be85858481811062002868576200286862004031565b9050604002016020016020810190620028829190620030b3565b6040516001600160e01b031960e084901b1681526001600160a01b039091166004820152602401600060405180830381600087803b158015620028c457600080fd5b505af1158015620028d9573d6000803e3d6000fd5b505050508060010190506200280f565b8060005b81811015620016fb576200297b8484838181106200290f576200290f62004031565b620029279260206060909202019081019150620030b3565b8585848181106200293c576200293c62004031565b9050606002016020016020810190620029569190620030b3565b8686858181106200296b576200296b62004031565b9050606002016040013562002984565b600101620028ed565b6001600160a01b03831673eeeeeeeeeeeeeeeeeeeeeeeeeeeeeeeeeeeeeeee141562002a48576000826001600160a01b0316610dac83604051600060405180830381858888f193505050503d8060008114620029fd576040519150601f19603f3d011682016040523d82523d6000602084013e62002a02565b606091505b5050905080620016fb57826001600160a01b03167f1c43b9761b3fba5321ca8212bfc231945f668ccc0c446f333999eea9ce8fda81836040516200083191815260200190565b62002a5e6001600160a01b038416838362002cf4565b505050565b73eeeeeeeeeeeeeeeeeeeeeeeeeeeeeeeeeeeeeeee62002a876020880188620030b3565b6001600160a01b0316141562002b335762002aa96040870160208801620030b3565b6001600160a01b0316634d3338b96040880135878787878762002ad060208f018f620030b3565b8e604001356040518963ffffffff1660e01b815260040162002af9979695949392919062003dc7565b6000604051808303818588803b15801562002b1357600080fd5b505af115801562002b28573d6000803e3d6000fd5b505050505062002c00565b62002b6e62002b496040880160208901620030b3565b604088013562002b5d60208a018a620030b3565b6001600160a01b0316919062002cf4565b62002b806040870160208801620030b3565b6001600160a01b0316634d3338b9868686868662002ba260208e018e620030b3565b8d604001356040518863ffffffff1660e01b815260040162002bcb979695949392919062003dc7565b600060405180830381600087803b15801562002be657600080fd5b505af115801562002bfb573d6000803e3d6000fd5b505050505b505050505050565b600062002c5f826040518060400160405280602081526020017f5361666545524332303a206c6f772d6c6576656c2063616c6c206661696c6564815250856001600160a01b031662002d3f9092919063ffffffff16565b80519091501562002a5e578080602001905181019062002c8091906200316d565b62002a5e5760405162461bcd60e51b815260206004820152602a60248201527f5361666545524332303a204552433230206f7065726174696f6e20646964206e60448201527f6f74207375636365656400000000000000000000000000000000000000000000606482015260840162000562565b6040516001600160a01b03831660248201526044810182905262002a5e9084907fa9059cbb0000000000000000000000000000000000000000000000000000000090606401620026e8565b606062002d50848460008562002d5a565b90505b9392505050565b60608247101562002dd45760405162461bcd60e51b815260206004820152602660248201527f416464726573733a20696e73756666696369656e742062616c616e636520666f60448201527f722063616c6c0000000000000000000000000000000000000000000000000000606482015260840162000562565b843b62002e245760405162461bcd60e51b815260206004820152601d60248201527f416464726573733a2063616c6c20746f206e6f6e2d636f6e7472616374000000604482015260640162000562565b600080866001600160a01b0316858760405162002e42919062003907565b60006040518083038185875af1925050503d806000811462002e81576040519150601f19603f3d011682016040523d82523d6000602084013e62002e86565b606091505b509150915062002e9882828662002ea3565b979650505050505050565b6060831562002eb457508162002d53565b82511562002ec55782518084602001fd5b8160405162461bcd60e51b815260040162000562919062003925565b610555806200407783390190565b803562002efc816200405d565b919050565b60008083601f84011262002f1457600080fd5b50813567ffffffffffffffff81111562002f2d57600080fd5b6020830191508360208260061b850101111562002f4957600080fd5b9250929050565b60008083601f84011262002f6357600080fd5b50813567ffffffffffffffff81111562002f7c57600080fd5b60208301915083602060608302850101111562002f4957600080fd5b60008083601f84011262002fab57600080fd5b50813567ffffffffffffffff81111562002fc457600080fd5b60208301915083602082850101111562002f4957600080fd5b600082601f83011262002fef57600080fd5b813567ffffffffffffffff808211156200300d576200300d62004047565b604051601f8301601f19908116603f0116810190828211818310171562003038576200303862004047565b816040528381528660208588010111156200305257600080fd5b836020870160208301376000602085830101528094505050505092915050565b600060c082840312156200308557600080fd5b50919050565b6000606082840312156200308557600080fd5b803563ffffffff8116811462002efc57600080fd5b600060208284031215620030c657600080fd5b813562002d53816200405d565b600060208284031215620030e657600080fd5b815162002d53816200405d565b600080602083850312156200310757600080fd5b823567ffffffffffffffff808211156200312057600080fd5b818501915085601f8301126200313557600080fd5b8135818111156200314557600080fd5b8660208260051b85010111156200315b57600080fd5b60209290920196919550909350505050565b6000602082840312156200318057600080fd5b8151801515811462002d5357600080fd5b6000806000806000806000610140888a031215620031ae57600080fd5b620031ba898962003072565b965060c0880135620031cc816200405d565b9550620031dc60e089016200309e565b945061010088013567ffffffffffffffff80821115620031fb57600080fd5b620032098b838c0162002f98565b90965094506101208a01359150808211156200322457600080fd5b50620032338a828b0162002f98565b989b979a50959850939692959293505050565b600080600060e084860312156200325c57600080fd5b62003268858562003072565b925060c084013567ffffffffffffffff8111156200328557600080fd5b620032938682870162002f01565b9497909650939450505050565b6000806000806000806000610120888a031215620032bd57600080fd5b620032c9898962003072565b965060c088013567ffffffffffffffff80821115620032e757600080fd5b620032f58b838c0162002f01565b909850965060e08a01359150808211156200330f57600080fd5b6200331d8b838c0162002f01565b90965094506101008a01359150808211156200333857600080fd5b50620032338a828b0162002f50565b600080600060e084860312156200335d57600080fd5b62003369858562003072565b925060c084013567ffffffffffffffff8111156200338657600080fd5b620032938682870162002f50565b60008060e08385031215620033a857600080fd5b620033b4848462003072565b915060c0830135620033c6816200405d565b809150509250929050565b6000806101208385031215620033e657600080fd5b620033f2848462003072565b9150620034038460c085016200308b565b90509250929050565b6000806000806000806000610180888a0312156200342957600080fd5b62003435898962003072565b9650620034468960c08a016200308b565b95506200345761012089016200309e565b945061014088013567ffffffffffffffff808211156200347657600080fd5b620034848b838c0162002f98565b90965094506101608a01359150808211156200322457600080fd5b600060208284031215620034b257600080fd5b5051919050565b600080600060608486031215620034cf57600080fd5b620034da846200309e565b9250602084013567ffffffffffffffff80821115620034f857600080fd5b620035068783880162002fdd565b935060408601359150808211156200351d57600080fd5b506200352c8682870162002fdd565b9150509250925092565b600080600080600080600060c0888a0312156200355257600080fd5b6200355d886200309e565b9650602088013567ffffffffffffffff808211156200357b57600080fd5b620035898b838c0162002fdd565b975060408a0135915080821115620035a057600080fd5b620035ae8b838c0162002fdd565b965060608a0135915080821115620035c557600080fd5b50620035d48a828b0162002f98565b9095509350506080880135915060a0880135620035f1816200405d565b8091505092959891949750929550565b60008060008060008060008060006101008a8c0312156200362157600080fd5b6200362c8a6200309e565b985060208a013567ffffffffffffffff808211156200364a57600080fd5b620036588d838e0162002fdd565b995060408c01359150808211156200366f57600080fd5b6200367d8d838e0162002fdd565b985060608c01359150808211156200369457600080fd5b50620036a38c828d0162002f98565b90975095505060808a01359350620036be60a08b0162002eef565b925060c08a01359150620036d560e08b0162002eef565b90509295985092959850929598565b600080600080600060a08688031215620036fd57600080fd5b62003708866200309e565b9450602086013567ffffffffffffffff808211156200372657600080fd5b6200373489838a0162002fdd565b955060408801359150808211156200374b57600080fd5b506200375a8882890162002fdd565b93505060608601356200376d816200405d565b949793965091946080013592915050565b8183526000602080850194508260005b85811015620037cb578135875282820135620037aa816200405d565b6001600160a01b03168784015260409687019691909101906001016200378e565b509495945050505050565b8183526000602080850194508260005b85811015620037cb578135620037fc816200405d565b6001600160a01b039081168852828401359062003819826200405d565b16878401526040968701969190910190600101620037e6565b81835260208301925060008160005b848110156200386a57620038568683620038cb565b606095860195919091019060010162003841565b5093949350505050565b81835281816020850137506000828201602090810191909152601f909101601f19169091010190565b60008151808452620038b781602086016020860162003fce565b601f01601f19169290920160200192915050565b8035620038d8816200405d565b6001600160a01b039081168352602082013590620038f6826200405d565b166020830152604090810135910152565b600082516200391b81846020870162003fce565b9190910192915050565b60208152600062002d5360208301846200389d565b60e0810183356200394b816200405d565b6001600160a01b0380821684526020860135602085015260408601356040850152606086013560608501526080860135608085015260a0860135915062003992826200405d565b1660a083015260c090910191909152919050565b6000610140620039f8838b6001600160a01b03808251168352602082015160208401526040820151604084015260608201516060840152608082015160808401528060a08301511660a0840152505050565b6001600160a01b03891660c084015263ffffffff881660e08401528061010084015262003a29818401878962003874565b905082810361012084015262003a4181858762003874565b9a9950505050505050505050565b62003a9c81856001600160a01b03808251168352602082015160208401526040820151604084015260608201516060840152608082015160808401528060a08301511660a0840152505050565b60e060c0820152600062003ab560e0830184866200377e565b95945050505050565b600061012062003b10838b6001600160a01b03808251168352602082015160208401526040820151604084015260608201516060840152608082015160808401528060a08301511660a0840152505050565b8060c084015262003b25818401898b6200377e565b905082810360e084015262003b3c818789620037d6565b905082810361010084015262003a4181858762003832565b62003ba181856001600160a01b03808251168352602082015160208401526040820151604084015260608201516060840152608082015160808401528060a08301511660a0840152505050565b60e060c0820152600062003ab560e083018486620037d6565b62003c0781856001600160a01b03808251168352602082015160208401526040820151604084015260608201516060840152608082015160808401528060a08301511660a0840152505050565b60e060c0820152600062003ab560e08301848662003832565b60e0810162003c7182856001600160a01b03808251168352602082015160208401526040820151604084015260608201516060840152608082015160808401528060a08301511660a0840152505050565b6001600160a01b03831660c08301529392505050565b610120810162003cd982856001600160a01b03808251168352602082015160208401526040820151604084015260608201516060840152608082015160808401528060a08301511660a0840152505050565b62002d5360c0830184620038cb565b600061018062003d3a838b6001600160a01b03808251168352602082015160208401526040820151604084015260608201516060840152608082015160808401528060a08301511660a0840152505050565b62003d4960c084018a620038cb565b63ffffffff88166101208401528061014084015262003d6c818401878962003874565b905082810361016084015262003a4181858762003874565b63ffffffff8616815260606020820152600062003da660608301868862003874565b828103604084015262003dbb81858762003874565b98975050505050505050565b63ffffffff8816815260a06020820152600062003de960a08301888a62003874565b828103604084015262003dfe81878962003874565b6001600160a01b0395909516606084015250506080015295945050505050565b63ffffffff8616815260a06020820152600062003e3f60a08301876200389d565b828103604084015262003e5381876200389d565b6001600160a01b039590951660608401525050608001529392505050565b600061010063ffffffff8c16835280602084015262003e938184018c6200389d565b9050828103604084015262003ea9818b6200389d565b90506001600160a01b03808a16606085015288608085015283820360a085015262003ed682888a62003874565b92508560c085015280851660e085015250509a9950505050505050505050565b63ffffffff8516815260806020820152600062003f1760808301866200389d565b828103604084015262003f2b81866200389d565b91505082606083015295945050505050565b63ffffffff8916815260e06020820152600062003f5e60e083018a6200389d565b828103604084015262003f72818a6200389d565b9050876060840152828103608084015262003f8f81878962003874565b9150508360a08301526001600160a01b03831660c08301529998505050505050505050565b60008282101562003fc95762003fc96200401b565b500390565b60005b8381101562003feb57818101518382015260200162003fd1565b83811115620016fb5750506000910152565b60006000198214156200401457620040146200401b565b5060010190565b634e487b7160e01b600052601160045260246000fd5b634e487b7160e01b600052603260045260246000fd5b634e487b7160e01b600052604160045260246000fd5b6001600160a01b03811681146200407357600080fd5b5056fe60a060405234801561001057600080fd5b5060405161055538038061055583398101604081905261002f916101e6565b3360601b60805273eeeeeeeeeeeeeeeeeeeeeeeeeeeeeeeeeeeeeeee6001600160a01b03821614156100b657604051600090339047908381818185875af1925050503d806000811461009d576040519150601f19603f3d011682016040523d82523d6000602084013e6100a2565b606091505b50509050806100b057600080fd5b506101b7565b6040516370a0823160e01b81523060048201526001600160a01b0382169063a9059cbb90339083906370a082319060240160206040518083038186803b1580156100ff57600080fd5b505afa158015610113573d6000803e3d6000fd5b505050506040513d601f19601f82011682018060405250810190610137919061020f565b6040516001600160e01b031960e085901b1681526001600160a01b0390921660048301526024820152604401602060405180830381600087803b15801561017d57600080fd5b505af1158015610191573d6000803e3d6000fd5b505050506040513d601f19601f820116820180604052508101906101b591906101bd565b505b50610228565b6000602082840312156101cf57600080fd5b815180151581146101df57600080fd5b9392505050565b6000602082840312156101f857600080fd5b81516001600160a01b03811681146101df57600080fd5b60006020828403121561022157600080fd5b5051919050565b60805160601c6103106102456000396000606801526103106000f3fe6080604052600436106100225760003560e01c8063f109a0be1461002e57600080fd5b3661002957005b600080fd5b34801561003a57600080fd5b5061004e61004936600461028b565b610050565b005b3373ffffffffffffffffffffffffffffffffffffffff7f0000000000000000000000000000000000000000000000000000000000000000161461009257600080fd5b73eeeeeeeeeeeeeeeeeeeeeeeeeeeeeeeeeeeeeeee73ffffffffffffffffffffffffffffffffffffffff8216141561011d57604051600090339047908381818185875af1925050503d8060008114610106576040519150601f19603f3d011682016040523d82523d6000602084013e61010b565b606091505b505090508061011957600080fd5b5050565b6040517f70a0823100000000000000000000000000000000000000000000000000000000815230600482015273ffffffffffffffffffffffffffffffffffffffff82169063a9059cbb90339083906370a082319060240160206040518083038186803b15801561018c57600080fd5b505afa1580156101a0573d6000803e3d6000fd5b505050506040513d601f19601f820116820180604052508101906101c491906102c1565b6040517fffffffff0000000000000000000000000000000000000000000000000000000060e085901b16815273ffffffffffffffffffffffffffffffffffffffff90921660048301526024820152604401602060405180830381600087803b15801561022f57600080fd5b505af1158015610243573d6000803e3d6000fd5b505050506040513d601f19601f82011682018060405250810190610119919060006020828403121561027457600080fd5b8151801515811461028457600080fd5b9392505050565b60006020828403121561029d57600080fd5b813573ffffffffffffffffffffffffffffffffffffffff8116811461028457600080fd5b6000602082840312156102d357600080fd5b505191905056fea2646970667358221220c6463ec6499b2f46a08dfdc1cc3d5c4789a492cc59983143b5802b76a92d2b4a64736f6c63430008070033a26469706673582212202d458ed14ce188dd442af530feaaad1755365e03ec285fb39169f144cf536a1464736f6c63430008070033",
  "bytecodeSha1": "7bb8e203cde71b894fcaf493ee74ebbcc403411b",
  "compiler": {
    "evm_version": "london",
    "optimizer": {
      "enabled": true,
      "runs": 1600
    },
    "version": "0.8.7+commit.e28d00a7"
  },
  "contractName": "Vault",
  "language": "Solidity",
  "natspec": {
    "kind": "dev",
    "methods": {
      "allBatch((address,uint256,uint256,uint256,uint256,address),(bytes32,address)[],(address,address)[],(address,address,uint256)[])": {
        "details": "FetchAndDeploy is executed first to handle the edge case , which probably shouldn't          happen anyway, where a deploy and a fetch for the same address are in the same batch.          Transfers are executed last to ensure that all fetching has been completed first.",
        "notice": "Can do a combination of all fcns in this contract. It first fetches all          deposits , then it performs all transfers specified with the rest          of the inputs, the same as transferBatch (where all inputs are again required          to be of equal length - however the lengths of the fetch inputs do not have to          be equal to lengths of the transfer inputs). Fetches/transfers of native are          indicated with 0xEeeeeEeeeEeEeeEeEeEeeEEEeeeeEeeeeeeeEEeE as the token address.",
        "params": {
          "deployFetchParamsArray": "The array of deploy and fetch parameters",
          "fetchParamsArray": "The array of fetch parameters",
          "sigData": "The keccak256 hash over the msg (uint) (here that's                  a hash over the calldata to the function with an empty sigData) and                  sig over that hash (uint) from the aggregate key",
          "transferParamsArray": "The array of transfer parameters"
        }
      },
      "deployAndFetchBatch((address,uint256,uint256,uint256,uint256,address),(bytes32,address)[])": {
        "notice": "Retrieves any token from multiple address, deterministically generated using          create2, by creating a contract for that address, sending it to this vault.",
        "params": {
          "deployFetchParamsArray": "The array of deploy and fetch parameters",
          "sigData": "The keccak256 hash over the msg (uint) (here that's normally                  a hash over the calldata to the function with an empty sigData) and                  sig over that hash (uint) from the aggregate key"
        }
      },
      "disableCommunityGuard()": {
        "notice": "Disable Community Guard"
      },
      "disablexCalls()": {
        "notice": "Disable swapNative and swapToken functionality by governance. Features disabled by default."
      },
      "enableCommunityGuard()": {
        "notice": "Enable Community Guard"
      },
      "enablexCalls()": {
        "notice": "Enable swapNative and swapToken functionality by governance. Features disabled by default"
      },
      "executexCall((address,uint256,uint256,uint256,uint256,address),address,uint32,string,bytes)": {
        "notice": "Executes a cross-chain function call. The ICFReceiver interface is expected on          the receiver's address. A message is passed to the receiver along with other          parameters specifying the origin of the swap. This is used for cross-chain messaging          without any swap taking place on the Chainflip Protocol.",
        "params": {
          "message": "The message to be passed to the recipient.",
          "sigData": "The keccak256 hash over the msg (uint) (here that's normally                  a hash over the calldata to the function with an empty sigData) and                  sig over that hash (uint) from the aggregate key",
          "srcAddress": "The address where the transfer originated from in the ingressParams.",
          "srcChain": "The source chain where the call originated from."
        }
      },
      "executexSwapAndCall((address,uint256,uint256,uint256,uint256,address),(address,address,uint256),uint32,string,bytes)": {
        "notice": "Transfers ETH or a token from this vault to a recipient and makes a function call          completing a cross-chain swap and call. The ICFReceiver interface is expected on          the receiver's address. A message is passed to the receiver along with other          parameters specifying the origin of the swap.",
        "params": {
          "message": "The message to be passed to the recipient.",
          "sigData": "The keccak256 hash over the msg (uint) (here that's normally a hash over                  the calldata to the function with an empty sigData) and sig over that                  that hash (uint) from the aggregate key.",
          "srcAddress": "The address where the transfer originated within the ingress chain.",
          "srcChain": "The source chain where the call originated from.",
          "transferParams": "The transfer parameters"
        }
      },
      "fetchBatch((address,uint256,uint256,uint256,uint256,address),(address,address)[])": {
        "notice": "Retrieves any token addresses where a Deposit contract is already deployed.",
        "params": {
          "fetchParamsArray": "The array of fetch parameters",
          "sigData": "The keccak256 hash over the msg (uint) (here that's normally                  a hash over the calldata to the function with an empty sigData) and                  sig over that hash (uint) from the aggregate key"
        }
      },
      "getCommunityGuardDisabled()": {
        "notice": "Get the Community Guard state",
        "returns": {
          "_0": "The Community Guard state"
        }
      },
      "getCommunityKey()": {
        "notice": "Get the Community Key",
        "returns": {
          "_0": "The CommunityKey"
        }
      },
      "getGovernor()": {
        "notice": "Get governor address",
        "returns": {
          "_0": "The governor address"
        }
      },
      "getKeyManager()": {
        "notice": "Get the KeyManager address/interface that's used to validate sigs",
        "returns": {
          "_0": "The KeyManager (IKeyManager)"
        }
      },
      "getSuspendedState()": {
        "notice": "Get suspended state",
        "returns": {
          "_0": "The suspended state"
        }
      },
      "getxCallsEnabled()": {
        "notice": "Get xCallsEnabled",
        "returns": {
          "_0": "The xCallsEnableds state"
        }
      },
      "govWithdraw(address[])": {
        "notice": "Withdraw all funds to governance address in case of emergency. This withdrawal needs         to be approved by the Community and it can only be executed if no nonce from the         current AggKey had been consumed in _AGG_KEY_TIMEOUT time. It is a last resort and         can be used to rectify an emergency.",
        "params": {
          "tokens": "The addresses of the tokens to be transferred"
        }
      },
      "resume()": {
        "notice": "Resume contract execution"
      },
      "suspend()": {
        "notice": "Can be used to suspend contract execution - only executable by governance and only to be used in case of emergency."
      },
      "transfer((address,uint256,uint256,uint256,uint256,address),(address,address,uint256))": {
        "notice": "Transfers native or a token from this vault to a recipient",
        "params": {
          "sigData": "The keccak256 hash over the msg (uint) (here that's                  a hash over the calldata to the function with an empty sigData) and                  sig over that hash (uint) from the aggregate key",
          "transferParams": "The transfer parameters"
        }
      },
      "transferBatch((address,uint256,uint256,uint256,uint256,address),(address,address,uint256)[])": {
        "notice": "Transfers native or tokens from this vault to recipients.",
        "params": {
          "sigData": "The keccak256 hash over the msg (uint) (here that's a hash over                  the calldata to the function with an empty sigData) and sig over                  that hash (uint) from the aggregate key",
          "transferParamsArray": "The array of transfer parameters."
        }
      },
      "updateKeyManager((address,uint256,uint256,uint256,uint256,address),address)": {
        "notice": "Update KeyManager reference. Used if KeyManager contract is updated",
        "params": {
          "keyManager": "New KeyManager's address",
          "sigData": "The keccak256 hash over the msg (uint) (here that's normally                  a hash over the calldata to the function with an empty sigData) and                  sig over that hash (uint) from the aggregate key"
        }
      },
      "xCallNative(uint32,string,string,bytes,uint256,address)": {
        "details": "Checking the validity of inputs shall be done as part of the event witnessing. Only the amount is checked          to explicity inidcate that an amount is required. It isn't preventing spamming.",
        "notice": "Performs a cross-chain call to the destination address on the destination chain. Native tokens must be paid          to this contract. The swap intent determines if the provided tokens should be swapped to a different token          and transferred as part of the cross-chain call. Otherwise, all tokens are used as a payment for gas on the destination chain.          The message parameter is transmitted to the destination chain as part of the cross-chain call.",
        "params": {
          "dstAddress": "String containing the destination address on the destination chain.",
          "dstChain": "The destination chain according to the Chainflip Protocol's nomenclature.",
          "dstNativeGas": "The amount of native gas to be used on the destination chain's call.",
          "message": "The message to be sent to the egress chain. This is a general purpose message.",
          "refundAddress": "Address to refund any excess gas left from the execution of the xCall on the dstChain. This address                      is in the context of the srcChain.",
          "swapIntent": "String containing the specifics of the swap to be performed, if any, as part of the xCall. The string                      must follow Chainflip's nomenclature. An empty swapIntent implies that no swap needs to take place                      and the source token will be used for gas in a swapless xCall."
        }
      },
      "xCallToken(uint32,string,string,bytes,uint256,address,uint256,address)": {
        "details": "Checking the validity of inputs shall be done as part of the event witnessing. Only the amount is checked          to explicity indicate that an amount is required.",
        "notice": "Performs a cross-chain call to the destination chain and destination address. An ERC20 token amount          needs to be approved to this contract. The ERC20 token must be supported by the Chainflip Protocol.          The swap intent determines whether the provided tokens should be swapped to a different token          by the Chainflip Protocol. If so, the swapped tokens will be transferred to the destination chain as part          of the cross-chain call. Otherwise, the tokens are used as a payment for gas on the destination chain.          The message parameter is transmitted to the destination chain as part of the cross-chain call.",
        "params": {
          "amount": "Amount of tokens to swap.",
          "dstAddress": "String containing the destination address on the destination chain.",
          "dstChain": "The destination chain according to the Chainflip Protocol's nomenclature.",
          "dstNativeGas": "The amount of native gas to be used on the destination chain's call. That gas will be paid with the                      source token.",
          "message": "The message to be sent to the egress chain. This is a general purpose message.",
          "refundAddress": "Address to refund any excess gas left from the execution of the xCall on the dstChain. This address                      is in the context of the srcChain.",
          "srcToken": "Address of the source token.",
          "swapIntent": "String containing the specifics of the swap to be performed as part of the xCall. An empty swapIntent                       implies that no swap needs to take place and the source token will be used for gas in a swapless xCall."
        }
      },
      "xSwapNative(uint32,string,string)": {
        "details": "Checking the validity of inputs shall be done as part of the event witnessing. Only the amount is checked          to explicity indicate that an amount is required.  It isn't preventing spamming.",
        "notice": "Swaps native token for a token in another chain. The egress token will be transferred to the specified           destination address on the destination chain.",
        "params": {
          "dstAddress": "String containing the destination address on the destination chain.",
          "dstChain": "The destination chain according to the Chainflip Protocol's nomenclature.",
          "swapIntent": "String containing the specifics of the swap to be performed according to Chainflip's nomenclature."
        }
      },
      "xSwapToken(uint32,string,string,address,uint256)": {
        "details": "Checking the validity of inputs shall be done as part of the event witnessing. Only the amount is checked          to explicity indicate that an amount is required.",
        "notice": "Swaps ERC20 token for a token in another chain. The desired token will be transferred to the specified           destination address on the destination chain. The provided ERC20 token must be supported by the Chainflip Protocol. ",
        "params": {
          "amount": "Amount of tokens to swap.",
          "dstAddress": "String containing the destination address on the destination chain.",
          "dstChain": "The destination chain according to the Chainflip Protocol's nomenclature.",
          "srcToken": "Address of the source token to swap.",
          "swapIntent": "String containing the specifics of the swap to be performed according to Chainflip's nomenclature."
        }
      }
    },
    "notice": "The vault for holding and transferring native/tokens and deploying contracts for fetching           individual deposits. It also allows users to do cross-chain swaps and(or) calls by           making a function call directly to this contract.",
    "title": "Vault contract",
    "version": 1
  },
  "opcodes": "PUSH1 0x80 PUSH1 0x40 MSTORE PUSH1 0x4 CALLDATASIZE LT PUSH3 0x1BB JUMPI PUSH1 0x0 CALLDATALOAD PUSH1 0xE0 SHR DUP1 PUSH4 0x63E7334B GT PUSH3 0xF3 JUMPI DUP1 PUSH4 0x8D95E559 GT PUSH3 0x95 JUMPI DUP1 PUSH4 0xB03B6A57 GT PUSH3 0x6C JUMPI DUP1 PUSH4 0xB03B6A57 EQ PUSH3 0x481 JUMPI DUP1 PUSH4 0xE4D2F59B EQ PUSH3 0x4A6 JUMPI DUP1 PUSH4 0xE6400BBE EQ PUSH3 0x4CB JUMPI DUP1 PUSH4 0xF545FAB9 EQ PUSH3 0x4E3 JUMPI PUSH1 0x0 DUP1 REVERT JUMPDEST DUP1 PUSH4 0x8D95E559 EQ PUSH3 0x43A JUMPI DUP1 PUSH4 0x91495FBC EQ PUSH3 0x452 JUMPI DUP1 PUSH4 0xAAE9BA43 EQ PUSH3 0x469 JUMPI PUSH1 0x0 DUP1 REVERT JUMPDEST DUP1 PUSH4 0x765849B9 GT PUSH3 0xCA JUMPI DUP1 PUSH4 0x765849B9 EQ PUSH3 0x3CF JUMPI DUP1 PUSH4 0x774D6801 EQ PUSH3 0x3F0 JUMPI DUP1 PUSH4 0x79C83AD7 EQ PUSH3 0x415 JUMPI PUSH1 0x0 DUP1 REVERT JUMPDEST DUP1 PUSH4 0x63E7334B EQ PUSH3 0x360 JUMPI DUP1 PUSH4 0x674BDFE2 EQ PUSH3 0x385 JUMPI DUP1 PUSH4 0x7484606F EQ PUSH3 0x3AA JUMPI PUSH1 0x0 DUP1 REVERT JUMPDEST DUP1 PUSH4 0x420E6759 GT PUSH3 0x15D JUMPI DUP1 PUSH4 0x561DC4C8 GT PUSH3 0x134 JUMPI DUP1 PUSH4 0x561DC4C8 EQ PUSH3 0x2F5 JUMPI DUP1 PUSH4 0x5942B3BC EQ PUSH3 0x316 JUMPI DUP1 PUSH4 0x59DC4A09 EQ PUSH3 0x33B JUMPI PUSH1 0x0 DUP1 REVERT JUMPDEST DUP1 PUSH4 0x420E6759 EQ PUSH3 0x298 JUMPI DUP1 PUSH4 0x4B0CFC00 EQ PUSH3 0x2BD JUMPI DUP1 PUSH4 0x4FC07D75 EQ PUSH3 0x2DD JUMPI PUSH1 0x0 DUP1 REVERT JUMPDEST DUP1 PUSH4 0x29B74201 GT PUSH3 0x192 JUMPI DUP1 PUSH4 0x29B74201 EQ PUSH3 0x211 JUMPI DUP1 PUSH4 0x386E8FE5 EQ PUSH3 0x242 JUMPI DUP1 PUSH4 0x3F87B30F EQ PUSH3 0x267 JUMPI PUSH1 0x0 DUP1 REVERT JUMPDEST DUP1 PUSH4 0x46F7DA2 EQ PUSH3 0x1C8 JUMPI DUP1 PUSH4 0xEBF1FE9 EQ PUSH3 0x1E2 JUMPI DUP1 PUSH4 0x27610A60 EQ PUSH3 0x1FA JUMPI PUSH1 0x0 DUP1 REVERT JUMPDEST CALLDATASIZE PUSH3 0x1C3 JUMPI STOP JUMPDEST PUSH1 0x0 DUP1 REVERT JUMPDEST CALLVALUE DUP1 ISZERO PUSH3 0x1D5 JUMPI PUSH1 0x0 DUP1 REVERT JUMPDEST POP PUSH3 0x1E0 PUSH3 0x4FB JUMP JUMPDEST STOP JUMPDEST CALLVALUE DUP1 ISZERO PUSH3 0x1EF JUMPI PUSH1 0x0 DUP1 REVERT JUMPDEST POP PUSH3 0x1E0 PUSH3 0x624 JUMP JUMPDEST PUSH3 0x1E0 PUSH3 0x20B CALLDATASIZE PUSH1 0x4 PUSH3 0x34B9 JUMP JUMPDEST PUSH3 0x74C JUMP JUMPDEST CALLVALUE DUP1 ISZERO PUSH3 0x21E JUMPI PUSH1 0x0 DUP1 REVERT JUMPDEST POP PUSH1 0x0 SLOAD PUSH1 0x1 PUSH1 0xA8 SHL SWAP1 DIV PUSH1 0xFF AND JUMPDEST PUSH1 0x40 MLOAD SWAP1 ISZERO ISZERO DUP2 MSTORE PUSH1 0x20 ADD JUMPDEST PUSH1 0x40 MLOAD DUP1 SWAP2 SUB SWAP1 RETURN JUMPDEST CALLVALUE DUP1 ISZERO PUSH3 0x24F JUMPI PUSH1 0x0 DUP1 REVERT JUMPDEST POP PUSH3 0x1E0 PUSH3 0x261 CALLDATASIZE PUSH1 0x4 PUSH3 0x3601 JUMP JUMPDEST PUSH3 0x83F JUMP JUMPDEST CALLVALUE DUP1 ISZERO PUSH3 0x274 JUMPI PUSH1 0x0 DUP1 REVERT JUMPDEST POP PUSH3 0x27F PUSH3 0x9B4 JUMP JUMPDEST PUSH1 0x40 MLOAD PUSH1 0x1 PUSH1 0x1 PUSH1 0xA0 SHL SUB SWAP1 SWAP2 AND DUP2 MSTORE PUSH1 0x20 ADD PUSH3 0x239 JUMP JUMPDEST CALLVALUE DUP1 ISZERO PUSH3 0x2A5 JUMPI PUSH1 0x0 DUP1 REVERT JUMPDEST POP PUSH3 0x1E0 PUSH3 0x2B7 CALLDATASIZE PUSH1 0x4 PUSH3 0x3394 JUMP JUMPDEST PUSH3 0x9C5 JUMP JUMPDEST CALLVALUE DUP1 ISZERO PUSH3 0x2CA JUMPI PUSH1 0x0 DUP1 REVERT JUMPDEST POP PUSH1 0x0 SLOAD PUSH1 0x1 PUSH1 0x1 PUSH1 0xA0 SHL SUB AND PUSH3 0x27F JUMP JUMPDEST CALLVALUE DUP1 ISZERO PUSH3 0x2EA JUMPI PUSH1 0x0 DUP1 REVERT JUMPDEST POP PUSH3 0x27F PUSH3 0xBCA JUMP JUMPDEST CALLVALUE DUP1 ISZERO PUSH3 0x302 JUMPI PUSH1 0x0 DUP1 REVERT JUMPDEST POP PUSH1 0x0 SLOAD PUSH1 0x1 PUSH1 0xB0 SHL SWAP1 DIV PUSH1 0xFF AND PUSH3 0x22D JUMP JUMPDEST CALLVALUE DUP1 ISZERO PUSH3 0x323 JUMPI PUSH1 0x0 DUP1 REVERT JUMPDEST POP PUSH3 0x1E0 PUSH3 0x335 CALLDATASIZE PUSH1 0x4 PUSH3 0x36E4 JUMP JUMPDEST PUSH3 0xBD6 JUMP JUMPDEST CALLVALUE DUP1 ISZERO PUSH3 0x348 JUMPI PUSH1 0x0 DUP1 REVERT JUMPDEST POP PUSH3 0x1E0 PUSH3 0x35A CALLDATASIZE PUSH1 0x4 PUSH3 0x3246 JUMP JUMPDEST PUSH3 0xCE4 JUMP JUMPDEST CALLVALUE DUP1 ISZERO PUSH3 0x36D JUMPI PUSH1 0x0 DUP1 REVERT JUMPDEST POP PUSH3 0x1E0 PUSH3 0x37F CALLDATASIZE PUSH1 0x4 PUSH3 0x32A0 JUMP JUMPDEST PUSH3 0xE88 JUMP JUMPDEST CALLVALUE DUP1 ISZERO PUSH3 0x392 JUMPI PUSH1 0x0 DUP1 REVERT JUMPDEST POP PUSH3 0x1E0 PUSH3 0x3A4 CALLDATASIZE PUSH1 0x4 PUSH3 0x3191 JUMP JUMPDEST PUSH3 0x1050 JUMP JUMPDEST CALLVALUE DUP1 ISZERO PUSH3 0x3B7 JUMPI PUSH1 0x0 DUP1 REVERT JUMPDEST POP PUSH3 0x1E0 PUSH3 0x3C9 CALLDATASIZE PUSH1 0x4 PUSH3 0x30F3 JUMP JUMPDEST PUSH3 0x12D1 JUMP JUMPDEST CALLVALUE DUP1 ISZERO PUSH3 0x3DC JUMPI PUSH1 0x0 DUP1 REVERT JUMPDEST POP PUSH1 0x0 SLOAD PUSH1 0x1 PUSH1 0xA0 SHL SWAP1 DIV PUSH1 0xFF AND PUSH3 0x22D JUMP JUMPDEST CALLVALUE DUP1 ISZERO PUSH3 0x3FD JUMPI PUSH1 0x0 DUP1 REVERT JUMPDEST POP PUSH3 0x1E0 PUSH3 0x40F CALLDATASIZE PUSH1 0x4 PUSH3 0x340C JUMP JUMPDEST PUSH3 0x1701 JUMP JUMPDEST CALLVALUE DUP1 ISZERO PUSH3 0x422 JUMPI PUSH1 0x0 DUP1 REVERT JUMPDEST POP PUSH3 0x1E0 PUSH3 0x434 CALLDATASIZE PUSH1 0x4 PUSH3 0x3246 JUMP JUMPDEST PUSH3 0x19DD JUMP JUMPDEST CALLVALUE DUP1 ISZERO PUSH3 0x447 JUMPI PUSH1 0x0 DUP1 REVERT JUMPDEST POP PUSH3 0x1E0 PUSH3 0x1B7A JUMP JUMPDEST PUSH3 0x1E0 PUSH3 0x463 CALLDATASIZE PUSH1 0x4 PUSH3 0x3536 JUMP JUMPDEST PUSH3 0x1CA6 JUMP JUMPDEST CALLVALUE DUP1 ISZERO PUSH3 0x476 JUMPI PUSH1 0x0 DUP1 REVERT JUMPDEST POP PUSH3 0x1E0 PUSH3 0x1E00 JUMP JUMPDEST CALLVALUE DUP1 ISZERO PUSH3 0x48E JUMPI PUSH1 0x0 DUP1 REVERT JUMPDEST POP PUSH3 0x1E0 PUSH3 0x4A0 CALLDATASIZE PUSH1 0x4 PUSH3 0x33D1 JUMP JUMPDEST PUSH3 0x1F4D JUMP JUMPDEST CALLVALUE DUP1 ISZERO PUSH3 0x4B3 JUMPI PUSH1 0x0 DUP1 REVERT JUMPDEST POP PUSH3 0x1E0 PUSH3 0x4C5 CALLDATASIZE PUSH1 0x4 PUSH3 0x3347 JUMP JUMPDEST PUSH3 0x223C JUMP JUMPDEST CALLVALUE DUP1 ISZERO PUSH3 0x4D8 JUMPI PUSH1 0x0 DUP1 REVERT JUMPDEST POP PUSH3 0x1E0 PUSH3 0x23D9 JUMP JUMPDEST CALLVALUE DUP1 ISZERO PUSH3 0x4F0 JUMPI PUSH1 0x0 DUP1 REVERT JUMPDEST POP PUSH3 0x1E0 PUSH3 0x24F9 JUMP JUMPDEST PUSH3 0x505 PUSH3 0x2619 JUMP JUMPDEST PUSH1 0x1 PUSH1 0x1 PUSH1 0xA0 SHL SUB AND CALLER PUSH1 0x1 PUSH1 0x1 PUSH1 0xA0 SHL SUB AND EQ PUSH3 0x56B JUMPI PUSH1 0x40 MLOAD PUSH3 0x461BCD PUSH1 0xE5 SHL DUP2 MSTORE PUSH1 0x20 PUSH1 0x4 DUP3 ADD MSTORE PUSH1 0x18 PUSH1 0x24 DUP3 ADD MSTORE PUSH32 0x476F7665726E616E63653A206E6F7420676F7665726E6F720000000000000000 PUSH1 0x44 DUP3 ADD MSTORE PUSH1 0x64 ADD JUMPDEST PUSH1 0x40 MLOAD DUP1 SWAP2 SUB SWAP1 REVERT JUMPDEST PUSH1 0x0 SLOAD PUSH1 0x1 PUSH1 0xA8 SHL SWAP1 DIV PUSH1 0xFF AND PUSH3 0x5C6 JUMPI PUSH1 0x40 MLOAD PUSH3 0x461BCD PUSH1 0xE5 SHL DUP2 MSTORE PUSH1 0x20 PUSH1 0x4 DUP3 ADD MSTORE PUSH1 0x19 PUSH1 0x24 DUP3 ADD MSTORE PUSH32 0x476F7665726E616E63653A206E6F742073757370656E64656400000000000000 PUSH1 0x44 DUP3 ADD MSTORE PUSH1 0x64 ADD PUSH3 0x562 JUMP JUMPDEST PUSH1 0x0 DUP1 SLOAD PUSH32 0xFFFFFFFFFFFFFFFFFFFF00FFFFFFFFFFFFFFFFFFFFFFFFFFFFFFFFFFFFFFFFFF AND DUP2 SSTORE PUSH1 0x40 MLOAD SWAP1 DUP2 MSTORE PUSH32 0x58E6C20B68C19F4D8DBC6206267AF40B288342464B433205BB41E5B65C4016DA SWAP1 PUSH1 0x20 ADD JUMPDEST PUSH1 0x40 MLOAD DUP1 SWAP2 SUB SWAP1 LOG1 JUMP JUMPDEST PUSH3 0x62E PUSH3 0x2619 JUMP JUMPDEST PUSH1 0x1 PUSH1 0x1 PUSH1 0xA0 SHL SUB AND CALLER PUSH1 0x1 PUSH1 0x1 PUSH1 0xA0 SHL SUB AND EQ PUSH3 0x690 JUMPI PUSH1 0x40 MLOAD PUSH3 0x461BCD PUSH1 0xE5 SHL DUP2 MSTORE PUSH1 0x20 PUSH1 0x4 DUP3 ADD MSTORE PUSH1 0x18 PUSH1 0x24 DUP3 ADD MSTORE PUSH32 0x476F7665726E616E63653A206E6F7420676F7665726E6F720000000000000000 PUSH1 0x44 DUP3 ADD MSTORE PUSH1 0x64 ADD PUSH3 0x562 JUMP JUMPDEST PUSH1 0x0 SLOAD PUSH1 0x1 PUSH1 0xB0 SHL SWAP1 DIV PUSH1 0xFF AND ISZERO PUSH3 0x6EC JUMPI PUSH1 0x40 MLOAD PUSH3 0x461BCD PUSH1 0xE5 SHL DUP2 MSTORE PUSH1 0x20 PUSH1 0x4 DUP3 ADD MSTORE PUSH1 0x15 PUSH1 0x24 DUP3 ADD MSTORE PUSH32 0x5661756C743A207843616C6C7320656E61626C65640000000000000000000000 PUSH1 0x44 DUP3 ADD MSTORE PUSH1 0x64 ADD PUSH3 0x562 JUMP JUMPDEST PUSH1 0x0 DUP1 SLOAD PUSH32 0xFFFFFFFFFFFFFFFFFF00FFFFFFFFFFFFFFFFFFFFFFFFFFFFFFFFFFFFFFFFFFFF AND PUSH1 0x1 PUSH1 0xB0 SHL OR SWAP1 SSTORE PUSH1 0x40 MLOAD PUSH1 0x1 DUP2 MSTORE PUSH32 0x55F83E6FCE30D9FD43A6CA0101BC68CF99B4944A9D9EB39A961533C04BFA3966 SWAP1 PUSH1 0x20 ADD PUSH3 0x61A JUMP JUMPDEST PUSH1 0x0 SLOAD PUSH1 0x1 PUSH1 0xA8 SHL SWAP1 DIV PUSH1 0xFF AND ISZERO PUSH3 0x7A0 JUMPI PUSH1 0x40 MLOAD PUSH3 0x461BCD PUSH1 0xE5 SHL DUP2 MSTORE PUSH1 0x20 PUSH1 0x4 DUP3 ADD MSTORE PUSH1 0x15 PUSH1 0x24 DUP3 ADD MSTORE PUSH21 0x11DBDD995C9B985B98D94E881CDD5CDC195B991959 PUSH1 0x5A SHL PUSH1 0x44 DUP3 ADD MSTORE PUSH1 0x64 ADD PUSH3 0x562 JUMP JUMPDEST CALLVALUE DUP1 PUSH3 0x7F0 JUMPI PUSH1 0x40 MLOAD PUSH3 0x461BCD PUSH1 0xE5 SHL DUP2 MSTORE PUSH1 0x20 PUSH1 0x4 DUP3 ADD MSTORE PUSH1 0x1B PUSH1 0x24 DUP3 ADD MSTORE PUSH32 0x5368617265643A2075696E7420696E70757420697320656D7074790000000000 PUSH1 0x44 DUP3 ADD MSTORE PUSH1 0x64 ADD PUSH3 0x562 JUMP JUMPDEST CALLER PUSH1 0x1 PUSH1 0x1 PUSH1 0xA0 SHL SUB AND PUSH32 0x4DE49A59404BAF7C2B0D3DB254297AF01DC258CBC5D78CA37B8CF5A98CFDC200 DUP6 DUP6 DUP6 CALLVALUE PUSH1 0x40 MLOAD PUSH3 0x831 SWAP5 SWAP4 SWAP3 SWAP2 SWAP1 PUSH3 0x3EF6 JUMP JUMPDEST PUSH1 0x40 MLOAD DUP1 SWAP2 SUB SWAP1 LOG2 POP POP POP POP JUMP JUMPDEST PUSH1 0x0 SLOAD PUSH1 0x1 PUSH1 0xA8 SHL SWAP1 DIV PUSH1 0xFF AND ISZERO PUSH3 0x893 JUMPI PUSH1 0x40 MLOAD PUSH3 0x461BCD PUSH1 0xE5 SHL DUP2 MSTORE PUSH1 0x20 PUSH1 0x4 DUP3 ADD MSTORE PUSH1 0x15 PUSH1 0x24 DUP3 ADD MSTORE PUSH21 0x11DBDD995C9B985B98D94E881CDD5CDC195B991959 PUSH1 0x5A SHL PUSH1 0x44 DUP3 ADD MSTORE PUSH1 0x64 ADD PUSH3 0x562 JUMP JUMPDEST PUSH1 0x0 SLOAD PUSH1 0x1 PUSH1 0xB0 SHL SWAP1 DIV PUSH1 0xFF AND PUSH3 0x8EE JUMPI PUSH1 0x40 MLOAD PUSH3 0x461BCD PUSH1 0xE5 SHL DUP2 MSTORE PUSH1 0x20 PUSH1 0x4 DUP3 ADD MSTORE PUSH1 0x19 PUSH1 0x24 DUP3 ADD MSTORE PUSH32 0x5661756C743A207843616C6C73206E6F7420656E61626C656400000000000000 PUSH1 0x44 DUP3 ADD MSTORE PUSH1 0x64 ADD PUSH3 0x562 JUMP JUMPDEST DUP2 DUP1 PUSH3 0x93E JUMPI PUSH1 0x40 MLOAD PUSH3 0x461BCD PUSH1 0xE5 SHL DUP2 MSTORE PUSH1 0x20 PUSH1 0x4 DUP3 ADD MSTORE PUSH1 0x1B PUSH1 0x24 DUP3 ADD MSTORE PUSH32 0x5368617265643A2075696E7420696E70757420697320656D7074790000000000 PUSH1 0x44 DUP3 ADD MSTORE PUSH1 0x64 ADD PUSH3 0x562 JUMP JUMPDEST PUSH3 0x955 PUSH1 0x1 PUSH1 0x1 PUSH1 0xA0 SHL SUB DUP6 AND CALLER ADDRESS DUP7 PUSH3 0x269A JUMP JUMPDEST CALLER PUSH1 0x1 PUSH1 0x1 PUSH1 0xA0 SHL SUB AND PUSH32 0x98D5C453EB58C7CE3C927A1B55FFBFDA38DF699446DA57678D54839D8B21E667 DUP12 DUP12 DUP12 DUP9 DUP9 DUP14 DUP14 DUP14 DUP12 PUSH1 0x40 MLOAD PUSH3 0x9A0 SWAP10 SWAP9 SWAP8 SWAP7 SWAP6 SWAP5 SWAP4 SWAP3 SWAP2 SWAP1 PUSH3 0x3E71 JUMP JUMPDEST PUSH1 0x40 MLOAD DUP1 SWAP2 SUB SWAP1 LOG2 POP POP POP POP POP POP POP POP POP POP JUMP JUMPDEST PUSH1 0x0 PUSH3 0x9C0 PUSH3 0x2720 JUMP JUMPDEST SWAP1 POP SWAP1 JUMP JUMPDEST DUP1 PUSH1 0x1 PUSH1 0x1 PUSH1 0xA0 SHL SUB DUP2 AND PUSH3 0xA1E JUMPI PUSH1 0x40 MLOAD PUSH3 0x461BCD PUSH1 0xE5 SHL DUP2 MSTORE PUSH1 0x20 PUSH1 0x4 DUP3 ADD MSTORE PUSH1 0x1E PUSH1 0x24 DUP3 ADD MSTORE PUSH32 0x5368617265643A206164647265737320696E70757420697320656D7074790000 PUSH1 0x44 DUP3 ADD MSTORE PUSH1 0x64 ADD PUSH3 0x562 JUMP JUMPDEST PUSH1 0x40 DUP1 MLOAD PUSH1 0xC0 DUP2 ADD SWAP1 SWAP2 MSTORE DUP4 SWAP1 PUSH32 0x420E675900000000000000000000000000000000000000000000000000000000 SWAP1 DUP1 PUSH3 0xA5D PUSH1 0x20 DUP6 ADD DUP6 PUSH3 0x30B3 JUMP JUMPDEST PUSH1 0x1 PUSH1 0x1 PUSH1 0xA0 SHL SUB AND DUP2 MSTORE PUSH1 0x20 ADD DUP7 PUSH1 0x20 ADD CALLDATALOAD DUP2 MSTORE PUSH1 0x20 ADD PUSH1 0x0 DUP2 MSTORE PUSH1 0x20 ADD PUSH1 0x0 DUP2 MSTORE PUSH1 0x20 ADD DUP7 PUSH1 0x80 ADD CALLDATALOAD DUP2 MSTORE PUSH1 0x20 ADD PUSH1 0x0 PUSH1 0x1 PUSH1 0x1 PUSH1 0xA0 SHL SUB AND DUP2 MSTORE POP DUP5 PUSH1 0x40 MLOAD PUSH1 0x24 ADD PUSH3 0xAAF SWAP3 SWAP2 SWAP1 PUSH3 0x3C20 JUMP JUMPDEST PUSH1 0x40 DUP1 MLOAD PUSH1 0x1F NOT DUP2 DUP5 SUB ADD DUP2 MSTORE SWAP2 SWAP1 MSTORE PUSH1 0x20 DUP2 ADD DUP1 MLOAD PUSH1 0x1 PUSH1 0x1 PUSH1 0xE0 SHL SUB AND PUSH1 0x1 PUSH1 0x1 PUSH1 0xE0 SHL SUB NOT SWAP1 SWAP4 AND SWAP3 SWAP1 SWAP3 OR DUP3 MSTORE MLOAD SWAP1 KECCAK256 PUSH3 0xAF6 PUSH1 0x0 SLOAD PUSH1 0x1 PUSH1 0x1 PUSH1 0xA0 SHL SUB AND SWAP1 JUMP JUMPDEST PUSH1 0x1 PUSH1 0x1 PUSH1 0xA0 SHL SUB AND PUSH4 0xA58A3F1D DUP4 DUP4 PUSH1 0x40 MLOAD DUP4 PUSH4 0xFFFFFFFF AND PUSH1 0xE0 SHL DUP2 MSTORE PUSH1 0x4 ADD PUSH3 0xB25 SWAP3 SWAP2 SWAP1 PUSH3 0x393A JUMP JUMPDEST PUSH1 0x0 PUSH1 0x40 MLOAD DUP1 DUP4 SUB DUP2 PUSH1 0x0 DUP8 DUP1 EXTCODESIZE ISZERO DUP1 ISZERO PUSH3 0xB40 JUMPI PUSH1 0x0 DUP1 REVERT JUMPDEST POP GAS CALL ISZERO DUP1 ISZERO PUSH3 0xB55 JUMPI RETURNDATASIZE PUSH1 0x0 DUP1 RETURNDATACOPY RETURNDATASIZE PUSH1 0x0 REVERT JUMPDEST POP POP PUSH1 0x0 DUP1 SLOAD PUSH32 0xFFFFFFFFFFFFFFFFFFFFFFFF0000000000000000000000000000000000000000 AND PUSH1 0x1 PUSH1 0x1 PUSH1 0xA0 SHL SUB DUP9 AND SWAP1 DUP2 OR SWAP1 SWAP2 SSTORE PUSH1 0x40 MLOAD SWAP1 DUP2 MSTORE PUSH32 0xD18040E514983D65F088430E69091AEA9BF07FEAED3696A3FAAC1CCC34B5E3BC SWAP3 POP PUSH1 0x20 ADD SWAP1 POP PUSH1 0x40 MLOAD DUP1 SWAP2 SUB SWAP1 LOG1 POP POP POP POP POP JUMP JUMPDEST PUSH1 0x0 PUSH3 0x9C0 PUSH3 0x2619 JUMP JUMPDEST PUSH1 0x0 SLOAD PUSH1 0x1 PUSH1 0xA8 SHL SWAP1 DIV PUSH1 0xFF AND ISZERO PUSH3 0xC2A JUMPI PUSH1 0x40 MLOAD PUSH3 0x461BCD PUSH1 0xE5 SHL DUP2 MSTORE PUSH1 0x20 PUSH1 0x4 DUP3 ADD MSTORE PUSH1 0x15 PUSH1 0x24 DUP3 ADD MSTORE PUSH21 0x11DBDD995C9B985B98D94E881CDD5CDC195B991959 PUSH1 0x5A SHL PUSH1 0x44 DUP3 ADD MSTORE PUSH1 0x64 ADD PUSH3 0x562 JUMP JUMPDEST DUP1 DUP1 PUSH3 0xC7A JUMPI PUSH1 0x40 MLOAD PUSH3 0x461BCD PUSH1 0xE5 SHL DUP2 MSTORE PUSH1 0x20 PUSH1 0x4 DUP3 ADD MSTORE PUSH1 0x1B PUSH1 0x24 DUP3 ADD MSTORE PUSH32 0x5368617265643A2075696E7420696E70757420697320656D7074790000000000 PUSH1 0x44 DUP3 ADD MSTORE PUSH1 0x64 ADD PUSH3 0x562 JUMP JUMPDEST PUSH3 0xC91 PUSH1 0x1 PUSH1 0x1 PUSH1 0xA0 SHL SUB DUP5 AND CALLER ADDRESS DUP6 PUSH3 0x269A JUMP JUMPDEST CALLER PUSH1 0x1 PUSH1 0x1 PUSH1 0xA0 SHL SUB AND PUSH32 0x1E7B21F751C6D9FA3F98A51B607C124A07DF7C3C54EE98D0A37854AAA4F864D0 DUP8 DUP8 DUP8 DUP8 DUP8 PUSH1 0x40 MLOAD PUSH3 0xCD4 SWAP6 SWAP5 SWAP4 SWAP3 SWAP2 SWAP1 PUSH3 0x3E1E JUMP JUMPDEST PUSH1 0x40 MLOAD DUP1 SWAP2 SUB SWAP1 LOG2 POP POP POP POP POP POP JUMP JUMPDEST PUSH1 0x0 SLOAD PUSH1 0x1 PUSH1 0xA8 SHL SWAP1 DIV PUSH1 0xFF AND ISZERO PUSH3 0xD38 JUMPI PUSH1 0x40 MLOAD PUSH3 0x461BCD PUSH1 0xE5 SHL DUP2 MSTORE PUSH1 0x20 PUSH1 0x4 DUP3 ADD MSTORE PUSH1 0x15 PUSH1 0x24 DUP3 ADD MSTORE PUSH21 0x11DBDD995C9B985B98D94E881CDD5CDC195B991959 PUSH1 0x5A SHL PUSH1 0x44 DUP3 ADD MSTORE PUSH1 0x64 ADD PUSH3 0x562 JUMP JUMPDEST PUSH1 0x40 DUP1 MLOAD PUSH1 0xC0 DUP2 ADD SWAP1 SWAP2 MSTORE DUP4 SWAP1 PUSH32 0x59DC4A0900000000000000000000000000000000000000000000000000000000 SWAP1 DUP1 PUSH3 0xD77 PUSH1 0x20 DUP6 ADD DUP6 PUSH3 0x30B3 JUMP JUMPDEST PUSH1 0x1 PUSH1 0x1 PUSH1 0xA0 SHL SUB AND DUP2 MSTORE PUSH1 0x20 ADD DUP7 PUSH1 0x20 ADD CALLDATALOAD DUP2 MSTORE PUSH1 0x20 ADD PUSH1 0x0 DUP2 MSTORE PUSH1 0x20 ADD PUSH1 0x0 DUP2 MSTORE PUSH1 0x20 ADD DUP7 PUSH1 0x80 ADD CALLDATALOAD DUP2 MSTORE PUSH1 0x20 ADD PUSH1 0x0 PUSH1 0x1 PUSH1 0x1 PUSH1 0xA0 SHL SUB AND DUP2 MSTORE POP DUP5 DUP5 PUSH1 0x40 MLOAD PUSH1 0x24 ADD PUSH3 0xDCB SWAP4 SWAP3 SWAP2 SWAP1 PUSH3 0x3A4F JUMP JUMPDEST PUSH1 0x40 DUP1 MLOAD PUSH1 0x1F NOT DUP2 DUP5 SUB ADD DUP2 MSTORE SWAP2 SWAP1 MSTORE PUSH1 0x20 DUP2 ADD DUP1 MLOAD PUSH1 0x1 PUSH1 0x1 PUSH1 0xE0 SHL SUB AND PUSH1 0x1 PUSH1 0x1 PUSH1 0xE0 SHL SUB NOT SWAP1 SWAP4 AND SWAP3 SWAP1 SWAP3 OR DUP3 MSTORE MLOAD SWAP1 KECCAK256 PUSH3 0xE12 PUSH1 0x0 SLOAD PUSH1 0x1 PUSH1 0x1 PUSH1 0xA0 SHL SUB AND SWAP1 JUMP JUMPDEST PUSH1 0x1 PUSH1 0x1 PUSH1 0xA0 SHL SUB AND PUSH4 0xA58A3F1D DUP4 DUP4 PUSH1 0x40 MLOAD DUP4 PUSH4 0xFFFFFFFF AND PUSH1 0xE0 SHL DUP2 MSTORE PUSH1 0x4 ADD PUSH3 0xE41 SWAP3 SWAP2 SWAP1 PUSH3 0x393A JUMP JUMPDEST PUSH1 0x0 PUSH1 0x40 MLOAD DUP1 DUP4 SUB DUP2 PUSH1 0x0 DUP8 DUP1 EXTCODESIZE ISZERO DUP1 ISZERO PUSH3 0xE5C JUMPI PUSH1 0x0 DUP1 REVERT JUMPDEST POP GAS CALL ISZERO DUP1 ISZERO PUSH3 0xE71 JUMPI RETURNDATASIZE PUSH1 0x0 DUP1 RETURNDATACOPY RETURNDATASIZE PUSH1 0x0 REVERT JUMPDEST POP POP POP POP PUSH3 0xE81 DUP5 DUP5 PUSH3 0x2766 JUMP JUMPDEST POP POP POP POP POP JUMP JUMPDEST PUSH1 0x0 SLOAD PUSH1 0x1 PUSH1 0xA8 SHL SWAP1 DIV PUSH1 0xFF AND ISZERO PUSH3 0xEDC JUMPI PUSH1 0x40 MLOAD PUSH3 0x461BCD PUSH1 0xE5 SHL DUP2 MSTORE PUSH1 0x20 PUSH1 0x4 DUP3 ADD MSTORE PUSH1 0x15 PUSH1 0x24 DUP3 ADD MSTORE PUSH21 0x11DBDD995C9B985B98D94E881CDD5CDC195B991959 PUSH1 0x5A SHL PUSH1 0x44 DUP3 ADD MSTORE PUSH1 0x64 ADD PUSH3 0x562 JUMP JUMPDEST PUSH1 0x40 DUP1 MLOAD PUSH1 0xC0 DUP2 ADD SWAP1 SWAP2 MSTORE DUP8 SWAP1 PUSH32 0x63E7334B00000000000000000000000000000000000000000000000000000000 SWAP1 DUP1 PUSH3 0xF1B PUSH1 0x20 DUP6 ADD DUP6 PUSH3 0x30B3 JUMP JUMPDEST PUSH1 0x1 PUSH1 0x1 PUSH1 0xA0 SHL SUB AND DUP2 MSTORE PUSH1 0x20 ADD DUP11 PUSH1 0x20 ADD CALLDATALOAD DUP2 MSTORE PUSH1 0x20 ADD PUSH1 0x0 DUP2 MSTORE PUSH1 0x20 ADD PUSH1 0x0 DUP2 MSTORE PUSH1 0x20 ADD DUP11 PUSH1 0x80 ADD CALLDATALOAD DUP2 MSTORE PUSH1 0x20 ADD PUSH1 0x0 PUSH1 0x1 PUSH1 0x1 PUSH1 0xA0 SHL SUB AND DUP2 MSTORE POP DUP9 DUP9 DUP9 DUP9 DUP9 DUP9 PUSH1 0x40 MLOAD PUSH1 0x24 ADD PUSH3 0xF77 SWAP8 SWAP7 SWAP6 SWAP5 SWAP4 SWAP3 SWAP2 SWAP1 PUSH3 0x3ABE JUMP JUMPDEST PUSH1 0x40 DUP1 MLOAD PUSH1 0x1F NOT DUP2 DUP5 SUB ADD DUP2 MSTORE SWAP2 SWAP1 MSTORE PUSH1 0x20 DUP2 ADD DUP1 MLOAD PUSH1 0x1 PUSH1 0x1 PUSH1 0xE0 SHL SUB AND PUSH1 0x1 PUSH1 0x1 PUSH1 0xE0 SHL SUB NOT SWAP1 SWAP4 AND SWAP3 SWAP1 SWAP3 OR DUP3 MSTORE MLOAD SWAP1 KECCAK256 PUSH3 0xFBE PUSH1 0x0 SLOAD PUSH1 0x1 PUSH1 0x1 PUSH1 0xA0 SHL SUB AND SWAP1 JUMP JUMPDEST PUSH1 0x1 PUSH1 0x1 PUSH1 0xA0 SHL SUB AND PUSH4 0xA58A3F1D DUP4 DUP4 PUSH1 0x40 MLOAD DUP4 PUSH4 0xFFFFFFFF AND PUSH1 0xE0 SHL DUP2 MSTORE PUSH1 0x4 ADD PUSH3 0xFED SWAP3 SWAP2 SWAP1 PUSH3 0x393A JUMP JUMPDEST PUSH1 0x0 PUSH1 0x40 MLOAD DUP1 DUP4 SUB DUP2 PUSH1 0x0 DUP8 DUP1 EXTCODESIZE ISZERO DUP1 ISZERO PUSH3 0x1008 JUMPI PUSH1 0x0 DUP1 REVERT JUMPDEST POP GAS CALL ISZERO DUP1 ISZERO PUSH3 0x101D JUMPI RETURNDATASIZE PUSH1 0x0 DUP1 RETURNDATACOPY RETURNDATASIZE PUSH1 0x0 REVERT JUMPDEST POP POP POP POP PUSH3 0x102D DUP9 DUP9 PUSH3 0x2766 JUMP JUMPDEST PUSH3 0x1039 DUP7 DUP7 PUSH3 0x280B JUMP JUMPDEST PUSH3 0x1045 DUP5 DUP5 PUSH3 0x28E9 JUMP JUMPDEST POP POP POP POP POP POP POP POP POP JUMP JUMPDEST PUSH1 0x0 SLOAD PUSH1 0x1 PUSH1 0xA8 SHL SWAP1 DIV PUSH1 0xFF AND ISZERO PUSH3 0x10A4 JUMPI PUSH1 0x40 MLOAD PUSH3 0x461BCD PUSH1 0xE5 SHL DUP2 MSTORE PUSH1 0x20 PUSH1 0x4 DUP3 ADD MSTORE PUSH1 0x15 PUSH1 0x24 DUP3 ADD MSTORE PUSH21 0x11DBDD995C9B985B98D94E881CDD5CDC195B991959 PUSH1 0x5A SHL PUSH1 0x44 DUP3 ADD MSTORE PUSH1 0x64 ADD PUSH3 0x562 JUMP JUMPDEST DUP6 PUSH1 0x1 PUSH1 0x1 PUSH1 0xA0 SHL SUB DUP2 AND PUSH3 0x10FD JUMPI PUSH1 0x40 MLOAD PUSH3 0x461BCD PUSH1 0xE5 SHL DUP2 MSTORE PUSH1 0x20 PUSH1 0x4 DUP3 ADD MSTORE PUSH1 0x1E PUSH1 0x24 DUP3 ADD MSTORE PUSH32 0x5368617265643A206164647265737320696E70757420697320656D7074790000 PUSH1 0x44 DUP3 ADD MSTORE PUSH1 0x64 ADD PUSH3 0x562 JUMP JUMPDEST PUSH1 0x40 DUP1 MLOAD PUSH1 0xC0 DUP2 ADD SWAP1 SWAP2 MSTORE DUP9 SWAP1 PUSH32 0x674BDFE200000000000000000000000000000000000000000000000000000000 SWAP1 DUP1 PUSH3 0x113C PUSH1 0x20 DUP6 ADD DUP6 PUSH3 0x30B3 JUMP JUMPDEST PUSH1 0x1 PUSH1 0x1 PUSH1 0xA0 SHL SUB AND DUP2 MSTORE PUSH1 0x20 ADD DUP12 PUSH1 0x20 ADD CALLDATALOAD DUP2 MSTORE PUSH1 0x20 ADD PUSH1 0x0 DUP2 MSTORE PUSH1 0x20 ADD PUSH1 0x0 DUP2 MSTORE PUSH1 0x20 ADD DUP12 PUSH1 0x80 ADD CALLDATALOAD DUP2 MSTORE PUSH1 0x20 ADD PUSH1 0x0 PUSH1 0x1 PUSH1 0x1 PUSH1 0xA0 SHL SUB AND DUP2 MSTORE POP DUP10 DUP10 DUP10 DUP10 DUP10 DUP10 PUSH1 0x40 MLOAD PUSH1 0x24 ADD PUSH3 0x1198 SWAP8 SWAP7 SWAP6 SWAP5 SWAP4 SWAP3 SWAP2 SWAP1 PUSH3 0x39A6 JUMP JUMPDEST PUSH1 0x40 DUP1 MLOAD PUSH1 0x1F NOT DUP2 DUP5 SUB ADD DUP2 MSTORE SWAP2 SWAP1 MSTORE PUSH1 0x20 DUP2 ADD DUP1 MLOAD PUSH1 0x1 PUSH1 0x1 PUSH1 0xE0 SHL SUB AND PUSH1 0x1 PUSH1 0x1 PUSH1 0xE0 SHL SUB NOT SWAP1 SWAP4 AND SWAP3 SWAP1 SWAP3 OR DUP3 MSTORE MLOAD SWAP1 KECCAK256 PUSH3 0x11DF PUSH1 0x0 SLOAD PUSH1 0x1 PUSH1 0x1 PUSH1 0xA0 SHL SUB AND SWAP1 JUMP JUMPDEST PUSH1 0x1 PUSH1 0x1 PUSH1 0xA0 SHL SUB AND PUSH4 0xA58A3F1D DUP4 DUP4 PUSH1 0x40 MLOAD DUP4 PUSH4 0xFFFFFFFF AND PUSH1 0xE0 SHL DUP2 MSTORE PUSH1 0x4 ADD PUSH3 0x120E SWAP3 SWAP2 SWAP1 PUSH3 0x393A JUMP JUMPDEST PUSH1 0x0 PUSH1 0x40 MLOAD DUP1 DUP4 SUB DUP2 PUSH1 0x0 DUP8 DUP1 EXTCODESIZE ISZERO DUP1 ISZERO PUSH3 0x1229 JUMPI PUSH1 0x0 DUP1 REVERT JUMPDEST POP GAS CALL ISZERO DUP1 ISZERO PUSH3 0x123E JUMPI RETURNDATASIZE PUSH1 0x0 DUP1 RETURNDATACOPY RETURNDATASIZE PUSH1 0x0 REVERT JUMPDEST POP POP PUSH1 0x40 MLOAD PUSH32 0x74D6D33300000000000000000000000000000000000000000000000000000000 DUP2 MSTORE PUSH1 0x1 PUSH1 0x1 PUSH1 0xA0 SHL SUB DUP13 AND SWAP3 POP PUSH4 0x74D6D333 SWAP2 POP PUSH3 0x1291 SWAP1 DUP12 SWAP1 DUP12 SWAP1 DUP12 SWAP1 DUP12 SWAP1 DUP12 SWAP1 PUSH1 0x4 ADD PUSH3 0x3D84 JUMP JUMPDEST PUSH1 0x0 PUSH1 0x40 MLOAD DUP1 DUP4 SUB DUP2 PUSH1 0x0 DUP8 DUP1 EXTCODESIZE ISZERO DUP1 ISZERO PUSH3 0x12AC JUMPI PUSH1 0x0 DUP1 REVERT JUMPDEST POP GAS CALL ISZERO DUP1 ISZERO PUSH3 0x12C1 JUMPI RETURNDATASIZE PUSH1 0x0 DUP1 RETURNDATACOPY RETURNDATASIZE PUSH1 0x0 REVERT JUMPDEST POP POP POP POP POP POP POP POP POP POP POP POP POP POP JUMP JUMPDEST PUSH3 0x12DB PUSH3 0x2619 JUMP JUMPDEST PUSH1 0x1 PUSH1 0x1 PUSH1 0xA0 SHL SUB AND CALLER PUSH1 0x1 PUSH1 0x1 PUSH1 0xA0 SHL SUB AND EQ PUSH3 0x133D JUMPI PUSH1 0x40 MLOAD PUSH3 0x461BCD PUSH1 0xE5 SHL DUP2 MSTORE PUSH1 0x20 PUSH1 0x4 DUP3 ADD MSTORE PUSH1 0x18 PUSH1 0x24 DUP3 ADD MSTORE PUSH32 0x476F7665726E616E63653A206E6F7420676F7665726E6F720000000000000000 PUSH1 0x44 DUP3 ADD MSTORE PUSH1 0x64 ADD PUSH3 0x562 JUMP JUMPDEST PUSH1 0x0 SLOAD PUSH1 0x1 PUSH1 0xA0 SHL SWAP1 DIV PUSH1 0xFF AND PUSH3 0x13A4 JUMPI PUSH1 0x40 MLOAD PUSH3 0x461BCD PUSH1 0xE5 SHL DUP2 MSTORE PUSH1 0x20 PUSH1 0x4 DUP3 ADD MSTORE PUSH1 0x23 PUSH1 0x24 DUP3 ADD MSTORE PUSH32 0x476F7665726E616E63653A20636F6D6D756E69747920677561726420656E6162 PUSH1 0x44 DUP3 ADD MSTORE PUSH3 0x1B1959 PUSH1 0xEA SHL PUSH1 0x64 DUP3 ADD MSTORE PUSH1 0x84 ADD PUSH3 0x562 JUMP JUMPDEST PUSH1 0x0 SLOAD PUSH1 0x1 PUSH1 0xA8 SHL SWAP1 DIV PUSH1 0xFF AND PUSH3 0x13FF JUMPI PUSH1 0x40 MLOAD PUSH3 0x461BCD PUSH1 0xE5 SHL DUP2 MSTORE PUSH1 0x20 PUSH1 0x4 DUP3 ADD MSTORE PUSH1 0x19 PUSH1 0x24 DUP3 ADD MSTORE PUSH32 0x476F7665726E616E63653A206E6F742073757370656E64656400000000000000 PUSH1 0x44 DUP3 ADD MSTORE PUSH1 0x64 ADD PUSH3 0x562 JUMP JUMPDEST PUSH3 0x127500 PUSH3 0x1416 PUSH1 0x0 SLOAD PUSH1 0x1 PUSH1 0x1 PUSH1 0xA0 SHL SUB AND SWAP1 JUMP JUMPDEST PUSH1 0x1 PUSH1 0x1 PUSH1 0xA0 SHL SUB AND PUSH4 0x53F0BB61 PUSH1 0x40 MLOAD DUP2 PUSH4 0xFFFFFFFF AND PUSH1 0xE0 SHL DUP2 MSTORE PUSH1 0x4 ADD PUSH1 0x20 PUSH1 0x40 MLOAD DUP1 DUP4 SUB DUP2 DUP7 DUP1 EXTCODESIZE ISZERO DUP1 ISZERO PUSH3 0x144F JUMPI PUSH1 0x0 DUP1 REVERT JUMPDEST POP GAS STATICCALL ISZERO DUP1 ISZERO PUSH3 0x1464 JUMPI RETURNDATASIZE PUSH1 0x0 DUP1 RETURNDATACOPY RETURNDATASIZE PUSH1 0x0 REVERT JUMPDEST POP POP POP POP PUSH1 0x40 MLOAD RETURNDATASIZE PUSH1 0x1F NOT PUSH1 0x1F DUP3 ADD AND DUP3 ADD DUP1 PUSH1 0x40 MSTORE POP DUP2 ADD SWAP1 PUSH3 0x148A SWAP2 SWAP1 PUSH3 0x349F JUMP JUMPDEST PUSH3 0x1496 SWAP1 TIMESTAMP PUSH3 0x3FB4 JUMP JUMPDEST LT ISZERO PUSH3 0x14E6 JUMPI PUSH1 0x40 MLOAD PUSH3 0x461BCD PUSH1 0xE5 SHL DUP2 MSTORE PUSH1 0x20 PUSH1 0x4 DUP3 ADD MSTORE PUSH1 0x16 PUSH1 0x24 DUP3 ADD MSTORE PUSH32 0x5661756C743A206E6F7420656E6F7567682074696D6500000000000000000000 PUSH1 0x44 DUP3 ADD MSTORE PUSH1 0x64 ADD PUSH3 0x562 JUMP JUMPDEST PUSH1 0x0 DUP1 SLOAD PUSH1 0x1 PUSH1 0x1 PUSH1 0xA0 SHL SUB AND PUSH1 0x1 PUSH1 0x1 PUSH1 0xA0 SHL SUB AND PUSH4 0xCD1B4D20 PUSH1 0x40 MLOAD DUP2 PUSH4 0xFFFFFFFF AND PUSH1 0xE0 SHL DUP2 MSTORE PUSH1 0x4 ADD PUSH1 0x20 PUSH1 0x40 MLOAD DUP1 DUP4 SUB DUP2 DUP7 DUP1 EXTCODESIZE ISZERO DUP1 ISZERO PUSH3 0x152C JUMPI PUSH1 0x0 DUP1 REVERT JUMPDEST POP GAS STATICCALL ISZERO DUP1 ISZERO PUSH3 0x1541 JUMPI RETURNDATASIZE PUSH1 0x0 DUP1 RETURNDATACOPY RETURNDATASIZE PUSH1 0x0 REVERT JUMPDEST POP POP POP POP PUSH1 0x40 MLOAD RETURNDATASIZE PUSH1 0x1F NOT PUSH1 0x1F DUP3 ADD AND DUP3 ADD DUP1 PUSH1 0x40 MSTORE POP DUP2 ADD SWAP1 PUSH3 0x1567 SWAP2 SWAP1 PUSH3 0x30D3 JUMP JUMPDEST SWAP1 POP PUSH1 0x0 JUMPDEST DUP3 DUP2 LT ISZERO PUSH3 0x16FB JUMPI PUSH20 0xEEEEEEEEEEEEEEEEEEEEEEEEEEEEEEEEEEEEEEEE DUP5 DUP5 DUP4 DUP2 DUP2 LT PUSH3 0x159F JUMPI PUSH3 0x159F PUSH3 0x4031 JUMP JUMPDEST SWAP1 POP PUSH1 0x20 MUL ADD PUSH1 0x20 DUP2 ADD SWAP1 PUSH3 0x15B6 SWAP2 SWAP1 PUSH3 0x30B3 JUMP JUMPDEST PUSH1 0x1 PUSH1 0x1 PUSH1 0xA0 SHL SUB AND EQ ISZERO PUSH3 0x15ED JUMPI PUSH3 0x15E7 PUSH20 0xEEEEEEEEEEEEEEEEEEEEEEEEEEEEEEEEEEEEEEEE DUP4 SELFBALANCE PUSH3 0x2984 JUMP JUMPDEST PUSH3 0x16E6 JUMP JUMPDEST PUSH3 0x16E6 DUP5 DUP5 DUP4 DUP2 DUP2 LT PUSH3 0x1606 JUMPI PUSH3 0x1606 PUSH3 0x4031 JUMP JUMPDEST SWAP1 POP PUSH1 0x20 MUL ADD PUSH1 0x20 DUP2 ADD SWAP1 PUSH3 0x161D SWAP2 SWAP1 PUSH3 0x30B3 JUMP JUMPDEST DUP4 DUP7 DUP7 DUP6 DUP2 DUP2 LT PUSH3 0x1633 JUMPI PUSH3 0x1633 PUSH3 0x4031 JUMP JUMPDEST SWAP1 POP PUSH1 0x20 MUL ADD PUSH1 0x20 DUP2 ADD SWAP1 PUSH3 0x164A SWAP2 SWAP1 PUSH3 0x30B3 JUMP JUMPDEST PUSH1 0x40 MLOAD PUSH32 0x70A0823100000000000000000000000000000000000000000000000000000000 DUP2 MSTORE ADDRESS PUSH1 0x4 DUP3 ADD MSTORE PUSH1 0x1 PUSH1 0x1 PUSH1 0xA0 SHL SUB SWAP2 SWAP1 SWAP2 AND SWAP1 PUSH4 0x70A08231 SWAP1 PUSH1 0x24 ADD PUSH1 0x20 PUSH1 0x40 MLOAD DUP1 DUP4 SUB DUP2 DUP7 DUP1 EXTCODESIZE ISZERO DUP1 ISZERO PUSH3 0x16A5 JUMPI PUSH1 0x0 DUP1 REVERT JUMPDEST POP GAS STATICCALL ISZERO DUP1 ISZERO PUSH3 0x16BA JUMPI RETURNDATASIZE PUSH1 0x0 DUP1 RETURNDATACOPY RETURNDATASIZE PUSH1 0x0 REVERT JUMPDEST POP POP POP POP PUSH1 0x40 MLOAD RETURNDATASIZE PUSH1 0x1F NOT PUSH1 0x1F DUP3 ADD AND DUP3 ADD DUP1 PUSH1 0x40 MSTORE POP DUP2 ADD SWAP1 PUSH3 0x16E0 SWAP2 SWAP1 PUSH3 0x349F JUMP JUMPDEST PUSH3 0x2984 JUMP JUMPDEST DUP1 PUSH3 0x16F2 DUP2 PUSH3 0x3FFD JUMP JUMPDEST SWAP2 POP POP PUSH3 0x156C JUMP JUMPDEST POP POP POP POP JUMP JUMPDEST PUSH1 0x0 SLOAD PUSH1 0x1 PUSH1 0xA8 SHL SWAP1 DIV PUSH1 0xFF AND ISZERO PUSH3 0x1755 JUMPI PUSH1 0x40 MLOAD PUSH3 0x461BCD PUSH1 0xE5 SHL DUP2 MSTORE PUSH1 0x20 PUSH1 0x4 DUP3 ADD MSTORE PUSH1 0x15 PUSH1 0x24 DUP3 ADD MSTORE PUSH21 0x11DBDD995C9B985B98D94E881CDD5CDC195B991959 PUSH1 0x5A SHL PUSH1 0x44 DUP3 ADD MSTORE PUSH1 0x64 ADD PUSH3 0x562 JUMP JUMPDEST PUSH3 0x1764 PUSH1 0x20 DUP8 ADD DUP8 PUSH3 0x30B3 JUMP JUMPDEST PUSH1 0x1 PUSH1 0x1 PUSH1 0xA0 SHL SUB DUP2 AND PUSH3 0x17BC JUMPI PUSH1 0x40 MLOAD PUSH3 0x461BCD PUSH1 0xE5 SHL DUP2 MSTORE PUSH1 0x20 PUSH1 0x4 DUP3 ADD MSTORE PUSH1 0x1E PUSH1 0x24 DUP3 ADD MSTORE PUSH32 0x5368617265643A206164647265737320696E70757420697320656D7074790000 PUSH1 0x44 DUP3 ADD MSTORE PUSH1 0x64 ADD PUSH3 0x562 JUMP JUMPDEST PUSH3 0x17CE PUSH1 0x40 DUP9 ADD PUSH1 0x20 DUP10 ADD PUSH3 0x30B3 JUMP JUMPDEST PUSH1 0x1 PUSH1 0x1 PUSH1 0xA0 SHL SUB DUP2 AND PUSH3 0x1826 JUMPI PUSH1 0x40 MLOAD PUSH3 0x461BCD PUSH1 0xE5 SHL DUP2 MSTORE PUSH1 0x20 PUSH1 0x4 DUP3 ADD MSTORE PUSH1 0x1E PUSH1 0x24 DUP3 ADD MSTORE PUSH32 0x5368617265643A206164647265737320696E70757420697320656D7074790000 PUSH1 0x44 DUP3 ADD MSTORE PUSH1 0x64 ADD PUSH3 0x562 JUMP JUMPDEST PUSH1 0x40 DUP9 ADD CALLDATALOAD DUP1 PUSH3 0x187A JUMPI PUSH1 0x40 MLOAD PUSH3 0x461BCD PUSH1 0xE5 SHL DUP2 MSTORE PUSH1 0x20 PUSH1 0x4 DUP3 ADD MSTORE PUSH1 0x1B PUSH1 0x24 DUP3 ADD MSTORE PUSH32 0x5368617265643A2075696E7420696E70757420697320656D7074790000000000 PUSH1 0x44 DUP3 ADD MSTORE PUSH1 0x64 ADD PUSH3 0x562 JUMP JUMPDEST PUSH1 0x40 DUP1 MLOAD PUSH1 0xC0 DUP2 ADD SWAP1 SWAP2 MSTORE DUP11 SWAP1 PUSH32 0x774D680100000000000000000000000000000000000000000000000000000000 SWAP1 DUP1 PUSH3 0x18B9 PUSH1 0x20 DUP6 ADD DUP6 PUSH3 0x30B3 JUMP JUMPDEST PUSH1 0x1 PUSH1 0x1 PUSH1 0xA0 SHL SUB AND DUP2 MSTORE PUSH1 0x20 ADD DUP14 PUSH1 0x20 ADD CALLDATALOAD DUP2 MSTORE PUSH1 0x20 ADD PUSH1 0x0 DUP2 MSTORE PUSH1 0x20 ADD PUSH1 0x0 DUP2 MSTORE PUSH1 0x20 ADD DUP14 PUSH1 0x80 ADD CALLDATALOAD DUP2 MSTORE PUSH1 0x20 ADD PUSH1 0x0 PUSH1 0x1 PUSH1 0x1 PUSH1 0xA0 SHL SUB AND DUP2 MSTORE POP DUP12 DUP12 DUP12 DUP12 DUP12 DUP12 PUSH1 0x40 MLOAD PUSH1 0x24 ADD PUSH3 0x1915 SWAP8 SWAP7 SWAP6 SWAP5 SWAP4 SWAP3 SWAP2 SWAP1 PUSH3 0x3CE8 JUMP JUMPDEST PUSH1 0x40 DUP1 MLOAD PUSH1 0x1F NOT DUP2 DUP5 SUB ADD DUP2 MSTORE SWAP2 SWAP1 MSTORE PUSH1 0x20 DUP2 ADD DUP1 MLOAD PUSH1 0x1 PUSH1 0x1 PUSH1 0xE0 SHL SUB AND PUSH1 0x1 PUSH1 0x1 PUSH1 0xE0 SHL SUB NOT SWAP1 SWAP4 AND SWAP3 SWAP1 SWAP3 OR DUP3 MSTORE MLOAD SWAP1 KECCAK256 PUSH3 0x195C PUSH1 0x0 SLOAD PUSH1 0x1 PUSH1 0x1 PUSH1 0xA0 SHL SUB AND SWAP1 JUMP JUMPDEST PUSH1 0x1 PUSH1 0x1 PUSH1 0xA0 SHL SUB AND PUSH4 0xA58A3F1D DUP4 DUP4 PUSH1 0x40 MLOAD DUP4 PUSH4 0xFFFFFFFF AND PUSH1 0xE0 SHL DUP2 MSTORE PUSH1 0x4 ADD PUSH3 0x198B SWAP3 SWAP2 SWAP1 PUSH3 0x393A JUMP JUMPDEST PUSH1 0x0 PUSH1 0x40 MLOAD DUP1 DUP4 SUB DUP2 PUSH1 0x0 DUP8 DUP1 EXTCODESIZE ISZERO DUP1 ISZERO PUSH3 0x19A6 JUMPI PUSH1 0x0 DUP1 REVERT JUMPDEST POP GAS CALL ISZERO DUP1 ISZERO PUSH3 0x19BB JUMPI RETURNDATASIZE PUSH1 0x0 DUP1 RETURNDATACOPY RETURNDATASIZE PUSH1 0x0 REVERT JUMPDEST POP POP POP POP PUSH3 0x19CF DUP12 DUP12 DUP12 DUP12 DUP12 DUP12 PUSH3 0x2A63 JUMP JUMPDEST POP POP POP POP POP POP POP POP POP POP POP POP JUMP JUMPDEST PUSH1 0x0 SLOAD PUSH1 0x1 PUSH1 0xA8 SHL SWAP1 DIV PUSH1 0xFF AND ISZERO PUSH3 0x1A31 JUMPI PUSH1 0x40 MLOAD PUSH3 0x461BCD PUSH1 0xE5 SHL DUP2 MSTORE PUSH1 0x20 PUSH1 0x4 DUP3 ADD MSTORE PUSH1 0x15 PUSH1 0x24 DUP3 ADD MSTORE PUSH21 0x11DBDD995C9B985B98D94E881CDD5CDC195B991959 PUSH1 0x5A SHL PUSH1 0x44 DUP3 ADD MSTORE PUSH1 0x64 ADD PUSH3 0x562 JUMP JUMPDEST PUSH1 0x40 DUP1 MLOAD PUSH1 0xC0 DUP2 ADD SWAP1 SWAP2 MSTORE DUP4 SWAP1 PUSH32 0x79C83AD700000000000000000000000000000000000000000000000000000000 SWAP1 DUP1 PUSH3 0x1A70 PUSH1 0x20 DUP6 ADD DUP6 PUSH3 0x30B3 JUMP JUMPDEST PUSH1 0x1 PUSH1 0x1 PUSH1 0xA0 SHL SUB AND DUP2 MSTORE PUSH1 0x20 ADD DUP7 PUSH1 0x20 ADD CALLDATALOAD DUP2 MSTORE PUSH1 0x20 ADD PUSH1 0x0 DUP2 MSTORE PUSH1 0x20 ADD PUSH1 0x0 DUP2 MSTORE PUSH1 0x20 ADD DUP7 PUSH1 0x80 ADD CALLDATALOAD DUP2 MSTORE PUSH1 0x20 ADD PUSH1 0x0 PUSH1 0x1 PUSH1 0x1 PUSH1 0xA0 SHL SUB AND DUP2 MSTORE POP DUP5 DUP5 PUSH1 0x40 MLOAD PUSH1 0x24 ADD PUSH3 0x1AC4 SWAP4 SWAP3 SWAP2 SWAP1 PUSH3 0x3B54 JUMP JUMPDEST PUSH1 0x40 DUP1 MLOAD PUSH1 0x1F NOT DUP2 DUP5 SUB ADD DUP2 MSTORE SWAP2 SWAP1 MSTORE PUSH1 0x20 DUP2 ADD DUP1 MLOAD PUSH1 0x1 PUSH1 0x1 PUSH1 0xE0 SHL SUB AND PUSH1 0x1 PUSH1 0x1 PUSH1 0xE0 SHL SUB NOT SWAP1 SWAP4 AND SWAP3 SWAP1 SWAP3 OR DUP3 MSTORE MLOAD SWAP1 KECCAK256 PUSH3 0x1B0B PUSH1 0x0 SLOAD PUSH1 0x1 PUSH1 0x1 PUSH1 0xA0 SHL SUB AND SWAP1 JUMP JUMPDEST PUSH1 0x1 PUSH1 0x1 PUSH1 0xA0 SHL SUB AND PUSH4 0xA58A3F1D DUP4 DUP4 PUSH1 0x40 MLOAD DUP4 PUSH4 0xFFFFFFFF AND PUSH1 0xE0 SHL DUP2 MSTORE PUSH1 0x4 ADD PUSH3 0x1B3A SWAP3 SWAP2 SWAP1 PUSH3 0x393A JUMP JUMPDEST PUSH1 0x0 PUSH1 0x40 MLOAD DUP1 DUP4 SUB DUP2 PUSH1 0x0 DUP8 DUP1 EXTCODESIZE ISZERO DUP1 ISZERO PUSH3 0x1B55 JUMPI PUSH1 0x0 DUP1 REVERT JUMPDEST POP GAS CALL ISZERO DUP1 ISZERO PUSH3 0x1B6A JUMPI RETURNDATASIZE PUSH1 0x0 DUP1 RETURNDATACOPY RETURNDATASIZE PUSH1 0x0 REVERT JUMPDEST POP POP POP POP PUSH3 0xE81 DUP5 DUP5 PUSH3 0x280B JUMP JUMPDEST PUSH3 0x1B84 PUSH3 0x2720 JUMP JUMPDEST PUSH1 0x1 PUSH1 0x1 PUSH1 0xA0 SHL SUB AND CALLER PUSH1 0x1 PUSH1 0x1 PUSH1 0xA0 SHL SUB AND EQ PUSH3 0x1BE6 JUMPI PUSH1 0x40 MLOAD PUSH3 0x461BCD PUSH1 0xE5 SHL DUP2 MSTORE PUSH1 0x20 PUSH1 0x4 DUP3 ADD MSTORE PUSH1 0x1D PUSH1 0x24 DUP3 ADD MSTORE PUSH32 0x476F7665726E616E63653A206E6F7420436F6D6D756E697479204B6579000000 PUSH1 0x44 DUP3 ADD MSTORE PUSH1 0x64 ADD PUSH3 0x562 JUMP JUMPDEST PUSH1 0x0 SLOAD PUSH1 0x1 PUSH1 0xA0 SHL SWAP1 DIV PUSH1 0xFF AND PUSH3 0x1C4D JUMPI PUSH1 0x40 MLOAD PUSH3 0x461BCD PUSH1 0xE5 SHL DUP2 MSTORE PUSH1 0x20 PUSH1 0x4 DUP3 ADD MSTORE PUSH1 0x23 PUSH1 0x24 DUP3 ADD MSTORE PUSH32 0x476F7665726E616E63653A20636F6D6D756E69747920677561726420656E6162 PUSH1 0x44 DUP3 ADD MSTORE PUSH3 0x1B1959 PUSH1 0xEA SHL PUSH1 0x64 DUP3 ADD MSTORE PUSH1 0x84 ADD PUSH3 0x562 JUMP JUMPDEST PUSH1 0x0 DUP1 SLOAD PUSH32 0xFFFFFFFFFFFFFFFFFFFFFF00FFFFFFFFFFFFFFFFFFFFFFFFFFFFFFFFFFFFFFFF AND DUP2 SSTORE PUSH1 0x40 MLOAD SWAP1 DUP2 MSTORE PUSH32 0x57C4CB09F128960151F04372028154ACDA40272F16360154961672989B59BAD SWAP1 PUSH1 0x20 ADD PUSH3 0x61A JUMP JUMPDEST PUSH1 0x0 SLOAD PUSH1 0x1 PUSH1 0xA8 SHL SWAP1 DIV PUSH1 0xFF AND ISZERO PUSH3 0x1CFA JUMPI PUSH1 0x40 MLOAD PUSH3 0x461BCD PUSH1 0xE5 SHL DUP2 MSTORE PUSH1 0x20 PUSH1 0x4 DUP3 ADD MSTORE PUSH1 0x15 PUSH1 0x24 DUP3 ADD MSTORE PUSH21 0x11DBDD995C9B985B98D94E881CDD5CDC195B991959 PUSH1 0x5A SHL PUSH1 0x44 DUP3 ADD MSTORE PUSH1 0x64 ADD PUSH3 0x562 JUMP JUMPDEST PUSH1 0x0 SLOAD PUSH1 0x1 PUSH1 0xB0 SHL SWAP1 DIV PUSH1 0xFF AND PUSH3 0x1D55 JUMPI PUSH1 0x40 MLOAD PUSH3 0x461BCD PUSH1 0xE5 SHL DUP2 MSTORE PUSH1 0x20 PUSH1 0x4 DUP3 ADD MSTORE PUSH1 0x19 PUSH1 0x24 DUP3 ADD MSTORE PUSH32 0x5661756C743A207843616C6C73206E6F7420656E61626C656400000000000000 PUSH1 0x44 DUP3 ADD MSTORE PUSH1 0x64 ADD PUSH3 0x562 JUMP JUMPDEST CALLVALUE DUP1 PUSH3 0x1DA5 JUMPI PUSH1 0x40 MLOAD PUSH3 0x461BCD PUSH1 0xE5 SHL DUP2 MSTORE PUSH1 0x20 PUSH1 0x4 DUP3 ADD MSTORE PUSH1 0x1B PUSH1 0x24 DUP3 ADD MSTORE PUSH32 0x5368617265643A2075696E7420696E70757420697320656D7074790000000000 PUSH1 0x44 DUP3 ADD MSTORE PUSH1 0x64 ADD PUSH3 0x562 JUMP JUMPDEST CALLER PUSH1 0x1 PUSH1 0x1 PUSH1 0xA0 SHL SUB AND PUSH32 0x7E8C5BDA8A909414B3B3D5430E67E10A1965826D1DBEFA6BD2EC6915BCDC8D7D DUP10 DUP10 DUP10 CALLVALUE DUP11 DUP11 DUP11 DUP11 PUSH1 0x40 MLOAD PUSH3 0x1DEE SWAP9 SWAP8 SWAP7 SWAP6 SWAP5 SWAP4 SWAP3 SWAP2 SWAP1 PUSH3 0x3F3D JUMP JUMPDEST PUSH1 0x40 MLOAD DUP1 SWAP2 SUB SWAP1 LOG2 POP POP POP POP POP POP POP POP JUMP JUMPDEST PUSH3 0x1E0A PUSH3 0x2720 JUMP JUMPDEST PUSH1 0x1 PUSH1 0x1 PUSH1 0xA0 SHL SUB AND CALLER PUSH1 0x1 PUSH1 0x1 PUSH1 0xA0 SHL SUB AND EQ PUSH3 0x1E6C JUMPI PUSH1 0x40 MLOAD PUSH3 0x461BCD PUSH1 0xE5 SHL DUP2 MSTORE PUSH1 0x20 PUSH1 0x4 DUP3 ADD MSTORE PUSH1 0x1D PUSH1 0x24 DUP3 ADD MSTORE PUSH32 0x476F7665726E616E63653A206E6F7420436F6D6D756E697479204B6579000000 PUSH1 0x44 DUP3 ADD MSTORE PUSH1 0x64 ADD PUSH3 0x562 JUMP JUMPDEST PUSH1 0x0 SLOAD PUSH1 0x1 PUSH1 0xA0 SHL SWAP1 DIV PUSH1 0xFF AND ISZERO PUSH3 0x1EED JUMPI PUSH1 0x40 MLOAD PUSH3 0x461BCD PUSH1 0xE5 SHL DUP2 MSTORE PUSH1 0x20 PUSH1 0x4 DUP3 ADD MSTORE PUSH1 0x24 DUP1 DUP3 ADD MSTORE PUSH32 0x476F7665726E616E63653A20636F6D6D756E6974792067756172642064697361 PUSH1 0x44 DUP3 ADD MSTORE PUSH32 0x626C656400000000000000000000000000000000000000000000000000000000 PUSH1 0x64 DUP3 ADD MSTORE PUSH1 0x84 ADD PUSH3 0x562 JUMP JUMPDEST PUSH1 0x0 DUP1 SLOAD PUSH32 0xFFFFFFFFFFFFFFFFFFFFFF00FFFFFFFFFFFFFFFFFFFFFFFFFFFFFFFFFFFFFFFF AND PUSH1 0x1 PUSH1 0xA0 SHL OR SWAP1 SSTORE PUSH1 0x40 MLOAD PUSH1 0x1 DUP2 MSTORE PUSH32 0x57C4CB09F128960151F04372028154ACDA40272F16360154961672989B59BAD SWAP1 PUSH1 0x20 ADD PUSH3 0x61A JUMP JUMPDEST PUSH1 0x0 SLOAD PUSH1 0x1 PUSH1 0xA8 SHL SWAP1 DIV PUSH1 0xFF AND ISZERO PUSH3 0x1FA1 JUMPI PUSH1 0x40 MLOAD PUSH3 0x461BCD PUSH1 0xE5 SHL DUP2 MSTORE PUSH1 0x20 PUSH1 0x4 DUP3 ADD MSTORE PUSH1 0x15 PUSH1 0x24 DUP3 ADD MSTORE PUSH21 0x11DBDD995C9B985B98D94E881CDD5CDC195B991959 PUSH1 0x5A SHL PUSH1 0x44 DUP3 ADD MSTORE PUSH1 0x64 ADD PUSH3 0x562 JUMP JUMPDEST PUSH3 0x1FB0 PUSH1 0x20 DUP3 ADD DUP3 PUSH3 0x30B3 JUMP JUMPDEST PUSH1 0x1 PUSH1 0x1 PUSH1 0xA0 SHL SUB DUP2 AND PUSH3 0x2008 JUMPI PUSH1 0x40 MLOAD PUSH3 0x461BCD PUSH1 0xE5 SHL DUP2 MSTORE PUSH1 0x20 PUSH1 0x4 DUP3 ADD MSTORE PUSH1 0x1E PUSH1 0x24 DUP3 ADD MSTORE PUSH32 0x5368617265643A206164647265737320696E70757420697320656D7074790000 PUSH1 0x44 DUP3 ADD MSTORE PUSH1 0x64 ADD PUSH3 0x562 JUMP JUMPDEST PUSH3 0x201A PUSH1 0x40 DUP4 ADD PUSH1 0x20 DUP5 ADD PUSH3 0x30B3 JUMP JUMPDEST PUSH1 0x1 PUSH1 0x1 PUSH1 0xA0 SHL SUB DUP2 AND PUSH3 0x2072 JUMPI PUSH1 0x40 MLOAD PUSH3 0x461BCD PUSH1 0xE5 SHL DUP2 MSTORE PUSH1 0x20 PUSH1 0x4 DUP3 ADD MSTORE PUSH1 0x1E PUSH1 0x24 DUP3 ADD MSTORE PUSH32 0x5368617265643A206164647265737320696E70757420697320656D7074790000 PUSH1 0x44 DUP3 ADD MSTORE PUSH1 0x64 ADD PUSH3 0x562 JUMP JUMPDEST PUSH1 0x40 DUP4 ADD CALLDATALOAD DUP1 PUSH3 0x20C6 JUMPI PUSH1 0x40 MLOAD PUSH3 0x461BCD PUSH1 0xE5 SHL DUP2 MSTORE PUSH1 0x20 PUSH1 0x4 DUP3 ADD MSTORE PUSH1 0x1B PUSH1 0x24 DUP3 ADD MSTORE PUSH32 0x5368617265643A2075696E7420696E70757420697320656D7074790000000000 PUSH1 0x44 DUP3 ADD MSTORE PUSH1 0x64 ADD PUSH3 0x562 JUMP JUMPDEST PUSH1 0x40 DUP1 MLOAD PUSH1 0xC0 DUP2 ADD SWAP1 SWAP2 MSTORE DUP6 SWAP1 PUSH32 0xB03B6A5700000000000000000000000000000000000000000000000000000000 SWAP1 DUP1 PUSH3 0x2105 PUSH1 0x20 DUP6 ADD DUP6 PUSH3 0x30B3 JUMP JUMPDEST PUSH1 0x1 PUSH1 0x1 PUSH1 0xA0 SHL SUB AND DUP2 MSTORE PUSH1 0x20 ADD DUP9 PUSH1 0x20 ADD CALLDATALOAD DUP2 MSTORE PUSH1 0x20 ADD PUSH1 0x0 DUP2 MSTORE PUSH1 0x20 ADD PUSH1 0x0 DUP2 MSTORE PUSH1 0x20 ADD DUP9 PUSH1 0x80 ADD CALLDATALOAD DUP2 MSTORE PUSH1 0x20 ADD PUSH1 0x0 PUSH1 0x1 PUSH1 0x1 PUSH1 0xA0 SHL SUB AND DUP2 MSTORE POP DUP7 PUSH1 0x40 MLOAD PUSH1 0x24 ADD PUSH3 0x2157 SWAP3 SWAP2 SWAP1 PUSH3 0x3C87 JUMP JUMPDEST PUSH1 0x40 DUP1 MLOAD PUSH1 0x1F NOT DUP2 DUP5 SUB ADD DUP2 MSTORE SWAP2 SWAP1 MSTORE PUSH1 0x20 DUP2 ADD DUP1 MLOAD PUSH1 0x1 PUSH1 0x1 PUSH1 0xE0 SHL SUB AND PUSH1 0x1 PUSH1 0x1 PUSH1 0xE0 SHL SUB NOT SWAP1 SWAP4 AND SWAP3 SWAP1 SWAP3 OR DUP3 MSTORE MLOAD SWAP1 KECCAK256 PUSH3 0x219E PUSH1 0x0 SLOAD PUSH1 0x1 PUSH1 0x1 PUSH1 0xA0 SHL SUB AND SWAP1 JUMP JUMPDEST PUSH1 0x1 PUSH1 0x1 PUSH1 0xA0 SHL SUB AND PUSH4 0xA58A3F1D DUP4 DUP4 PUSH1 0x40 MLOAD DUP4 PUSH4 0xFFFFFFFF AND PUSH1 0xE0 SHL DUP2 MSTORE PUSH1 0x4 ADD PUSH3 0x21CD SWAP3 SWAP2 SWAP1 PUSH3 0x393A JUMP JUMPDEST PUSH1 0x0 PUSH1 0x40 MLOAD DUP1 DUP4 SUB DUP2 PUSH1 0x0 DUP8 DUP1 EXTCODESIZE ISZERO DUP1 ISZERO PUSH3 0x21E8 JUMPI PUSH1 0x0 DUP1 REVERT JUMPDEST POP GAS CALL ISZERO DUP1 ISZERO PUSH3 0x21FD JUMPI RETURNDATASIZE PUSH1 0x0 DUP1 RETURNDATACOPY RETURNDATASIZE PUSH1 0x0 REVERT JUMPDEST POP PUSH3 0x2233 SWAP3 POP PUSH3 0x2216 SWAP2 POP POP PUSH1 0x20 DUP9 ADD DUP9 PUSH3 0x30B3 JUMP JUMPDEST PUSH3 0x2228 PUSH1 0x40 DUP10 ADD PUSH1 0x20 DUP11 ADD PUSH3 0x30B3 JUMP JUMPDEST DUP9 PUSH1 0x40 ADD CALLDATALOAD PUSH3 0x2984 JUMP JUMPDEST POP POP POP POP POP POP POP JUMP JUMPDEST PUSH1 0x0 SLOAD PUSH1 0x1 PUSH1 0xA8 SHL SWAP1 DIV PUSH1 0xFF AND ISZERO PUSH3 0x2290 JUMPI PUSH1 0x40 MLOAD PUSH3 0x461BCD PUSH1 0xE5 SHL DUP2 MSTORE PUSH1 0x20 PUSH1 0x4 DUP3 ADD MSTORE PUSH1 0x15 PUSH1 0x24 DUP3 ADD MSTORE PUSH21 0x11DBDD995C9B985B98D94E881CDD5CDC195B991959 PUSH1 0x5A SHL PUSH1 0x44 DUP3 ADD MSTORE PUSH1 0x64 ADD PUSH3 0x562 JUMP JUMPDEST PUSH1 0x40 DUP1 MLOAD PUSH1 0xC0 DUP2 ADD SWAP1 SWAP2 MSTORE DUP4 SWAP1 PUSH32 0xE4D2F59B00000000000000000000000000000000000000000000000000000000 SWAP1 DUP1 PUSH3 0x22CF PUSH1 0x20 DUP6 ADD DUP6 PUSH3 0x30B3 JUMP JUMPDEST PUSH1 0x1 PUSH1 0x1 PUSH1 0xA0 SHL SUB AND DUP2 MSTORE PUSH1 0x20 ADD DUP7 PUSH1 0x20 ADD CALLDATALOAD DUP2 MSTORE PUSH1 0x20 ADD PUSH1 0x0 DUP2 MSTORE PUSH1 0x20 ADD PUSH1 0x0 DUP2 MSTORE PUSH1 0x20 ADD DUP7 PUSH1 0x80 ADD CALLDATALOAD DUP2 MSTORE PUSH1 0x20 ADD PUSH1 0x0 PUSH1 0x1 PUSH1 0x1 PUSH1 0xA0 SHL SUB AND DUP2 MSTORE POP DUP5 DUP5 PUSH1 0x40 MLOAD PUSH1 0x24 ADD PUSH3 0x2323 SWAP4 SWAP3 SWAP2 SWAP1 PUSH3 0x3BBA JUMP JUMPDEST PUSH1 0x40 DUP1 MLOAD PUSH1 0x1F NOT DUP2 DUP5 SUB ADD DUP2 MSTORE SWAP2 SWAP1 MSTORE PUSH1 0x20 DUP2 ADD DUP1 MLOAD PUSH1 0x1 PUSH1 0x1 PUSH1 0xE0 SHL SUB AND PUSH1 0x1 PUSH1 0x1 PUSH1 0xE0 SHL SUB NOT SWAP1 SWAP4 AND SWAP3 SWAP1 SWAP3 OR DUP3 MSTORE MLOAD SWAP1 KECCAK256 PUSH3 0x236A PUSH1 0x0 SLOAD PUSH1 0x1 PUSH1 0x1 PUSH1 0xA0 SHL SUB AND SWAP1 JUMP JUMPDEST PUSH1 0x1 PUSH1 0x1 PUSH1 0xA0 SHL SUB AND PUSH4 0xA58A3F1D DUP4 DUP4 PUSH1 0x40 MLOAD DUP4 PUSH4 0xFFFFFFFF AND PUSH1 0xE0 SHL DUP2 MSTORE PUSH1 0x4 ADD PUSH3 0x2399 SWAP3 SWAP2 SWAP1 PUSH3 0x393A JUMP JUMPDEST PUSH1 0x0 PUSH1 0x40 MLOAD DUP1 DUP4 SUB DUP2 PUSH1 0x0 DUP8 DUP1 EXTCODESIZE ISZERO DUP1 ISZERO PUSH3 0x23B4 JUMPI PUSH1 0x0 DUP1 REVERT JUMPDEST POP GAS CALL ISZERO DUP1 ISZERO PUSH3 0x23C9 JUMPI RETURNDATASIZE PUSH1 0x0 DUP1 RETURNDATACOPY RETURNDATASIZE PUSH1 0x0 REVERT JUMPDEST POP POP POP POP PUSH3 0xE81 DUP5 DUP5 PUSH3 0x28E9 JUMP JUMPDEST PUSH3 0x23E3 PUSH3 0x2619 JUMP JUMPDEST PUSH1 0x1 PUSH1 0x1 PUSH1 0xA0 SHL SUB AND CALLER PUSH1 0x1 PUSH1 0x1 PUSH1 0xA0 SHL SUB AND EQ PUSH3 0x2445 JUMPI PUSH1 0x40 MLOAD PUSH3 0x461BCD PUSH1 0xE5 SHL DUP2 MSTORE PUSH1 0x20 PUSH1 0x4 DUP3 ADD MSTORE PUSH1 0x18 PUSH1 0x24 DUP3 ADD MSTORE PUSH32 0x476F7665726E616E63653A206E6F7420676F7665726E6F720000000000000000 PUSH1 0x44 DUP3 ADD MSTORE PUSH1 0x64 ADD PUSH3 0x562 JUMP JUMPDEST PUSH1 0x0 SLOAD PUSH1 0x1 PUSH1 0xA8 SHL SWAP1 DIV PUSH1 0xFF AND ISZERO PUSH3 0x2499 JUMPI PUSH1 0x40 MLOAD PUSH3 0x461BCD PUSH1 0xE5 SHL DUP2 MSTORE PUSH1 0x20 PUSH1 0x4 DUP3 ADD MSTORE PUSH1 0x15 PUSH1 0x24 DUP3 ADD MSTORE PUSH21 0x11DBDD995C9B985B98D94E881CDD5CDC195B991959 PUSH1 0x5A SHL PUSH1 0x44 DUP3 ADD MSTORE PUSH1 0x64 ADD PUSH3 0x562 JUMP JUMPDEST PUSH1 0x0 DUP1 SLOAD PUSH32 0xFFFFFFFFFFFFFFFFFFFF00FFFFFFFFFFFFFFFFFFFFFFFFFFFFFFFFFFFFFFFFFF AND PUSH1 0x1 PUSH1 0xA8 SHL OR SWAP1 SSTORE PUSH1 0x40 MLOAD PUSH1 0x1 DUP2 MSTORE PUSH32 0x58E6C20B68C19F4D8DBC6206267AF40B288342464B433205BB41E5B65C4016DA SWAP1 PUSH1 0x20 ADD PUSH3 0x61A JUMP JUMPDEST PUSH3 0x2503 PUSH3 0x2619 JUMP JUMPDEST PUSH1 0x1 PUSH1 0x1 PUSH1 0xA0 SHL SUB AND CALLER PUSH1 0x1 PUSH1 0x1 PUSH1 0xA0 SHL SUB AND EQ PUSH3 0x2565 JUMPI PUSH1 0x40 MLOAD PUSH3 0x461BCD PUSH1 0xE5 SHL DUP2 MSTORE PUSH1 0x20 PUSH1 0x4 DUP3 ADD MSTORE PUSH1 0x18 PUSH1 0x24 DUP3 ADD MSTORE PUSH32 0x476F7665726E616E63653A206E6F7420676F7665726E6F720000000000000000 PUSH1 0x44 DUP3 ADD MSTORE PUSH1 0x64 ADD PUSH3 0x562 JUMP JUMPDEST PUSH1 0x0 SLOAD PUSH1 0x1 PUSH1 0xB0 SHL SWAP1 DIV PUSH1 0xFF AND PUSH3 0x25C0 JUMPI PUSH1 0x40 MLOAD PUSH3 0x461BCD PUSH1 0xE5 SHL DUP2 MSTORE PUSH1 0x20 PUSH1 0x4 DUP3 ADD MSTORE PUSH1 0x19 PUSH1 0x24 DUP3 ADD MSTORE PUSH32 0x5661756C743A207843616C6C73206E6F7420656E61626C656400000000000000 PUSH1 0x44 DUP3 ADD MSTORE PUSH1 0x64 ADD PUSH3 0x562 JUMP JUMPDEST PUSH1 0x0 DUP1 SLOAD PUSH32 0xFFFFFFFFFFFFFFFFFF00FFFFFFFFFFFFFFFFFFFFFFFFFFFFFFFFFFFFFFFFFFFF AND DUP2 SSTORE PUSH1 0x40 MLOAD SWAP1 DUP2 MSTORE PUSH32 0x55F83E6FCE30D9FD43A6CA0101BC68CF99B4944A9D9EB39A961533C04BFA3966 SWAP1 PUSH1 0x20 ADD PUSH3 0x61A JUMP JUMPDEST PUSH1 0x0 DUP1 SLOAD PUSH1 0x1 PUSH1 0x1 PUSH1 0xA0 SHL SUB AND PUSH1 0x1 PUSH1 0x1 PUSH1 0xA0 SHL SUB AND PUSH4 0xCD1B4D20 PUSH1 0x40 MLOAD DUP2 PUSH4 0xFFFFFFFF AND PUSH1 0xE0 SHL DUP2 MSTORE PUSH1 0x4 ADD PUSH1 0x20 PUSH1 0x40 MLOAD DUP1 DUP4 SUB DUP2 DUP7 DUP1 EXTCODESIZE ISZERO DUP1 ISZERO PUSH3 0x265F JUMPI PUSH1 0x0 DUP1 REVERT JUMPDEST POP GAS STATICCALL ISZERO DUP1 ISZERO PUSH3 0x2674 JUMPI RETURNDATASIZE PUSH1 0x0 DUP1 RETURNDATACOPY RETURNDATASIZE PUSH1 0x0 REVERT JUMPDEST POP POP POP POP PUSH1 0x40 MLOAD RETURNDATASIZE PUSH1 0x1F NOT PUSH1 0x1F DUP3 ADD AND DUP3 ADD DUP1 PUSH1 0x40 MSTORE POP DUP2 ADD SWAP1 PUSH3 0x9C0 SWAP2 SWAP1 PUSH3 0x30D3 JUMP JUMPDEST PUSH1 0x40 MLOAD PUSH1 0x1 PUSH1 0x1 PUSH1 0xA0 SHL SUB DUP1 DUP6 AND PUSH1 0x24 DUP4 ADD MSTORE DUP4 AND PUSH1 0x44 DUP3 ADD MSTORE PUSH1 0x64 DUP2 ADD DUP3 SWAP1 MSTORE PUSH3 0x16FB SWAP1 DUP6 SWAP1 PUSH32 0x23B872DD00000000000000000000000000000000000000000000000000000000 SWAP1 PUSH1 0x84 ADD JUMPDEST PUSH1 0x40 DUP1 MLOAD PUSH1 0x1F NOT DUP2 DUP5 SUB ADD DUP2 MSTORE SWAP2 SWAP1 MSTORE PUSH1 0x20 DUP2 ADD DUP1 MLOAD PUSH1 0x1 PUSH1 0x1 PUSH1 0xE0 SHL SUB AND PUSH1 0x1 PUSH1 0x1 PUSH1 0xE0 SHL SUB NOT SWAP1 SWAP4 AND SWAP3 SWAP1 SWAP3 OR SWAP1 SWAP2 MSTORE PUSH3 0x2C08 JUMP JUMPDEST PUSH1 0x0 DUP1 SLOAD PUSH1 0x1 PUSH1 0x1 PUSH1 0xA0 SHL SUB AND PUSH1 0x1 PUSH1 0x1 PUSH1 0xA0 SHL SUB AND PUSH4 0x3F87B30F PUSH1 0x40 MLOAD DUP2 PUSH4 0xFFFFFFFF AND PUSH1 0xE0 SHL DUP2 MSTORE PUSH1 0x4 ADD PUSH1 0x20 PUSH1 0x40 MLOAD DUP1 DUP4 SUB DUP2 DUP7 DUP1 EXTCODESIZE ISZERO DUP1 ISZERO PUSH3 0x265F JUMPI PUSH1 0x0 DUP1 REVERT JUMPDEST DUP1 PUSH1 0x0 JUMPDEST DUP2 DUP2 LT ISZERO PUSH3 0x16FB JUMPI DUP4 DUP4 DUP3 DUP2 DUP2 LT PUSH3 0x2788 JUMPI PUSH3 0x2788 PUSH3 0x4031 JUMP JUMPDEST SWAP1 POP PUSH1 0x40 MUL ADD PUSH1 0x0 ADD CALLDATALOAD DUP5 DUP5 DUP4 DUP2 DUP2 LT PUSH3 0x27A7 JUMPI PUSH3 0x27A7 PUSH3 0x4031 JUMP JUMPDEST SWAP1 POP PUSH1 0x40 MUL ADD PUSH1 0x20 ADD PUSH1 0x20 DUP2 ADD SWAP1 PUSH3 0x27C1 SWAP2 SWAP1 PUSH3 0x30B3 JUMP JUMPDEST PUSH1 0x40 MLOAD PUSH3 0x27CF SWAP1 PUSH3 0x2EE1 JUMP JUMPDEST PUSH1 0x1 PUSH1 0x1 PUSH1 0xA0 SHL SUB SWAP1 SWAP2 AND DUP2 MSTORE PUSH1 0x20 ADD DUP2 SWAP1 PUSH1 0x40 MLOAD DUP1 SWAP2 SUB SWAP1 PUSH1 0x0 CREATE2 SWAP1 POP DUP1 ISZERO DUP1 ISZERO PUSH3 0x2800 JUMPI RETURNDATASIZE PUSH1 0x0 DUP1 RETURNDATACOPY RETURNDATASIZE PUSH1 0x0 REVERT JUMPDEST POP POP PUSH1 0x1 ADD PUSH3 0x276A JUMP JUMPDEST DUP1 PUSH1 0x0 JUMPDEST DUP2 DUP2 LT ISZERO PUSH3 0x16FB JUMPI DUP4 DUP4 DUP3 DUP2 DUP2 LT PUSH3 0x282D JUMPI PUSH3 0x282D PUSH3 0x4031 JUMP JUMPDEST PUSH3 0x2845 SWAP3 PUSH1 0x20 PUSH1 0x40 SWAP1 SWAP3 MUL ADD SWAP1 DUP2 ADD SWAP2 POP PUSH3 0x30B3 JUMP JUMPDEST PUSH1 0x1 PUSH1 0x1 PUSH1 0xA0 SHL SUB AND PUSH4 0xF109A0BE DUP6 DUP6 DUP5 DUP2 DUP2 LT PUSH3 0x2868 JUMPI PUSH3 0x2868 PUSH3 0x4031 JUMP JUMPDEST SWAP1 POP PUSH1 0x40 MUL ADD PUSH1 0x20 ADD PUSH1 0x20 DUP2 ADD SWAP1 PUSH3 0x2882 SWAP2 SWAP1 PUSH3 0x30B3 JUMP JUMPDEST PUSH1 0x40 MLOAD PUSH1 0x1 PUSH1 0x1 PUSH1 0xE0 SHL SUB NOT PUSH1 0xE0 DUP5 SWAP1 SHL AND DUP2 MSTORE PUSH1 0x1 PUSH1 0x1 PUSH1 0xA0 SHL SUB SWAP1 SWAP2 AND PUSH1 0x4 DUP3 ADD MSTORE PUSH1 0x24 ADD PUSH1 0x0 PUSH1 0x40 MLOAD DUP1 DUP4 SUB DUP2 PUSH1 0x0 DUP8 DUP1 EXTCODESIZE ISZERO DUP1 ISZERO PUSH3 0x28C4 JUMPI PUSH1 0x0 DUP1 REVERT JUMPDEST POP GAS CALL ISZERO DUP1 ISZERO PUSH3 0x28D9 JUMPI RETURNDATASIZE PUSH1 0x0 DUP1 RETURNDATACOPY RETURNDATASIZE PUSH1 0x0 REVERT JUMPDEST POP POP POP POP DUP1 PUSH1 0x1 ADD SWAP1 POP PUSH3 0x280F JUMP JUMPDEST DUP1 PUSH1 0x0 JUMPDEST DUP2 DUP2 LT ISZERO PUSH3 0x16FB JUMPI PUSH3 0x297B DUP5 DUP5 DUP4 DUP2 DUP2 LT PUSH3 0x290F JUMPI PUSH3 0x290F PUSH3 0x4031 JUMP JUMPDEST PUSH3 0x2927 SWAP3 PUSH1 0x20 PUSH1 0x60 SWAP1 SWAP3 MUL ADD SWAP1 DUP2 ADD SWAP2 POP PUSH3 0x30B3 JUMP JUMPDEST DUP6 DUP6 DUP5 DUP2 DUP2 LT PUSH3 0x293C JUMPI PUSH3 0x293C PUSH3 0x4031 JUMP JUMPDEST SWAP1 POP PUSH1 0x60 MUL ADD PUSH1 0x20 ADD PUSH1 0x20 DUP2 ADD SWAP1 PUSH3 0x2956 SWAP2 SWAP1 PUSH3 0x30B3 JUMP JUMPDEST DUP7 DUP7 DUP6 DUP2 DUP2 LT PUSH3 0x296B JUMPI PUSH3 0x296B PUSH3 0x4031 JUMP JUMPDEST SWAP1 POP PUSH1 0x60 MUL ADD PUSH1 0x40 ADD CALLDATALOAD PUSH3 0x2984 JUMP JUMPDEST PUSH1 0x1 ADD PUSH3 0x28ED JUMP JUMPDEST PUSH1 0x1 PUSH1 0x1 PUSH1 0xA0 SHL SUB DUP4 AND PUSH20 0xEEEEEEEEEEEEEEEEEEEEEEEEEEEEEEEEEEEEEEEE EQ ISZERO PUSH3 0x2A48 JUMPI PUSH1 0x0 DUP3 PUSH1 0x1 PUSH1 0x1 PUSH1 0xA0 SHL SUB AND PUSH2 0xDAC DUP4 PUSH1 0x40 MLOAD PUSH1 0x0 PUSH1 0x40 MLOAD DUP1 DUP4 SUB DUP2 DUP6 DUP9 DUP9 CALL SWAP4 POP POP POP POP RETURNDATASIZE DUP1 PUSH1 0x0 DUP2 EQ PUSH3 0x29FD JUMPI PUSH1 0x40 MLOAD SWAP2 POP PUSH1 0x1F NOT PUSH1 0x3F RETURNDATASIZE ADD AND DUP3 ADD PUSH1 0x40 MSTORE RETURNDATASIZE DUP3 MSTORE RETURNDATASIZE PUSH1 0x0 PUSH1 0x20 DUP5 ADD RETURNDATACOPY PUSH3 0x2A02 JUMP JUMPDEST PUSH1 0x60 SWAP2 POP JUMPDEST POP POP SWAP1 POP DUP1 PUSH3 0x16FB JUMPI DUP3 PUSH1 0x1 PUSH1 0x1 PUSH1 0xA0 SHL SUB AND PUSH32 0x1C43B9761B3FBA5321CA8212BFC231945F668CCC0C446F333999EEA9CE8FDA81 DUP4 PUSH1 0x40 MLOAD PUSH3 0x831 SWAP2 DUP2 MSTORE PUSH1 0x20 ADD SWAP1 JUMP JUMPDEST PUSH3 0x2A5E PUSH1 0x1 PUSH1 0x1 PUSH1 0xA0 SHL SUB DUP5 AND DUP4 DUP4 PUSH3 0x2CF4 JUMP JUMPDEST POP POP POP JUMP JUMPDEST PUSH20 0xEEEEEEEEEEEEEEEEEEEEEEEEEEEEEEEEEEEEEEEE PUSH3 0x2A87 PUSH1 0x20 DUP9 ADD DUP9 PUSH3 0x30B3 JUMP JUMPDEST PUSH1 0x1 PUSH1 0x1 PUSH1 0xA0 SHL SUB AND EQ ISZERO PUSH3 0x2B33 JUMPI PUSH3 0x2AA9 PUSH1 0x40 DUP8 ADD PUSH1 0x20 DUP9 ADD PUSH3 0x30B3 JUMP JUMPDEST PUSH1 0x1 PUSH1 0x1 PUSH1 0xA0 SHL SUB AND PUSH4 0x4D3338B9 PUSH1 0x40 DUP9 ADD CALLDATALOAD DUP8 DUP8 DUP8 DUP8 DUP8 PUSH3 0x2AD0 PUSH1 0x20 DUP16 ADD DUP16 PUSH3 0x30B3 JUMP JUMPDEST DUP15 PUSH1 0x40 ADD CALLDATALOAD PUSH1 0x40 MLOAD DUP10 PUSH4 0xFFFFFFFF AND PUSH1 0xE0 SHL DUP2 MSTORE PUSH1 0x4 ADD PUSH3 0x2AF9 SWAP8 SWAP7 SWAP6 SWAP5 SWAP4 SWAP3 SWAP2 SWAP1 PUSH3 0x3DC7 JUMP JUMPDEST PUSH1 0x0 PUSH1 0x40 MLOAD DUP1 DUP4 SUB DUP2 DUP6 DUP9 DUP1 EXTCODESIZE ISZERO DUP1 ISZERO PUSH3 0x2B13 JUMPI PUSH1 0x0 DUP1 REVERT JUMPDEST POP GAS CALL ISZERO DUP1 ISZERO PUSH3 0x2B28 JUMPI RETURNDATASIZE PUSH1 0x0 DUP1 RETURNDATACOPY RETURNDATASIZE PUSH1 0x0 REVERT JUMPDEST POP POP POP POP POP PUSH3 0x2C00 JUMP JUMPDEST PUSH3 0x2B6E PUSH3 0x2B49 PUSH1 0x40 DUP9 ADD PUSH1 0x20 DUP10 ADD PUSH3 0x30B3 JUMP JUMPDEST PUSH1 0x40 DUP9 ADD CALLDATALOAD PUSH3 0x2B5D PUSH1 0x20 DUP11 ADD DUP11 PUSH3 0x30B3 JUMP JUMPDEST PUSH1 0x1 PUSH1 0x1 PUSH1 0xA0 SHL SUB AND SWAP2 SWAP1 PUSH3 0x2CF4 JUMP JUMPDEST PUSH3 0x2B80 PUSH1 0x40 DUP8 ADD PUSH1 0x20 DUP9 ADD PUSH3 0x30B3 JUMP JUMPDEST PUSH1 0x1 PUSH1 0x1 PUSH1 0xA0 SHL SUB AND PUSH4 0x4D3338B9 DUP7 DUP7 DUP7 DUP7 DUP7 PUSH3 0x2BA2 PUSH1 0x20 DUP15 ADD DUP15 PUSH3 0x30B3 JUMP JUMPDEST DUP14 PUSH1 0x40 ADD CALLDATALOAD PUSH1 0x40 MLOAD DUP9 PUSH4 0xFFFFFFFF AND PUSH1 0xE0 SHL DUP2 MSTORE PUSH1 0x4 ADD PUSH3 0x2BCB SWAP8 SWAP7 SWAP6 SWAP5 SWAP4 SWAP3 SWAP2 SWAP1 PUSH3 0x3DC7 JUMP JUMPDEST PUSH1 0x0 PUSH1 0x40 MLOAD DUP1 DUP4 SUB DUP2 PUSH1 0x0 DUP8 DUP1 EXTCODESIZE ISZERO DUP1 ISZERO PUSH3 0x2BE6 JUMPI PUSH1 0x0 DUP1 REVERT JUMPDEST POP GAS CALL ISZERO DUP1 ISZERO PUSH3 0x2BFB JUMPI RETURNDATASIZE PUSH1 0x0 DUP1 RETURNDATACOPY RETURNDATASIZE PUSH1 0x0 REVERT JUMPDEST POP POP POP POP JUMPDEST POP POP POP POP POP POP JUMP JUMPDEST PUSH1 0x0 PUSH3 0x2C5F DUP3 PUSH1 0x40 MLOAD DUP1 PUSH1 0x40 ADD PUSH1 0x40 MSTORE DUP1 PUSH1 0x20 DUP2 MSTORE PUSH1 0x20 ADD PUSH32 0x5361666545524332303A206C6F772D6C6576656C2063616C6C206661696C6564 DUP2 MSTORE POP DUP6 PUSH1 0x1 PUSH1 0x1 PUSH1 0xA0 SHL SUB AND PUSH3 0x2D3F SWAP1 SWAP3 SWAP2 SWAP1 PUSH4 0xFFFFFFFF AND JUMP JUMPDEST DUP1 MLOAD SWAP1 SWAP2 POP ISZERO PUSH3 0x2A5E JUMPI DUP1 DUP1 PUSH1 0x20 ADD SWAP1 MLOAD DUP2 ADD SWAP1 PUSH3 0x2C80 SWAP2 SWAP1 PUSH3 0x316D JUMP JUMPDEST PUSH3 0x2A5E JUMPI PUSH1 0x40 MLOAD PUSH3 0x461BCD PUSH1 0xE5 SHL DUP2 MSTORE PUSH1 0x20 PUSH1 0x4 DUP3 ADD MSTORE PUSH1 0x2A PUSH1 0x24 DUP3 ADD MSTORE PUSH32 0x5361666545524332303A204552433230206F7065726174696F6E20646964206E PUSH1 0x44 DUP3 ADD MSTORE PUSH32 0x6F74207375636365656400000000000000000000000000000000000000000000 PUSH1 0x64 DUP3 ADD MSTORE PUSH1 0x84 ADD PUSH3 0x562 JUMP JUMPDEST PUSH1 0x40 MLOAD PUSH1 0x1 PUSH1 0x1 PUSH1 0xA0 SHL SUB DUP4 AND PUSH1 0x24 DUP3 ADD MSTORE PUSH1 0x44 DUP2 ADD DUP3 SWAP1 MSTORE PUSH3 0x2A5E SWAP1 DUP5 SWAP1 PUSH32 0xA9059CBB00000000000000000000000000000000000000000000000000000000 SWAP1 PUSH1 0x64 ADD PUSH3 0x26E8 JUMP JUMPDEST PUSH1 0x60 PUSH3 0x2D50 DUP5 DUP5 PUSH1 0x0 DUP6 PUSH3 0x2D5A JUMP JUMPDEST SWAP1 POP JUMPDEST SWAP4 SWAP3 POP POP POP JUMP JUMPDEST PUSH1 0x60 DUP3 SELFBALANCE LT ISZERO PUSH3 0x2DD4 JUMPI PUSH1 0x40 MLOAD PUSH3 0x461BCD PUSH1 0xE5 SHL DUP2 MSTORE PUSH1 0x20 PUSH1 0x4 DUP3 ADD MSTORE PUSH1 0x26 PUSH1 0x24 DUP3 ADD MSTORE PUSH32 0x416464726573733A20696E73756666696369656E742062616C616E636520666F PUSH1 0x44 DUP3 ADD MSTORE PUSH32 0x722063616C6C0000000000000000000000000000000000000000000000000000 PUSH1 0x64 DUP3 ADD MSTORE PUSH1 0x84 ADD PUSH3 0x562 JUMP JUMPDEST DUP5 EXTCODESIZE PUSH3 0x2E24 JUMPI PUSH1 0x40 MLOAD PUSH3 0x461BCD PUSH1 0xE5 SHL DUP2 MSTORE PUSH1 0x20 PUSH1 0x4 DUP3 ADD MSTORE PUSH1 0x1D PUSH1 0x24 DUP3 ADD MSTORE PUSH32 0x416464726573733A2063616C6C20746F206E6F6E2D636F6E7472616374000000 PUSH1 0x44 DUP3 ADD MSTORE PUSH1 0x64 ADD PUSH3 0x562 JUMP JUMPDEST PUSH1 0x0 DUP1 DUP7 PUSH1 0x1 PUSH1 0x1 PUSH1 0xA0 SHL SUB AND DUP6 DUP8 PUSH1 0x40 MLOAD PUSH3 0x2E42 SWAP2 SWAP1 PUSH3 0x3907 JUMP JUMPDEST PUSH1 0x0 PUSH1 0x40 MLOAD DUP1 DUP4 SUB DUP2 DUP6 DUP8 GAS CALL SWAP3 POP POP POP RETURNDATASIZE DUP1 PUSH1 0x0 DUP2 EQ PUSH3 0x2E81 JUMPI PUSH1 0x40 MLOAD SWAP2 POP PUSH1 0x1F NOT PUSH1 0x3F RETURNDATASIZE ADD AND DUP3 ADD PUSH1 0x40 MSTORE RETURNDATASIZE DUP3 MSTORE RETURNDATASIZE PUSH1 0x0 PUSH1 0x20 DUP5 ADD RETURNDATACOPY PUSH3 0x2E86 JUMP JUMPDEST PUSH1 0x60 SWAP2 POP JUMPDEST POP SWAP2 POP SWAP2 POP PUSH3 0x2E98 DUP3 DUP3 DUP7 PUSH3 0x2EA3 JUMP JUMPDEST SWAP8 SWAP7 POP POP POP POP POP POP POP JUMP JUMPDEST PUSH1 0x60 DUP4 ISZERO PUSH3 0x2EB4 JUMPI POP DUP2 PUSH3 0x2D53 JUMP JUMPDEST DUP3 MLOAD ISZERO PUSH3 0x2EC5 JUMPI DUP3 MLOAD DUP1 DUP5 PUSH1 0x20 ADD REVERT JUMPDEST DUP2 PUSH1 0x40 MLOAD PUSH3 0x461BCD PUSH1 0xE5 SHL DUP2 MSTORE PUSH1 0x4 ADD PUSH3 0x562 SWAP2 SWAP1 PUSH3 0x3925 JUMP JUMPDEST PUSH2 0x555 DUP1 PUSH3 0x4077 DUP4 CODECOPY ADD SWAP1 JUMP JUMPDEST DUP1 CALLDATALOAD PUSH3 0x2EFC DUP2 PUSH3 0x405D JUMP JUMPDEST SWAP2 SWAP1 POP JUMP JUMPDEST PUSH1 0x0 DUP1 DUP4 PUSH1 0x1F DUP5 ADD SLT PUSH3 0x2F14 JUMPI PUSH1 0x0 DUP1 REVERT JUMPDEST POP DUP2 CALLDATALOAD PUSH8 0xFFFFFFFFFFFFFFFF DUP2 GT ISZERO PUSH3 0x2F2D JUMPI PUSH1 0x0 DUP1 REVERT JUMPDEST PUSH1 0x20 DUP4 ADD SWAP2 POP DUP4 PUSH1 0x20 DUP3 PUSH1 0x6 SHL DUP6 ADD ADD GT ISZERO PUSH3 0x2F49 JUMPI PUSH1 0x0 DUP1 REVERT JUMPDEST SWAP3 POP SWAP3 SWAP1 POP JUMP JUMPDEST PUSH1 0x0 DUP1 DUP4 PUSH1 0x1F DUP5 ADD SLT PUSH3 0x2F63 JUMPI PUSH1 0x0 DUP1 REVERT JUMPDEST POP DUP2 CALLDATALOAD PUSH8 0xFFFFFFFFFFFFFFFF DUP2 GT ISZERO PUSH3 0x2F7C JUMPI PUSH1 0x0 DUP1 REVERT JUMPDEST PUSH1 0x20 DUP4 ADD SWAP2 POP DUP4 PUSH1 0x20 PUSH1 0x60 DUP4 MUL DUP6 ADD ADD GT ISZERO PUSH3 0x2F49 JUMPI PUSH1 0x0 DUP1 REVERT JUMPDEST PUSH1 0x0 DUP1 DUP4 PUSH1 0x1F DUP5 ADD SLT PUSH3 0x2FAB JUMPI PUSH1 0x0 DUP1 REVERT JUMPDEST POP DUP2 CALLDATALOAD PUSH8 0xFFFFFFFFFFFFFFFF DUP2 GT ISZERO PUSH3 0x2FC4 JUMPI PUSH1 0x0 DUP1 REVERT JUMPDEST PUSH1 0x20 DUP4 ADD SWAP2 POP DUP4 PUSH1 0x20 DUP3 DUP6 ADD ADD GT ISZERO PUSH3 0x2F49 JUMPI PUSH1 0x0 DUP1 REVERT JUMPDEST PUSH1 0x0 DUP3 PUSH1 0x1F DUP4 ADD SLT PUSH3 0x2FEF JUMPI PUSH1 0x0 DUP1 REVERT JUMPDEST DUP2 CALLDATALOAD PUSH8 0xFFFFFFFFFFFFFFFF DUP1 DUP3 GT ISZERO PUSH3 0x300D JUMPI PUSH3 0x300D PUSH3 0x4047 JUMP JUMPDEST PUSH1 0x40 MLOAD PUSH1 0x1F DUP4 ADD PUSH1 0x1F NOT SWAP1 DUP2 AND PUSH1 0x3F ADD AND DUP2 ADD SWAP1 DUP3 DUP3 GT DUP2 DUP4 LT OR ISZERO PUSH3 0x3038 JUMPI PUSH3 0x3038 PUSH3 0x4047 JUMP JUMPDEST DUP2 PUSH1 0x40 MSTORE DUP4 DUP2 MSTORE DUP7 PUSH1 0x20 DUP6 DUP9 ADD ADD GT ISZERO PUSH3 0x3052 JUMPI PUSH1 0x0 DUP1 REVERT JUMPDEST DUP4 PUSH1 0x20 DUP8 ADD PUSH1 0x20 DUP4 ADD CALLDATACOPY PUSH1 0x0 PUSH1 0x20 DUP6 DUP4 ADD ADD MSTORE DUP1 SWAP5 POP POP POP POP POP SWAP3 SWAP2 POP POP JUMP JUMPDEST PUSH1 0x0 PUSH1 0xC0 DUP3 DUP5 SUB SLT ISZERO PUSH3 0x3085 JUMPI PUSH1 0x0 DUP1 REVERT JUMPDEST POP SWAP2 SWAP1 POP JUMP JUMPDEST PUSH1 0x0 PUSH1 0x60 DUP3 DUP5 SUB SLT ISZERO PUSH3 0x3085 JUMPI PUSH1 0x0 DUP1 REVERT JUMPDEST DUP1 CALLDATALOAD PUSH4 0xFFFFFFFF DUP2 AND DUP2 EQ PUSH3 0x2EFC JUMPI PUSH1 0x0 DUP1 REVERT JUMPDEST PUSH1 0x0 PUSH1 0x20 DUP3 DUP5 SUB SLT ISZERO PUSH3 0x30C6 JUMPI PUSH1 0x0 DUP1 REVERT JUMPDEST DUP2 CALLDATALOAD PUSH3 0x2D53 DUP2 PUSH3 0x405D JUMP JUMPDEST PUSH1 0x0 PUSH1 0x20 DUP3 DUP5 SUB SLT ISZERO PUSH3 0x30E6 JUMPI PUSH1 0x0 DUP1 REVERT JUMPDEST DUP2 MLOAD PUSH3 0x2D53 DUP2 PUSH3 0x405D JUMP JUMPDEST PUSH1 0x0 DUP1 PUSH1 0x20 DUP4 DUP6 SUB SLT ISZERO PUSH3 0x3107 JUMPI PUSH1 0x0 DUP1 REVERT JUMPDEST DUP3 CALLDATALOAD PUSH8 0xFFFFFFFFFFFFFFFF DUP1 DUP3 GT ISZERO PUSH3 0x3120 JUMPI PUSH1 0x0 DUP1 REVERT JUMPDEST DUP2 DUP6 ADD SWAP2 POP DUP6 PUSH1 0x1F DUP4 ADD SLT PUSH3 0x3135 JUMPI PUSH1 0x0 DUP1 REVERT JUMPDEST DUP2 CALLDATALOAD DUP2 DUP2 GT ISZERO PUSH3 0x3145 JUMPI PUSH1 0x0 DUP1 REVERT JUMPDEST DUP7 PUSH1 0x20 DUP3 PUSH1 0x5 SHL DUP6 ADD ADD GT ISZERO PUSH3 0x315B JUMPI PUSH1 0x0 DUP1 REVERT JUMPDEST PUSH1 0x20 SWAP3 SWAP1 SWAP3 ADD SWAP7 SWAP2 SWAP6 POP SWAP1 SWAP4 POP POP POP POP JUMP JUMPDEST PUSH1 0x0 PUSH1 0x20 DUP3 DUP5 SUB SLT ISZERO PUSH3 0x3180 JUMPI PUSH1 0x0 DUP1 REVERT JUMPDEST DUP2 MLOAD DUP1 ISZERO ISZERO DUP2 EQ PUSH3 0x2D53 JUMPI PUSH1 0x0 DUP1 REVERT JUMPDEST PUSH1 0x0 DUP1 PUSH1 0x0 DUP1 PUSH1 0x0 DUP1 PUSH1 0x0 PUSH2 0x140 DUP9 DUP11 SUB SLT ISZERO PUSH3 0x31AE JUMPI PUSH1 0x0 DUP1 REVERT JUMPDEST PUSH3 0x31BA DUP10 DUP10 PUSH3 0x3072 JUMP JUMPDEST SWAP7 POP PUSH1 0xC0 DUP9 ADD CALLDATALOAD PUSH3 0x31CC DUP2 PUSH3 0x405D JUMP JUMPDEST SWAP6 POP PUSH3 0x31DC PUSH1 0xE0 DUP10 ADD PUSH3 0x309E JUMP JUMPDEST SWAP5 POP PUSH2 0x100 DUP9 ADD CALLDATALOAD PUSH8 0xFFFFFFFFFFFFFFFF DUP1 DUP3 GT ISZERO PUSH3 0x31FB JUMPI PUSH1 0x0 DUP1 REVERT JUMPDEST PUSH3 0x3209 DUP12 DUP4 DUP13 ADD PUSH3 0x2F98 JUMP JUMPDEST SWAP1 SWAP7 POP SWAP5 POP PUSH2 0x120 DUP11 ADD CALLDATALOAD SWAP2 POP DUP1 DUP3 GT ISZERO PUSH3 0x3224 JUMPI PUSH1 0x0 DUP1 REVERT JUMPDEST POP PUSH3 0x3233 DUP11 DUP3 DUP12 ADD PUSH3 0x2F98 JUMP JUMPDEST SWAP9 SWAP12 SWAP8 SWAP11 POP SWAP6 SWAP9 POP SWAP4 SWAP7 SWAP3 SWAP6 SWAP3 SWAP4 POP POP POP JUMP JUMPDEST PUSH1 0x0 DUP1 PUSH1 0x0 PUSH1 0xE0 DUP5 DUP7 SUB SLT ISZERO PUSH3 0x325C JUMPI PUSH1 0x0 DUP1 REVERT JUMPDEST PUSH3 0x3268 DUP6 DUP6 PUSH3 0x3072 JUMP JUMPDEST SWAP3 POP PUSH1 0xC0 DUP5 ADD CALLDATALOAD PUSH8 0xFFFFFFFFFFFFFFFF DUP2 GT ISZERO PUSH3 0x3285 JUMPI PUSH1 0x0 DUP1 REVERT JUMPDEST PUSH3 0x3293 DUP7 DUP3 DUP8 ADD PUSH3 0x2F01 JUMP JUMPDEST SWAP5 SWAP8 SWAP1 SWAP7 POP SWAP4 SWAP5 POP POP POP POP JUMP JUMPDEST PUSH1 0x0 DUP1 PUSH1 0x0 DUP1 PUSH1 0x0 DUP1 PUSH1 0x0 PUSH2 0x120 DUP9 DUP11 SUB SLT ISZERO PUSH3 0x32BD JUMPI PUSH1 0x0 DUP1 REVERT JUMPDEST PUSH3 0x32C9 DUP10 DUP10 PUSH3 0x3072 JUMP JUMPDEST SWAP7 POP PUSH1 0xC0 DUP9 ADD CALLDATALOAD PUSH8 0xFFFFFFFFFFFFFFFF DUP1 DUP3 GT ISZERO PUSH3 0x32E7 JUMPI PUSH1 0x0 DUP1 REVERT JUMPDEST PUSH3 0x32F5 DUP12 DUP4 DUP13 ADD PUSH3 0x2F01 JUMP JUMPDEST SWAP1 SWAP9 POP SWAP7 POP PUSH1 0xE0 DUP11 ADD CALLDATALOAD SWAP2 POP DUP1 DUP3 GT ISZERO PUSH3 0x330F JUMPI PUSH1 0x0 DUP1 REVERT JUMPDEST PUSH3 0x331D DUP12 DUP4 DUP13 ADD PUSH3 0x2F01 JUMP JUMPDEST SWAP1 SWAP7 POP SWAP5 POP PUSH2 0x100 DUP11 ADD CALLDATALOAD SWAP2 POP DUP1 DUP3 GT ISZERO PUSH3 0x3338 JUMPI PUSH1 0x0 DUP1 REVERT JUMPDEST POP PUSH3 0x3233 DUP11 DUP3 DUP12 ADD PUSH3 0x2F50 JUMP JUMPDEST PUSH1 0x0 DUP1 PUSH1 0x0 PUSH1 0xE0 DUP5 DUP7 SUB SLT ISZERO PUSH3 0x335D JUMPI PUSH1 0x0 DUP1 REVERT JUMPDEST PUSH3 0x3369 DUP6 DUP6 PUSH3 0x3072 JUMP JUMPDEST SWAP3 POP PUSH1 0xC0 DUP5 ADD CALLDATALOAD PUSH8 0xFFFFFFFFFFFFFFFF DUP2 GT ISZERO PUSH3 0x3386 JUMPI PUSH1 0x0 DUP1 REVERT JUMPDEST PUSH3 0x3293 DUP7 DUP3 DUP8 ADD PUSH3 0x2F50 JUMP JUMPDEST PUSH1 0x0 DUP1 PUSH1 0xE0 DUP4 DUP6 SUB SLT ISZERO PUSH3 0x33A8 JUMPI PUSH1 0x0 DUP1 REVERT JUMPDEST PUSH3 0x33B4 DUP5 DUP5 PUSH3 0x3072 JUMP JUMPDEST SWAP2 POP PUSH1 0xC0 DUP4 ADD CALLDATALOAD PUSH3 0x33C6 DUP2 PUSH3 0x405D JUMP JUMPDEST DUP1 SWAP2 POP POP SWAP3 POP SWAP3 SWAP1 POP JUMP JUMPDEST PUSH1 0x0 DUP1 PUSH2 0x120 DUP4 DUP6 SUB SLT ISZERO PUSH3 0x33E6 JUMPI PUSH1 0x0 DUP1 REVERT JUMPDEST PUSH3 0x33F2 DUP5 DUP5 PUSH3 0x3072 JUMP JUMPDEST SWAP2 POP PUSH3 0x3403 DUP5 PUSH1 0xC0 DUP6 ADD PUSH3 0x308B JUMP JUMPDEST SWAP1 POP SWAP3 POP SWAP3 SWAP1 POP JUMP JUMPDEST PUSH1 0x0 DUP1 PUSH1 0x0 DUP1 PUSH1 0x0 DUP1 PUSH1 0x0 PUSH2 0x180 DUP9 DUP11 SUB SLT ISZERO PUSH3 0x3429 JUMPI PUSH1 0x0 DUP1 REVERT JUMPDEST PUSH3 0x3435 DUP10 DUP10 PUSH3 0x3072 JUMP JUMPDEST SWAP7 POP PUSH3 0x3446 DUP10 PUSH1 0xC0 DUP11 ADD PUSH3 0x308B JUMP JUMPDEST SWAP6 POP PUSH3 0x3457 PUSH2 0x120 DUP10 ADD PUSH3 0x309E JUMP JUMPDEST SWAP5 POP PUSH2 0x140 DUP9 ADD CALLDATALOAD PUSH8 0xFFFFFFFFFFFFFFFF DUP1 DUP3 GT ISZERO PUSH3 0x3476 JUMPI PUSH1 0x0 DUP1 REVERT JUMPDEST PUSH3 0x3484 DUP12 DUP4 DUP13 ADD PUSH3 0x2F98 JUMP JUMPDEST SWAP1 SWAP7 POP SWAP5 POP PUSH2 0x160 DUP11 ADD CALLDATALOAD SWAP2 POP DUP1 DUP3 GT ISZERO PUSH3 0x3224 JUMPI PUSH1 0x0 DUP1 REVERT JUMPDEST PUSH1 0x0 PUSH1 0x20 DUP3 DUP5 SUB SLT ISZERO PUSH3 0x34B2 JUMPI PUSH1 0x0 DUP1 REVERT JUMPDEST POP MLOAD SWAP2 SWAP1 POP JUMP JUMPDEST PUSH1 0x0 DUP1 PUSH1 0x0 PUSH1 0x60 DUP5 DUP7 SUB SLT ISZERO PUSH3 0x34CF JUMPI PUSH1 0x0 DUP1 REVERT JUMPDEST PUSH3 0x34DA DUP5 PUSH3 0x309E JUMP JUMPDEST SWAP3 POP PUSH1 0x20 DUP5 ADD CALLDATALOAD PUSH8 0xFFFFFFFFFFFFFFFF DUP1 DUP3 GT ISZERO PUSH3 0x34F8 JUMPI PUSH1 0x0 DUP1 REVERT JUMPDEST PUSH3 0x3506 DUP8 DUP4 DUP9 ADD PUSH3 0x2FDD JUMP JUMPDEST SWAP4 POP PUSH1 0x40 DUP7 ADD CALLDATALOAD SWAP2 POP DUP1 DUP3 GT ISZERO PUSH3 0x351D JUMPI PUSH1 0x0 DUP1 REVERT JUMPDEST POP PUSH3 0x352C DUP7 DUP3 DUP8 ADD PUSH3 0x2FDD JUMP JUMPDEST SWAP2 POP POP SWAP3 POP SWAP3 POP SWAP3 JUMP JUMPDEST PUSH1 0x0 DUP1 PUSH1 0x0 DUP1 PUSH1 0x0 DUP1 PUSH1 0x0 PUSH1 0xC0 DUP9 DUP11 SUB SLT ISZERO PUSH3 0x3552 JUMPI PUSH1 0x0 DUP1 REVERT JUMPDEST PUSH3 0x355D DUP9 PUSH3 0x309E JUMP JUMPDEST SWAP7 POP PUSH1 0x20 DUP9 ADD CALLDATALOAD PUSH8 0xFFFFFFFFFFFFFFFF DUP1 DUP3 GT ISZERO PUSH3 0x357B JUMPI PUSH1 0x0 DUP1 REVERT JUMPDEST PUSH3 0x3589 DUP12 DUP4 DUP13 ADD PUSH3 0x2FDD JUMP JUMPDEST SWAP8 POP PUSH1 0x40 DUP11 ADD CALLDATALOAD SWAP2 POP DUP1 DUP3 GT ISZERO PUSH3 0x35A0 JUMPI PUSH1 0x0 DUP1 REVERT JUMPDEST PUSH3 0x35AE DUP12 DUP4 DUP13 ADD PUSH3 0x2FDD JUMP JUMPDEST SWAP7 POP PUSH1 0x60 DUP11 ADD CALLDATALOAD SWAP2 POP DUP1 DUP3 GT ISZERO PUSH3 0x35C5 JUMPI PUSH1 0x0 DUP1 REVERT JUMPDEST POP PUSH3 0x35D4 DUP11 DUP3 DUP12 ADD PUSH3 0x2F98 JUMP JUMPDEST SWAP1 SWAP6 POP SWAP4 POP POP PUSH1 0x80 DUP9 ADD CALLDATALOAD SWAP2 POP PUSH1 0xA0 DUP9 ADD CALLDATALOAD PUSH3 0x35F1 DUP2 PUSH3 0x405D JUMP JUMPDEST DUP1 SWAP2 POP POP SWAP3 SWAP6 SWAP9 SWAP2 SWAP5 SWAP8 POP SWAP3 SWAP6 POP JUMP JUMPDEST PUSH1 0x0 DUP1 PUSH1 0x0 DUP1 PUSH1 0x0 DUP1 PUSH1 0x0 DUP1 PUSH1 0x0 PUSH2 0x100 DUP11 DUP13 SUB SLT ISZERO PUSH3 0x3621 JUMPI PUSH1 0x0 DUP1 REVERT JUMPDEST PUSH3 0x362C DUP11 PUSH3 0x309E JUMP JUMPDEST SWAP9 POP PUSH1 0x20 DUP11 ADD CALLDATALOAD PUSH8 0xFFFFFFFFFFFFFFFF DUP1 DUP3 GT ISZERO PUSH3 0x364A JUMPI PUSH1 0x0 DUP1 REVERT JUMPDEST PUSH3 0x3658 DUP14 DUP4 DUP15 ADD PUSH3 0x2FDD JUMP JUMPDEST SWAP10 POP PUSH1 0x40 DUP13 ADD CALLDATALOAD SWAP2 POP DUP1 DUP3 GT ISZERO PUSH3 0x366F JUMPI PUSH1 0x0 DUP1 REVERT JUMPDEST PUSH3 0x367D DUP14 DUP4 DUP15 ADD PUSH3 0x2FDD JUMP JUMPDEST SWAP9 POP PUSH1 0x60 DUP13 ADD CALLDATALOAD SWAP2 POP DUP1 DUP3 GT ISZERO PUSH3 0x3694 JUMPI PUSH1 0x0 DUP1 REVERT JUMPDEST POP PUSH3 0x36A3 DUP13 DUP3 DUP14 ADD PUSH3 0x2F98 JUMP JUMPDEST SWAP1 SWAP8 POP SWAP6 POP POP PUSH1 0x80 DUP11 ADD CALLDATALOAD SWAP4 POP PUSH3 0x36BE PUSH1 0xA0 DUP12 ADD PUSH3 0x2EEF JUMP JUMPDEST SWAP3 POP PUSH1 0xC0 DUP11 ADD CALLDATALOAD SWAP2 POP PUSH3 0x36D5 PUSH1 0xE0 DUP12 ADD PUSH3 0x2EEF JUMP JUMPDEST SWAP1 POP SWAP3 SWAP6 SWAP9 POP SWAP3 SWAP6 SWAP9 POP SWAP3 SWAP6 SWAP9 JUMP JUMPDEST PUSH1 0x0 DUP1 PUSH1 0x0 DUP1 PUSH1 0x0 PUSH1 0xA0 DUP7 DUP9 SUB SLT ISZERO PUSH3 0x36FD JUMPI PUSH1 0x0 DUP1 REVERT JUMPDEST PUSH3 0x3708 DUP7 PUSH3 0x309E JUMP JUMPDEST SWAP5 POP PUSH1 0x20 DUP7 ADD CALLDATALOAD PUSH8 0xFFFFFFFFFFFFFFFF DUP1 DUP3 GT ISZERO PUSH3 0x3726 JUMPI PUSH1 0x0 DUP1 REVERT JUMPDEST PUSH3 0x3734 DUP10 DUP4 DUP11 ADD PUSH3 0x2FDD JUMP JUMPDEST SWAP6 POP PUSH1 0x40 DUP9 ADD CALLDATALOAD SWAP2 POP DUP1 DUP3 GT ISZERO PUSH3 0x374B JUMPI PUSH1 0x0 DUP1 REVERT JUMPDEST POP PUSH3 0x375A DUP9 DUP3 DUP10 ADD PUSH3 0x2FDD JUMP JUMPDEST SWAP4 POP POP PUSH1 0x60 DUP7 ADD CALLDATALOAD PUSH3 0x376D DUP2 PUSH3 0x405D JUMP JUMPDEST SWAP5 SWAP8 SWAP4 SWAP7 POP SWAP2 SWAP5 PUSH1 0x80 ADD CALLDATALOAD SWAP3 SWAP2 POP POP JUMP JUMPDEST DUP2 DUP4 MSTORE PUSH1 0x0 PUSH1 0x20 DUP1 DUP6 ADD SWAP5 POP DUP3 PUSH1 0x0 JUMPDEST DUP6 DUP2 LT ISZERO PUSH3 0x37CB JUMPI DUP2 CALLDATALOAD DUP8 MSTORE DUP3 DUP3 ADD CALLDATALOAD PUSH3 0x37AA DUP2 PUSH3 0x405D JUMP JUMPDEST PUSH1 0x1 PUSH1 0x1 PUSH1 0xA0 SHL SUB AND DUP8 DUP5 ADD MSTORE PUSH1 0x40 SWAP7 DUP8 ADD SWAP7 SWAP2 SWAP1 SWAP2 ADD SWAP1 PUSH1 0x1 ADD PUSH3 0x378E JUMP JUMPDEST POP SWAP5 SWAP6 SWAP5 POP POP POP POP POP JUMP JUMPDEST DUP2 DUP4 MSTORE PUSH1 0x0 PUSH1 0x20 DUP1 DUP6 ADD SWAP5 POP DUP3 PUSH1 0x0 JUMPDEST DUP6 DUP2 LT ISZERO PUSH3 0x37CB JUMPI DUP2 CALLDATALOAD PUSH3 0x37FC DUP2 PUSH3 0x405D JUMP JUMPDEST PUSH1 0x1 PUSH1 0x1 PUSH1 0xA0 SHL SUB SWAP1 DUP2 AND DUP9 MSTORE DUP3 DUP5 ADD CALLDATALOAD SWAP1 PUSH3 0x3819 DUP3 PUSH3 0x405D JUMP JUMPDEST AND DUP8 DUP5 ADD MSTORE PUSH1 0x40 SWAP7 DUP8 ADD SWAP7 SWAP2 SWAP1 SWAP2 ADD SWAP1 PUSH1 0x1 ADD PUSH3 0x37E6 JUMP JUMPDEST DUP2 DUP4 MSTORE PUSH1 0x20 DUP4 ADD SWAP3 POP PUSH1 0x0 DUP2 PUSH1 0x0 JUMPDEST DUP5 DUP2 LT ISZERO PUSH3 0x386A JUMPI PUSH3 0x3856 DUP7 DUP4 PUSH3 0x38CB JUMP JUMPDEST PUSH1 0x60 SWAP6 DUP7 ADD SWAP6 SWAP2 SWAP1 SWAP2 ADD SWAP1 PUSH1 0x1 ADD PUSH3 0x3841 JUMP JUMPDEST POP SWAP4 SWAP5 SWAP4 POP POP POP POP JUMP JUMPDEST DUP2 DUP4 MSTORE DUP2 DUP2 PUSH1 0x20 DUP6 ADD CALLDATACOPY POP PUSH1 0x0 DUP3 DUP3 ADD PUSH1 0x20 SWAP1 DUP2 ADD SWAP2 SWAP1 SWAP2 MSTORE PUSH1 0x1F SWAP1 SWAP2 ADD PUSH1 0x1F NOT AND SWAP1 SWAP2 ADD ADD SWAP1 JUMP JUMPDEST PUSH1 0x0 DUP2 MLOAD DUP1 DUP5 MSTORE PUSH3 0x38B7 DUP2 PUSH1 0x20 DUP7 ADD PUSH1 0x20 DUP7 ADD PUSH3 0x3FCE JUMP JUMPDEST PUSH1 0x1F ADD PUSH1 0x1F NOT AND SWAP3 SWAP1 SWAP3 ADD PUSH1 0x20 ADD SWAP3 SWAP2 POP POP JUMP JUMPDEST DUP1 CALLDATALOAD PUSH3 0x38D8 DUP2 PUSH3 0x405D JUMP JUMPDEST PUSH1 0x1 PUSH1 0x1 PUSH1 0xA0 SHL SUB SWAP1 DUP2 AND DUP4 MSTORE PUSH1 0x20 DUP3 ADD CALLDATALOAD SWAP1 PUSH3 0x38F6 DUP3 PUSH3 0x405D JUMP JUMPDEST AND PUSH1 0x20 DUP4 ADD MSTORE PUSH1 0x40 SWAP1 DUP2 ADD CALLDATALOAD SWAP2 ADD MSTORE JUMP JUMPDEST PUSH1 0x0 DUP3 MLOAD PUSH3 0x391B DUP2 DUP5 PUSH1 0x20 DUP8 ADD PUSH3 0x3FCE JUMP JUMPDEST SWAP2 SWAP1 SWAP2 ADD SWAP3 SWAP2 POP POP JUMP JUMPDEST PUSH1 0x20 DUP2 MSTORE PUSH1 0x0 PUSH3 0x2D53 PUSH1 0x20 DUP4 ADD DUP5 PUSH3 0x389D JUMP JUMPDEST PUSH1 0xE0 DUP2 ADD DUP4 CALLDATALOAD PUSH3 0x394B DUP2 PUSH3 0x405D JUMP JUMPDEST PUSH1 0x1 PUSH1 0x1 PUSH1 0xA0 SHL SUB DUP1 DUP3 AND DUP5 MSTORE PUSH1 0x20 DUP7 ADD CALLDATALOAD PUSH1 0x20 DUP6 ADD MSTORE PUSH1 0x40 DUP7 ADD CALLDATALOAD PUSH1 0x40 DUP6 ADD MSTORE PUSH1 0x60 DUP7 ADD CALLDATALOAD PUSH1 0x60 DUP6 ADD MSTORE PUSH1 0x80 DUP7 ADD CALLDATALOAD PUSH1 0x80 DUP6 ADD MSTORE PUSH1 0xA0 DUP7 ADD CALLDATALOAD SWAP2 POP PUSH3 0x3992 DUP3 PUSH3 0x405D JUMP JUMPDEST AND PUSH1 0xA0 DUP4 ADD MSTORE PUSH1 0xC0 SWAP1 SWAP2 ADD SWAP2 SWAP1 SWAP2 MSTORE SWAP2 SWAP1 POP JUMP JUMPDEST PUSH1 0x0 PUSH2 0x140 PUSH3 0x39F8 DUP4 DUP12 PUSH1 0x1 PUSH1 0x1 PUSH1 0xA0 SHL SUB DUP1 DUP3 MLOAD AND DUP4 MSTORE PUSH1 0x20 DUP3 ADD MLOAD PUSH1 0x20 DUP5 ADD MSTORE PUSH1 0x40 DUP3 ADD MLOAD PUSH1 0x40 DUP5 ADD MSTORE PUSH1 0x60 DUP3 ADD MLOAD PUSH1 0x60 DUP5 ADD MSTORE PUSH1 0x80 DUP3 ADD MLOAD PUSH1 0x80 DUP5 ADD MSTORE DUP1 PUSH1 0xA0 DUP4 ADD MLOAD AND PUSH1 0xA0 DUP5 ADD MSTORE POP POP POP JUMP JUMPDEST PUSH1 0x1 PUSH1 0x1 PUSH1 0xA0 SHL SUB DUP10 AND PUSH1 0xC0 DUP5 ADD MSTORE PUSH4 0xFFFFFFFF DUP9 AND PUSH1 0xE0 DUP5 ADD MSTORE DUP1 PUSH2 0x100 DUP5 ADD MSTORE PUSH3 0x3A29 DUP2 DUP5 ADD DUP8 DUP10 PUSH3 0x3874 JUMP JUMPDEST SWAP1 POP DUP3 DUP2 SUB PUSH2 0x120 DUP5 ADD MSTORE PUSH3 0x3A41 DUP2 DUP6 DUP8 PUSH3 0x3874 JUMP JUMPDEST SWAP11 SWAP10 POP POP POP POP POP POP POP POP POP POP JUMP JUMPDEST PUSH3 0x3A9C DUP2 DUP6 PUSH1 0x1 PUSH1 0x1 PUSH1 0xA0 SHL SUB DUP1 DUP3 MLOAD AND DUP4 MSTORE PUSH1 0x20 DUP3 ADD MLOAD PUSH1 0x20 DUP5 ADD MSTORE PUSH1 0x40 DUP3 ADD MLOAD PUSH1 0x40 DUP5 ADD MSTORE PUSH1 0x60 DUP3 ADD MLOAD PUSH1 0x60 DUP5 ADD MSTORE PUSH1 0x80 DUP3 ADD MLOAD PUSH1 0x80 DUP5 ADD MSTORE DUP1 PUSH1 0xA0 DUP4 ADD MLOAD AND PUSH1 0xA0 DUP5 ADD MSTORE POP POP POP JUMP JUMPDEST PUSH1 0xE0 PUSH1 0xC0 DUP3 ADD MSTORE PUSH1 0x0 PUSH3 0x3AB5 PUSH1 0xE0 DUP4 ADD DUP5 DUP7 PUSH3 0x377E JUMP JUMPDEST SWAP6 SWAP5 POP POP POP POP POP JUMP JUMPDEST PUSH1 0x0 PUSH2 0x120 PUSH3 0x3B10 DUP4 DUP12 PUSH1 0x1 PUSH1 0x1 PUSH1 0xA0 SHL SUB DUP1 DUP3 MLOAD AND DUP4 MSTORE PUSH1 0x20 DUP3 ADD MLOAD PUSH1 0x20 DUP5 ADD MSTORE PUSH1 0x40 DUP3 ADD MLOAD PUSH1 0x40 DUP5 ADD MSTORE PUSH1 0x60 DUP3 ADD MLOAD PUSH1 0x60 DUP5 ADD MSTORE PUSH1 0x80 DUP3 ADD MLOAD PUSH1 0x80 DUP5 ADD MSTORE DUP1 PUSH1 0xA0 DUP4 ADD MLOAD AND PUSH1 0xA0 DUP5 ADD MSTORE POP POP POP JUMP JUMPDEST DUP1 PUSH1 0xC0 DUP5 ADD MSTORE PUSH3 0x3B25 DUP2 DUP5 ADD DUP10 DUP12 PUSH3 0x377E JUMP JUMPDEST SWAP1 POP DUP3 DUP2 SUB PUSH1 0xE0 DUP5 ADD MSTORE PUSH3 0x3B3C DUP2 DUP8 DUP10 PUSH3 0x37D6 JUMP JUMPDEST SWAP1 POP DUP3 DUP2 SUB PUSH2 0x100 DUP5 ADD MSTORE PUSH3 0x3A41 DUP2 DUP6 DUP8 PUSH3 0x3832 JUMP JUMPDEST PUSH3 0x3BA1 DUP2 DUP6 PUSH1 0x1 PUSH1 0x1 PUSH1 0xA0 SHL SUB DUP1 DUP3 MLOAD AND DUP4 MSTORE PUSH1 0x20 DUP3 ADD MLOAD PUSH1 0x20 DUP5 ADD MSTORE PUSH1 0x40 DUP3 ADD MLOAD PUSH1 0x40 DUP5 ADD MSTORE PUSH1 0x60 DUP3 ADD MLOAD PUSH1 0x60 DUP5 ADD MSTORE PUSH1 0x80 DUP3 ADD MLOAD PUSH1 0x80 DUP5 ADD MSTORE DUP1 PUSH1 0xA0 DUP4 ADD MLOAD AND PUSH1 0xA0 DUP5 ADD MSTORE POP POP POP JUMP JUMPDEST PUSH1 0xE0 PUSH1 0xC0 DUP3 ADD MSTORE PUSH1 0x0 PUSH3 0x3AB5 PUSH1 0xE0 DUP4 ADD DUP5 DUP7 PUSH3 0x37D6 JUMP JUMPDEST PUSH3 0x3C07 DUP2 DUP6 PUSH1 0x1 PUSH1 0x1 PUSH1 0xA0 SHL SUB DUP1 DUP3 MLOAD AND DUP4 MSTORE PUSH1 0x20 DUP3 ADD MLOAD PUSH1 0x20 DUP5 ADD MSTORE PUSH1 0x40 DUP3 ADD MLOAD PUSH1 0x40 DUP5 ADD MSTORE PUSH1 0x60 DUP3 ADD MLOAD PUSH1 0x60 DUP5 ADD MSTORE PUSH1 0x80 DUP3 ADD MLOAD PUSH1 0x80 DUP5 ADD MSTORE DUP1 PUSH1 0xA0 DUP4 ADD MLOAD AND PUSH1 0xA0 DUP5 ADD MSTORE POP POP POP JUMP JUMPDEST PUSH1 0xE0 PUSH1 0xC0 DUP3 ADD MSTORE PUSH1 0x0 PUSH3 0x3AB5 PUSH1 0xE0 DUP4 ADD DUP5 DUP7 PUSH3 0x3832 JUMP JUMPDEST PUSH1 0xE0 DUP2 ADD PUSH3 0x3C71 DUP3 DUP6 PUSH1 0x1 PUSH1 0x1 PUSH1 0xA0 SHL SUB DUP1 DUP3 MLOAD AND DUP4 MSTORE PUSH1 0x20 DUP3 ADD MLOAD PUSH1 0x20 DUP5 ADD MSTORE PUSH1 0x40 DUP3 ADD MLOAD PUSH1 0x40 DUP5 ADD MSTORE PUSH1 0x60 DUP3 ADD MLOAD PUSH1 0x60 DUP5 ADD MSTORE PUSH1 0x80 DUP3 ADD MLOAD PUSH1 0x80 DUP5 ADD MSTORE DUP1 PUSH1 0xA0 DUP4 ADD MLOAD AND PUSH1 0xA0 DUP5 ADD MSTORE POP POP POP JUMP JUMPDEST PUSH1 0x1 PUSH1 0x1 PUSH1 0xA0 SHL SUB DUP4 AND PUSH1 0xC0 DUP4 ADD MSTORE SWAP4 SWAP3 POP POP POP JUMP JUMPDEST PUSH2 0x120 DUP2 ADD PUSH3 0x3CD9 DUP3 DUP6 PUSH1 0x1 PUSH1 0x1 PUSH1 0xA0 SHL SUB DUP1 DUP3 MLOAD AND DUP4 MSTORE PUSH1 0x20 DUP3 ADD MLOAD PUSH1 0x20 DUP5 ADD MSTORE PUSH1 0x40 DUP3 ADD MLOAD PUSH1 0x40 DUP5 ADD MSTORE PUSH1 0x60 DUP3 ADD MLOAD PUSH1 0x60 DUP5 ADD MSTORE PUSH1 0x80 DUP3 ADD MLOAD PUSH1 0x80 DUP5 ADD MSTORE DUP1 PUSH1 0xA0 DUP4 ADD MLOAD AND PUSH1 0xA0 DUP5 ADD MSTORE POP POP POP JUMP JUMPDEST PUSH3 0x2D53 PUSH1 0xC0 DUP4 ADD DUP5 PUSH3 0x38CB JUMP JUMPDEST PUSH1 0x0 PUSH2 0x180 PUSH3 0x3D3A DUP4 DUP12 PUSH1 0x1 PUSH1 0x1 PUSH1 0xA0 SHL SUB DUP1 DUP3 MLOAD AND DUP4 MSTORE PUSH1 0x20 DUP3 ADD MLOAD PUSH1 0x20 DUP5 ADD MSTORE PUSH1 0x40 DUP3 ADD MLOAD PUSH1 0x40 DUP5 ADD MSTORE PUSH1 0x60 DUP3 ADD MLOAD PUSH1 0x60 DUP5 ADD MSTORE PUSH1 0x80 DUP3 ADD MLOAD PUSH1 0x80 DUP5 ADD MSTORE DUP1 PUSH1 0xA0 DUP4 ADD MLOAD AND PUSH1 0xA0 DUP5 ADD MSTORE POP POP POP JUMP JUMPDEST PUSH3 0x3D49 PUSH1 0xC0 DUP5 ADD DUP11 PUSH3 0x38CB JUMP JUMPDEST PUSH4 0xFFFFFFFF DUP9 AND PUSH2 0x120 DUP5 ADD MSTORE DUP1 PUSH2 0x140 DUP5 ADD MSTORE PUSH3 0x3D6C DUP2 DUP5 ADD DUP8 DUP10 PUSH3 0x3874 JUMP JUMPDEST SWAP1 POP DUP3 DUP2 SUB PUSH2 0x160 DUP5 ADD MSTORE PUSH3 0x3A41 DUP2 DUP6 DUP8 PUSH3 0x3874 JUMP JUMPDEST PUSH4 0xFFFFFFFF DUP7 AND DUP2 MSTORE PUSH1 0x60 PUSH1 0x20 DUP3 ADD MSTORE PUSH1 0x0 PUSH3 0x3DA6 PUSH1 0x60 DUP4 ADD DUP7 DUP9 PUSH3 0x3874 JUMP JUMPDEST DUP3 DUP2 SUB PUSH1 0x40 DUP5 ADD MSTORE PUSH3 0x3DBB DUP2 DUP6 DUP8 PUSH3 0x3874 JUMP JUMPDEST SWAP9 SWAP8 POP POP POP POP POP POP POP POP JUMP JUMPDEST PUSH4 0xFFFFFFFF DUP9 AND DUP2 MSTORE PUSH1 0xA0 PUSH1 0x20 DUP3 ADD MSTORE PUSH1 0x0 PUSH3 0x3DE9 PUSH1 0xA0 DUP4 ADD DUP9 DUP11 PUSH3 0x3874 JUMP JUMPDEST DUP3 DUP2 SUB PUSH1 0x40 DUP5 ADD MSTORE PUSH3 0x3DFE DUP2 DUP8 DUP10 PUSH3 0x3874 JUMP JUMPDEST PUSH1 0x1 PUSH1 0x1 PUSH1 0xA0 SHL SUB SWAP6 SWAP1 SWAP6 AND PUSH1 0x60 DUP5 ADD MSTORE POP POP PUSH1 0x80 ADD MSTORE SWAP6 SWAP5 POP POP POP POP POP JUMP JUMPDEST PUSH4 0xFFFFFFFF DUP7 AND DUP2 MSTORE PUSH1 0xA0 PUSH1 0x20 DUP3 ADD MSTORE PUSH1 0x0 PUSH3 0x3E3F PUSH1 0xA0 DUP4 ADD DUP8 PUSH3 0x389D JUMP JUMPDEST DUP3 DUP2 SUB PUSH1 0x40 DUP5 ADD MSTORE PUSH3 0x3E53 DUP2 DUP8 PUSH3 0x389D JUMP JUMPDEST PUSH1 0x1 PUSH1 0x1 PUSH1 0xA0 SHL SUB SWAP6 SWAP1 SWAP6 AND PUSH1 0x60 DUP5 ADD MSTORE POP POP PUSH1 0x80 ADD MSTORE SWAP4 SWAP3 POP POP POP JUMP JUMPDEST PUSH1 0x0 PUSH2 0x100 PUSH4 0xFFFFFFFF DUP13 AND DUP4 MSTORE DUP1 PUSH1 0x20 DUP5 ADD MSTORE PUSH3 0x3E93 DUP2 DUP5 ADD DUP13 PUSH3 0x389D JUMP JUMPDEST SWAP1 POP DUP3 DUP2 SUB PUSH1 0x40 DUP5 ADD MSTORE PUSH3 0x3EA9 DUP2 DUP12 PUSH3 0x389D JUMP JUMPDEST SWAP1 POP PUSH1 0x1 PUSH1 0x1 PUSH1 0xA0 SHL SUB DUP1 DUP11 AND PUSH1 0x60 DUP6 ADD MSTORE DUP9 PUSH1 0x80 DUP6 ADD MSTORE DUP4 DUP3 SUB PUSH1 0xA0 DUP6 ADD MSTORE PUSH3 0x3ED6 DUP3 DUP9 DUP11 PUSH3 0x3874 JUMP JUMPDEST SWAP3 POP DUP6 PUSH1 0xC0 DUP6 ADD MSTORE DUP1 DUP6 AND PUSH1 0xE0 DUP6 ADD MSTORE POP POP SWAP11 SWAP10 POP POP POP POP POP POP POP POP POP POP JUMP JUMPDEST PUSH4 0xFFFFFFFF DUP6 AND DUP2 MSTORE PUSH1 0x80 PUSH1 0x20 DUP3 ADD MSTORE PUSH1 0x0 PUSH3 0x3F17 PUSH1 0x80 DUP4 ADD DUP7 PUSH3 0x389D JUMP JUMPDEST DUP3 DUP2 SUB PUSH1 0x40 DUP5 ADD MSTORE PUSH3 0x3F2B DUP2 DUP7 PUSH3 0x389D JUMP JUMPDEST SWAP2 POP POP DUP3 PUSH1 0x60 DUP4 ADD MSTORE SWAP6 SWAP5 POP POP POP POP POP JUMP JUMPDEST PUSH4 0xFFFFFFFF DUP10 AND DUP2 MSTORE PUSH1 0xE0 PUSH1 0x20 DUP3 ADD MSTORE PUSH1 0x0 PUSH3 0x3F5E PUSH1 0xE0 DUP4 ADD DUP11 PUSH3 0x389D JUMP JUMPDEST DUP3 DUP2 SUB PUSH1 0x40 DUP5 ADD MSTORE PUSH3 0x3F72 DUP2 DUP11 PUSH3 0x389D JUMP JUMPDEST SWAP1 POP DUP8 PUSH1 0x60 DUP5 ADD MSTORE DUP3 DUP2 SUB PUSH1 0x80 DUP5 ADD MSTORE PUSH3 0x3F8F DUP2 DUP8 DUP10 PUSH3 0x3874 JUMP JUMPDEST SWAP2 POP POP DUP4 PUSH1 0xA0 DUP4 ADD MSTORE PUSH1 0x1 PUSH1 0x1 PUSH1 0xA0 SHL SUB DUP4 AND PUSH1 0xC0 DUP4 ADD MSTORE SWAP10 SWAP9 POP POP POP POP POP POP POP POP POP JUMP JUMPDEST PUSH1 0x0 DUP3 DUP3 LT ISZERO PUSH3 0x3FC9 JUMPI PUSH3 0x3FC9 PUSH3 0x401B JUMP JUMPDEST POP SUB SWAP1 JUMP JUMPDEST PUSH1 0x0 JUMPDEST DUP4 DUP2 LT ISZERO PUSH3 0x3FEB JUMPI DUP2 DUP2 ADD MLOAD DUP4 DUP3 ADD MSTORE PUSH1 0x20 ADD PUSH3 0x3FD1 JUMP JUMPDEST DUP4 DUP2 GT ISZERO PUSH3 0x16FB JUMPI POP POP PUSH1 0x0 SWAP2 ADD MSTORE JUMP JUMPDEST PUSH1 0x0 PUSH1 0x0 NOT DUP3 EQ ISZERO PUSH3 0x4014 JUMPI PUSH3 0x4014 PUSH3 0x401B JUMP JUMPDEST POP PUSH1 0x1 ADD SWAP1 JUMP JUMPDEST PUSH4 0x4E487B71 PUSH1 0xE0 SHL PUSH1 0x0 MSTORE PUSH1 0x11 PUSH1 0x4 MSTORE PUSH1 0x24 PUSH1 0x0 REVERT JUMPDEST PUSH4 0x4E487B71 PUSH1 0xE0 SHL PUSH1 0x0 MSTORE PUSH1 0x32 PUSH1 0x4 MSTORE PUSH1 0x24 PUSH1 0x0 REVERT JUMPDEST PUSH4 0x4E487B71 PUSH1 0xE0 SHL PUSH1 0x0 MSTORE PUSH1 0x41 PUSH1 0x4 MSTORE PUSH1 0x24 PUSH1 0x0 REVERT JUMPDEST PUSH1 0x1 PUSH1 0x1 PUSH1 0xA0 SHL SUB DUP2 AND DUP2 EQ PUSH3 0x4073 JUMPI PUSH1 0x0 DUP1 REVERT JUMPDEST POP JUMP INVALID PUSH1 0xA0 PUSH1 0x40 MSTORE CALLVALUE DUP1 ISZERO PUSH2 0x10 JUMPI PUSH1 0x0 DUP1 REVERT JUMPDEST POP PUSH1 0x40 MLOAD PUSH2 0x555 CODESIZE SUB DUP1 PUSH2 0x555 DUP4 CODECOPY DUP2 ADD PUSH1 0x40 DUP2 SWAP1 MSTORE PUSH2 0x2F SWAP2 PUSH2 0x1E6 JUMP JUMPDEST CALLER PUSH1 0x60 SHL PUSH1 0x80 MSTORE PUSH20 0xEEEEEEEEEEEEEEEEEEEEEEEEEEEEEEEEEEEEEEEE PUSH1 0x1 PUSH1 0x1 PUSH1 0xA0 SHL SUB DUP3 AND EQ ISZERO PUSH2 0xB6 JUMPI PUSH1 0x40 MLOAD PUSH1 0x0 SWAP1 CALLER SWAP1 SELFBALANCE SWAP1 DUP4 DUP2 DUP2 DUP2 DUP6 DUP8 GAS CALL SWAP3 POP POP POP RETURNDATASIZE DUP1 PUSH1 0x0 DUP2 EQ PUSH2 0x9D JUMPI PUSH1 0x40 MLOAD SWAP2 POP PUSH1 0x1F NOT PUSH1 0x3F RETURNDATASIZE ADD AND DUP3 ADD PUSH1 0x40 MSTORE RETURNDATASIZE DUP3 MSTORE RETURNDATASIZE PUSH1 0x0 PUSH1 0x20 DUP5 ADD RETURNDATACOPY PUSH2 0xA2 JUMP JUMPDEST PUSH1 0x60 SWAP2 POP JUMPDEST POP POP SWAP1 POP DUP1 PUSH2 0xB0 JUMPI PUSH1 0x0 DUP1 REVERT JUMPDEST POP PUSH2 0x1B7 JUMP JUMPDEST PUSH1 0x40 MLOAD PUSH4 0x70A08231 PUSH1 0xE0 SHL DUP2 MSTORE ADDRESS PUSH1 0x4 DUP3 ADD MSTORE PUSH1 0x1 PUSH1 0x1 PUSH1 0xA0 SHL SUB DUP3 AND SWAP1 PUSH4 0xA9059CBB SWAP1 CALLER SWAP1 DUP4 SWAP1 PUSH4 0x70A08231 SWAP1 PUSH1 0x24 ADD PUSH1 0x20 PUSH1 0x40 MLOAD DUP1 DUP4 SUB DUP2 DUP7 DUP1 EXTCODESIZE ISZERO DUP1 ISZERO PUSH2 0xFF JUMPI PUSH1 0x0 DUP1 REVERT JUMPDEST POP GAS STATICCALL ISZERO DUP1 ISZERO PUSH2 0x113 JUMPI RETURNDATASIZE PUSH1 0x0 DUP1 RETURNDATACOPY RETURNDATASIZE PUSH1 0x0 REVERT JUMPDEST POP POP POP POP PUSH1 0x40 MLOAD RETURNDATASIZE PUSH1 0x1F NOT PUSH1 0x1F DUP3 ADD AND DUP3 ADD DUP1 PUSH1 0x40 MSTORE POP DUP2 ADD SWAP1 PUSH2 0x137 SWAP2 SWAP1 PUSH2 0x20F JUMP JUMPDEST PUSH1 0x40 MLOAD PUSH1 0x1 PUSH1 0x1 PUSH1 0xE0 SHL SUB NOT PUSH1 0xE0 DUP6 SWAP1 SHL AND DUP2 MSTORE PUSH1 0x1 PUSH1 0x1 PUSH1 0xA0 SHL SUB SWAP1 SWAP3 AND PUSH1 0x4 DUP4 ADD MSTORE PUSH1 0x24 DUP3 ADD MSTORE PUSH1 0x44 ADD PUSH1 0x20 PUSH1 0x40 MLOAD DUP1 DUP4 SUB DUP2 PUSH1 0x0 DUP8 DUP1 EXTCODESIZE ISZERO DUP1 ISZERO PUSH2 0x17D JUMPI PUSH1 0x0 DUP1 REVERT JUMPDEST POP GAS CALL ISZERO DUP1 ISZERO PUSH2 0x191 JUMPI RETURNDATASIZE PUSH1 0x0 DUP1 RETURNDATACOPY RETURNDATASIZE PUSH1 0x0 REVERT JUMPDEST POP POP POP POP PUSH1 0x40 MLOAD RETURNDATASIZE PUSH1 0x1F NOT PUSH1 0x1F DUP3 ADD AND DUP3 ADD DUP1 PUSH1 0x40 MSTORE POP DUP2 ADD SWAP1 PUSH2 0x1B5 SWAP2 SWAP1 PUSH2 0x1BD JUMP JUMPDEST POP JUMPDEST POP PUSH2 0x228 JUMP JUMPDEST PUSH1 0x0 PUSH1 0x20 DUP3 DUP5 SUB SLT ISZERO PUSH2 0x1CF JUMPI PUSH1 0x0 DUP1 REVERT JUMPDEST DUP2 MLOAD DUP1 ISZERO ISZERO DUP2 EQ PUSH2 0x1DF JUMPI PUSH1 0x0 DUP1 REVERT JUMPDEST SWAP4 SWAP3 POP POP POP JUMP JUMPDEST PUSH1 0x0 PUSH1 0x20 DUP3 DUP5 SUB SLT ISZERO PUSH2 0x1F8 JUMPI PUSH1 0x0 DUP1 REVERT JUMPDEST DUP2 MLOAD PUSH1 0x1 PUSH1 0x1 PUSH1 0xA0 SHL SUB DUP2 AND DUP2 EQ PUSH2 0x1DF JUMPI PUSH1 0x0 DUP1 REVERT JUMPDEST PUSH1 0x0 PUSH1 0x20 DUP3 DUP5 SUB SLT ISZERO PUSH2 0x221 JUMPI PUSH1 0x0 DUP1 REVERT JUMPDEST POP MLOAD SWAP2 SWAP1 POP JUMP JUMPDEST PUSH1 0x80 MLOAD PUSH1 0x60 SHR PUSH2 0x310 PUSH2 0x245 PUSH1 0x0 CODECOPY PUSH1 0x0 PUSH1 0x68 ADD MSTORE PUSH2 0x310 PUSH1 0x0 RETURN INVALID PUSH1 0x80 PUSH1 0x40 MSTORE PUSH1 0x4 CALLDATASIZE LT PUSH2 0x22 JUMPI PUSH1 0x0 CALLDATALOAD PUSH1 0xE0 SHR DUP1 PUSH4 0xF109A0BE EQ PUSH2 0x2E JUMPI PUSH1 0x0 DUP1 REVERT JUMPDEST CALLDATASIZE PUSH2 0x29 JUMPI STOP JUMPDEST PUSH1 0x0 DUP1 REVERT JUMPDEST CALLVALUE DUP1 ISZERO PUSH2 0x3A JUMPI PUSH1 0x0 DUP1 REVERT JUMPDEST POP PUSH2 0x4E PUSH2 0x49 CALLDATASIZE PUSH1 0x4 PUSH2 0x28B JUMP JUMPDEST PUSH2 0x50 JUMP JUMPDEST STOP JUMPDEST CALLER PUSH20 0xFFFFFFFFFFFFFFFFFFFFFFFFFFFFFFFFFFFFFFFF PUSH32 0x0 AND EQ PUSH2 0x92 JUMPI PUSH1 0x0 DUP1 REVERT JUMPDEST PUSH20 0xEEEEEEEEEEEEEEEEEEEEEEEEEEEEEEEEEEEEEEEE PUSH20 0xFFFFFFFFFFFFFFFFFFFFFFFFFFFFFFFFFFFFFFFF DUP3 AND EQ ISZERO PUSH2 0x11D JUMPI PUSH1 0x40 MLOAD PUSH1 0x0 SWAP1 CALLER SWAP1 SELFBALANCE SWAP1 DUP4 DUP2 DUP2 DUP2 DUP6 DUP8 GAS CALL SWAP3 POP POP POP RETURNDATASIZE DUP1 PUSH1 0x0 DUP2 EQ PUSH2 0x106 JUMPI PUSH1 0x40 MLOAD SWAP2 POP PUSH1 0x1F NOT PUSH1 0x3F RETURNDATASIZE ADD AND DUP3 ADD PUSH1 0x40 MSTORE RETURNDATASIZE DUP3 MSTORE RETURNDATASIZE PUSH1 0x0 PUSH1 0x20 DUP5 ADD RETURNDATACOPY PUSH2 0x10B JUMP JUMPDEST PUSH1 0x60 SWAP2 POP JUMPDEST POP POP SWAP1 POP DUP1 PUSH2 0x119 JUMPI PUSH1 0x0 DUP1 REVERT JUMPDEST POP POP JUMP JUMPDEST PUSH1 0x40 MLOAD PUSH32 0x70A0823100000000000000000000000000000000000000000000000000000000 DUP2 MSTORE ADDRESS PUSH1 0x4 DUP3 ADD MSTORE PUSH20 0xFFFFFFFFFFFFFFFFFFFFFFFFFFFFFFFFFFFFFFFF DUP3 AND SWAP1 PUSH4 0xA9059CBB SWAP1 CALLER SWAP1 DUP4 SWAP1 PUSH4 0x70A08231 SWAP1 PUSH1 0x24 ADD PUSH1 0x20 PUSH1 0x40 MLOAD DUP1 DUP4 SUB DUP2 DUP7 DUP1 EXTCODESIZE ISZERO DUP1 ISZERO PUSH2 0x18C JUMPI PUSH1 0x0 DUP1 REVERT JUMPDEST POP GAS STATICCALL ISZERO DUP1 ISZERO PUSH2 0x1A0 JUMPI RETURNDATASIZE PUSH1 0x0 DUP1 RETURNDATACOPY RETURNDATASIZE PUSH1 0x0 REVERT JUMPDEST POP POP POP POP PUSH1 0x40 MLOAD RETURNDATASIZE PUSH1 0x1F NOT PUSH1 0x1F DUP3 ADD AND DUP3 ADD DUP1 PUSH1 0x40 MSTORE POP DUP2 ADD SWAP1 PUSH2 0x1C4 SWAP2 SWAP1 PUSH2 0x2C1 JUMP JUMPDEST PUSH1 0x40 MLOAD PUSH32 0xFFFFFFFF00000000000000000000000000000000000000000000000000000000 PUSH1 0xE0 DUP6 SWAP1 SHL AND DUP2 MSTORE PUSH20 0xFFFFFFFFFFFFFFFFFFFFFFFFFFFFFFFFFFFFFFFF SWAP1 SWAP3 AND PUSH1 0x4 DUP4 ADD MSTORE PUSH1 0x24 DUP3 ADD MSTORE PUSH1 0x44 ADD PUSH1 0x20 PUSH1 0x40 MLOAD DUP1 DUP4 SUB DUP2 PUSH1 0x0 DUP8 DUP1 EXTCODESIZE ISZERO DUP1 ISZERO PUSH2 0x22F JUMPI PUSH1 0x0 DUP1 REVERT JUMPDEST POP GAS CALL ISZERO DUP1 ISZERO PUSH2 0x243 JUMPI RETURNDATASIZE PUSH1 0x0 DUP1 RETURNDATACOPY RETURNDATASIZE PUSH1 0x0 REVERT JUMPDEST POP POP POP POP PUSH1 0x40 MLOAD RETURNDATASIZE PUSH1 0x1F NOT PUSH1 0x1F DUP3 ADD AND DUP3 ADD DUP1 PUSH1 0x40 MSTORE POP DUP2 ADD SWAP1 PUSH2 0x119 SWAP2 SWAP1 PUSH1 0x0 PUSH1 0x20 DUP3 DUP5 SUB SLT ISZERO PUSH2 0x274 JUMPI PUSH1 0x0 DUP1 REVERT JUMPDEST DUP2 MLOAD DUP1 ISZERO ISZERO DUP2 EQ PUSH2 0x284 JUMPI PUSH1 0x0 DUP1 REVERT JUMPDEST SWAP4 SWAP3 POP POP POP JUMP JUMPDEST PUSH1 0x0 PUSH1 0x20 DUP3 DUP5 SUB SLT ISZERO PUSH2 0x29D JUMPI PUSH1 0x0 DUP1 REVERT JUMPDEST DUP2 CALLDATALOAD PUSH20 0xFFFFFFFFFFFFFFFFFFFFFFFFFFFFFFFFFFFFFFFF DUP2 AND DUP2 EQ PUSH2 0x284 JUMPI PUSH1 0x0 DUP1 REVERT JUMPDEST PUSH1 0x0 PUSH1 0x20 DUP3 DUP5 SUB SLT ISZERO PUSH2 0x2D3 JUMPI PUSH1 0x0 DUP1 REVERT JUMPDEST POP MLOAD SWAP2 SWAP1 POP JUMP INVALID LOG2 PUSH5 0x6970667358 0x22 SLT KECCAK256 0xC6 CHAINID RETURNDATACOPY 0xC6 0x49 SWAP12 0x2F CHAINID LOG0 DUP14 REVERT 0xC1 0xCC RETURNDATASIZE 0x5C SELFBALANCE DUP10 LOG4 SWAP3 0xCC MSIZE SWAP9 BALANCE NUMBER 0xB5 DUP1 0x2B PUSH23 0xA92D2B4A64736F6C63430008070033A264697066735822 SLT KECCAK256 0x2D GASLIMIT DUP15 0xD1 0x4C 0xE1 DUP9 0xDD DIFFICULTY 0x2A CREATE2 ADDRESS INVALID 0xAA 0xAD OR SSTORE CALLDATASIZE 0x5E SUB 0xEC 0x28 0x5F 0xB3 SWAP2 PUSH10 0xF144CF536A1464736F6C PUSH4 0x43000807 STOP CALLER ",
  "sha1": "8734ea56e0f0298e8011dbc6891e703ed38ab118",
  "source": "pragma solidity ^0.8.0;\n\nimport \"@openzeppelin/contracts/token/ERC20/utils/SafeERC20.sol\";\nimport \"./interfaces/IVault.sol\";\nimport \"./interfaces/IKeyManager.sol\";\nimport \"./interfaces/IERC20Lite.sol\";\nimport \"./interfaces/ICFReceiver.sol\";\nimport \"./abstract/Shared.sol\";\nimport \"./Deposit.sol\";\nimport \"./AggKeyNonceConsumer.sol\";\nimport \"./GovernanceCommunityGuarded.sol\";\n\n/**\n * @title    Vault contract\n * @notice   The vault for holding and transferring native/tokens and deploying contracts for fetching\n *           individual deposits. It also allows users to do cross-chain swaps and(or) calls by\n *           making a function call directly to this contract.\n */\ncontract Vault is IVault, AggKeyNonceConsumer, GovernanceCommunityGuarded {\n    using SafeERC20 for IERC20;\n\n    uint256 private constant _AGG_KEY_EMERGENCY_TIMEOUT = 14 days;\n    uint256 private constant _GAS_TO_FORWARD = 3500;\n\n    event TransferFailed(address payable indexed recipient, uint256 amount);\n    event SwapNative(uint256 amount, string egressParams, bytes32 egressReceiver);\n    event SwapToken(address ingressToken, uint256 amount, string egressParams, bytes32 egressReceiver);\n    event SwapsEnabled(bool enabled);\n\n    /// @dev dstAddress is not indexed because indexing a dynamic type (string) to be able to filter,\n    ///      makes it so we won't be able to decode it unless we specifically search for it. If we want\n    ///      to filter it and decode it then we would need to have both the indexed and the non-indexed\n    ///      version in the event.\n    event XCallNative(\n        uint32 dstChain,\n        string dstAddress,\n        string swapIntent,\n        uint256 amount,\n        address indexed sender,\n        bytes message,\n        uint256 dstNativeGas,\n        address refundAddress\n    );\n    event XCallToken(\n        uint32 dstChain,\n        string dstAddress,\n        string swapIntent,\n        address srcToken,\n        uint256 amount,\n        address indexed sender,\n        bytes message,\n        uint256 dstNativeGas,\n        address refundAddress\n    );\n    event SwapNative(uint32 dstChain, string dstAddress, string swapIntent, uint256 amount, address indexed sender);\n    event SwapToken(\n        uint32 dstChain,\n        string dstAddress,\n        string swapIntent,\n        address srcToken,\n        uint256 amount,\n        address indexed sender\n    );\n\n    event XCallsEnabled(bool enabled);\n\n    bool private _xCallsEnabled;\n\n    constructor(IKeyManager keyManager) AggKeyNonceConsumer(keyManager) {}\n\n    /// @dev   Get the governor address from the KeyManager. This is called by the onlyGovernor\n    ///        modifier in the GovernanceCommunityGuarded. This logic can't be moved to the\n    ///        GovernanceCommunityGuarded since it requires a reference to the KeyManager.\n    function _getGovernor() internal view override returns (address) {\n        return getKeyManager().getGovernanceKey();\n    }\n\n    /// @dev   Get the community key from the KeyManager. This is called by the isCommunityKey\n    ///        modifier in the GovernanceCommunityGuarded. This logic can't be moved to the\n    ///        GovernanceCommunityGuarded since it requires a reference to the KeyManager.\n    function _getCommunityKey() internal view override returns (address) {\n        return getKeyManager().getCommunityKey();\n    }\n\n    //////////////////////////////////////////////////////////////\n    //                                                          //\n    //                  Transfer and Fetch                      //\n    //                                                          //\n    //////////////////////////////////////////////////////////////\n\n    /**\n     * @notice  Can do a combination of all fcns in this contract. It first fetches all\n     *          deposits , then it performs all transfers specified with the rest\n     *          of the inputs, the same as transferBatch (where all inputs are again required\n     *          to be of equal length - however the lengths of the fetch inputs do not have to\n     *          be equal to lengths of the transfer inputs). Fetches/transfers of native are\n     *          indicated with 0xEeeeeEeeeEeEeeEeEeEeeEEEeeeeEeeeeeeeEEeE as the token address.\n     * @dev     FetchAndDeploy is executed first to handle the edge case , which probably shouldn't\n     *          happen anyway, where a deploy and a fetch for the same address are in the same batch.\n     *          Transfers are executed last to ensure that all fetching has been completed first.\n     * @param sigData   The keccak256 hash over the msg (uint) (here that's\n     *                  a hash over the calldata to the function with an empty sigData) and\n     *                  sig over that hash (uint) from the aggregate key\n     * @param deployFetchParamsArray    The array of deploy and fetch parameters\n     * @param fetchParamsArray    The array of fetch parameters\n     * @param transferParamsArray The array of transfer parameters\n     */\n    function allBatch(\n        SigData calldata sigData,\n        DeployFetchParams[] calldata deployFetchParamsArray,\n        FetchParams[] calldata fetchParamsArray,\n        TransferParams[] calldata transferParamsArray\n    )\n        external\n        override\n        onlyNotSuspended\n        consumesKeyNonce(\n            sigData,\n            keccak256(\n                abi.encodeWithSelector(\n                    this.allBatch.selector,\n                    SigData(sigData.keyManAddr, sigData.chainID, 0, 0, sigData.nonce, address(0)),\n                    deployFetchParamsArray,\n                    fetchParamsArray,\n                    transferParamsArray\n                )\n            )\n        )\n    {\n        // Fetch by deploying new deposits\n        _deployAndFetchBatch(deployFetchParamsArray);\n\n        // Fetch from already deployed deposits\n        _fetchBatch(fetchParamsArray);\n\n        // Send all transfers\n        _transferBatch(transferParamsArray);\n    }\n\n    //////////////////////////////////////////////////////////////\n    //                                                          //\n    //                          Transfers                       //\n    //                                                          //\n    //////////////////////////////////////////////////////////////\n\n    /**\n     * @notice  Transfers native or a token from this vault to a recipient\n     * @param sigData   The keccak256 hash over the msg (uint) (here that's\n     *                  a hash over the calldata to the function with an empty sigData) and\n     *                  sig over that hash (uint) from the aggregate key\n     * @param transferParams       The transfer parameters\n     */\n    function transfer(SigData calldata sigData, TransferParams calldata transferParams)\n        external\n        override\n        onlyNotSuspended\n        nzAddr(transferParams.token)\n        nzAddr(transferParams.recipient)\n        nzUint(transferParams.amount)\n        consumesKeyNonce(\n            sigData,\n            keccak256(\n                abi.encodeWithSelector(\n                    this.transfer.selector,\n                    SigData(sigData.keyManAddr, sigData.chainID, 0, 0, sigData.nonce, address(0)),\n                    transferParams\n                )\n            )\n        )\n    {\n        _transfer(transferParams.token, transferParams.recipient, transferParams.amount);\n    }\n\n    /**\n     * @notice  Transfers native or tokens from this vault to recipients.\n     * @param sigData   The keccak256 hash over the msg (uint) (here that's a hash over\n     *                  the calldata to the function with an empty sigData) and sig over\n     *                  that hash (uint) from the aggregate key\n     * @param transferParamsArray The array of transfer parameters.\n     */\n    function transferBatch(SigData calldata sigData, TransferParams[] calldata transferParamsArray)\n        external\n        override\n        onlyNotSuspended\n        consumesKeyNonce(\n            sigData,\n            keccak256(\n                abi.encodeWithSelector(\n                    this.transferBatch.selector,\n                    SigData(sigData.keyManAddr, sigData.chainID, 0, 0, sigData.nonce, address(0)),\n                    transferParamsArray\n                )\n            )\n        )\n    {\n        _transferBatch(transferParamsArray);\n    }\n\n    /**\n     * @notice  Transfers native or tokens from this vault to recipients.\n     * @param transferParamsArray The array of transfer parameters.\n     */\n    function _transferBatch(TransferParams[] calldata transferParamsArray) private {\n        uint256 length = transferParamsArray.length;\n        for (uint256 i = 0; i < length; ) {\n            _transfer(transferParamsArray[i].token, transferParamsArray[i].recipient, transferParamsArray[i].amount);\n            unchecked {\n                ++i;\n            }\n        }\n    }\n\n    /**\n     * @notice  Transfers ETH or a token from this vault to a recipient\n     * @dev     Using \"send\" function to only send a set amount of gas, preventing the recipient\n     *          from using all the transfer batch gas. Also, not reverting on failure so it can't\n     *          block the batch transfer.\n     * @param token The address of the token to be transferred\n     * @param recipient The address of the recipient of the transfer\n     * @param amount    The amount to transfer, in wei (uint)\n     */\n    function _transfer(\n        address token,\n        address payable recipient,\n        uint256 amount\n    ) private {\n        if (address(token) == _NATIVE_ADDR) {\n            // Disable because we don't want to revert on failure. Forward only a set amount of gas\n            // so the receivers can't consume all the gas.\n            // solhint-disable-next-line avoid-low-level-calls\n            (bool success, ) = recipient.call{gas: _GAS_TO_FORWARD, value: amount}(\"\");\n            if (!success) {\n                emit TransferFailed(recipient, amount);\n            }\n        } else {\n            IERC20(token).safeTransfer(recipient, amount);\n        }\n    }\n\n    //////////////////////////////////////////////////////////////\n    //                                                          //\n    //                        Fetch Deposits                    //\n    //                                                          //\n    //////////////////////////////////////////////////////////////\n\n    /**\n     * @notice  Retrieves any token from multiple address, deterministically generated using\n     *          create2, by creating a contract for that address, sending it to this vault.\n     * @param sigData   The keccak256 hash over the msg (uint) (here that's normally\n     *                  a hash over the calldata to the function with an empty sigData) and\n     *                  sig over that hash (uint) from the aggregate key\n     * @param deployFetchParamsArray    The array of deploy and fetch parameters\n     */\n    function deployAndFetchBatch(SigData calldata sigData, DeployFetchParams[] calldata deployFetchParamsArray)\n        external\n        override\n        onlyNotSuspended\n        consumesKeyNonce(\n            sigData,\n            keccak256(\n                abi.encodeWithSelector(\n                    this.deployAndFetchBatch.selector,\n                    SigData(sigData.keyManAddr, sigData.chainID, 0, 0, sigData.nonce, address(0)),\n                    deployFetchParamsArray\n                )\n            )\n        )\n    {\n        _deployAndFetchBatch(deployFetchParamsArray);\n    }\n\n    function _deployAndFetchBatch(DeployFetchParams[] calldata deployFetchParamsArray) private {\n        // Deploy deposit contracts\n        uint256 length = deployFetchParamsArray.length;\n        for (uint256 i = 0; i < length; ) {\n            new Deposit{salt: deployFetchParamsArray[i].swapID}(IERC20Lite(deployFetchParamsArray[i].token));\n            unchecked {\n                ++i;\n            }\n        }\n    }\n\n    /**\n     * @notice  Retrieves any token addresses where a Deposit contract is already deployed.\n     * @param sigData   The keccak256 hash over the msg (uint) (here that's normally\n     *                  a hash over the calldata to the function with an empty sigData) and\n     *                  sig over that hash (uint) from the aggregate key\n     * @param fetchParamsArray    The array of fetch parameters\n     */\n    function fetchBatch(SigData calldata sigData, FetchParams[] calldata fetchParamsArray)\n        external\n        override\n        onlyNotSuspended\n        consumesKeyNonce(\n            sigData,\n            keccak256(\n                abi.encodeWithSelector(\n                    this.fetchBatch.selector,\n                    SigData(sigData.keyManAddr, sigData.chainID, 0, 0, sigData.nonce, address(0)),\n                    fetchParamsArray\n                )\n            )\n        )\n    {\n        _fetchBatch(fetchParamsArray);\n    }\n\n    /**\n     * @notice  Retrieves any token from multiple addresses where a Deposit contract is already deployed.\n     *          It emits an event if the fetch fails.\n     * @param fetchParamsArray    The array of fetch parameters\n     */\n    function _fetchBatch(FetchParams[] calldata fetchParamsArray) private {\n        uint256 length = fetchParamsArray.length;\n        for (uint256 i = 0; i < length; ) {\n            Deposit(fetchParamsArray[i].fetchContract).fetch(IERC20Lite(fetchParamsArray[i].token));\n            unchecked {\n                ++i;\n            }\n        }\n    }\n\n    //////////////////////////////////////////////////////////////\n    //                                                          //\n    //         Initiate cross-chain swaps (source chain)        //\n    //                                                          //\n    //////////////////////////////////////////////////////////////\n\n    /**\n     * @notice  Swaps native token for a token in another chain. The egress token will be transferred to the specified \n     *          destination address on the destination chain.\n     * @dev     Checking the validity of inputs shall be done as part of the event witnessing. Only the amount is checked\n     *          to explicity indicate that an amount is required.  It isn't preventing spamming.\n\n     * @param dstChain      The destination chain according to the Chainflip Protocol's nomenclature.\n     * @param dstAddress    String containing the destination address on the destination chain.\n     * @param swapIntent    String containing the specifics of the swap to be performed according to Chainflip's nomenclature.\n     */\n    function xSwapNative(\n        uint32 dstChain,\n        string memory dstAddress,\n        string memory swapIntent\n    ) external payable override onlyNotSuspended nzUint(msg.value) {\n        emit SwapNative(dstChain, dstAddress, swapIntent, msg.value, msg.sender);\n    }\n\n    /**\n     * @notice  Swaps ERC20 token for a token in another chain. The desired token will be transferred to the specified \n     *          destination address on the destination chain. The provided ERC20 token must be supported by the Chainflip Protocol. \n     * @dev     Checking the validity of inputs shall be done as part of the event witnessing. Only the amount is checked\n     *          to explicity indicate that an amount is required.\n\n     * @param dstChain      The destination chain according to the Chainflip Protocol's nomenclature.\n     * @param dstAddress    String containing the destination address on the destination chain.\n     * @param swapIntent    String containing the specifics of the swap to be performed according to Chainflip's nomenclature.\n     * @param srcToken      Address of the source token to swap.\n     * @param amount        Amount of tokens to swap.\n     */\n    function xSwapToken(\n        uint32 dstChain,\n        string memory dstAddress,\n        string memory swapIntent,\n        IERC20 srcToken,\n        uint256 amount\n    ) external override onlyNotSuspended nzUint(amount) {\n        srcToken.safeTransferFrom(msg.sender, address(this), amount);\n        emit SwapToken(dstChain, dstAddress, swapIntent, address(srcToken), amount, msg.sender);\n    }\n\n    //////////////////////////////////////////////////////////////\n    //                                                          //\n    //     Initiate cross-chain call and swap (source chain)    //\n    //                                                          //\n    //////////////////////////////////////////////////////////////\n\n    /**\n     * @notice  Performs a cross-chain call to the destination address on the destination chain. Native tokens must be paid\n     *          to this contract. The swap intent determines if the provided tokens should be swapped to a different token\n     *          and transferred as part of the cross-chain call. Otherwise, all tokens are used as a payment for gas on the destination chain.\n     *          The message parameter is transmitted to the destination chain as part of the cross-chain call.\n     * @dev     Checking the validity of inputs shall be done as part of the event witnessing. Only the amount is checked\n     *          to explicity inidcate that an amount is required. It isn't preventing spamming.\n     *\n     * @param dstChain      The destination chain according to the Chainflip Protocol's nomenclature.\n     * @param dstAddress    String containing the destination address on the destination chain.\n     * @param swapIntent    String containing the specifics of the swap to be performed, if any, as part of the xCall. The string\n     *                      must follow Chainflip's nomenclature. An empty swapIntent implies that no swap needs to take place\n     *                      and the source token will be used for gas in a swapless xCall.\n     * @param message       The message to be sent to the egress chain. This is a general purpose message.\n     * @param dstNativeGas  The amount of native gas to be used on the destination chain's call.\n     * @param refundAddress Address to refund any excess gas left from the execution of the xCall on the dstChain. This address\n     *                      is in the context of the srcChain.\n     */\n    function xCallNative(\n        uint32 dstChain,\n        string memory dstAddress,\n        string memory swapIntent,\n        bytes calldata message,\n        uint256 dstNativeGas,\n        address refundAddress\n    ) external payable override onlyNotSuspended xCallsEnabled nzUint(msg.value) {\n        emit XCallNative(dstChain, dstAddress, swapIntent, msg.value, msg.sender, message, dstNativeGas, refundAddress);\n    }\n\n    /**\n     * @notice  Performs a cross-chain call to the destination chain and destination address. An ERC20 token amount\n     *          needs to be approved to this contract. The ERC20 token must be supported by the Chainflip Protocol.\n     *          The swap intent determines whether the provided tokens should be swapped to a different token\n     *          by the Chainflip Protocol. If so, the swapped tokens will be transferred to the destination chain as part\n     *          of the cross-chain call. Otherwise, the tokens are used as a payment for gas on the destination chain.\n     *          The message parameter is transmitted to the destination chain as part of the cross-chain call.\n     * @dev     Checking the validity of inputs shall be done as part of the event witnessing. Only the amount is checked\n     *          to explicity indicate that an amount is required.\n     *\n     * @param dstChain      The destination chain according to the Chainflip Protocol's nomenclature.\n     * @param dstAddress    String containing the destination address on the destination chain.\n     * @param swapIntent    String containing the specifics of the swap to be performed as part of the xCall. An empty swapIntent\n     *                       implies that no swap needs to take place and the source token will be used for gas in a swapless xCall.\n     * @param message       The message to be sent to the egress chain. This is a general purpose message.\n     * @param dstNativeGas  The amount of native gas to be used on the destination chain's call. That gas will be paid with the\n     *                      source token.\n     * @param srcToken      Address of the source token.\n     * @param amount        Amount of tokens to swap.\n     * @param refundAddress Address to refund any excess gas left from the execution of the xCall on the dstChain. This address\n     *                      is in the context of the srcChain.\n     */\n    function xCallToken(\n        uint32 dstChain,\n        string memory dstAddress,\n        string memory swapIntent,\n        bytes calldata message,\n        uint256 dstNativeGas,\n        IERC20 srcToken,\n        uint256 amount,\n        address refundAddress\n    ) external override onlyNotSuspended xCallsEnabled nzUint(amount) {\n        srcToken.safeTransferFrom(msg.sender, address(this), amount);\n        emit XCallToken(\n            dstChain,\n            dstAddress,\n            swapIntent,\n            address(srcToken),\n            amount,\n            msg.sender,\n            message,\n            dstNativeGas,\n            refundAddress\n        );\n    }\n\n    //////////////////////////////////////////////////////////////\n    //                                                          //\n    //      Execute cross-chain call and swap (dest. chain)     //\n    //                                                          //\n    //////////////////////////////////////////////////////////////\n\n    /**\n     * @notice  Transfers ETH or a token from this vault to a recipient and makes a function call\n     *          completing a cross-chain swap and call. The ICFReceiver interface is expected on\n     *          the receiver's address. A message is passed to the receiver along with other\n     *          parameters specifying the origin of the swap.\n     * @param sigData   The keccak256 hash over the msg (uint) (here that's normally a hash over\n     *                  the calldata to the function with an empty sigData) and sig over that\n     *                  that hash (uint) from the aggregate key.\n     * @param transferParams  The transfer parameters\n     * @param srcChain        The source chain where the call originated from.\n     * @param srcAddress      The address where the transfer originated within the ingress chain.\n     * @param message         The message to be passed to the recipient.\n     */\n    function executexSwapAndCall(\n        SigData calldata sigData,\n        TransferParams calldata transferParams,\n        uint32 srcChain,\n        string calldata srcAddress,\n        bytes calldata message\n    )\n        external\n        override\n        onlyNotSuspended\n        nzAddr(transferParams.token)\n        nzAddr(transferParams.recipient)\n        nzUint(transferParams.amount)\n        consumesKeyNonce(\n            sigData,\n            keccak256(\n                abi.encodeWithSelector(\n                    this.executexSwapAndCall.selector,\n                    SigData(sigData.keyManAddr, sigData.chainID, 0, 0, sigData.nonce, address(0)),\n                    transferParams,\n                    srcChain,\n                    srcAddress,\n                    message\n                )\n            )\n        )\n    {\n        // Logic in another internal function to avoid the stackTooDeep error\n        _executexSwapAndCall(transferParams, srcChain, srcAddress, message);\n    }\n\n    /**\n     * @notice Logic for transferring the tokens and calling the recipient. It's on the receiver to\n     *         make sure the call doesn't revert, otherwise the tokens won't be transferred.\n     *         The _transfer function is not used because we want to be able to embed the native token\n     *         into the cfReceive call to avoid doing two external calls.\n     *         In case of revertion the tokens will remain in the Vault. Therefore, the destination\n     *         contract must ensure it doesn't revert e.g. using try-catch mechanisms.\n     */\n    function _executexSwapAndCall(\n        TransferParams calldata transferParams,\n        uint32 srcChain,\n        string calldata srcAddress,\n        bytes calldata message\n    ) private {\n        if (transferParams.token == _NATIVE_ADDR) {\n            ICFReceiver(transferParams.recipient).cfReceive{value: transferParams.amount}(\n                srcChain,\n                srcAddress,\n                message,\n                transferParams.token,\n                transferParams.amount\n            );\n        } else {\n            IERC20(transferParams.token).safeTransfer(transferParams.recipient, transferParams.amount);\n            ICFReceiver(transferParams.recipient).cfReceive(\n                srcChain,\n                srcAddress,\n                message,\n                transferParams.token,\n                transferParams.amount\n            );\n        }\n    }\n\n    //////////////////////////////////////////////////////////////\n    //                                                          //\n    //          Execute cross-chain call (dest. chain)          //\n    //                                                          //\n    //////////////////////////////////////////////////////////////\n\n    /**\n     * @notice  Executes a cross-chain function call. The ICFReceiver interface is expected on\n     *          the receiver's address. A message is passed to the receiver along with other\n     *          parameters specifying the origin of the swap. This is used for cross-chain messaging\n     *          without any swap taking place on the Chainflip Protocol.\n     * @param sigData   The keccak256 hash over the msg (uint) (here that's normally\n     *                  a hash over the calldata to the function with an empty sigData) and\n     *                  sig over that hash (uint) from the aggregate key\n     * @param srcChain       The source chain where the call originated from.\n     * @param srcAddress     The address where the transfer originated from in the ingressParams.\n     * @param message        The message to be passed to the recipient.\n     */\n    function executexCall(\n        SigData calldata sigData,\n        address recipient,\n        uint32 srcChain,\n        string calldata srcAddress,\n        bytes calldata message\n    )\n        external\n        override\n        onlyNotSuspended\n        nzAddr(recipient)\n        consumesKeyNonce(\n            sigData,\n            keccak256(\n                abi.encodeWithSelector(\n                    this.executexCall.selector,\n                    SigData(sigData.keyManAddr, sigData.chainID, 0, 0, sigData.nonce, address(0)),\n                    recipient,\n                    srcChain,\n                    srcAddress,\n                    message\n                )\n            )\n        )\n    {\n        ICFReceiver(recipient).cfReceivexCall(srcChain, srcAddress, message);\n    }\n\n    //////////////////////////////////////////////////////////////\n    //                                                          //\n    //                        Governance                        //\n    //                                                          //\n    //////////////////////////////////////////////////////////////\n\n    /**\n     * @notice Withdraw all funds to governance address in case of emergency. This withdrawal needs\n     *         to be approved by the Community and it can only be executed if no nonce from the\n     *         current AggKey had been consumed in _AGG_KEY_TIMEOUT time. It is a last resort and\n     *         can be used to rectify an emergency.\n     * @param tokens    The addresses of the tokens to be transferred\n     */\n    function govWithdraw(address[] calldata tokens)\n        external\n        override\n        onlyGovernor\n        onlyCommunityGuardDisabled\n        onlySuspended\n        timeoutEmergency\n    {\n        // Could use msg.sender or getGovernor() but hardcoding the get call just for extra safety\n        address payable recipient = payable(getKeyManager().getGovernanceKey());\n\n        // Transfer all native and ERC20 Tokens\n        for (uint256 i = 0; i < tokens.length; i++) {\n            if (tokens[i] == _NATIVE_ADDR) {\n                _transfer(_NATIVE_ADDR, recipient, address(this).balance);\n            } else {\n                _transfer(tokens[i], recipient, IERC20(tokens[i]).balanceOf(address(this)));\n            }\n        }\n    }\n\n    /**\n     * @notice  Enable swapNative and swapToken functionality by governance. Features disabled by default\n     */\n    function enablexCalls() external override onlyGovernor xCallsDisabled {\n        _xCallsEnabled = true;\n        emit XCallsEnabled(true);\n    }\n\n    /**\n     * @notice  Disable swapNative and swapToken functionality by governance. Features disabled by default.\n     */\n    function disablexCalls() external override onlyGovernor xCallsEnabled {\n        _xCallsEnabled = false;\n        emit XCallsEnabled(false);\n    }\n\n    //////////////////////////////////////////////////////////////\n    //                                                          //\n    //                          Getters                         //\n    //                                                          //\n    //////////////////////////////////////////////////////////////\n\n    /**\n     * @notice  Get xCallsEnabled\n     * @return  The xCallsEnableds state\n     */\n    function getxCallsEnabled() external view override returns (bool) {\n        return _xCallsEnabled;\n    }\n\n    //////////////////////////////////////////////////////////////\n    //                                                          //\n    //                          Modifiers                       //\n    //                                                          //\n    //////////////////////////////////////////////////////////////\n\n    /// @dev    Check that no nonce has been consumed in the last 14 days - emergency\n    modifier timeoutEmergency() {\n        require(\n            block.timestamp - getKeyManager().getLastValidateTime() >= _AGG_KEY_EMERGENCY_TIMEOUT,\n            \"Vault: not enough time\"\n        );\n        _;\n    }\n\n    /// @dev    Check that xCalls are enabled\n    modifier xCallsEnabled() {\n        require(_xCallsEnabled, \"Vault: xCalls not enabled\");\n        _;\n    }\n\n    /// @dev    Check that xCalls are disabled\n    modifier xCallsDisabled() {\n        require(!_xCallsEnabled, \"Vault: xCalls enabled\");\n        _;\n    }\n\n    //////////////////////////////////////////////////////////////\n    //                                                          //\n    //                          Fallbacks                       //\n    //                                                          //\n    //////////////////////////////////////////////////////////////\n\n    /// @dev For receiving native when Deposit.fetch() is called.\n    receive() external payable {}\n}\n",
  "sourcePath": "contracts/Vault.sol",
  "type": "contract"
}