{
  "abi": [
    {
      "inputs": [
        {
          "internalType": "contract IKeyManager",
          "name": "keyManager",
          "type": "address"
        }
      ],
      "stateMutability": "nonpayable",
      "type": "constructor"
    },
    {
      "anonymous": false,
      "inputs": [
        {
          "indexed": true,
          "internalType": "uint256",
          "name": "auctionEndBlock",
          "type": "uint256"
        }
      ],
      "name": "AuctionStarted",
      "type": "event"
    },
    {
      "anonymous": false,
      "inputs": [
        {
          "indexed": true,
          "internalType": "uint256",
          "name": "nodeID",
          "type": "uint256"
        },
        {
          "indexed": false,
          "internalType": "uint256",
          "name": "amount",
          "type": "uint256"
        }
      ],
      "name": "Staked",
      "type": "event"
    },
    {
      "anonymous": false,
      "inputs": [
        {
          "indexed": true,
          "internalType": "uint256",
          "name": "nodeID",
          "type": "uint256"
        },
        {
          "indexed": false,
          "internalType": "uint256",
          "name": "amount",
          "type": "uint256"
        }
      ],
      "name": "Unstaked",
      "type": "event"
    },
    {
      "inputs": [
        {
          "components": [
            {
              "internalType": "uint256",
              "name": "msgHash",
              "type": "uint256"
            },
            {
              "internalType": "uint256",
              "name": "sig",
              "type": "uint256"
            }
          ],
          "internalType": "struct IShared.SigData",
          "name": "sigData",
          "type": "tuple"
        },
        {
          "internalType": "uint256",
          "name": "newEmissionPerSec",
          "type": "uint256"
        }
      ],
      "name": "changeEmission",
      "outputs": [],
      "stateMutability": "nonpayable",
      "type": "function"
    },
    {
      "inputs": [
        {
          "components": [
            {
              "internalType": "uint256",
              "name": "msgHash",
              "type": "uint256"
            },
            {
              "internalType": "uint256",
              "name": "sig",
              "type": "uint256"
            }
          ],
          "internalType": "struct IShared.SigData",
          "name": "sigData",
          "type": "tuple"
        },
        {
          "internalType": "address",
          "name": "staker",
          "type": "address"
        },
        {
          "internalType": "uint256",
          "name": "amount",
          "type": "uint256"
        },
        {
          "internalType": "uint256",
          "name": "nodeID",
          "type": "uint256"
        }
      ],
      "name": "claim",
      "outputs": [],
      "stateMutability": "nonpayable",
      "type": "function"
    },
    {
      "inputs": [],
      "name": "getAuctionEndBlock",
      "outputs": [
        {
          "internalType": "uint256",
          "name": "",
          "type": "uint256"
        }
      ],
      "stateMutability": "nonpayable",
      "type": "function"
    },
    {
      "inputs": [],
      "name": "getEmissionPerSec",
      "outputs": [
        {
          "internalType": "uint256",
          "name": "",
          "type": "uint256"
        }
      ],
      "stateMutability": "nonpayable",
      "type": "function"
    },
    {
      "inputs": [],
      "name": "getFLIPAddress",
      "outputs": [
        {
          "internalType": "address",
          "name": "",
          "type": "address"
        }
      ],
      "stateMutability": "nonpayable",
      "type": "function"
    },
    {
      "inputs": [],
      "name": "getKeyManager",
      "outputs": [
        {
          "internalType": "contract IKeyManager",
          "name": "",
          "type": "address"
        }
      ],
      "stateMutability": "nonpayable",
      "type": "function"
    },
    {
      "inputs": [],
      "name": "getLastClaimTime",
      "outputs": [
        {
          "internalType": "uint256",
          "name": "",
          "type": "uint256"
        }
      ],
      "stateMutability": "nonpayable",
      "type": "function"
    },
    {
      "inputs": [],
      "name": "getMinimumStake",
      "outputs": [
        {
          "internalType": "uint256",
          "name": "",
          "type": "uint256"
        }
      ],
      "stateMutability": "nonpayable",
      "type": "function"
    },
    {
      "inputs": [],
      "name": "getTotalStaked",
      "outputs": [
        {
          "internalType": "uint256",
          "name": "",
          "type": "uint256"
        }
      ],
      "stateMutability": "nonpayable",
      "type": "function"
    },
    {
      "inputs": [
        {
          "internalType": "uint256",
          "name": "amount",
          "type": "uint256"
        },
        {
          "internalType": "uint256",
          "name": "nodeID",
          "type": "uint256"
        }
      ],
      "name": "stake",
      "outputs": [],
      "stateMutability": "nonpayable",
      "type": "function"
    },
    {
      "inputs": [
        {
          "components": [
            {
              "internalType": "uint256",
              "name": "msgHash",
              "type": "uint256"
            },
            {
              "internalType": "uint256",
              "name": "sig",
              "type": "uint256"
            }
          ],
          "internalType": "struct IShared.SigData",
          "name": "sigData",
          "type": "tuple"
        },
        {
          "internalType": "uint256",
          "name": "endBlock",
          "type": "uint256"
        }
      ],
      "name": "startAuction",
      "outputs": [],
      "stateMutability": "nonpayable",
      "type": "function"
    }
  ],
  "bytecode": "60806040526705f0da7c3fc43b9d60035534801561001c57600080fd5b506040516124d93803806124d983398101604081905261003b916100cd565b600080546001600160a01b0319166001600160a01b0383161790556040516a4a723dc6b40b8a9a0000009061006f906100c0565b61007991906100fb565b604051809103906000f080158015610095573d6000803e3d6000fd5b50600180546001600160a01b0319166001600160a01b03929092169190911790555042600255610142565b6112cf8061120a83390190565b6000602082840312156100de578081fd5b81516001600160a01b03811681146100f4578182fd5b9392505050565b6060808252600990820152680436861696e466c69760bc1b608082015260a060208201819052600490820152630464c49560e41b60c0820152604081019190915260e00190565b6110b9806101516000396000f3fe608060405234801561001057600080fd5b50600436106100a95760003560e01c80637b0472f0116100715780637b0472f01461010657806395c0f90c146101195780639c277ebd1461012c578063a65f646f14610134578063ae30f26814610147578063d9bbd2781461014f576100a9565b80630917e776146100ae578063410afb2e146100cc5780634b0cfc00146100e157806360ce883c146100f657806366626ee7146100fe575b600080fd5b6100b6610157565b6040516100c39190611042565b60405180910390f35b6100df6100da366004610e49565b61015d565b005b6100e96103ee565b6040516100c39190610ebb565b6100b66103fd565b6100e9610403565b6100df610114366004610e8b565b610412565b6100df610127366004610e49565b610749565b6100b6610901565b6100df610142366004610e05565b610907565b6100b6610d4c565b6100b6610d52565b60045490565b808061019e576040805162461bcd60e51b815260206004820152601b6024820152600080516020611064833981519152604482015290519081900360640190fd5b600480546001546040516370a0823160e01b815291926001600160a01b03909116916370a08231916101d291309101610ebb565b60206040518083038186803b1580156101ea57600080fd5b505afa1580156101fe573d6000803e3d6000fd5b505050506040513d601f19601f820116820180604052508101906102229190610e73565b10156102495760405162461bcd60e51b815260040161024090610f87565b60405180910390fd5b600080546040805180820182528381526020810193909352516001600160a01b039091169163b965e14d916320857d9760e11b9161028b918790602401611027565b60408051601f198184030181529181526020820180516001600160e01b03166001600160e01b031990941693909317835290519091206000548251636adce01b60e11b81529251919288926001600160a01b039092169163d5b9c03691600480820192606092909190829003018186803b15801561030857600080fd5b505afa15801561031c573d6000803e3d6000fd5b505050506040513d601f19601f820116820180604052508101906103409190610d9e565b6040518463ffffffff1660e01b815260040161035e93929190610f0c565b602060405180830381600087803b15801561037857600080fd5b505af115801561038c573d6000803e3d6000fd5b505050506040513d601f19601f820116820180604052508101906103b09190610d77565b6103b957600080fd5b600582905560405182907f1bb96dff6ab5005aff98cdc0cf176bb7d8e0423cb48e02217d35b042cec81e9f90600090a2505050565b6000546001600160a01b031690565b60055490565b6001546001600160a01b031690565b8180610453576040805162461bcd60e51b815260206004820152601b6024820152600080516020611064833981519152604482015290519081900360640190fd5b8180610494576040805162461bcd60e51b815260206004820152601b6024820152600080516020611064833981519152604482015290519081900360640190fd5b600480546001546040516370a0823160e01b815291926001600160a01b03909116916370a08231916104c891309101610ebb565b60206040518083038186803b1580156104e057600080fd5b505afa1580156104f4573d6000803e3d6000fd5b505050506040513d601f19601f820116820180604052508101906105189190610e73565b10156105365760405162461bcd60e51b815260040161024090610f87565b6005544311156105585760405162461bcd60e51b815260040161024090610fbe565b6001546040516370a0823160e01b81526000916001600160a01b0316906370a0823190610589903090600401610ebb565b60206040518083038186803b1580156105a157600080fd5b505afa1580156105b5573d6000803e3d6000fd5b505050506040513d601f19601f820116820180604052508101906105d99190610e73565b6001546040516323b872dd60e01b81529192506001600160a01b0316906323b872dd9061060e90339030908a90600401610ecf565b602060405180830381600087803b15801561062857600080fd5b505af115801561063c573d6000803e3d6000fd5b505050506040513d601f19601f820116820180604052508101906106609190610d77565b506001546040516370a0823160e01b8152828701916001600160a01b0316906370a0823190610693903090600401610ebb565b60206040518083038186803b1580156106ab57600080fd5b505afa1580156106bf573d6000803e3d6000fd5b505050506040513d601f19601f820116820180604052508101906106e39190610e73565b146107005760405162461bcd60e51b815260040161024090610f50565b600480548601905560405184907f925435fa7e37e5d9555bb18ce0d62bb9627d0846942e58e5291e9a2dded462ed9061073a908890611042565b60405180910390a25050505050565b808061078a576040805162461bcd60e51b815260206004820152601b6024820152600080516020611064833981519152604482015290519081900360640190fd5b600080546040805180820182528381526020810193909352516001600160a01b039091169163b965e14d916325703e4360e21b916107cc918790602401611027565b60408051601f198184030181529181526020820180516001600160e01b03166001600160e01b031990941693909317835290519091206000548251636adce01b60e11b81529251919288926001600160a01b039092169163d5b9c03691600480820192606092909190829003018186803b15801561084957600080fd5b505afa15801561085d573d6000803e3d6000fd5b505050506040513d601f19601f820116820180604052508101906108819190610d9e565b6040518463ffffffff1660e01b815260040161089f93929190610f0c565b602060405180830381600087803b1580156108b957600080fd5b505af11580156108cd573d6000803e3d6000fd5b505050506040513d601f19601f820116820180604052508101906108f19190610d77565b6108fa57600080fd5b5060035550565b60025490565b826001600160a01b038116610963576040805162461bcd60e51b815260206004820152601e60248201527f5368617265643a206164647265737320696e70757420697320656d7074790000604482015290519081900360640190fd5b82806109a4576040805162461bcd60e51b815260206004820152601b6024820152600080516020611064833981519152604482015290519081900360640190fd5b82806109e5576040805162461bcd60e51b815260206004820152601b6024820152600080516020611064833981519152604482015290519081900360640190fd5b600480546001546040516370a0823160e01b815291926001600160a01b03909116916370a0823191610a1991309101610ebb565b60206040518083038186803b158015610a3157600080fd5b505afa158015610a45573d6000803e3d6000fd5b505050506040513d601f19601f82011682018060405250810190610a699190610e73565b1015610a875760405162461bcd60e51b815260040161024090610f87565b600080546040805180820182528381526020810193909352516001600160a01b039091169163b965e14d9163a65f646f60e01b91610acd918b908a908c90602401610ff5565b60408051601f198184030181529181526020820180516001600160e01b03166001600160e01b031990941693909317835290519091206000548251636adce01b60e11b8152925191928c926001600160a01b039092169163d5b9c03691600480820192606092909190829003018186803b158015610b4a57600080fd5b505afa158015610b5e573d6000803e3d6000fd5b505050506040513d601f19601f82011682018060405250810190610b829190610d9e565b6040518463ffffffff1660e01b8152600401610ba093929190610f0c565b602060405180830381600087803b158015610bba57600080fd5b505af1158015610bce573d6000803e3d6000fd5b505050506040513d601f19601f82011682018060405250810190610bf29190610d77565b610bfb57600080fd5b600254421115610c7b576001546003546002546040516340c10f1960e01b81526001600160a01b03909316926340c10f1992610c44923092429190910390910290600401610ef3565b600060405180830381600087803b158015610c5e57600080fd5b505af1158015610c72573d6000803e3d6000fd5b50504260025550505b60015460405163a9059cbb60e01b81526001600160a01b039091169063a9059cbb90610cad9089908990600401610ef3565b602060405180830381600087803b158015610cc757600080fd5b505af1158015610cdb573d6000803e3d6000fd5b505050506040513d601f19601f82011682018060405250810190610cff9190610d77565b5060048054869003905560405184907ffe67007f52a1bf967323b00fd406f9028a8e8a88aec274e07a63b2fabacc64a790610d3b908890611042565b60405180910390a250505050505050565b60035490565b69152d02c7e14af680000090565b600060408284031215610d71578081fd5b50919050565b600060208284031215610d88578081fd5b81518015158114610d97578182fd5b9392505050565b600060608284031215610daf578081fd5b6040516060810181811067ffffffffffffffff82111715610dcc57fe5b60405282518152602083015160ff81168114610de6578283fd5b60208201526040830151610df98161104b565b60408201529392505050565b60008060008060a08587031215610e1a578283fd5b610e248686610d60565b93506040850135610e348161104b565b93969395505050506060820135916080013590565b60008060608385031215610e5b578182fd5b610e658484610d60565b946040939093013593505050565b600060208284031215610e84578081fd5b5051919050565b60008060408385031215610e9d578182fd5b50508035926020909101359150565b80518252602090810151910152565b6001600160a01b0391909116815260200190565b6001600160a01b039384168152919092166020820152604081019190915260600190565b6001600160a01b03929092168252602082015260400190565b928352813560208085019190915291820135604080850191909152815160608501529181015160ff16608084015201516001600160a01b031660a082015260c00190565b60208082526019908201527f5374616b654d616e3a207472616e73666572206661696c656400000000000000604082015260600190565b6020808252601d908201527f5374616b653a20736f6d657468696e6720736d656c6c73206669736879000000604082015260600190565b6020808252601b908201527f5374616b654d616e3a2061756374696f6e2068617320656e6465640000000000604082015260600190565b60a081016110038287610eac565b6001600160a01b039490941660408201526060810192909252608090910152919050565b606081016110358285610eac565b8260408301529392505050565b90815260200190565b6001600160a01b038116811461106057600080fd5b5056fe5368617265643a2075696e7420696e70757420697320656d7074790000000000a2646970667358221220c7a8e7065b2bd531bb94dc7132be8b580483ccc48ebdc2c1696d7b63fb6925b464736f6c6343000706003360806040523480156200001157600080fd5b50604051620012cf380380620012cf833981810160405260608110156200003757600080fd5b81019080805160405193929190846401000000008211156200005857600080fd5b9083019060208201858111156200006e57600080fd5b82516401000000008111828201881017156200008957600080fd5b82525081516020918201929091019080838360005b83811015620000b85781810151838201526020016200009e565b50505050905090810190601f168015620000e65780820380516001836020036101000a031916815260200191505b50604052602001805160405193929190846401000000008211156200010a57600080fd5b9083019060208201858111156200012057600080fd5b82516401000000008111828201881017156200013b57600080fd5b82525081516020918201929091019080838360005b838110156200016a57818101518382015260200162000150565b50505050905090810190601f168015620001985780820380516001836020036101000a031916815260200191505b5060405260209081015185519093508592508491620001bd91600391850190620003d4565b508051620001d3906004906020840190620003d4565b50506005805460ff19166012179055506000620001ef6200025a565b60058054610100600160a81b0319166101006001600160a01b03841690810291909117909155604051919250906000907f8be0079c531659141344cd1fd0a4f28419497f9722a3daafe3b4186f6b6457e0908290a3506200025133826200025e565b50505062000480565b3390565b6001600160a01b038216620002ba576040805162461bcd60e51b815260206004820152601f60248201527f45524332303a206d696e7420746f20746865207a65726f206164647265737300604482015290519081900360640190fd5b620002c8600083836200036d565b620002e4816002546200037260201b620008aa1790919060201c565b6002556001600160a01b0382166000908152602081815260409091205462000317918390620008aa62000372821b17901c565b6001600160a01b0383166000818152602081815260408083209490945583518581529351929391927fddf252ad1be2c89b69c2b068fc378daa952ba7f163c4a11628f55a4df523b3ef9281900390910190a35050565b505050565b600082820183811015620003cd576040805162461bcd60e51b815260206004820152601b60248201527f536166654d6174683a206164646974696f6e206f766572666c6f770000000000604482015290519081900360640190fd5b9392505050565b828054600181600116156101000203166002900490600052602060002090601f0160209004810192826200040c576000855562000457565b82601f106200042757805160ff191683800117855562000457565b8280016001018555821562000457579182015b82811115620004575782518255916020019190600101906200043a565b506200046592915062000469565b5090565b5b808211156200046557600081556001016200046a565b610e3f80620004906000396000f3fe608060405234801561001057600080fd5b50600436106100f55760003560e01c806370a0823111610097578063a457c2d711610066578063a457c2d7146102d9578063a9059cbb14610305578063dd62ed3e14610331578063f2fde38b1461035f576100f5565b806370a082311461027f578063715018a6146102a55780638da5cb5b146102ad57806395d89b41146102d1576100f5565b806323b872dd116100d357806323b872dd146101d1578063313ce56714610207578063395093511461022557806340c10f1914610251576100f5565b806306fdde03146100fa578063095ea7b31461017757806318160ddd146101b7575b600080fd5b610102610385565b6040805160208082528351818301528351919283929083019185019080838360005b8381101561013c578181015183820152602001610124565b50505050905090810190601f1680156101695780820380516001836020036101000a031916815260200191505b509250505060405180910390f35b6101a36004803603604081101561018d57600080fd5b506001600160a01b03813516906020013561041b565b604080519115158252519081900360200190f35b6101bf610438565b60408051918252519081900360200190f35b6101a3600480360360608110156101e757600080fd5b506001600160a01b0381358116916020810135909116906040013561043e565b61020f6104c5565b6040805160ff9092168252519081900360200190f35b6101a36004803603604081101561023b57600080fd5b506001600160a01b0381351690602001356104ce565b61027d6004803603604081101561026757600080fd5b506001600160a01b03813516906020013561051c565b005b6101bf6004803603602081101561029557600080fd5b50356001600160a01b0316610599565b61027d6105b4565b6102b5610673565b604080516001600160a01b039092168252519081900360200190f35b610102610687565b6101a3600480360360408110156102ef57600080fd5b506001600160a01b0381351690602001356106e8565b6101a36004803603604081101561031b57600080fd5b506001600160a01b038135169060200135610750565b6101bf6004803603604081101561034757600080fd5b506001600160a01b0381358116916020013516610764565b61027d6004803603602081101561037557600080fd5b50356001600160a01b031661078f565b60038054604080516020601f60026000196101006001881615020190951694909404938401819004810282018101909252828152606093909290918301828280156104115780601f106103e657610100808354040283529160200191610411565b820191906000526020600020905b8154815290600101906020018083116103f457829003601f168201915b5050505050905090565b600061042f61042861090b565b848461090f565b50600192915050565b60025490565b600061044b8484846109fb565b6104bb8461045761090b565b6104b685604051806060016040528060288152602001610d74602891396001600160a01b038a1660009081526001602052604081209061049561090b565b6001600160a01b031681526020810191909152604001600020549190610b56565b61090f565b5060019392505050565b60055460ff1690565b600061042f6104db61090b565b846104b685600160006104ec61090b565b6001600160a01b03908116825260208083019390935260409182016000908120918c1681529252902054906108aa565b61052461090b565b60055461010090046001600160a01b0390811691161461058b576040805162461bcd60e51b815260206004820181905260248201527f4f776e61626c653a2063616c6c6572206973206e6f7420746865206f776e6572604482015290519081900360640190fd5b6105958282610bed565b5050565b6001600160a01b031660009081526020819052604090205490565b6105bc61090b565b60055461010090046001600160a01b03908116911614610623576040805162461bcd60e51b815260206004820181905260248201527f4f776e61626c653a2063616c6c6572206973206e6f7420746865206f776e6572604482015290519081900360640190fd5b60055460405160009161010090046001600160a01b0316907f8be0079c531659141344cd1fd0a4f28419497f9722a3daafe3b4186f6b6457e0908390a360058054610100600160a81b0319169055565b60055461010090046001600160a01b031690565b60048054604080516020601f60026000196101006001881615020190951694909404938401819004810282018101909252828152606093909290918301828280156104115780601f106103e657610100808354040283529160200191610411565b600061042f6106f561090b565b846104b685604051806060016040528060258152602001610de5602591396001600061071f61090b565b6001600160a01b03908116825260208083019390935260409182016000908120918d16815292529020549190610b56565b600061042f61075d61090b565b84846109fb565b6001600160a01b03918216600090815260016020908152604080832093909416825291909152205490565b61079761090b565b60055461010090046001600160a01b039081169116146107fe576040805162461bcd60e51b815260206004820181905260248201527f4f776e61626c653a2063616c6c6572206973206e6f7420746865206f776e6572604482015290519081900360640190fd5b6001600160a01b0381166108435760405162461bcd60e51b8152600401808060200182810382526026815260200180610d066026913960400191505060405180910390fd5b6005546040516001600160a01b0380841692610100900416907f8be0079c531659141344cd1fd0a4f28419497f9722a3daafe3b4186f6b6457e090600090a3600580546001600160a01b0390921661010002610100600160a81b0319909216919091179055565b600082820183811015610904576040805162461bcd60e51b815260206004820152601b60248201527f536166654d6174683a206164646974696f6e206f766572666c6f770000000000604482015290519081900360640190fd5b9392505050565b3390565b6001600160a01b0383166109545760405162461bcd60e51b8152600401808060200182810382526024815260200180610dc16024913960400191505060405180910390fd5b6001600160a01b0382166109995760405162461bcd60e51b8152600401808060200182810382526022815260200180610d2c6022913960400191505060405180910390fd5b6001600160a01b03808416600081815260016020908152604080832094871680845294825291829020859055815185815291517f8c5be1e5ebec7d5bd14f71427d1e84f3dd0314c0f7b2291e5b200ac8c7c3b9259281900390910190a3505050565b6001600160a01b038316610a405760405162461bcd60e51b8152600401808060200182810382526025815260200180610d9c6025913960400191505060405180910390fd5b6001600160a01b038216610a855760405162461bcd60e51b8152600401808060200182810382526023815260200180610ce36023913960400191505060405180910390fd5b610a90838383610cdd565b610acd81604051806060016040528060268152602001610d4e602691396001600160a01b0386166000908152602081905260409020549190610b56565b6001600160a01b038085166000908152602081905260408082209390935590841681522054610afc90826108aa565b6001600160a01b038084166000818152602081815260409182902094909455805185815290519193928716927fddf252ad1be2c89b69c2b068fc378daa952ba7f163c4a11628f55a4df523b3ef92918290030190a3505050565b60008184841115610be55760405162461bcd60e51b81526004018080602001828103825283818151815260200191508051906020019080838360005b83811015610baa578181015183820152602001610b92565b50505050905090810190601f168015610bd75780820380516001836020036101000a031916815260200191505b509250505060405180910390fd5b505050900390565b6001600160a01b038216610c48576040805162461bcd60e51b815260206004820152601f60248201527f45524332303a206d696e7420746f20746865207a65726f206164647265737300604482015290519081900360640190fd5b610c5460008383610cdd565b600254610c6190826108aa565b6002556001600160a01b038216600090815260208190526040902054610c8790826108aa565b6001600160a01b0383166000818152602081815260408083209490945583518581529351929391927fddf252ad1be2c89b69c2b068fc378daa952ba7f163c4a11628f55a4df523b3ef9281900390910190a35050565b50505056fe45524332303a207472616e7366657220746f20746865207a65726f20616464726573734f776e61626c653a206e6577206f776e657220697320746865207a65726f206164647265737345524332303a20617070726f766520746f20746865207a65726f206164647265737345524332303a207472616e7366657220616d6f756e7420657863656564732062616c616e636545524332303a207472616e7366657220616d6f756e74206578636565647320616c6c6f77616e636545524332303a207472616e736665722066726f6d20746865207a65726f206164647265737345524332303a20617070726f76652066726f6d20746865207a65726f206164647265737345524332303a2064656372656173656420616c6c6f77616e63652062656c6f77207a65726fa264697066735822122074a8c4ec0b51ca8168a7e9d43c49caa8f138a8ceddbb49f33833e5f5de61c78164736f6c63430007060033",
  "bytecodeSha1": "64fabd29a7a1ef64669736c750344308a93edf5e",
  "compiler": {
    "evm_version": "istanbul",
    "optimizer": {
      "enabled": true,
      "runs": 200
    },
    "version": "0.7.6+commit.7338295f"
  },
  "contractName": "StakeManager",
  "language": "Solidity",
  "natspec": {
    "kind": "dev",
    "methods": {
      "claim((uint256,uint256),address,uint256,uint256)": {
        "notice": "Claim back stake. If only losing an auction, the same amount initially staked          will be sent back. If losing an auction while being a validator, the amount sent back = stake + rewards - penalties, as determined by the CFE",
        "params": {
          "amount": "The amount of stake to be locked up",
          "nodeID": "The nodeID of the staker",
          "sigData": "The keccak256 hash over the msg (uint) (which is the calldata                  for this function with empty msgHash and sig) and sig over that hash                  from the current governance key (uint)",
          "staker": "The staker who is to be sent FLIP"
        }
      },
      "getAuctionEndBlock()": {
        "notice": "Get the end block of the latest auction. Auctions are valid          up until, and including, this block number",
        "returns": {
          "_0": "The block number that ends this auction, inclusive (uint)"
        }
      },
      "getEmissionPerSec()": {
        "notice": "Get the emission rate of FLIP in seconds",
        "returns": {
          "_0": "The rate of FLIP emission (uint)"
        }
      },
      "getFLIPAddress()": {
        "notice": "Get the FLIP token address",
        "returns": {
          "_0": "The address of FLIP"
        }
      },
      "getKeyManager()": {
        "notice": "Get the KeyManager address/interface that's used to validate sigs",
        "returns": {
          "_0": "The KeyManager (IKeyManager)"
        }
      },
      "getLastClaimTime()": {
        "notice": "Get the last time that claim() was called, in unix time",
        "returns": {
          "_0": "The time of the last claim (uint)"
        }
      },
      "getMinimumStake()": {
        "notice": "Get the minimum amount of stake that's required for a bid          attempt in the auction to be valid - used to prevent sybil attacks",
        "returns": {
          "_0": "The minimum stake (uint)"
        }
      },
      "getTotalStaked()": {
        "notice": "Get the total amount of FLIP currently staked by all stakers, used          to always ensure collateralisation",
        "returns": {
          "_0": "The current total of stake in this contract (uint)"
        }
      },
      "stake(uint256,uint256)": {
        "details": "Requires the staker to have called `approve` in FLIP",
        "notice": "Stake some FLIP and attribute it to a nodeID",
        "params": {
          "amount": "The amount of stake to be locked up",
          "nodeID": "The nodeID of the staker"
        }
      }
    },
    "stateVariables": {
      "_FLIP": {
        "details": "The FLIP token"
      },
      "_auctionEndBlock": {
        "details": "The last block of an auction that can be used to stake (inclusive)"
      },
      "_emissionPerSec": {
        "details": "Equates to 15% per year (not compounding)"
      },
      "_keyManager": {
        "details": "The KeyManager used to checks sigs used in functions here"
      },
      "_lastClaimTime": {
        "details": "The last time that claim was called, so we know how much to mint now"
      },
      "_totalStaked": {
        "details": "Used to make make sure contract is collateralised at all times"
      }
    },
    "version": 1
  },
  "opcodes": "PUSH1 0x80 PUSH1 0x40 MSTORE CALLVALUE DUP1 ISZERO PUSH2 0x10 JUMPI PUSH1 0x0 DUP1 REVERT JUMPDEST POP PUSH1 0x4 CALLDATASIZE LT PUSH2 0xA9 JUMPI PUSH1 0x0 CALLDATALOAD PUSH1 0xE0 SHR DUP1 PUSH4 0x7B0472F0 GT PUSH2 0x71 JUMPI DUP1 PUSH4 0x7B0472F0 EQ PUSH2 0x106 JUMPI DUP1 PUSH4 0x95C0F90C EQ PUSH2 0x119 JUMPI DUP1 PUSH4 0x9C277EBD EQ PUSH2 0x12C JUMPI DUP1 PUSH4 0xA65F646F EQ PUSH2 0x134 JUMPI DUP1 PUSH4 0xAE30F268 EQ PUSH2 0x147 JUMPI DUP1 PUSH4 0xD9BBD278 EQ PUSH2 0x14F JUMPI PUSH2 0xA9 JUMP JUMPDEST DUP1 PUSH4 0x917E776 EQ PUSH2 0xAE JUMPI DUP1 PUSH4 0x410AFB2E EQ PUSH2 0xCC JUMPI DUP1 PUSH4 0x4B0CFC00 EQ PUSH2 0xE1 JUMPI DUP1 PUSH4 0x60CE883C EQ PUSH2 0xF6 JUMPI DUP1 PUSH4 0x66626EE7 EQ PUSH2 0xFE JUMPI JUMPDEST PUSH1 0x0 DUP1 REVERT JUMPDEST PUSH2 0xB6 PUSH2 0x157 JUMP JUMPDEST PUSH1 0x40 MLOAD PUSH2 0xC3 SWAP2 SWAP1 PUSH2 0x1042 JUMP JUMPDEST PUSH1 0x40 MLOAD DUP1 SWAP2 SUB SWAP1 RETURN JUMPDEST PUSH2 0xDF PUSH2 0xDA CALLDATASIZE PUSH1 0x4 PUSH2 0xE49 JUMP JUMPDEST PUSH2 0x15D JUMP JUMPDEST STOP JUMPDEST PUSH2 0xE9 PUSH2 0x3EE JUMP JUMPDEST PUSH1 0x40 MLOAD PUSH2 0xC3 SWAP2 SWAP1 PUSH2 0xEBB JUMP JUMPDEST PUSH2 0xB6 PUSH2 0x3FD JUMP JUMPDEST PUSH2 0xE9 PUSH2 0x403 JUMP JUMPDEST PUSH2 0xDF PUSH2 0x114 CALLDATASIZE PUSH1 0x4 PUSH2 0xE8B JUMP JUMPDEST PUSH2 0x412 JUMP JUMPDEST PUSH2 0xDF PUSH2 0x127 CALLDATASIZE PUSH1 0x4 PUSH2 0xE49 JUMP JUMPDEST PUSH2 0x749 JUMP JUMPDEST PUSH2 0xB6 PUSH2 0x901 JUMP JUMPDEST PUSH2 0xDF PUSH2 0x142 CALLDATASIZE PUSH1 0x4 PUSH2 0xE05 JUMP JUMPDEST PUSH2 0x907 JUMP JUMPDEST PUSH2 0xB6 PUSH2 0xD4C JUMP JUMPDEST PUSH2 0xB6 PUSH2 0xD52 JUMP JUMPDEST PUSH1 0x4 SLOAD SWAP1 JUMP JUMPDEST DUP1 DUP1 PUSH2 0x19E JUMPI PUSH1 0x40 DUP1 MLOAD PUSH3 0x461BCD PUSH1 0xE5 SHL DUP2 MSTORE PUSH1 0x20 PUSH1 0x4 DUP3 ADD MSTORE PUSH1 0x1B PUSH1 0x24 DUP3 ADD MSTORE PUSH1 0x0 DUP1 MLOAD PUSH1 0x20 PUSH2 0x1064 DUP4 CODECOPY DUP2 MLOAD SWAP2 MSTORE PUSH1 0x44 DUP3 ADD MSTORE SWAP1 MLOAD SWAP1 DUP2 SWAP1 SUB PUSH1 0x64 ADD SWAP1 REVERT JUMPDEST PUSH1 0x4 DUP1 SLOAD PUSH1 0x1 SLOAD PUSH1 0x40 MLOAD PUSH4 0x70A08231 PUSH1 0xE0 SHL DUP2 MSTORE SWAP2 SWAP3 PUSH1 0x1 PUSH1 0x1 PUSH1 0xA0 SHL SUB SWAP1 SWAP2 AND SWAP2 PUSH4 0x70A08231 SWAP2 PUSH2 0x1D2 SWAP2 ADDRESS SWAP2 ADD PUSH2 0xEBB JUMP JUMPDEST PUSH1 0x20 PUSH1 0x40 MLOAD DUP1 DUP4 SUB DUP2 DUP7 DUP1 EXTCODESIZE ISZERO DUP1 ISZERO PUSH2 0x1EA JUMPI PUSH1 0x0 DUP1 REVERT JUMPDEST POP GAS STATICCALL ISZERO DUP1 ISZERO PUSH2 0x1FE JUMPI RETURNDATASIZE PUSH1 0x0 DUP1 RETURNDATACOPY RETURNDATASIZE PUSH1 0x0 REVERT JUMPDEST POP POP POP POP PUSH1 0x40 MLOAD RETURNDATASIZE PUSH1 0x1F NOT PUSH1 0x1F DUP3 ADD AND DUP3 ADD DUP1 PUSH1 0x40 MSTORE POP DUP2 ADD SWAP1 PUSH2 0x222 SWAP2 SWAP1 PUSH2 0xE73 JUMP JUMPDEST LT ISZERO PUSH2 0x249 JUMPI PUSH1 0x40 MLOAD PUSH3 0x461BCD PUSH1 0xE5 SHL DUP2 MSTORE PUSH1 0x4 ADD PUSH2 0x240 SWAP1 PUSH2 0xF87 JUMP JUMPDEST PUSH1 0x40 MLOAD DUP1 SWAP2 SUB SWAP1 REVERT JUMPDEST PUSH1 0x0 DUP1 SLOAD PUSH1 0x40 DUP1 MLOAD DUP1 DUP3 ADD DUP3 MSTORE DUP4 DUP2 MSTORE PUSH1 0x20 DUP2 ADD SWAP4 SWAP1 SWAP4 MSTORE MLOAD PUSH1 0x1 PUSH1 0x1 PUSH1 0xA0 SHL SUB SWAP1 SWAP2 AND SWAP2 PUSH4 0xB965E14D SWAP2 PUSH4 0x20857D97 PUSH1 0xE1 SHL SWAP2 PUSH2 0x28B SWAP2 DUP8 SWAP1 PUSH1 0x24 ADD PUSH2 0x1027 JUMP JUMPDEST PUSH1 0x40 DUP1 MLOAD PUSH1 0x1F NOT DUP2 DUP5 SUB ADD DUP2 MSTORE SWAP2 DUP2 MSTORE PUSH1 0x20 DUP3 ADD DUP1 MLOAD PUSH1 0x1 PUSH1 0x1 PUSH1 0xE0 SHL SUB AND PUSH1 0x1 PUSH1 0x1 PUSH1 0xE0 SHL SUB NOT SWAP1 SWAP5 AND SWAP4 SWAP1 SWAP4 OR DUP4 MSTORE SWAP1 MLOAD SWAP1 SWAP2 KECCAK256 PUSH1 0x0 SLOAD DUP3 MLOAD PUSH4 0x6ADCE01B PUSH1 0xE1 SHL DUP2 MSTORE SWAP3 MLOAD SWAP2 SWAP3 DUP9 SWAP3 PUSH1 0x1 PUSH1 0x1 PUSH1 0xA0 SHL SUB SWAP1 SWAP3 AND SWAP2 PUSH4 0xD5B9C036 SWAP2 PUSH1 0x4 DUP1 DUP3 ADD SWAP3 PUSH1 0x60 SWAP3 SWAP1 SWAP2 SWAP1 DUP3 SWAP1 SUB ADD DUP2 DUP7 DUP1 EXTCODESIZE ISZERO DUP1 ISZERO PUSH2 0x308 JUMPI PUSH1 0x0 DUP1 REVERT JUMPDEST POP GAS STATICCALL ISZERO DUP1 ISZERO PUSH2 0x31C JUMPI RETURNDATASIZE PUSH1 0x0 DUP1 RETURNDATACOPY RETURNDATASIZE PUSH1 0x0 REVERT JUMPDEST POP POP POP POP PUSH1 0x40 MLOAD RETURNDATASIZE PUSH1 0x1F NOT PUSH1 0x1F DUP3 ADD AND DUP3 ADD DUP1 PUSH1 0x40 MSTORE POP DUP2 ADD SWAP1 PUSH2 0x340 SWAP2 SWAP1 PUSH2 0xD9E JUMP JUMPDEST PUSH1 0x40 MLOAD DUP5 PUSH4 0xFFFFFFFF AND PUSH1 0xE0 SHL DUP2 MSTORE PUSH1 0x4 ADD PUSH2 0x35E SWAP4 SWAP3 SWAP2 SWAP1 PUSH2 0xF0C JUMP JUMPDEST PUSH1 0x20 PUSH1 0x40 MLOAD DUP1 DUP4 SUB DUP2 PUSH1 0x0 DUP8 DUP1 EXTCODESIZE ISZERO DUP1 ISZERO PUSH2 0x378 JUMPI PUSH1 0x0 DUP1 REVERT JUMPDEST POP GAS CALL ISZERO DUP1 ISZERO PUSH2 0x38C JUMPI RETURNDATASIZE PUSH1 0x0 DUP1 RETURNDATACOPY RETURNDATASIZE PUSH1 0x0 REVERT JUMPDEST POP POP POP POP PUSH1 0x40 MLOAD RETURNDATASIZE PUSH1 0x1F NOT PUSH1 0x1F DUP3 ADD AND DUP3 ADD DUP1 PUSH1 0x40 MSTORE POP DUP2 ADD SWAP1 PUSH2 0x3B0 SWAP2 SWAP1 PUSH2 0xD77 JUMP JUMPDEST PUSH2 0x3B9 JUMPI PUSH1 0x0 DUP1 REVERT JUMPDEST PUSH1 0x5 DUP3 SWAP1 SSTORE PUSH1 0x40 MLOAD DUP3 SWAP1 PUSH32 0x1BB96DFF6AB5005AFF98CDC0CF176BB7D8E0423CB48E02217D35B042CEC81E9F SWAP1 PUSH1 0x0 SWAP1 LOG2 POP POP POP JUMP JUMPDEST PUSH1 0x0 SLOAD PUSH1 0x1 PUSH1 0x1 PUSH1 0xA0 SHL SUB AND SWAP1 JUMP JUMPDEST PUSH1 0x5 SLOAD SWAP1 JUMP JUMPDEST PUSH1 0x1 SLOAD PUSH1 0x1 PUSH1 0x1 PUSH1 0xA0 SHL SUB AND SWAP1 JUMP JUMPDEST DUP2 DUP1 PUSH2 0x453 JUMPI PUSH1 0x40 DUP1 MLOAD PUSH3 0x461BCD PUSH1 0xE5 SHL DUP2 MSTORE PUSH1 0x20 PUSH1 0x4 DUP3 ADD MSTORE PUSH1 0x1B PUSH1 0x24 DUP3 ADD MSTORE PUSH1 0x0 DUP1 MLOAD PUSH1 0x20 PUSH2 0x1064 DUP4 CODECOPY DUP2 MLOAD SWAP2 MSTORE PUSH1 0x44 DUP3 ADD MSTORE SWAP1 MLOAD SWAP1 DUP2 SWAP1 SUB PUSH1 0x64 ADD SWAP1 REVERT JUMPDEST DUP2 DUP1 PUSH2 0x494 JUMPI PUSH1 0x40 DUP1 MLOAD PUSH3 0x461BCD PUSH1 0xE5 SHL DUP2 MSTORE PUSH1 0x20 PUSH1 0x4 DUP3 ADD MSTORE PUSH1 0x1B PUSH1 0x24 DUP3 ADD MSTORE PUSH1 0x0 DUP1 MLOAD PUSH1 0x20 PUSH2 0x1064 DUP4 CODECOPY DUP2 MLOAD SWAP2 MSTORE PUSH1 0x44 DUP3 ADD MSTORE SWAP1 MLOAD SWAP1 DUP2 SWAP1 SUB PUSH1 0x64 ADD SWAP1 REVERT JUMPDEST PUSH1 0x4 DUP1 SLOAD PUSH1 0x1 SLOAD PUSH1 0x40 MLOAD PUSH4 0x70A08231 PUSH1 0xE0 SHL DUP2 MSTORE SWAP2 SWAP3 PUSH1 0x1 PUSH1 0x1 PUSH1 0xA0 SHL SUB SWAP1 SWAP2 AND SWAP2 PUSH4 0x70A08231 SWAP2 PUSH2 0x4C8 SWAP2 ADDRESS SWAP2 ADD PUSH2 0xEBB JUMP JUMPDEST PUSH1 0x20 PUSH1 0x40 MLOAD DUP1 DUP4 SUB DUP2 DUP7 DUP1 EXTCODESIZE ISZERO DUP1 ISZERO PUSH2 0x4E0 JUMPI PUSH1 0x0 DUP1 REVERT JUMPDEST POP GAS STATICCALL ISZERO DUP1 ISZERO PUSH2 0x4F4 JUMPI RETURNDATASIZE PUSH1 0x0 DUP1 RETURNDATACOPY RETURNDATASIZE PUSH1 0x0 REVERT JUMPDEST POP POP POP POP PUSH1 0x40 MLOAD RETURNDATASIZE PUSH1 0x1F NOT PUSH1 0x1F DUP3 ADD AND DUP3 ADD DUP1 PUSH1 0x40 MSTORE POP DUP2 ADD SWAP1 PUSH2 0x518 SWAP2 SWAP1 PUSH2 0xE73 JUMP JUMPDEST LT ISZERO PUSH2 0x536 JUMPI PUSH1 0x40 MLOAD PUSH3 0x461BCD PUSH1 0xE5 SHL DUP2 MSTORE PUSH1 0x4 ADD PUSH2 0x240 SWAP1 PUSH2 0xF87 JUMP JUMPDEST PUSH1 0x5 SLOAD NUMBER GT ISZERO PUSH2 0x558 JUMPI PUSH1 0x40 MLOAD PUSH3 0x461BCD PUSH1 0xE5 SHL DUP2 MSTORE PUSH1 0x4 ADD PUSH2 0x240 SWAP1 PUSH2 0xFBE JUMP JUMPDEST PUSH1 0x1 SLOAD PUSH1 0x40 MLOAD PUSH4 0x70A08231 PUSH1 0xE0 SHL DUP2 MSTORE PUSH1 0x0 SWAP2 PUSH1 0x1 PUSH1 0x1 PUSH1 0xA0 SHL SUB AND SWAP1 PUSH4 0x70A08231 SWAP1 PUSH2 0x589 SWAP1 ADDRESS SWAP1 PUSH1 0x4 ADD PUSH2 0xEBB JUMP JUMPDEST PUSH1 0x20 PUSH1 0x40 MLOAD DUP1 DUP4 SUB DUP2 DUP7 DUP1 EXTCODESIZE ISZERO DUP1 ISZERO PUSH2 0x5A1 JUMPI PUSH1 0x0 DUP1 REVERT JUMPDEST POP GAS STATICCALL ISZERO DUP1 ISZERO PUSH2 0x5B5 JUMPI RETURNDATASIZE PUSH1 0x0 DUP1 RETURNDATACOPY RETURNDATASIZE PUSH1 0x0 REVERT JUMPDEST POP POP POP POP PUSH1 0x40 MLOAD RETURNDATASIZE PUSH1 0x1F NOT PUSH1 0x1F DUP3 ADD AND DUP3 ADD DUP1 PUSH1 0x40 MSTORE POP DUP2 ADD SWAP1 PUSH2 0x5D9 SWAP2 SWAP1 PUSH2 0xE73 JUMP JUMPDEST PUSH1 0x1 SLOAD PUSH1 0x40 MLOAD PUSH4 0x23B872DD PUSH1 0xE0 SHL DUP2 MSTORE SWAP2 SWAP3 POP PUSH1 0x1 PUSH1 0x1 PUSH1 0xA0 SHL SUB AND SWAP1 PUSH4 0x23B872DD SWAP1 PUSH2 0x60E SWAP1 CALLER SWAP1 ADDRESS SWAP1 DUP11 SWAP1 PUSH1 0x4 ADD PUSH2 0xECF JUMP JUMPDEST PUSH1 0x20 PUSH1 0x40 MLOAD DUP1 DUP4 SUB DUP2 PUSH1 0x0 DUP8 DUP1 EXTCODESIZE ISZERO DUP1 ISZERO PUSH2 0x628 JUMPI PUSH1 0x0 DUP1 REVERT JUMPDEST POP GAS CALL ISZERO DUP1 ISZERO PUSH2 0x63C JUMPI RETURNDATASIZE PUSH1 0x0 DUP1 RETURNDATACOPY RETURNDATASIZE PUSH1 0x0 REVERT JUMPDEST POP POP POP POP PUSH1 0x40 MLOAD RETURNDATASIZE PUSH1 0x1F NOT PUSH1 0x1F DUP3 ADD AND DUP3 ADD DUP1 PUSH1 0x40 MSTORE POP DUP2 ADD SWAP1 PUSH2 0x660 SWAP2 SWAP1 PUSH2 0xD77 JUMP JUMPDEST POP PUSH1 0x1 SLOAD PUSH1 0x40 MLOAD PUSH4 0x70A08231 PUSH1 0xE0 SHL DUP2 MSTORE DUP3 DUP8 ADD SWAP2 PUSH1 0x1 PUSH1 0x1 PUSH1 0xA0 SHL SUB AND SWAP1 PUSH4 0x70A08231 SWAP1 PUSH2 0x693 SWAP1 ADDRESS SWAP1 PUSH1 0x4 ADD PUSH2 0xEBB JUMP JUMPDEST PUSH1 0x20 PUSH1 0x40 MLOAD DUP1 DUP4 SUB DUP2 DUP7 DUP1 EXTCODESIZE ISZERO DUP1 ISZERO PUSH2 0x6AB JUMPI PUSH1 0x0 DUP1 REVERT JUMPDEST POP GAS STATICCALL ISZERO DUP1 ISZERO PUSH2 0x6BF JUMPI RETURNDATASIZE PUSH1 0x0 DUP1 RETURNDATACOPY RETURNDATASIZE PUSH1 0x0 REVERT JUMPDEST POP POP POP POP PUSH1 0x40 MLOAD RETURNDATASIZE PUSH1 0x1F NOT PUSH1 0x1F DUP3 ADD AND DUP3 ADD DUP1 PUSH1 0x40 MSTORE POP DUP2 ADD SWAP1 PUSH2 0x6E3 SWAP2 SWAP1 PUSH2 0xE73 JUMP JUMPDEST EQ PUSH2 0x700 JUMPI PUSH1 0x40 MLOAD PUSH3 0x461BCD PUSH1 0xE5 SHL DUP2 MSTORE PUSH1 0x4 ADD PUSH2 0x240 SWAP1 PUSH2 0xF50 JUMP JUMPDEST PUSH1 0x4 DUP1 SLOAD DUP7 ADD SWAP1 SSTORE PUSH1 0x40 MLOAD DUP5 SWAP1 PUSH32 0x925435FA7E37E5D9555BB18CE0D62BB9627D0846942E58E5291E9A2DDED462ED SWAP1 PUSH2 0x73A SWAP1 DUP9 SWAP1 PUSH2 0x1042 JUMP JUMPDEST PUSH1 0x40 MLOAD DUP1 SWAP2 SUB SWAP1 LOG2 POP POP POP POP POP JUMP JUMPDEST DUP1 DUP1 PUSH2 0x78A JUMPI PUSH1 0x40 DUP1 MLOAD PUSH3 0x461BCD PUSH1 0xE5 SHL DUP2 MSTORE PUSH1 0x20 PUSH1 0x4 DUP3 ADD MSTORE PUSH1 0x1B PUSH1 0x24 DUP3 ADD MSTORE PUSH1 0x0 DUP1 MLOAD PUSH1 0x20 PUSH2 0x1064 DUP4 CODECOPY DUP2 MLOAD SWAP2 MSTORE PUSH1 0x44 DUP3 ADD MSTORE SWAP1 MLOAD SWAP1 DUP2 SWAP1 SUB PUSH1 0x64 ADD SWAP1 REVERT JUMPDEST PUSH1 0x0 DUP1 SLOAD PUSH1 0x40 DUP1 MLOAD DUP1 DUP3 ADD DUP3 MSTORE DUP4 DUP2 MSTORE PUSH1 0x20 DUP2 ADD SWAP4 SWAP1 SWAP4 MSTORE MLOAD PUSH1 0x1 PUSH1 0x1 PUSH1 0xA0 SHL SUB SWAP1 SWAP2 AND SWAP2 PUSH4 0xB965E14D SWAP2 PUSH4 0x25703E43 PUSH1 0xE2 SHL SWAP2 PUSH2 0x7CC SWAP2 DUP8 SWAP1 PUSH1 0x24 ADD PUSH2 0x1027 JUMP JUMPDEST PUSH1 0x40 DUP1 MLOAD PUSH1 0x1F NOT DUP2 DUP5 SUB ADD DUP2 MSTORE SWAP2 DUP2 MSTORE PUSH1 0x20 DUP3 ADD DUP1 MLOAD PUSH1 0x1 PUSH1 0x1 PUSH1 0xE0 SHL SUB AND PUSH1 0x1 PUSH1 0x1 PUSH1 0xE0 SHL SUB NOT SWAP1 SWAP5 AND SWAP4 SWAP1 SWAP4 OR DUP4 MSTORE SWAP1 MLOAD SWAP1 SWAP2 KECCAK256 PUSH1 0x0 SLOAD DUP3 MLOAD PUSH4 0x6ADCE01B PUSH1 0xE1 SHL DUP2 MSTORE SWAP3 MLOAD SWAP2 SWAP3 DUP9 SWAP3 PUSH1 0x1 PUSH1 0x1 PUSH1 0xA0 SHL SUB SWAP1 SWAP3 AND SWAP2 PUSH4 0xD5B9C036 SWAP2 PUSH1 0x4 DUP1 DUP3 ADD SWAP3 PUSH1 0x60 SWAP3 SWAP1 SWAP2 SWAP1 DUP3 SWAP1 SUB ADD DUP2 DUP7 DUP1 EXTCODESIZE ISZERO DUP1 ISZERO PUSH2 0x849 JUMPI PUSH1 0x0 DUP1 REVERT JUMPDEST POP GAS STATICCALL ISZERO DUP1 ISZERO PUSH2 0x85D JUMPI RETURNDATASIZE PUSH1 0x0 DUP1 RETURNDATACOPY RETURNDATASIZE PUSH1 0x0 REVERT JUMPDEST POP POP POP POP PUSH1 0x40 MLOAD RETURNDATASIZE PUSH1 0x1F NOT PUSH1 0x1F DUP3 ADD AND DUP3 ADD DUP1 PUSH1 0x40 MSTORE POP DUP2 ADD SWAP1 PUSH2 0x881 SWAP2 SWAP1 PUSH2 0xD9E JUMP JUMPDEST PUSH1 0x40 MLOAD DUP5 PUSH4 0xFFFFFFFF AND PUSH1 0xE0 SHL DUP2 MSTORE PUSH1 0x4 ADD PUSH2 0x89F SWAP4 SWAP3 SWAP2 SWAP1 PUSH2 0xF0C JUMP JUMPDEST PUSH1 0x20 PUSH1 0x40 MLOAD DUP1 DUP4 SUB DUP2 PUSH1 0x0 DUP8 DUP1 EXTCODESIZE ISZERO DUP1 ISZERO PUSH2 0x8B9 JUMPI PUSH1 0x0 DUP1 REVERT JUMPDEST POP GAS CALL ISZERO DUP1 ISZERO PUSH2 0x8CD JUMPI RETURNDATASIZE PUSH1 0x0 DUP1 RETURNDATACOPY RETURNDATASIZE PUSH1 0x0 REVERT JUMPDEST POP POP POP POP PUSH1 0x40 MLOAD RETURNDATASIZE PUSH1 0x1F NOT PUSH1 0x1F DUP3 ADD AND DUP3 ADD DUP1 PUSH1 0x40 MSTORE POP DUP2 ADD SWAP1 PUSH2 0x8F1 SWAP2 SWAP1 PUSH2 0xD77 JUMP JUMPDEST PUSH2 0x8FA JUMPI PUSH1 0x0 DUP1 REVERT JUMPDEST POP PUSH1 0x3 SSTORE POP JUMP JUMPDEST PUSH1 0x2 SLOAD SWAP1 JUMP JUMPDEST DUP3 PUSH1 0x1 PUSH1 0x1 PUSH1 0xA0 SHL SUB DUP2 AND PUSH2 0x963 JUMPI PUSH1 0x40 DUP1 MLOAD PUSH3 0x461BCD PUSH1 0xE5 SHL DUP2 MSTORE PUSH1 0x20 PUSH1 0x4 DUP3 ADD MSTORE PUSH1 0x1E PUSH1 0x24 DUP3 ADD MSTORE PUSH32 0x5368617265643A206164647265737320696E70757420697320656D7074790000 PUSH1 0x44 DUP3 ADD MSTORE SWAP1 MLOAD SWAP1 DUP2 SWAP1 SUB PUSH1 0x64 ADD SWAP1 REVERT JUMPDEST DUP3 DUP1 PUSH2 0x9A4 JUMPI PUSH1 0x40 DUP1 MLOAD PUSH3 0x461BCD PUSH1 0xE5 SHL DUP2 MSTORE PUSH1 0x20 PUSH1 0x4 DUP3 ADD MSTORE PUSH1 0x1B PUSH1 0x24 DUP3 ADD MSTORE PUSH1 0x0 DUP1 MLOAD PUSH1 0x20 PUSH2 0x1064 DUP4 CODECOPY DUP2 MLOAD SWAP2 MSTORE PUSH1 0x44 DUP3 ADD MSTORE SWAP1 MLOAD SWAP1 DUP2 SWAP1 SUB PUSH1 0x64 ADD SWAP1 REVERT JUMPDEST DUP3 DUP1 PUSH2 0x9E5 JUMPI PUSH1 0x40 DUP1 MLOAD PUSH3 0x461BCD PUSH1 0xE5 SHL DUP2 MSTORE PUSH1 0x20 PUSH1 0x4 DUP3 ADD MSTORE PUSH1 0x1B PUSH1 0x24 DUP3 ADD MSTORE PUSH1 0x0 DUP1 MLOAD PUSH1 0x20 PUSH2 0x1064 DUP4 CODECOPY DUP2 MLOAD SWAP2 MSTORE PUSH1 0x44 DUP3 ADD MSTORE SWAP1 MLOAD SWAP1 DUP2 SWAP1 SUB PUSH1 0x64 ADD SWAP1 REVERT JUMPDEST PUSH1 0x4 DUP1 SLOAD PUSH1 0x1 SLOAD PUSH1 0x40 MLOAD PUSH4 0x70A08231 PUSH1 0xE0 SHL DUP2 MSTORE SWAP2 SWAP3 PUSH1 0x1 PUSH1 0x1 PUSH1 0xA0 SHL SUB SWAP1 SWAP2 AND SWAP2 PUSH4 0x70A08231 SWAP2 PUSH2 0xA19 SWAP2 ADDRESS SWAP2 ADD PUSH2 0xEBB JUMP JUMPDEST PUSH1 0x20 PUSH1 0x40 MLOAD DUP1 DUP4 SUB DUP2 DUP7 DUP1 EXTCODESIZE ISZERO DUP1 ISZERO PUSH2 0xA31 JUMPI PUSH1 0x0 DUP1 REVERT JUMPDEST POP GAS STATICCALL ISZERO DUP1 ISZERO PUSH2 0xA45 JUMPI RETURNDATASIZE PUSH1 0x0 DUP1 RETURNDATACOPY RETURNDATASIZE PUSH1 0x0 REVERT JUMPDEST POP POP POP POP PUSH1 0x40 MLOAD RETURNDATASIZE PUSH1 0x1F NOT PUSH1 0x1F DUP3 ADD AND DUP3 ADD DUP1 PUSH1 0x40 MSTORE POP DUP2 ADD SWAP1 PUSH2 0xA69 SWAP2 SWAP1 PUSH2 0xE73 JUMP JUMPDEST LT ISZERO PUSH2 0xA87 JUMPI PUSH1 0x40 MLOAD PUSH3 0x461BCD PUSH1 0xE5 SHL DUP2 MSTORE PUSH1 0x4 ADD PUSH2 0x240 SWAP1 PUSH2 0xF87 JUMP JUMPDEST PUSH1 0x0 DUP1 SLOAD PUSH1 0x40 DUP1 MLOAD DUP1 DUP3 ADD DUP3 MSTORE DUP4 DUP2 MSTORE PUSH1 0x20 DUP2 ADD SWAP4 SWAP1 SWAP4 MSTORE MLOAD PUSH1 0x1 PUSH1 0x1 PUSH1 0xA0 SHL SUB SWAP1 SWAP2 AND SWAP2 PUSH4 0xB965E14D SWAP2 PUSH4 0xA65F646F PUSH1 0xE0 SHL SWAP2 PUSH2 0xACD SWAP2 DUP12 SWAP1 DUP11 SWAP1 DUP13 SWAP1 PUSH1 0x24 ADD PUSH2 0xFF5 JUMP JUMPDEST PUSH1 0x40 DUP1 MLOAD PUSH1 0x1F NOT DUP2 DUP5 SUB ADD DUP2 MSTORE SWAP2 DUP2 MSTORE PUSH1 0x20 DUP3 ADD DUP1 MLOAD PUSH1 0x1 PUSH1 0x1 PUSH1 0xE0 SHL SUB AND PUSH1 0x1 PUSH1 0x1 PUSH1 0xE0 SHL SUB NOT SWAP1 SWAP5 AND SWAP4 SWAP1 SWAP4 OR DUP4 MSTORE SWAP1 MLOAD SWAP1 SWAP2 KECCAK256 PUSH1 0x0 SLOAD DUP3 MLOAD PUSH4 0x6ADCE01B PUSH1 0xE1 SHL DUP2 MSTORE SWAP3 MLOAD SWAP2 SWAP3 DUP13 SWAP3 PUSH1 0x1 PUSH1 0x1 PUSH1 0xA0 SHL SUB SWAP1 SWAP3 AND SWAP2 PUSH4 0xD5B9C036 SWAP2 PUSH1 0x4 DUP1 DUP3 ADD SWAP3 PUSH1 0x60 SWAP3 SWAP1 SWAP2 SWAP1 DUP3 SWAP1 SUB ADD DUP2 DUP7 DUP1 EXTCODESIZE ISZERO DUP1 ISZERO PUSH2 0xB4A JUMPI PUSH1 0x0 DUP1 REVERT JUMPDEST POP GAS STATICCALL ISZERO DUP1 ISZERO PUSH2 0xB5E JUMPI RETURNDATASIZE PUSH1 0x0 DUP1 RETURNDATACOPY RETURNDATASIZE PUSH1 0x0 REVERT JUMPDEST POP POP POP POP PUSH1 0x40 MLOAD RETURNDATASIZE PUSH1 0x1F NOT PUSH1 0x1F DUP3 ADD AND DUP3 ADD DUP1 PUSH1 0x40 MSTORE POP DUP2 ADD SWAP1 PUSH2 0xB82 SWAP2 SWAP1 PUSH2 0xD9E JUMP JUMPDEST PUSH1 0x40 MLOAD DUP5 PUSH4 0xFFFFFFFF AND PUSH1 0xE0 SHL DUP2 MSTORE PUSH1 0x4 ADD PUSH2 0xBA0 SWAP4 SWAP3 SWAP2 SWAP1 PUSH2 0xF0C JUMP JUMPDEST PUSH1 0x20 PUSH1 0x40 MLOAD DUP1 DUP4 SUB DUP2 PUSH1 0x0 DUP8 DUP1 EXTCODESIZE ISZERO DUP1 ISZERO PUSH2 0xBBA JUMPI PUSH1 0x0 DUP1 REVERT JUMPDEST POP GAS CALL ISZERO DUP1 ISZERO PUSH2 0xBCE JUMPI RETURNDATASIZE PUSH1 0x0 DUP1 RETURNDATACOPY RETURNDATASIZE PUSH1 0x0 REVERT JUMPDEST POP POP POP POP PUSH1 0x40 MLOAD RETURNDATASIZE PUSH1 0x1F NOT PUSH1 0x1F DUP3 ADD AND DUP3 ADD DUP1 PUSH1 0x40 MSTORE POP DUP2 ADD SWAP1 PUSH2 0xBF2 SWAP2 SWAP1 PUSH2 0xD77 JUMP JUMPDEST PUSH2 0xBFB JUMPI PUSH1 0x0 DUP1 REVERT JUMPDEST PUSH1 0x2 SLOAD TIMESTAMP GT ISZERO PUSH2 0xC7B JUMPI PUSH1 0x1 SLOAD PUSH1 0x3 SLOAD PUSH1 0x2 SLOAD PUSH1 0x40 MLOAD PUSH4 0x40C10F19 PUSH1 0xE0 SHL DUP2 MSTORE PUSH1 0x1 PUSH1 0x1 PUSH1 0xA0 SHL SUB SWAP1 SWAP4 AND SWAP3 PUSH4 0x40C10F19 SWAP3 PUSH2 0xC44 SWAP3 ADDRESS SWAP3 TIMESTAMP SWAP2 SWAP1 SWAP2 SUB SWAP1 SWAP2 MUL SWAP1 PUSH1 0x4 ADD PUSH2 0xEF3 JUMP JUMPDEST PUSH1 0x0 PUSH1 0x40 MLOAD DUP1 DUP4 SUB DUP2 PUSH1 0x0 DUP8 DUP1 EXTCODESIZE ISZERO DUP1 ISZERO PUSH2 0xC5E JUMPI PUSH1 0x0 DUP1 REVERT JUMPDEST POP GAS CALL ISZERO DUP1 ISZERO PUSH2 0xC72 JUMPI RETURNDATASIZE PUSH1 0x0 DUP1 RETURNDATACOPY RETURNDATASIZE PUSH1 0x0 REVERT JUMPDEST POP POP TIMESTAMP PUSH1 0x2 SSTORE POP POP JUMPDEST PUSH1 0x1 SLOAD PUSH1 0x40 MLOAD PUSH4 0xA9059CBB PUSH1 0xE0 SHL DUP2 MSTORE PUSH1 0x1 PUSH1 0x1 PUSH1 0xA0 SHL SUB SWAP1 SWAP2 AND SWAP1 PUSH4 0xA9059CBB SWAP1 PUSH2 0xCAD SWAP1 DUP10 SWAP1 DUP10 SWAP1 PUSH1 0x4 ADD PUSH2 0xEF3 JUMP JUMPDEST PUSH1 0x20 PUSH1 0x40 MLOAD DUP1 DUP4 SUB DUP2 PUSH1 0x0 DUP8 DUP1 EXTCODESIZE ISZERO DUP1 ISZERO PUSH2 0xCC7 JUMPI PUSH1 0x0 DUP1 REVERT JUMPDEST POP GAS CALL ISZERO DUP1 ISZERO PUSH2 0xCDB JUMPI RETURNDATASIZE PUSH1 0x0 DUP1 RETURNDATACOPY RETURNDATASIZE PUSH1 0x0 REVERT JUMPDEST POP POP POP POP PUSH1 0x40 MLOAD RETURNDATASIZE PUSH1 0x1F NOT PUSH1 0x1F DUP3 ADD AND DUP3 ADD DUP1 PUSH1 0x40 MSTORE POP DUP2 ADD SWAP1 PUSH2 0xCFF SWAP2 SWAP1 PUSH2 0xD77 JUMP JUMPDEST POP PUSH1 0x4 DUP1 SLOAD DUP7 SWAP1 SUB SWAP1 SSTORE PUSH1 0x40 MLOAD DUP5 SWAP1 PUSH32 0xFE67007F52A1BF967323B00FD406F9028A8E8A88AEC274E07A63B2FABACC64A7 SWAP1 PUSH2 0xD3B SWAP1 DUP9 SWAP1 PUSH2 0x1042 JUMP JUMPDEST PUSH1 0x40 MLOAD DUP1 SWAP2 SUB SWAP1 LOG2 POP POP POP POP POP POP POP JUMP JUMPDEST PUSH1 0x3 SLOAD SWAP1 JUMP JUMPDEST PUSH10 0x152D02C7E14AF6800000 SWAP1 JUMP JUMPDEST PUSH1 0x0 PUSH1 0x40 DUP3 DUP5 SUB SLT ISZERO PUSH2 0xD71 JUMPI DUP1 DUP2 REVERT JUMPDEST POP SWAP2 SWAP1 POP JUMP JUMPDEST PUSH1 0x0 PUSH1 0x20 DUP3 DUP5 SUB SLT ISZERO PUSH2 0xD88 JUMPI DUP1 DUP2 REVERT JUMPDEST DUP2 MLOAD DUP1 ISZERO ISZERO DUP2 EQ PUSH2 0xD97 JUMPI DUP2 DUP3 REVERT JUMPDEST SWAP4 SWAP3 POP POP POP JUMP JUMPDEST PUSH1 0x0 PUSH1 0x60 DUP3 DUP5 SUB SLT ISZERO PUSH2 0xDAF JUMPI DUP1 DUP2 REVERT JUMPDEST PUSH1 0x40 MLOAD PUSH1 0x60 DUP2 ADD DUP2 DUP2 LT PUSH8 0xFFFFFFFFFFFFFFFF DUP3 GT OR ISZERO PUSH2 0xDCC JUMPI INVALID JUMPDEST PUSH1 0x40 MSTORE DUP3 MLOAD DUP2 MSTORE PUSH1 0x20 DUP4 ADD MLOAD PUSH1 0xFF DUP2 AND DUP2 EQ PUSH2 0xDE6 JUMPI DUP3 DUP4 REVERT JUMPDEST PUSH1 0x20 DUP3 ADD MSTORE PUSH1 0x40 DUP4 ADD MLOAD PUSH2 0xDF9 DUP2 PUSH2 0x104B JUMP JUMPDEST PUSH1 0x40 DUP3 ADD MSTORE SWAP4 SWAP3 POP POP POP JUMP JUMPDEST PUSH1 0x0 DUP1 PUSH1 0x0 DUP1 PUSH1 0xA0 DUP6 DUP8 SUB SLT ISZERO PUSH2 0xE1A JUMPI DUP3 DUP4 REVERT JUMPDEST PUSH2 0xE24 DUP7 DUP7 PUSH2 0xD60 JUMP JUMPDEST SWAP4 POP PUSH1 0x40 DUP6 ADD CALLDATALOAD PUSH2 0xE34 DUP2 PUSH2 0x104B JUMP JUMPDEST SWAP4 SWAP7 SWAP4 SWAP6 POP POP POP POP PUSH1 0x60 DUP3 ADD CALLDATALOAD SWAP2 PUSH1 0x80 ADD CALLDATALOAD SWAP1 JUMP JUMPDEST PUSH1 0x0 DUP1 PUSH1 0x60 DUP4 DUP6 SUB SLT ISZERO PUSH2 0xE5B JUMPI DUP2 DUP3 REVERT JUMPDEST PUSH2 0xE65 DUP5 DUP5 PUSH2 0xD60 JUMP JUMPDEST SWAP5 PUSH1 0x40 SWAP4 SWAP1 SWAP4 ADD CALLDATALOAD SWAP4 POP POP POP JUMP JUMPDEST PUSH1 0x0 PUSH1 0x20 DUP3 DUP5 SUB SLT ISZERO PUSH2 0xE84 JUMPI DUP1 DUP2 REVERT JUMPDEST POP MLOAD SWAP2 SWAP1 POP JUMP JUMPDEST PUSH1 0x0 DUP1 PUSH1 0x40 DUP4 DUP6 SUB SLT ISZERO PUSH2 0xE9D JUMPI DUP2 DUP3 REVERT JUMPDEST POP POP DUP1 CALLDATALOAD SWAP3 PUSH1 0x20 SWAP1 SWAP2 ADD CALLDATALOAD SWAP2 POP JUMP JUMPDEST DUP1 MLOAD DUP3 MSTORE PUSH1 0x20 SWAP1 DUP2 ADD MLOAD SWAP2 ADD MSTORE JUMP JUMPDEST PUSH1 0x1 PUSH1 0x1 PUSH1 0xA0 SHL SUB SWAP2 SWAP1 SWAP2 AND DUP2 MSTORE PUSH1 0x20 ADD SWAP1 JUMP JUMPDEST PUSH1 0x1 PUSH1 0x1 PUSH1 0xA0 SHL SUB SWAP4 DUP5 AND DUP2 MSTORE SWAP2 SWAP1 SWAP3 AND PUSH1 0x20 DUP3 ADD MSTORE PUSH1 0x40 DUP2 ADD SWAP2 SWAP1 SWAP2 MSTORE PUSH1 0x60 ADD SWAP1 JUMP JUMPDEST PUSH1 0x1 PUSH1 0x1 PUSH1 0xA0 SHL SUB SWAP3 SWAP1 SWAP3 AND DUP3 MSTORE PUSH1 0x20 DUP3 ADD MSTORE PUSH1 0x40 ADD SWAP1 JUMP JUMPDEST SWAP3 DUP4 MSTORE DUP2 CALLDATALOAD PUSH1 0x20 DUP1 DUP6 ADD SWAP2 SWAP1 SWAP2 MSTORE SWAP2 DUP3 ADD CALLDATALOAD PUSH1 0x40 DUP1 DUP6 ADD SWAP2 SWAP1 SWAP2 MSTORE DUP2 MLOAD PUSH1 0x60 DUP6 ADD MSTORE SWAP2 DUP2 ADD MLOAD PUSH1 0xFF AND PUSH1 0x80 DUP5 ADD MSTORE ADD MLOAD PUSH1 0x1 PUSH1 0x1 PUSH1 0xA0 SHL SUB AND PUSH1 0xA0 DUP3 ADD MSTORE PUSH1 0xC0 ADD SWAP1 JUMP JUMPDEST PUSH1 0x20 DUP1 DUP3 MSTORE PUSH1 0x19 SWAP1 DUP3 ADD MSTORE PUSH32 0x5374616B654D616E3A207472616E73666572206661696C656400000000000000 PUSH1 0x40 DUP3 ADD MSTORE PUSH1 0x60 ADD SWAP1 JUMP JUMPDEST PUSH1 0x20 DUP1 DUP3 MSTORE PUSH1 0x1D SWAP1 DUP3 ADD MSTORE PUSH32 0x5374616B653A20736F6D657468696E6720736D656C6C73206669736879000000 PUSH1 0x40 DUP3 ADD MSTORE PUSH1 0x60 ADD SWAP1 JUMP JUMPDEST PUSH1 0x20 DUP1 DUP3 MSTORE PUSH1 0x1B SWAP1 DUP3 ADD MSTORE PUSH32 0x5374616B654D616E3A2061756374696F6E2068617320656E6465640000000000 PUSH1 0x40 DUP3 ADD MSTORE PUSH1 0x60 ADD SWAP1 JUMP JUMPDEST PUSH1 0xA0 DUP2 ADD PUSH2 0x1003 DUP3 DUP8 PUSH2 0xEAC JUMP JUMPDEST PUSH1 0x1 PUSH1 0x1 PUSH1 0xA0 SHL SUB SWAP5 SWAP1 SWAP5 AND PUSH1 0x40 DUP3 ADD MSTORE PUSH1 0x60 DUP2 ADD SWAP3 SWAP1 SWAP3 MSTORE PUSH1 0x80 SWAP1 SWAP2 ADD MSTORE SWAP2 SWAP1 POP JUMP JUMPDEST PUSH1 0x60 DUP2 ADD PUSH2 0x1035 DUP3 DUP6 PUSH2 0xEAC JUMP JUMPDEST DUP3 PUSH1 0x40 DUP4 ADD MSTORE SWAP4 SWAP3 POP POP POP JUMP JUMPDEST SWAP1 DUP2 MSTORE PUSH1 0x20 ADD SWAP1 JUMP JUMPDEST PUSH1 0x1 PUSH1 0x1 PUSH1 0xA0 SHL SUB DUP2 AND DUP2 EQ PUSH2 0x1060 JUMPI PUSH1 0x0 DUP1 REVERT JUMPDEST POP JUMP INVALID MSTORE8 PUSH9 0x617265643A2075696E PUSH21 0x20696E70757420697320656D7074790000000000A2 PUSH5 0x6970667358 0x22 SLT KECCAK256 0xC7 0xA8 0xE7 MOD JUMPDEST 0x2B 0xD5 BALANCE 0xBB SWAP5 0xDC PUSH18 0x32BE8B580483CCC48EBDC2C1696D7B63FB69 0x25 0xB4 PUSH5 0x736F6C6343 STOP SMOD MOD STOP CALLER ",
  "sha1": "d7090c1f2feebb12a5fbb176593cb7bd59619cfe",
  "source": "pragma solidity ^0.7.0;\npragma abicoder v2;\n\n\nimport \"./interfaces/IKeyManager.sol\";\nimport \"./abstract/Shared.sol\";\nimport \"./FLIP.sol\";\n\n\ncontract StakeManager is Shared {\n\n\n    /// @dev    The KeyManager used to checks sigs used in functions here\n    IKeyManager private _keyManager;\n    /// @dev    The FLIP token\n    FLIP private _FLIP;\n    /// @dev    The last time that claim was called, so we know how much to mint now\n    uint private _lastClaimTime;\n    /// @dev    Equates to 15% per year (not compounding)\n    uint private _emissionPerSec = 428082191780821917;\n    /// @dev    Used to make make sure contract is collateralised at all times\n    uint private _totalStaked;\n    /// @dev    The last block of an auction that can be used to stake (inclusive)\n    uint private _auctionEndBlock;\n\n    uint private constant _E_18 = 10**18;\n    // Pulled this number out my ass\n    uint private constant _MIN_STAKE = (10**5) * _E_18;\n\n\n    event AuctionStarted(uint indexed auctionEndBlock);\n    event Staked(uint indexed nodeID, uint amount);\n    event Unstaked(uint indexed nodeID, uint amount);\n\n\n    constructor(IKeyManager keyManager) {\n        _keyManager = keyManager;\n        _FLIP = new FLIP(\"ChainFlip\", \"FLIP\", 9 * (10**7) * _E_18);\n        _lastClaimTime = block.timestamp;\n    }\n\n\n    //////////////////////////////////////////////////////////////\n    //                                                          //\n    //                  State-changing functions                //\n    //                                                          //\n    //////////////////////////////////////////////////////////////\n\n    function startAuction(SigData calldata sigData, uint endBlock) external nzUint(endBlock) noFish() {\n        require(\n            _keyManager.isValidSig(\n                keccak256(\n                    abi.encodeWithSelector(\n                        this.startAuction.selector,\n                        SigData(0, 0),\n                        endBlock\n                    )\n                ),\n                sigData,\n                _keyManager.getAggregateKey()\n            )\n        );\n\n        _auctionEndBlock = endBlock;\n        emit AuctionStarted(_auctionEndBlock);\n    }\n\n    /**\n     * @notice          Stake some FLIP and attribute it to a nodeID\n     * @dev             Requires the staker to have called `approve` in FLIP\n     * @param amount    The amount of stake to be locked up\n     * @param nodeID    The nodeID of the staker\n     */\n    function stake(uint amount, uint nodeID) external nzUint(amount) nzUint(nodeID) noFish() {\n        require(block.number <= _auctionEndBlock, \"StakeMan: auction has ended\");\n\n        // Ensure FLIP is transferred and update _totalStaked\n        uint balBefore = _FLIP.balanceOf(address(this));\n        _FLIP.transferFrom(msg.sender, address(this), amount);\n        require(_FLIP.balanceOf(address(this)) == balBefore + amount, \"StakeMan: transfer failed\");\n        _totalStaked += amount;\n\n        emit Staked(nodeID, amount);\n    }\n\n    /**\n     * @notice  Claim back stake. If only losing an auction, the same amount initially staked\n     *          will be sent back. If losing an auction while being a validator,\n                the amount sent back = stake + rewards - penalties, as determined by the CFE\n     * @param sigData   The keccak256 hash over the msg (uint) (which is the calldata\n     *                  for this function with empty msgHash and sig) and sig over that hash\n     *                  from the current governance key (uint)\n     * @param staker    The staker who is to be sent FLIP\n     * @param amount    The amount of stake to be locked up\n     * @param nodeID    The nodeID of the staker\n     */\n    function claim(\n        SigData calldata sigData,\n        address staker,\n        uint amount,\n        uint nodeID\n    ) external nzAddr(staker) nzUint(amount) nzUint(nodeID) noFish() {\n        require(\n            _keyManager.isValidSig(\n                keccak256(\n                    abi.encodeWithSelector(\n                        this.claim.selector,\n                        SigData(0, 0),\n                        staker,\n                        nodeID,\n                        amount\n                    )\n                ),\n                sigData,\n                _keyManager.getAggregateKey()\n            )\n        );\n\n        // If time has elapsed since the last claim, printer go brrrr\n        if (block.timestamp > _lastClaimTime) {\n            _FLIP.mint(address(this), (block.timestamp - _lastClaimTime) * _emissionPerSec);\n            _lastClaimTime = block.timestamp;\n        }\n\n        // Send the tokens and update _totalStaked\n        _FLIP.transfer(staker, amount);\n        _totalStaked -= amount;\n\n        emit Unstaked(nodeID, amount);\n    }\n\n    function changeEmission(\n        SigData calldata sigData,\n        uint newEmissionPerSec\n    ) external nzUint(newEmissionPerSec) {\n        require(\n            _keyManager.isValidSig(\n                keccak256(\n                    abi.encodeWithSelector(\n                        this.changeEmission.selector,\n                        SigData(0, 0),\n                        newEmissionPerSec\n                    )\n                ),\n                sigData,\n                _keyManager.getAggregateKey()\n            )\n        );\n\n        _emissionPerSec = newEmissionPerSec;\n    }\n\n\n    //////////////////////////////////////////////////////////////\n    //                                                          //\n    //                  Non-state-changing functions            //\n    //                                                          //\n    //////////////////////////////////////////////////////////////\n\n    /**\n     * @notice  Get the KeyManager address/interface that's used to validate sigs\n     * @return  The KeyManager (IKeyManager)\n     */\n    function getKeyManager() external returns (IKeyManager) {\n        return _keyManager;\n    }\n\n    /**\n     * @notice  Get the FLIP token address\n     * @return  The address of FLIP\n     */\n    function getFLIPAddress() external returns (address) {\n        return address(_FLIP);\n    }\n\n    /**\n     * @notice  Get the last time that claim() was called, in unix time\n     * @return  The time of the last claim (uint)\n     */\n    function getLastClaimTime() external returns (uint) {\n        return _lastClaimTime;\n    }\n\n    /**\n     * @notice  Get the emission rate of FLIP in seconds\n     * @return  The rate of FLIP emission (uint)\n     */\n    function getEmissionPerSec() external returns (uint) {\n        return _emissionPerSec;\n    }\n\n    /**\n     * @notice  Get the total amount of FLIP currently staked by all stakers, used\n     *          to always ensure collateralisation\n     * @return  The current total of stake in this contract (uint)\n     */\n    function getTotalStaked() external returns (uint) {\n        return _totalStaked;\n    }\n\n    /**\n     * @notice  Get the end block of the latest auction. Auctions are valid\n     *          up until, and including, this block number\n     * @return  The block number that ends this auction, inclusive (uint)\n     */\n    function getAuctionEndBlock() external returns (uint) {\n        return _auctionEndBlock;\n    }\n\n    /**\n     * @notice  Get the minimum amount of stake that's required for a bid\n     *          attempt in the auction to be valid - used to prevent sybil attacks\n     * @return  The minimum stake (uint)\n     */\n    function getMinimumStake() external returns (uint) {\n        return _MIN_STAKE;\n    }\n\n\n    //////////////////////////////////////////////////////////////\n    //                                                          //\n    //                          Modifiers                       //\n    //                                                          //\n    //////////////////////////////////////////////////////////////\n\n    /// @notice Ensure the contract is always collateralised\n    modifier noFish() {\n        require(_FLIP.balanceOf(address(this)) >= _totalStaked, \"Stake: something smells fishy\");\n        _;\n    }\n}\n",
  "sourcePath": "contracts/StakeManager.sol",
  "type": "contract"
}